{
  "_format": "hh-sol-artifact-1",
  "contractName": "ContributorRewardsPool",
  "sourceName": "contracts/ContributorRewardsPool.sol",
  "abi": [
    {
      "inputs": [
        {
          "internalType": "address",
          "name": "_nftAddress",
          "type": "address"
        },
        {
          "internalType": "address",
          "name": "_tokenAddress",
          "type": "address"
        },
        {
          "internalType": "uint256",
          "name": "_baseTokenAmountPerClaim",
          "type": "uint256"
        }
      ],
      "stateMutability": "nonpayable",
      "type": "constructor"
    },
    {
      "inputs": [],
      "name": "baseTokenAmountPerClaim",
      "outputs": [
        {
          "internalType": "uint256",
          "name": "",
          "type": "uint256"
        }
      ],
      "stateMutability": "view",
      "type": "function"
    },
    {
      "inputs": [
        {
          "internalType": "uint256",
          "name": "tokenId",
          "type": "uint256"
        }
      ],
      "name": "calculateRewardAmountForNFT",
      "outputs": [
        {
          "internalType": "uint256",
          "name": "amount",
          "type": "uint256"
        }
      ],
      "stateMutability": "view",
      "type": "function"
    },
    {
      "inputs": [
        {
          "internalType": "uint256",
          "name": "tokenId",
          "type": "uint256"
        }
      ],
      "name": "claimReward",
      "outputs": [
        {
          "internalType": "uint256",
          "name": "amount",
          "type": "uint256"
        }
      ],
      "stateMutability": "nonpayable",
      "type": "function"
    },
    {
      "inputs": [
        {
          "internalType": "uint256",
          "name": "",
          "type": "uint256"
        }
      ],
      "name": "claimedTokenIds",
      "outputs": [
        {
          "internalType": "bool",
          "name": "",
          "type": "bool"
        }
      ],
      "stateMutability": "view",
      "type": "function"
    },
    {
      "inputs": [],
      "name": "nft",
      "outputs": [
        {
          "internalType": "contract IDualSpaceNFT",
          "name": "",
          "type": "address"
        }
      ],
      "stateMutability": "view",
      "type": "function"
    },
    {
      "inputs": [
        {
          "internalType": "uint256[]",
          "name": "tokenIds",
          "type": "uint256[]"
        }
      ],
      "name": "rewardAmountsCanClaimForNFTs",
      "outputs": [
        {
          "internalType": "uint256[]",
          "name": "",
          "type": "uint256[]"
        }
      ],
      "stateMutability": "view",
      "type": "function"
    },
    {
      "inputs": [],
      "name": "token",
      "outputs": [
        {
          "internalType": "contract IERC20",
          "name": "",
          "type": "address"
        }
      ],
      "stateMutability": "view",
      "type": "function"
    }
  ],
  "bytecode": "0x60806040523480156200001157600080fd5b50604051620014703803806200147083398181016040528101906200003791906200016d565b826000806101000a81548173ffffffffffffffffffffffffffffffffffffffff021916908373ffffffffffffffffffffffffffffffffffffffff16021790555081600160006101000a81548173ffffffffffffffffffffffffffffffffffffffff021916908373ffffffffffffffffffffffffffffffffffffffff16021790555080600281905550505050620001c9565b600080fd5b600073ffffffffffffffffffffffffffffffffffffffff82169050919050565b6000620000fa82620000cd565b9050919050565b6200010c81620000ed565b81146200011857600080fd5b50565b6000815190506200012c8162000101565b92915050565b6000819050919050565b620001478162000132565b81146200015357600080fd5b50565b60008151905062000167816200013c565b92915050565b600080600060608486031215620001895762000188620000c8565b5b600062000199868287016200011b565b9350506020620001ac868287016200011b565b9250506040620001bf8682870162000156565b9150509250925092565b61129780620001d96000396000f3fe608060405234801561001057600080fd5b506004361061007d5760003560e01c8063ae169a501161005b578063ae169a50146100ee578063e5a00f7c1461011e578063e88704351461014e578063fc0c546a1461017e5761007d565b80632713727a1461008257806347ccca02146100b25780637965cf5d146100d0575b600080fd5b61009c60048036038101906100979190610936565b61019c565b6040516100a9919061097e565b60405180910390f35b6100ba6101bc565b6040516100c79190610a18565b60405180910390f35b6100d86101e0565b6040516100e59190610a42565b60405180910390f35b61010860048036038101906101039190610936565b6101e6565b6040516101159190610a42565b60405180910390f35b61013860048036038101906101339190610bb6565b610531565b6040516101459190610cbd565b60405180910390f35b61016860048036038101906101639190610936565b61063b565b6040516101759190610a42565b60405180910390f35b61018661089c565b6040516101939190610d00565b60405180910390f35b60036020528060005260406000206000915054906101000a900460ff1681565b60008054906101000a900473ffffffffffffffffffffffffffffffffffffffff1681565b60025481565b60003373ffffffffffffffffffffffffffffffffffffffff1660008054906101000a900473ffffffffffffffffffffffffffffffffffffffff1673ffffffffffffffffffffffffffffffffffffffff16636352211e846040518263ffffffff1660e01b81526004016102589190610a42565b602060405180830381865afa158015610275573d6000803e3d6000fd5b505050506040513d601f19601f820116820180604052508101906102999190610d59565b73ffffffffffffffffffffffffffffffffffffffff16146102ef576040517f08c379a00000000000000000000000000000000000000000000000000000000081526004016102e690610de3565b60405180910390fd5b6102f8826108c2565b15610338576040517f08c379a000000000000000000000000000000000000000000000000000000000815260040161032f90610e75565b60405180910390fd5b6103418261063b565b905060016003600084815260200190815260200160002060006101000a81548160ff02191690831515021790555080600160009054906101000a900473ffffffffffffffffffffffffffffffffffffffff1673ffffffffffffffffffffffffffffffffffffffff166370a08231306040518263ffffffff1660e01b81526004016103cb9190610ea4565b602060405180830381865afa1580156103e8573d6000803e3d6000fd5b505050506040513d601f19601f8201168201806040525081019061040c9190610ed4565b101561044d576040517f08c379a000000000000000000000000000000000000000000000000000000000815260040161044490610f73565b60405180910390fd5b600160009054906101000a900473ffffffffffffffffffffffffffffffffffffffff1673ffffffffffffffffffffffffffffffffffffffff1663a9059cbb33836040518363ffffffff1660e01b81526004016104aa929190610f93565b6020604051808303816000875af11580156104c9573d6000803e3d6000fd5b505050506040513d601f19601f820116820180604052508101906104ed9190610fe8565b61052c576040517f08c379a000000000000000000000000000000000000000000000000000000000815260040161052390611061565b60405180910390fd5b919050565b60606000825167ffffffffffffffff8111156105505761054f610a73565b5b60405190808252806020026020018201604052801561057e5781602001602082028036833780820191505090505b50905060005b8351811015610631576105b08482815181106105a3576105a2611081565b5b60200260200101516108c2565b156105db5760008282815181106105ca576105c9611081565b5b60200260200101818152505061061e565b6105fe8482815181106105f1576105f0611081565b5b602002602001015161063b565b82828151811061061157610610611081565b5b6020026020010181815250505b8080610629906110df565b915050610584565b5080915050919050565b60008073ffffffffffffffffffffffffffffffffffffffff1660008054906101000a900473ffffffffffffffffffffffffffffffffffffffff1673ffffffffffffffffffffffffffffffffffffffff16636352211e846040518263ffffffff1660e01b81526004016106ad9190610a42565b602060405180830381865afa1580156106ca573d6000803e3d6000fd5b505050506040513d601f19601f820116820180604052508101906106ee9190610d59565b73ffffffffffffffffffffffffffffffffffffffff1603610744576040517f08c379a000000000000000000000000000000000000000000000000000000000815260040161073b90611199565b60405180910390fd5b60008054906101000a900473ffffffffffffffffffffffffffffffffffffffff1673ffffffffffffffffffffffffffffffffffffffff1663555ec78b836040518263ffffffff1660e01b815260040161079d9190610a42565b602060405180830381865afa1580156107ba573d6000803e3d6000fd5b505050506040513d601f19601f820116820180604052508101906107de91906111f2565b60ff1660008054906101000a900473ffffffffffffffffffffffffffffffffffffffff1673ffffffffffffffffffffffffffffffffffffffff1663129d355b846040518263ffffffff1660e01b815260040161083a9190610a42565b602060405180830381865afa158015610857573d6000803e3d6000fd5b505050506040513d601f19601f8201168201806040525081019061087b91906111f2565b60ff1660025461088b919061121f565b610895919061121f565b9050919050565b600160009054906101000a900473ffffffffffffffffffffffffffffffffffffffff1681565b60006003600083815260200190815260200160002060009054906101000a900460ff169050919050565b6000604051905090565b600080fd5b600080fd5b6000819050919050565b61091381610900565b811461091e57600080fd5b50565b6000813590506109308161090a565b92915050565b60006020828403121561094c5761094b6108f6565b5b600061095a84828501610921565b91505092915050565b60008115159050919050565b61097881610963565b82525050565b6000602082019050610993600083018461096f565b92915050565b600073ffffffffffffffffffffffffffffffffffffffff82169050919050565b6000819050919050565b60006109de6109d96109d484610999565b6109b9565b610999565b9050919050565b60006109f0826109c3565b9050919050565b6000610a02826109e5565b9050919050565b610a12816109f7565b82525050565b6000602082019050610a2d6000830184610a09565b92915050565b610a3c81610900565b82525050565b6000602082019050610a576000830184610a33565b92915050565b600080fd5b6000601f19601f8301169050919050565b7f4e487b7100000000000000000000000000000000000000000000000000000000600052604160045260246000fd5b610aab82610a62565b810181811067ffffffffffffffff82111715610aca57610ac9610a73565b5b80604052505050565b6000610add6108ec565b9050610ae98282610aa2565b919050565b600067ffffffffffffffff821115610b0957610b08610a73565b5b602082029050602081019050919050565b600080fd5b6000610b32610b2d84610aee565b610ad3565b90508083825260208201905060208402830185811115610b5557610b54610b1a565b5b835b81811015610b7e5780610b6a8882610921565b845260208401935050602081019050610b57565b5050509392505050565b600082601f830112610b9d57610b9c610a5d565b5b8135610bad848260208601610b1f565b91505092915050565b600060208284031215610bcc57610bcb6108f6565b5b600082013567ffffffffffffffff811115610bea57610be96108fb565b5b610bf684828501610b88565b91505092915050565b600081519050919050565b600082825260208201905092915050565b6000819050602082019050919050565b610c3481610900565b82525050565b6000610c468383610c2b565b60208301905092915050565b6000602082019050919050565b6000610c6a82610bff565b610c748185610c0a565b9350610c7f83610c1b565b8060005b83811015610cb0578151610c978882610c3a565b9750610ca283610c52565b925050600181019050610c83565b5085935050505092915050565b60006020820190508181036000830152610cd78184610c5f565b905092915050565b6000610cea826109e5565b9050919050565b610cfa81610cdf565b82525050565b6000602082019050610d156000830184610cf1565b92915050565b6000610d2682610999565b9050919050565b610d3681610d1b565b8114610d4157600080fd5b50565b600081519050610d5381610d2d565b92915050565b600060208284031215610d6f57610d6e6108f6565b5b6000610d7d84828501610d44565b91505092915050565b600082825260208201905092915050565b7f4e6f7420746865204e4654206f776e6572000000000000000000000000000000600082015250565b6000610dcd601183610d86565b9150610dd882610d97565b602082019050919050565b60006020820190508181036000830152610dfc81610dc0565b9050919050565b7f546f6b656e7320616c726561647920636c61696d656420666f7220746869732060008201527f4e46540000000000000000000000000000000000000000000000000000000000602082015250565b6000610e5f602383610d86565b9150610e6a82610e03565b604082019050919050565b60006020820190508181036000830152610e8e81610e52565b9050919050565b610e9e81610d1b565b82525050565b6000602082019050610eb96000830184610e95565b92915050565b600081519050610ece8161090a565b92915050565b600060208284031215610eea57610ee96108f6565b5b6000610ef884828501610ebf565b91505092915050565b7f496e73756666696369656e742062616c616e636520696e20746865207265776160008201527f72647320706f6f6c000000000000000000000000000000000000000000000000602082015250565b6000610f5d602883610d86565b9150610f6882610f01565b604082019050919050565b60006020820190508181036000830152610f8c81610f50565b9050919050565b6000604082019050610fa86000830185610e95565b610fb56020830184610a33565b9392505050565b610fc581610963565b8114610fd057600080fd5b50565b600081519050610fe281610fbc565b92915050565b600060208284031215610ffe57610ffd6108f6565b5b600061100c84828501610fd3565b91505092915050565b7f546f6b656e207472616e73666572206661696c65640000000000000000000000600082015250565b600061104b601583610d86565b915061105682611015565b602082019050919050565b6000602082019050818103600083015261107a8161103e565b9050919050565b7f4e487b7100000000000000000000000000000000000000000000000000000000600052603260045260246000fd5b7f4e487b7100000000000000000000000000000000000000000000000000000000600052601160045260246000fd5b60006110ea82610900565b91507fffffffffffffffffffffffffffffffffffffffffffffffffffffffffffffffff820361111c5761111b6110b0565b5b600182019050919050565b7f546f6b656e206973206e6f74206d696e74206f7220616c72656164792062757260008201527f6e74000000000000000000000000000000000000000000000000000000000000602082015250565b6000611183602283610d86565b915061118e82611127565b604082019050919050565b600060208201905081810360008301526111b281611176565b9050919050565b600060ff82169050919050565b6111cf816111b9565b81146111da57600080fd5b50565b6000815190506111ec816111c6565b92915050565b600060208284031215611208576112076108f6565b5b6000611216848285016111dd565b91505092915050565b600061122a82610900565b915061123583610900565b925082820261124381610900565b9150828204841483151761125a576112596110b0565b5b509291505056fea2646970667358221220df953a7c30078a1e20d8a32157c2955a28e76bf9baf147b487d6bc5890a8d04f64736f6c63430008140033",
  "linkReferences": {},
  "deployedLinkReferences": {}
}