{
  "abi": [
    {
      "anonymous": false,
      "inputs": [
        {
          "indexed": false,
          "internalType": "address",
          "name": "previousAdmin",
          "type": "address"
        },
        {
          "indexed": false,
          "internalType": "address",
          "name": "newAdmin",
          "type": "address"
        }
      ],
      "name": "AdminChanged",
      "type": "event"
    },
    {
      "anonymous": false,
      "inputs": [
        {
          "indexed": true,
          "internalType": "address",
          "name": "owner",
          "type": "address"
        },
        {
          "indexed": true,
          "internalType": "address",
          "name": "approved",
          "type": "address"
        },
        {
          "indexed": true,
          "internalType": "uint256",
          "name": "tokenId",
          "type": "uint256"
        }
      ],
      "name": "Approval",
      "type": "event"
    },
    {
      "anonymous": false,
      "inputs": [
        {
          "indexed": true,
          "internalType": "address",
          "name": "owner",
          "type": "address"
        },
        {
          "indexed": true,
          "internalType": "address",
          "name": "operator",
          "type": "address"
        },
        {
          "indexed": false,
          "internalType": "bool",
          "name": "approved",
          "type": "bool"
        }
      ],
      "name": "ApprovalForAll",
      "type": "event"
    },
    {
      "anonymous": false,
      "inputs": [
        {
          "indexed": false,
          "internalType": "uint256",
          "name": "startBlock",
          "type": "uint256"
        },
        {
          "indexed": false,
          "internalType": "uint128",
          "name": "batchNbr",
          "type": "uint128"
        },
        {
          "indexed": false,
          "internalType": "uint8",
          "name": "ratio",
          "type": "uint8"
        }
      ],
      "name": "BatchStart",
      "type": "event"
    },
    {
      "anonymous": false,
      "inputs": [
        {
          "indexed": true,
          "internalType": "address",
          "name": "beacon",
          "type": "address"
        }
      ],
      "name": "BeaconUpgraded",
      "type": "event"
    },
    {
      "anonymous": false,
      "inputs": [],
      "name": "EIP712DomainChanged",
      "type": "event"
    },
    {
      "anonymous": false,
      "inputs": [
        {
          "indexed": false,
          "internalType": "uint8",
          "name": "version",
          "type": "uint8"
        }
      ],
      "name": "Initialized",
      "type": "event"
    },
    {
      "anonymous": false,
      "inputs": [
        {
          "indexed": true,
          "internalType": "address",
          "name": "previousOwner",
          "type": "address"
        },
        {
          "indexed": true,
          "internalType": "address",
          "name": "newOwner",
          "type": "address"
        }
      ],
      "name": "OwnershipTransferred",
      "type": "event"
    },
    {
      "anonymous": false,
      "inputs": [
        {
          "indexed": true,
          "internalType": "address",
          "name": "from",
          "type": "address"
        },
        {
          "indexed": true,
          "internalType": "address",
          "name": "to",
          "type": "address"
        },
        {
          "indexed": true,
          "internalType": "uint256",
          "name": "tokenId",
          "type": "uint256"
        }
      ],
      "name": "Transfer",
      "type": "event"
    },
    {
      "anonymous": false,
      "inputs": [
        {
          "indexed": true,
          "internalType": "address",
          "name": "implementation",
          "type": "address"
        }
      ],
      "name": "Upgraded",
      "type": "event"
    },
    {
      "inputs": [
        {
          "internalType": "address",
          "name": "to",
          "type": "address"
        },
        {
          "internalType": "uint256",
          "name": "tokenId",
          "type": "uint256"
        }
      ],
      "name": "approve",
      "outputs": [],
      "stateMutability": "nonpayable",
      "type": "function"
    },
    {
      "inputs": [
        {
          "internalType": "address",
          "name": "owner",
          "type": "address"
        }
      ],
      "name": "balanceOf",
      "outputs": [
        {
          "internalType": "uint256",
          "name": "",
          "type": "uint256"
        }
      ],
      "stateMutability": "view",
      "type": "function"
    },
    {
      "inputs": [],
      "name": "baseURI",
      "outputs": [
        {
          "internalType": "string",
          "name": "",
          "type": "string"
        }
      ],
      "stateMutability": "view",
      "type": "function"
    },
    {
      "inputs": [
        {
          "internalType": "uint128",
          "name": "batchNbr",
          "type": "uint128"
        },
        {
          "internalType": "string[]",
          "name": "usernames",
          "type": "string[]"
        },
        {
          "internalType": "uint8[]",
          "name": "rarities",
          "type": "uint8[]"
        }
      ],
      "name": "batchAuthorizeMintPermission",
      "outputs": [],
      "stateMutability": "nonpayable",
      "type": "function"
    },
    {
      "inputs": [
        {
          "internalType": "uint128",
          "name": "batchNbr",
          "type": "uint128"
        },
        {
          "internalType": "string",
          "name": "username",
          "type": "string"
        }
      ],
      "name": "checkMintPermission",
      "outputs": [
        {
          "internalType": "uint8",
          "name": "",
          "type": "uint8"
        }
      ],
      "stateMutability": "view",
      "type": "function"
    },
    {
      "inputs": [
        {
          "internalType": "bytes20",
          "name": "evmSigner",
          "type": "bytes20"
        },
        {
          "internalType": "uint256",
          "name": "tokenId",
          "type": "uint256"
        },
        {
          "internalType": "bytes",
          "name": "signatureFromEvmSigner",
          "type": "bytes"
        }
      ],
      "name": "clearCoreOwner",
      "outputs": [],
      "stateMutability": "nonpayable",
      "type": "function"
    },
    {
      "inputs": [
        {
          "internalType": "uint256",
          "name": "tokenId",
          "type": "uint256"
        }
      ],
      "name": "clearEvmOwner",
      "outputs": [],
      "stateMutability": "nonpayable",
      "type": "function"
    },
    {
      "inputs": [
        {
          "internalType": "uint128",
          "name": "batchNbr",
          "type": "uint128"
        }
      ],
      "name": "clearMintSetting",
      "outputs": [],
      "stateMutability": "nonpayable",
      "type": "function"
    },
    {
      "inputs": [],
      "name": "eip712Domain",
      "outputs": [
        {
          "internalType": "bytes1",
          "name": "fields",
          "type": "bytes1"
        },
        {
          "internalType": "string",
          "name": "name",
          "type": "string"
        },
        {
          "internalType": "string",
          "name": "version",
          "type": "string"
        },
        {
          "internalType": "uint256",
          "name": "chainId",
          "type": "uint256"
        },
        {
          "internalType": "address",
          "name": "verifyingContract",
          "type": "address"
        },
        {
          "internalType": "bytes32",
          "name": "salt",
          "type": "bytes32"
        },
        {
          "internalType": "uint256[]",
          "name": "extensions",
          "type": "uint256[]"
        }
      ],
      "stateMutability": "view",
      "type": "function"
    },
    {
      "inputs": [
        {
          "internalType": "uint256",
          "name": "tokenId",
          "type": "uint256"
        }
      ],
      "name": "evmOwnerOf",
      "outputs": [
        {
          "internalType": "bytes20",
          "name": "",
          "type": "bytes20"
        }
      ],
      "stateMutability": "view",
      "type": "function"
    },
    {
      "inputs": [
        {
          "internalType": "uint256",
          "name": "tokenId",
          "type": "uint256"
        }
      ],
      "name": "getApproved",
      "outputs": [
        {
          "internalType": "address",
          "name": "",
          "type": "address"
        }
      ],
      "stateMutability": "view",
      "type": "function"
    },
    {
      "inputs": [
        {
          "internalType": "bytes20",
          "name": "evmAddress",
          "type": "bytes20"
        }
      ],
      "name": "getMetatransactionNonce",
      "outputs": [
        {
          "internalType": "uint256",
          "name": "",
          "type": "uint256"
        }
      ],
      "stateMutability": "view",
      "type": "function"
    },
    {
      "inputs": [
        {
          "internalType": "uint128",
          "name": "batchNbr",
          "type": "uint128"
        }
      ],
      "name": "getMintSettingExpiration",
      "outputs": [
        {
          "internalType": "uint256",
          "name": "",
          "type": "uint256"
        }
      ],
      "stateMutability": "view",
      "type": "function"
    },
    {
      "inputs": [
        {
          "internalType": "uint256",
          "name": "tokenId",
          "type": "uint256"
        }
      ],
      "name": "getPrivilegeExpiration",
      "outputs": [
        {
          "internalType": "uint256",
          "name": "exp",
          "type": "uint256"
        }
      ],
      "stateMutability": "view",
      "type": "function"
    },
    {
      "inputs": [
        {
          "internalType": "uint256",
          "name": "tokenId",
          "type": "uint256"
        }
      ],
      "name": "getTokenBatchRatio",
      "outputs": [
        {
          "internalType": "uint8",
          "name": "",
          "type": "uint8"
        }
      ],
      "stateMutability": "view",
      "type": "function"
    },
    {
      "inputs": [
        {
          "internalType": "uint256",
          "name": "tokenId",
          "type": "uint256"
        }
      ],
      "name": "getTokenRarity",
      "outputs": [
        {
          "internalType": "uint8",
          "name": "",
          "type": "uint8"
        }
      ],
      "stateMutability": "pure",
      "type": "function"
    },
    {
      "inputs": [
        {
          "internalType": "string",
          "name": "name_",
          "type": "string"
        },
        {
          "internalType": "string",
          "name": "symbol_",
          "type": "string"
        },
        {
          "internalType": "bytes20",
          "name": "evmContractAddress_",
          "type": "bytes20"
        },
        {
          "internalType": "address",
          "name": "crossSpaceCallAddress",
          "type": "address"
        },
        {
          "internalType": "uint256",
          "name": "eSpaceChainId",
          "type": "uint256"
        },
        {
          "internalType": "uint256",
          "name": "defaultOracleLife",
          "type": "uint256"
        }
      ],
      "name": "initialize",
      "outputs": [],
      "stateMutability": "nonpayable",
      "type": "function"
    },
    {
      "inputs": [
        {
          "internalType": "address",
          "name": "owner",
          "type": "address"
        },
        {
          "internalType": "address",
          "name": "operator",
          "type": "address"
        }
      ],
      "name": "isApprovedForAll",
      "outputs": [
        {
          "internalType": "bool",
          "name": "",
          "type": "bool"
        }
      ],
      "stateMutability": "view",
      "type": "function"
    },
    {
      "inputs": [
        {
          "internalType": "address",
          "name": "coreAddress",
          "type": "address"
        },
        {
          "internalType": "bytes20",
          "name": "rawEvmAddress",
          "type": "bytes20"
        }
      ],
      "name": "isOverwhelminglySameAddress",
      "outputs": [
        {
          "internalType": "bool",
          "name": "",
          "type": "bool"
        }
      ],
      "stateMutability": "pure",
      "type": "function"
    },
    {
      "inputs": [
        {
          "internalType": "uint256",
          "name": "tokenId",
          "type": "uint256"
        }
      ],
      "name": "isPrivilegeExpired",
      "outputs": [
        {
          "internalType": "bool",
          "name": "",
          "type": "bool"
        }
      ],
      "stateMutability": "view",
      "type": "function"
    },
    {
      "inputs": [
        {
          "internalType": "uint128",
          "name": "batchNbr",
          "type": "uint128"
        },
        {
          "internalType": "string",
          "name": "username",
          "type": "string"
        },
        {
          "internalType": "address",
          "name": "ownerCoreAddress",
          "type": "address"
        },
        {
          "internalType": "bytes20",
          "name": "ownerEvmAddress",
          "type": "bytes20"
        },
        {
          "components": [
            {
              "internalType": "uint8",
              "name": "v",
              "type": "uint8"
            },
            {
              "internalType": "bytes32",
              "name": "r",
              "type": "bytes32"
            },
            {
              "internalType": "bytes32",
              "name": "s",
              "type": "bytes32"
            }
          ],
          "internalType": "struct DualSpaceNFTCore.Signature",
          "name": "oracleSignature",
          "type": "tuple"
        }
      ],
      "name": "mint",
      "outputs": [
        {
          "internalType": "uint256",
          "name": "",
          "type": "uint256"
        }
      ],
      "stateMutability": "nonpayable",
      "type": "function"
    },
    {
      "inputs": [],
      "name": "name",
      "outputs": [
        {
          "internalType": "string",
          "name": "",
          "type": "string"
        }
      ],
      "stateMutability": "view",
      "type": "function"
    },
    {
      "inputs": [],
      "name": "owner",
      "outputs": [
        {
          "internalType": "address",
          "name": "",
          "type": "address"
        }
      ],
      "stateMutability": "view",
      "type": "function"
    },
    {
      "inputs": [
        {
          "internalType": "uint256",
          "name": "tokenId",
          "type": "uint256"
        }
      ],
      "name": "ownerOf",
      "outputs": [
        {
          "internalType": "address",
          "name": "",
          "type": "address"
        }
      ],
      "stateMutability": "view",
      "type": "function"
    },
    {
      "inputs": [],
      "name": "proxiableUUID",
      "outputs": [
        {
          "internalType": "bytes32",
          "name": "",
          "type": "bytes32"
        }
      ],
      "stateMutability": "view",
      "type": "function"
    },
    {
      "inputs": [],
      "name": "renounceOwnership",
      "outputs": [],
      "stateMutability": "nonpayable",
      "type": "function"
    },
    {
      "inputs": [
        {
          "internalType": "address",
          "name": "from",
          "type": "address"
        },
        {
          "internalType": "address",
          "name": "to",
          "type": "address"
        },
        {
          "internalType": "uint256",
          "name": "tokenId",
          "type": "uint256"
        }
      ],
      "name": "safeTransferFrom",
      "outputs": [],
      "stateMutability": "nonpayable",
      "type": "function"
    },
    {
      "inputs": [
        {
          "internalType": "address",
          "name": "from",
          "type": "address"
        },
        {
          "internalType": "address",
          "name": "to",
          "type": "address"
        },
        {
          "internalType": "uint256",
          "name": "tokenId",
          "type": "uint256"
        },
        {
          "internalType": "bytes",
          "name": "data",
          "type": "bytes"
        }
      ],
      "name": "safeTransferFrom",
      "outputs": [],
      "stateMutability": "nonpayable",
      "type": "function"
    },
    {
      "inputs": [
        {
          "internalType": "address",
          "name": "operator",
          "type": "address"
        },
        {
          "internalType": "bool",
          "name": "approved",
          "type": "bool"
        }
      ],
      "name": "setApprovalForAll",
      "outputs": [],
      "stateMutability": "nonpayable",
      "type": "function"
    },
    {
      "inputs": [
        {
          "internalType": "string",
          "name": "baseURI_",
          "type": "string"
        }
      ],
      "name": "setBaseURI",
      "outputs": [],
      "stateMutability": "nonpayable",
      "type": "function"
    },
    {
      "inputs": [
        {
          "internalType": "bytes20",
          "name": "evmSigner",
          "type": "bytes20"
        },
        {
          "internalType": "uint256",
          "name": "tokenId",
          "type": "uint256"
        },
        {
          "internalType": "address",
          "name": "newCoreOwner",
          "type": "address"
        },
        {
          "internalType": "bytes",
          "name": "signatureFromEvmSigner",
          "type": "bytes"
        }
      ],
      "name": "setCoreOwner",
      "outputs": [],
      "stateMutability": "nonpayable",
      "type": "function"
    },
    {
      "inputs": [
        {
          "internalType": "uint256",
          "name": "tokenId",
          "type": "uint256"
        },
        {
          "internalType": "bytes20",
          "name": "ownerEvmAddress",
          "type": "bytes20"
        }
      ],
      "name": "setEvmOwner",
      "outputs": [],
      "stateMutability": "nonpayable",
      "type": "function"
    },
    {
      "inputs": [
        {
          "internalType": "uint128",
          "name": "batchNbr",
          "type": "uint128"
        },
        {
          "internalType": "address",
          "name": "oracleSigner",
          "type": "address"
        },
        {
          "internalType": "address",
          "name": "authorizer",
          "type": "address"
        },
        {
          "internalType": "uint8",
          "name": "ratio",
          "type": "uint8"
        }
      ],
      "name": "startBatch",
      "outputs": [],
      "stateMutability": "nonpayable",
      "type": "function"
    },
    {
      "inputs": [
        {
          "internalType": "bytes4",
          "name": "interfaceId",
          "type": "bytes4"
        }
      ],
      "name": "supportsInterface",
      "outputs": [
        {
          "internalType": "bool",
          "name": "",
          "type": "bool"
        }
      ],
      "stateMutability": "view",
      "type": "function"
    },
    {
      "inputs": [],
      "name": "symbol",
      "outputs": [
        {
          "internalType": "string",
          "name": "",
          "type": "string"
        }
      ],
      "stateMutability": "view",
      "type": "function"
    },
    {
      "inputs": [
        {
          "internalType": "uint256",
          "name": "tokenId",
          "type": "uint256"
        }
      ],
      "name": "tokenURI",
      "outputs": [
        {
          "internalType": "string",
          "name": "",
          "type": "string"
        }
      ],
      "stateMutability": "view",
      "type": "function"
    },
    {
      "inputs": [
        {
          "internalType": "address",
          "name": "from",
          "type": "address"
        },
        {
          "internalType": "address",
          "name": "to",
          "type": "address"
        },
        {
          "internalType": "uint256",
          "name": "tokenId",
          "type": "uint256"
        }
      ],
      "name": "transferFrom",
      "outputs": [],
      "stateMutability": "nonpayable",
      "type": "function"
    },
    {
      "inputs": [
        {
          "internalType": "address",
          "name": "newOwner",
          "type": "address"
        }
      ],
      "name": "transferOwnership",
      "outputs": [],
      "stateMutability": "nonpayable",
      "type": "function"
    },
    {
      "inputs": [
        {
          "internalType": "bytes20",
          "name": "newImplementation",
          "type": "bytes20"
        }
      ],
      "name": "upgradeEvmContractTo",
      "outputs": [],
      "stateMutability": "nonpayable",
      "type": "function"
    },
    {
      "inputs": [
        {
          "internalType": "address",
          "name": "newImplementation",
          "type": "address"
        }
      ],
      "name": "upgradeTo",
      "outputs": [],
      "stateMutability": "nonpayable",
      "type": "function"
    },
    {
      "inputs": [
        {
          "internalType": "address",
          "name": "newImplementation",
          "type": "address"
        },
        {
          "internalType": "bytes",
          "name": "data",
          "type": "bytes"
        }
      ],
      "name": "upgradeToAndCall",
      "outputs": [],
      "stateMutability": "payable",
      "type": "function"
    }
  ],
  "bytecode": "60a06040523060805234801561001457600080fd5b506080516146b761004c6000396000818161113601528181611176015281816115230152818161156301526115f601526146b76000f3fe6080604052600436106102465760003560e01c806370a0823111610139578063b88d4fde116100b6578063e985e9c51161007a578063e985e9c51461070e578063eb2758d914610757578063f2fde38b14610777578063f5cd083914610797578063f72af25b146107b7578063f8e6d10f146107d757600080fd5b8063b88d4fde1461065c578063c87b56dd1461067c578063d2d512151461069c578063e851e7ec146106bc578063e8a6ef3b146106ee57600080fd5b80638da5cb5b116100fd5780638da5cb5b146105af578063911a7f80146105cd57806395d89b4114610607578063a22cb4651461061c578063a636db7b1461063c57600080fd5b806370a08231146104f9578063715018a6146105195780638110988a1461052e57806384b0196e1461056757806387def33c1461058f57600080fd5b80633a0c1748116101c757806352d1902d1161018b57806352d1902d1461046f578063555ec78b1461048457806355f804b3146104a45780636352211e146104c45780636c0360eb146104e457600080fd5b80633a0c1748146103dc5780633d490db0146103fc57806342842e0e1461041c5780634dd72f051461043c5780634f1ef2861461045c57600080fd5b806321b5e52f1161020e57806321b5e52f1461032e57806323b872dd1461034e57806327f3194e1461036e578063294d584c1461038e5780633659cfe6146103bc57600080fd5b806301ffc9a71461024b57806306fdde0314610280578063081812fc146102a2578063095ea7b3146102da578063129d355b146102fc575b600080fd5b34801561025757600080fd5b5061026b610266366004613851565b61080f565b60405190151581526020015b60405180910390f35b34801561028c57600080fd5b50610295610861565b60405161027791906138be565b3480156102ae57600080fd5b506102c26102bd3660046138d1565b6108f3565b6040516001600160a01b039091168152602001610277565b3480156102e657600080fd5b506102fa6102f5366004613906565b61091a565b005b34801561030857600080fd5b5061031c6103173660046138d1565b610a34565b60405160ff9091168152602001610277565b34801561033a57600080fd5b5061026b6103493660046138d1565b610af3565b34801561035a57600080fd5b506102fa610369366004613930565b610b06565b34801561037a57600080fd5b506102fa610389366004613a47565b610b37565b34801561039a57600080fd5b506103ae6103a9366004613ad6565b610bd2565b604051908152602001610277565b3480156103c857600080fd5b506102fa6103d7366004613ba0565b61112c565b3480156103e857600080fd5b506102fa6103f7366004613bbb565b61120b565b34801561040857600080fd5b5061031c610417366004613c51565b611386565b34801561042857600080fd5b506102fa610437366004613930565b6113dd565b34801561044857600080fd5b506103ae6104573660046138d1565b6114a8565b6102fa61046a366004613c9e565b611519565b34801561047b57600080fd5b506103ae6115e9565b34801561049057600080fd5b5061031c61049f3660046138d1565b61169c565b3480156104b057600080fd5b506102fa6104bf366004613cba565b6116dc565b3480156104d057600080fd5b506102c26104df3660046138d1565b6117b2565b3480156104f057600080fd5b50610295611812565b34801561050557600080fd5b506103ae610514366004613ba0565b6118a1565b34801561052557600080fd5b506102fa611927565b34801561053a57600080fd5b5061054e6105493660046138d1565b61193b565b6040516001600160601b03199091168152602001610277565b34801561057357600080fd5b5061057c611a0d565b6040516102779796959493929190613cee565b34801561059b57600080fd5b506102fa6105aa366004613e14565b611ba5565b3480156105bb57600080fd5b5060fb546001600160a01b03166102c2565b3480156105d957600080fd5b506103ae6105e8366004613ef9565b6001600160801b03166000908152610138602052604090206002015490565b34801561061357600080fd5b50610295611ced565b34801561062857600080fd5b506102fa610637366004613f14565b611cfc565b34801561064857600080fd5b506102fa610657366004613f50565b611d07565b34801561066857600080fd5b506102fa610677366004613f7c565b611d7b565b34801561068857600080fd5b506102956106973660046138d1565b611dad565b3480156106a857600080fd5b506102fa6106b73660046138d1565b611e1f565b3480156106c857600080fd5b5061026b6106d7366004613fcb565b606081901c821860016001609c1b03161592915050565b3480156106fa57600080fd5b506102fa610709366004613ef9565b611e9b565b34801561071a57600080fd5b5061026b610729366004613ff5565b6001600160a01b039182166000908152606a6020908152604080832093909416825291909152205460ff1690565b34801561076357600080fd5b506102fa61077236600461401f565b611f5e565b34801561078357600080fd5b506102fa610792366004613ba0565b611f6a565b3480156107a357600080fd5b506102fa6107b236600461406b565b611fe0565b3480156107c357600080fd5b506102fa6107d23660046140bf565b6121c8565b3480156107e357600080fd5b506103ae6107f23660046140bf565b6001600160601b0319166000908152610134602052604090205490565b60006001600160e01b031982166380ac58cd60e01b148061084057506001600160e01b03198216635b5e139f60e01b145b8061085b57506301ffc9a760e01b6001600160e01b03198316145b92915050565b606060658054610870906140da565b80601f016020809104026020016040519081016040528092919081815260200182805461089c906140da565b80156108e95780601f106108be576101008083540402835291602001916108e9565b820191906000526020600020905b8154815290600101906020018083116108cc57829003601f168201915b5050505050905090565b60006108fe82612247565b506000908152606960205260409020546001600160a01b031690565b6000610925826117b2565b9050806001600160a01b0316836001600160a01b0316036109975760405162461bcd60e51b815260206004820152602160248201527f4552433732313a20617070726f76616c20746f2063757272656e74206f776e656044820152603960f91b60648201526084015b60405180910390fd5b336001600160a01b03821614806109b357506109b38133610729565b610a255760405162461bcd60e51b815260206004820152603d60248201527f4552433732313a20617070726f76652063616c6c6572206973206e6f7420746f60448201527f6b656e206f776e6572206f7220617070726f76656420666f7220616c6c000000606482015260840161098e565b610a2f83836122a6565b505050565b610136546101355460408051602480820186905282518083039091018152604490910182526020810180516001600160e01b031663129d355b60e01b17905290516330b4ef7d60e01b81526000936001600160a01b0316926330b4ef7d92610aa59260609290921b91600401614114565b600060405180830381865afa158015610ac2573d6000803e3d6000fd5b505050506040513d6000823e601f3d908101601f19168201604052610aea919081019061413c565b61085b906141b2565b6000610afe826114a8565b431192915050565b610b103382612314565b610b2c5760405162461bcd60e51b815260040161098e906141d6565b610a2f838383612392565b610b4381858585612566565b50610b4d8361193b565b6001600160601b0319858116911614610bb95760405162461bcd60e51b815260206004820152602860248201527f646f206e6f742068617665207065726d697373696f6e20746f2073657420636f60448201526739329037bbb732b960c11b606482015260840161098e565b610bcc610bc5846117b2565b8385612392565b50505050565b6001600160801b038516600090815261013860205260408120600201544310610c495760405162461bcd60e51b815260206004820152602360248201527f6e6f20617661696c61626c65206d696e74206f7261636c652061742070726573604482015262195b9d60ea1b606482015260840161098e565b600085604051602001610c5c9190614223565b60408051601f1981840301815291815281516020928301206001600160801b038a16600090815261013984528281208282529093529082205490925060ff1690819003610ce35760405162461bcd60e51b81526020600482015260156024820152741b9bc81c195c9b5a5cdcda5bdb881d1bc81b5a5b9d605a1b604482015260640161098e565b6001600160801b0388166000818152610139602090815260408083208684528252808320805460ff191690559282526101388152908290205491516fffffffffffffffffffffffffffffffff1960808c901b1691810191909152603081018490526001600160601b0319606089901b81166050830152871660648201526001600160a01b039091169060019060780160408051601f19818403018152828252805160209182012089518a8301518b850151600087529386018086529290925260ff16928401929092526060830191909152608082015260a0016020604051602081039080840390855afa158015610dde573d6000803e3d6000fd5b505050602060405103516001600160a01b031614610e485760405162461bcd60e51b815260206004820152602160248201527f73686f756c64206265207369676e6564206279206f7261636c65207369676e656044820152603960f91b606482015260840161098e565b6001600160801b038816600090815261013a60205260408120805460019290610e7690849061ffff16614255565b82546101009290920a61ffff8181021990931691831602179091556001600160801b038a16600090815261013a6020526040812054909250610ebc918b918591166126a6565b90506001600160a01b038716610ed0573096505b6001600160601b03198616610ee9576101355460601b95505b6001600160a01b03871630148015610f1457506101355460601b6001600160601b0319908116908716145b15610f745760405162461bcd60e51b815260206004820152602a60248201527f63616e6e6f7420636c65617220626f7468207370616365206f776e6572207768604482015269656e206d696e74696e6760b01b606482015260840161098e565b306001600160a01b0388160361104957610136546101355460405160248101849052600160448201526001600160a01b039092169163bea05ee39160601b9060640160408051601f198184030181529181526020820180516001600160e01b03166306da657960e21b1790525160e084901b6001600160e01b0319168152611000929190600401614114565b6000604051808303816000875af115801561101f573d6000803e3d6000fd5b505050506040513d6000823e601f3d908101601f19168201604052611047919081019061413c565b505b61013654610135546040516001600160601b031989166024820152604481018490526001600160a01b039092169163bea05ee39160601b9060640160408051601f198184030181529181526020820180516001600160e01b031663e7e75aa960e01b1790525160e084901b6001600160e01b03191681526110ce929190600401614114565b6000604051808303816000875af11580156110ed573d6000803e3d6000fd5b505050506040513d6000823e601f3d908101601f19168201604052611115919081019061413c565b5061112087826126e6565b98975050505050505050565b6001600160a01b037f00000000000000000000000000000000000000000000000000000000000000001630036111745760405162461bcd60e51b815260040161098e90614277565b7f00000000000000000000000000000000000000000000000000000000000000006001600160a01b03166111bd60008051602061463b833981519152546001600160a01b031690565b6001600160a01b0316146111e35760405162461bcd60e51b815260040161098e906142c3565b6111ec81612871565b6040805160008082526020820190925261120891839190612879565b50565b600054610100900460ff161580801561122b5750600054600160ff909116105b806112455750303b158015611245575060005460ff166001145b6112a85760405162461bcd60e51b815260206004820152602e60248201527f496e697469616c697a61626c653a20636f6e747261637420697320616c72656160448201526d191e481a5b9a5d1a585b1a5e995960921b606482015260840161098e565b6000805460ff1916600117905580156112cb576000805461ff0019166101001790555b6112d587876129e4565b6112fa8760405180604001604052806002815260200161763160f01b81525085612a15565b611302612a47565b61013580546001600160a01b0319908116606088901c1790915561013680549091166001600160a01b038616179055610137829055801561137d576000805461ff0019169055604051600181527f7f26b83ff96e1f2b6a682f133852f6798a09c465da95921460cefb38474024989060200160405180910390a15b50505050505050565b6000808260405160200161139a9190614223565b60408051601f1981840301815291815281516020928301206001600160801b03871660009081526101398452828120918152925290205460ff1691505092915050565b6001600160a01b038216301461149d576113f681612a76565b61149d5760405162461bcd60e51b815260206004820152606660248201527f5468697320746f6b656e206973206e6f74207472616e7366657261626c65206260448201527f656361757365206974732065766d207370616365206f776e657220697320736560648201527f742e20436c6561722065766d207370616365206f776e657220616e64207472796084820152651030b3b0b4b760d11b60a482015260c40161098e565b610a2f838383612a9f565b610136546101355460408051602480820186905282518083039091018152604490910182526020810180516001600160e01b0316634dd72f0560e01b17905290516330b4ef7d60e01b81526000936001600160a01b0316926330b4ef7d92610aa59260609290921b91600401614114565b6001600160a01b037f00000000000000000000000000000000000000000000000000000000000000001630036115615760405162461bcd60e51b815260040161098e90614277565b7f00000000000000000000000000000000000000000000000000000000000000006001600160a01b03166115aa60008051602061463b833981519152546001600160a01b031690565b6001600160a01b0316146115d05760405162461bcd60e51b815260040161098e906142c3565b6115d982612871565b6115e582826001612879565b5050565b6000306001600160a01b037f000000000000000000000000000000000000000000000000000000000000000016146116895760405162461bcd60e51b815260206004820152603860248201527f555550535570677261646561626c653a206d757374206e6f742062652063616c60448201527f6c6564207468726f7567682064656c656761746563616c6c0000000000000000606482015260840161098e565b5060008051602061463b83398151915290565b6000806116ac620f42408461430f565b905060006127106116c083620f4240614331565b6116ca9086614348565b6116d4919061430f565b949350505050565b6116e4612aba565b61013b6116f182826143a9565b5061013654610135546040516001600160a01b039092169163bea05ee39160601b906117219085906024016138be565b60408051601f198184030181529181526020820180516001600160e01b03166355f804b360e01b1790525160e084901b6001600160e01b031916815261176b929190600401614114565b6000604051808303816000875af115801561178a573d6000803e3d6000fd5b505050506040513d6000823e601f3d908101601f191682016040526115e5919081019061413c565b6000818152606760205260408120546001600160a01b03168061085b5760405162461bcd60e51b8152602060048201526018602482015277115490cdcc8c4e881a5b9d985b1a59081d1bdad95b88125160421b604482015260640161098e565b61013b8054611820906140da565b80601f016020809104026020016040519081016040528092919081815260200182805461184c906140da565b80156118995780601f1061186e57610100808354040283529160200191611899565b820191906000526020600020905b81548152906001019060200180831161187c57829003601f168201915b505050505081565b60006001600160a01b03821661190b5760405162461bcd60e51b815260206004820152602960248201527f4552433732313a2061646472657373207a65726f206973206e6f7420612076616044820152683634b21037bbb732b960b91b606482015260840161098e565b506001600160a01b031660009081526068602052604090205490565b61192f612aba565b6119396000612b14565b565b61013654610135546040516024810184905260009283926001600160a01b03909116916330b4ef7d9160601b9060440160408051601f198184030181529181526020820180516001600160e01b03166331a9108f60e11b1790525160e084901b6001600160e01b03191681526119b5929190600401614114565b600060405180830381865afa1580156119d2573d6000803e3d6000fd5b505050506040513d6000823e601f3d908101601f191682016040526119fa919081019061413c565b611a03906141b2565b60601b9392505050565b60006060806000806000606061013261013361012e54306000801b60006001600160401b03811115611a4157611a41613984565b604051908082528060200260200182016040528015611a6a578160200160208202803683370190505b50600f60f81b959493929190858054611a82906140da565b80601f0160208091040260200160405190810160405280929190818152602001828054611aae906140da565b8015611afb5780601f10611ad057610100808354040283529160200191611afb565b820191906000526020600020905b815481529060010190602001808311611ade57829003601f168201915b50505050509550848054611b0e906140da565b80601f0160208091040260200160405190810160405280929190818152602001828054611b3a906140da565b8015611b875780601f10611b5c57610100808354040283529160200191611b87565b820191906000526020600020905b815481529060010190602001808311611b6a57829003601f168201915b50505050509450965096509650965096509650965090919293949596565b8051825114611c0e5760405162461bcd60e51b815260206004820152602f60248201527f757365726e616d6520616e6420726172697279206172726179206d757374206860448201526e0c2ecca40e6c2daca40d8cadccee8d608b1b606482015260840161098e565b60fb546001600160a01b03163314611c9257611c2a3384612b66565b611c925760405162461bcd60e51b815260206004820152603360248201527f6d73672073656e646572206973206e6f7420617574686f72697a656420746f2060448201527239b2ba1036b4b73a103832b936b4b9b9b4b7b760691b606482015260840161098e565b60005b8251811015610bcc57611cdb84848381518110611cb457611cb4614468565b6020026020010151848481518110611cce57611cce614468565b6020026020010151612bbc565b80611ce58161447e565b915050611c95565b606060668054610870906140da565b6115e5338383612c20565b81611d11816117b2565b6001600160a01b0316336001600160a01b031614611d715760405162461bcd60e51b815260206004820152601e60248201527f63616c6c6572206973206e6f7420636f726520746f6b656e206f776e65720000604482015260640161098e565b610a2f8383612cee565b611d853383612314565b611da15760405162461bcd60e51b815260040161098e906141d6565b610bcc84848484612dba565b6060611db882612247565b6000611dc2612ded565b90506000815111611de25760405180602001604052806000815250611e18565b80611df7611df26127108661430f565b612dfd565b604051602001611e08929190614497565b6040516020818303038152906040525b9392505050565b80611e29816117b2565b6001600160a01b0316336001600160a01b031614611e895760405162461bcd60e51b815260206004820152601e60248201527f63616c6c6572206973206e6f7420636f726520746f6b656e206f776e65720000604482015260640161098e565b610135546115e590839060601b612cee565b610137546001600160801b038216600090815261013860205260409020600201544391611ec7916144c6565b10611f255760405162461bcd60e51b815260206004820152602860248201527f6d696e742073657474696e67206e6f74206578706972656420666f7220656e6f6044820152677567682074696d6560c01b606482015260840161098e565b6001600160801b031660009081526101386020526040812080546001600160a01b03199081168255600182018054909116905560020155565b610a2f83833084610b37565b611f72612aba565b6001600160a01b038116611fd75760405162461bcd60e51b815260206004820152602660248201527f4f776e61626c653a206e6577206f776e657220697320746865207a65726f206160448201526564647265737360d01b606482015260840161098e565b61120881612b14565b611fe8612aba565b6305f5e0ff846001600160801b0316106120385760405162461bcd60e51b815260206004820152601160248201527034b73b30b634b2103130ba31b41037313960791b604482015260640161098e565b6001600160801b03841660009081526101386020526040902080546001600160a01b038086166001600160a01b031992831617835560019092018054928516929091169190911790556101375461208f90436144c6565b6001600160801b03851660008181526101386020526040908190206002019290925561013654610135549251602481019290925260ff841660448301526001600160a01b03169163bea05ee39160609190911b9060640160408051601f198184030181529181526020820180516001600160e01b03166334959a2560e11b1790525160e084901b6001600160e01b0319168152612130929190600401614114565b6000604051808303816000875af115801561214f573d6000803e3d6000fd5b505050506040513d6000823e601f3d908101601f19168201604052612177919081019061413c565b50604080514381526001600160801b038616602082015260ff83168183015290517fe1a8324d5d6991eac78ec12a728b17f656563de76ae56c7b54488a29d2de672d9181900360600190a150505050565b6121d0612aba565b6101365461013554604051606084811c60248301526001600160a01b039093169263bea05ee392901b9060440160408051601f198184030181529181526020820180516001600160e01b0316631b2ce7f360e11b1790525160e084901b6001600160e01b031916815261176b929190600401614114565b6000818152606760205260409020546001600160a01b03166112085760405162461bcd60e51b8152602060048201526018602482015277115490cdcc8c4e881a5b9d985b1a59081d1bdad95b88125160421b604482015260640161098e565b600081815260696020526040902080546001600160a01b0319166001600160a01b03841690811790915581906122db826117b2565b6001600160a01b03167f8c5be1e5ebec7d5bd14f71427d1e84f3dd0314c0f7b2291e5b200ac8c7c3b92560405160405180910390a45050565b600080612320836117b2565b9050806001600160a01b0316846001600160a01b0316148061236757506001600160a01b038082166000908152606a602090815260408083209388168352929052205460ff165b806116d45750836001600160a01b0316612380846108f3565b6001600160a01b031614949350505050565b6001600160a01b038316301480156123bc5750816001600160a01b0316836001600160a01b031614155b1561248657610136546101355460405160248101849052600060448201526001600160a01b039092169163bea05ee39160601b9060640160408051601f198184030181529181526020820180516001600160e01b03166306da657960e21b1790525160e084901b6001600160e01b031916815261243d929190600401614114565b6000604051808303816000875af115801561245c573d6000803e3d6000fd5b505050506040513d6000823e601f3d908101601f19168201604052612484919081019061413c565b505b306001600160a01b0383160361255b57610136546101355460405160248101849052600160448201526001600160a01b039092169163bea05ee39160601b9060640160408051601f198184030181529181526020820180516001600160e01b03166306da657960e21b1790525160e084901b6001600160e01b0319168152612512929190600401614114565b6000604051808303816000875af1158015612531573d6000803e3d6000fd5b505050506040513d6000823e601f3d908101601f19168201604052612559919081019061413c565b505b610a2f838383612e8f565b6000806125f17fa69d05e2e56fa789517da84e6c668025f30cb4e7abc1973420e2b8b0b33440d66125ae876001600160601b0319166000908152610134602052604090205490565b604080516020810193909352820152606081018690526001600160a01b038516608082015260a00160405160208183030381529060405280519060200120612ff3565b905060006125ff8288613020565b905060016001609c1b03606087901c821816156126695760405162461bcd60e51b815260206004820152602260248201527f7369676e617475726520646f6573206e6f74206d617463682065766d5369676e60448201526132b960f11b606482015260840161098e565b6001600160601b031986166000908152610134602052604081208054600192906126949084906144c6565b90915550600198975050505050505050565b600061ffff82166126bc60ff8516612710614331565b6126d26001600160801b038716620f4240614331565b6126dc91906144c6565b6116d491906144c6565b6001600160a01b03821661273c5760405162461bcd60e51b815260206004820181905260248201527f4552433732313a206d696e7420746f20746865207a65726f2061646472657373604482015260640161098e565b6000818152606760205260409020546001600160a01b0316156127a15760405162461bcd60e51b815260206004820152601c60248201527f4552433732313a20746f6b656e20616c7265616479206d696e74656400000000604482015260640161098e565b6000818152606760205260409020546001600160a01b0316156128065760405162461bcd60e51b815260206004820152601c60248201527f4552433732313a20746f6b656e20616c7265616479206d696e74656400000000604482015260640161098e565b6001600160a01b038216600081815260686020908152604080832080546001019055848352606790915280822080546001600160a01b0319168417905551839291907fddf252ad1be2c89b69c2b068fc378daa952ba7f163c4a11628f55a4df523b3ef908290a45050565b611208612aba565b7f4910fdfa16fed3260ed0e7147f7cc6da11a60208b5b9406d12a635614ffd91435460ff16156128ac57610a2f83613044565b826001600160a01b03166352d1902d6040518163ffffffff1660e01b8152600401602060405180830381865afa925050508015612906575060408051601f3d908101601f19168201909252612903918101906144d9565b60015b6129695760405162461bcd60e51b815260206004820152602e60248201527f45524331393637557067726164653a206e657720696d706c656d656e7461746960448201526d6f6e206973206e6f74205555505360901b606482015260840161098e565b60008051602061463b83398151915281146129d85760405162461bcd60e51b815260206004820152602960248201527f45524331393637557067726164653a20756e737570706f727465642070726f786044820152681a58589b195555525160ba1b606482015260840161098e565b50610a2f8383836130e0565b600054610100900460ff16612a0b5760405162461bcd60e51b815260040161098e906144f2565b6115e58282613105565b600054610100900460ff16612a3c5760405162461bcd60e51b815260040161098e906144f2565b610a2f838383613145565b600054610100900460ff16612a6e5760405162461bcd60e51b815260040161098e906144f2565b6119396131cb565b600080612a828361193b565b6101355460601b6001600160601b03199081169116149392505050565b610a2f83838360405180602001604052806000815250611d7b565b60fb546001600160a01b031633146119395760405162461bcd60e51b815260206004820181905260248201527f4f776e61626c653a2063616c6c6572206973206e6f7420746865206f776e6572604482015260640161098e565b60fb80546001600160a01b038381166001600160a01b0319831681179093556040519116919082907f8be0079c531659141344cd1fd0a4f28419497f9722a3daafe3b4186f6b6457e090600090a35050565b6001600160801b038116600090815261013860205260408120600101546001600160a01b038481169116148015611e185750506001600160801b0316600090815261013860205260409020600201544310919050565b600082604051602001612bcf9190614223565b60408051601f1981840301815291815281516020928301206001600160801b039096166000908152610139835281812096815295909152909320805460ff90921660ff199092169190911790555050565b816001600160a01b0316836001600160a01b031603612c815760405162461bcd60e51b815260206004820152601960248201527f4552433732313a20617070726f766520746f2063616c6c657200000000000000604482015260640161098e565b6001600160a01b038381166000818152606a6020908152604080832094871680845294825291829020805460ff191686151590811790915591519182527f17307eab39ab6107e8899845ad3d59bd9653f200f220920489ca2b5937696c31910160405180910390a3505050565b6101365461013554604051602481018590526001600160601b0319841660448201526001600160a01b039092169163bea05ee39160601b9060640160408051601f198184030181529181526020820180516001600160e01b031663a636db7b60e01b1790525160e084901b6001600160e01b0319168152612d73929190600401614114565b6000604051808303816000875af1158015612d92573d6000803e3d6000fd5b505050506040513d6000823e601f3d908101601f19168201604052610a2f919081019061413c565b612dc5848484612392565b612dd1848484846131fb565b610bcc5760405162461bcd60e51b815260040161098e9061453d565b606061013b8054610870906140da565b60606000612e0a836132f9565b60010190506000816001600160401b03811115612e2957612e29613984565b6040519080825280601f01601f191660200182016040528015612e53576020820181803683370190505b5090508181016020015b600019016f181899199a1a9b1b9c1cb0b131b232b360811b600a86061a8153600a8504945084612e5d57509392505050565b826001600160a01b0316612ea2826117b2565b6001600160a01b031614612ec85760405162461bcd60e51b815260040161098e9061458f565b6001600160a01b038216612f2a5760405162461bcd60e51b8152602060048201526024808201527f4552433732313a207472616e7366657220746f20746865207a65726f206164646044820152637265737360e01b606482015260840161098e565b826001600160a01b0316612f3d826117b2565b6001600160a01b031614612f635760405162461bcd60e51b815260040161098e9061458f565b600081815260696020908152604080832080546001600160a01b03199081169091556001600160a01b0387811680865260688552838620805460001901905590871680865283862080546001019055868652606790945282852080549092168417909155905184937fddf252ad1be2c89b69c2b068fc378daa952ba7f163c4a11628f55a4df523b3ef91a4505050565b600061085b6130006133d1565b8360405161190160f01b8152600281019290925260228201526042902090565b600080600061302f85856133fc565b9150915061303c81613441565b509392505050565b6001600160a01b0381163b6130b15760405162461bcd60e51b815260206004820152602d60248201527f455243313936373a206e657720696d706c656d656e746174696f6e206973206e60448201526c1bdd08184818dbdb9d1c9858dd609a1b606482015260840161098e565b60008051602061463b83398151915280546001600160a01b0319166001600160a01b0392909216919091179055565b6130e98361358b565b6000825111806130f65750805b15610a2f57610bcc83836135cb565b600054610100900460ff1661312c5760405162461bcd60e51b815260040161098e906144f2565b606561313883826143a9565b506066610a2f82826143a9565b600054610100900460ff1661316c5760405162461bcd60e51b815260040161098e906144f2565b61013261317984826143a9565b5061013361318783826143a9565b508251602080850191909120610130558251908301206101315561012e8190556131af6135f0565b61012d55505061012f80546001600160a01b0319163017905550565b600054610100900460ff166131f25760405162461bcd60e51b815260040161098e906144f2565b61193933612b14565b60006001600160a01b0384163b156132f157604051630a85bd0160e11b81526001600160a01b0385169063150b7a029061323f9033908990889088906004016145d4565b6020604051808303816000875af192505050801561327a575060408051601f3d908101601f1916820190925261327791810190614607565b60015b6132d7573d8080156132a8576040519150601f19603f3d011682016040523d82523d6000602084013e6132ad565b606091505b5080516000036132cf5760405162461bcd60e51b815260040161098e9061453d565b805181602001fd5b6001600160e01b031916630a85bd0160e11b1490506116d4565b5060016116d4565b60008072184f03e93ff9f4daa797ed6e38ed64bf6a1f0160401b83106133385772184f03e93ff9f4daa797ed6e38ed64bf6a1f0160401b830492506040015b6d04ee2d6d415b85acef81000000008310613364576d04ee2d6d415b85acef8100000000830492506020015b662386f26fc10000831061338257662386f26fc10000830492506010015b6305f5e100831061339a576305f5e100830492506008015b61271083106133ae57612710830492506004015b606483106133c0576064830492506002015b600a831061085b5760010192915050565b61012f546000906001600160a01b031630036133ef575061012d5490565b6133f76135f0565b905090565b60008082516041036134325760208301516040840151606085015160001a61342687828585613661565b9450945050505061343a565b506000905060025b9250929050565b600081600481111561345557613455614624565b0361345d5750565b600181600481111561347157613471614624565b036134be5760405162461bcd60e51b815260206004820152601860248201527f45434453413a20696e76616c6964207369676e61747572650000000000000000604482015260640161098e565b60028160048111156134d2576134d2614624565b0361351f5760405162461bcd60e51b815260206004820152601f60248201527f45434453413a20696e76616c6964207369676e6174757265206c656e67746800604482015260640161098e565b600381600481111561353357613533614624565b036112085760405162461bcd60e51b815260206004820152602260248201527f45434453413a20696e76616c6964207369676e6174757265202773272076616c604482015261756560f01b606482015260840161098e565b61359481613044565b6040516001600160a01b038216907fbc7cd75a20ee27fd9adebab32041f755214dbc6bffa90cc0225b39da2e5c2d3b90600090a250565b6060611e18838360405180606001604052806027815260200161465b60279139613725565b610130546101315461012e54604080517f8b73c3c69bb8fe3d512ecc4cf759cc79239f7b179b0ffacaa9a75d522b39400f602082015290810193909352606083019190915260808201523060a082015260009060c00160405160208183030381529060405280519060200120905090565b6000807f7fffffffffffffffffffffffffffffff5d576e7357a4501ddfe92f46681b20a0831115613698575060009050600361371c565b6040805160008082526020820180845289905260ff881692820192909252606081018690526080810185905260019060a0016020604051602081039080840390855afa1580156136ec573d6000803e3d6000fd5b5050604051601f1901519150506001600160a01b0381166137155760006001925092505061371c565b9150600090505b94509492505050565b6060600080856001600160a01b0316856040516137429190614223565b600060405180830381855af49150503d806000811461377d576040519150601f19603f3d011682016040523d82523d6000602084013e613782565b606091505b50915091506137938683838761379d565b9695505050505050565b6060831561380c578251600003613805576001600160a01b0385163b6138055760405162461bcd60e51b815260206004820152601d60248201527f416464726573733a2063616c6c20746f206e6f6e2d636f6e7472616374000000604482015260640161098e565b50816116d4565b6116d483838151156138215781518083602001fd5b8060405162461bcd60e51b815260040161098e91906138be565b6001600160e01b03198116811461120857600080fd5b60006020828403121561386357600080fd5b8135611e188161383b565b60005b83811015613889578181015183820152602001613871565b50506000910152565b600081518084526138aa81602086016020860161386e565b601f01601f19169290920160200192915050565b602081526000611e186020830184613892565b6000602082840312156138e357600080fd5b5035919050565b80356001600160a01b038116811461390157600080fd5b919050565b6000806040838503121561391957600080fd5b613922836138ea565b946020939093013593505050565b60008060006060848603121561394557600080fd5b61394e846138ea565b925061395c602085016138ea565b9150604084013590509250925092565b80356001600160601b03198116811461390157600080fd5b634e487b7160e01b600052604160045260246000fd5b604051601f8201601f191681016001600160401b03811182821017156139c2576139c2613984565b604052919050565b60006001600160401b038211156139e3576139e3613984565b50601f01601f191660200190565b600082601f830112613a0257600080fd5b8135613a15613a10826139ca565b61399a565b818152846020838601011115613a2a57600080fd5b816020850160208301376000918101602001919091529392505050565b60008060008060808587031215613a5d57600080fd5b613a668561396c565b935060208501359250613a7b604086016138ea565b915060608501356001600160401b03811115613a9657600080fd5b613aa2878288016139f1565b91505092959194509250565b80356001600160801b038116811461390157600080fd5b803560ff8116811461390157600080fd5b600080600080600085870360e0811215613aef57600080fd5b613af887613aae565b955060208701356001600160401b0380821115613b1457600080fd5b613b208a838b016139f1565b9650613b2e60408a016138ea565b9550613b3c60608a0161396c565b94506060607f1984011215613b5057600080fd5b60405192506060830191508282108183111715613b6f57613b6f613984565b50604052613b7f60808801613ac5565b815260a0870135602082015260c09096013560408701525092959194509290565b600060208284031215613bb257600080fd5b611e18826138ea565b60008060008060008060c08789031215613bd457600080fd5b86356001600160401b0380821115613beb57600080fd5b613bf78a838b016139f1565b97506020890135915080821115613c0d57600080fd5b50613c1a89828a016139f1565b955050613c296040880161396c565b9350613c37606088016138ea565b92506080870135915060a087013590509295509295509295565b60008060408385031215613c6457600080fd5b613c6d83613aae565b915060208301356001600160401b03811115613c8857600080fd5b613c94858286016139f1565b9150509250929050565b60008060408385031215613cb157600080fd5b613c6d836138ea565b600060208284031215613ccc57600080fd5b81356001600160401b03811115613ce257600080fd5b6116d4848285016139f1565b60ff60f81b881681526000602060e081840152613d0e60e084018a613892565b8381036040850152613d20818a613892565b606085018990526001600160a01b038816608086015260a0850187905284810360c0860152855180825283870192509083019060005b81811015613d7257835183529284019291840191600101613d56565b50909c9b505050505050505050505050565b60006001600160401b03821115613d9d57613d9d613984565b5060051b60200190565b600082601f830112613db857600080fd5b81356020613dc8613a1083613d84565b82815260059290921b84018101918181019086841115613de757600080fd5b8286015b84811015613e0957613dfc81613ac5565b8352918301918301613deb565b509695505050505050565b600080600060608486031215613e2957600080fd5b613e3284613aae565b92506020808501356001600160401b0380821115613e4f57600080fd5b818701915087601f830112613e6357600080fd5b8135613e71613a1082613d84565b81815260059190911b8301840190848101908a831115613e9057600080fd5b8585015b83811015613ec857803585811115613eac5760008081fd5b613eba8d89838a01016139f1565b845250918601918601613e94565b50965050506040870135925080831115613ee157600080fd5b5050613eef86828701613da7565b9150509250925092565b600060208284031215613f0b57600080fd5b611e1882613aae565b60008060408385031215613f2757600080fd5b613f30836138ea565b915060208301358015158114613f4557600080fd5b809150509250929050565b60008060408385031215613f6357600080fd5b82359150613f736020840161396c565b90509250929050565b60008060008060808587031215613f9257600080fd5b613f9b856138ea565b9350613fa9602086016138ea565b92506040850135915060608501356001600160401b03811115613a9657600080fd5b60008060408385031215613fde57600080fd5b613fe7836138ea565b9150613f736020840161396c565b6000806040838503121561400857600080fd5b614011836138ea565b9150613f73602084016138ea565b60008060006060848603121561403457600080fd5b61403d8461396c565b92506020840135915060408401356001600160401b0381111561405f57600080fd5b613eef868287016139f1565b6000806000806080858703121561408157600080fd5b61408a85613aae565b9350614098602086016138ea565b92506140a6604086016138ea565b91506140b460608601613ac5565b905092959194509250565b6000602082840312156140d157600080fd5b611e188261396c565b600181811c908216806140ee57607f821691505b60208210810361410e57634e487b7160e01b600052602260045260246000fd5b50919050565b6bffffffffffffffffffffffff19831681526040602082015260006116d46040830184613892565b60006020828403121561414e57600080fd5b81516001600160401b0381111561416457600080fd5b8201601f8101841361417557600080fd5b8051614183613a10826139ca565b81815285602083850101111561419857600080fd5b6141a982602083016020860161386e565b95945050505050565b8051602080830151919081101561410e5760001960209190910360031b1b16919050565b6020808252602d908201527f4552433732313a2063616c6c6572206973206e6f7420746f6b656e206f776e6560408201526c1c881bdc88185c1c1c9bdd9959609a1b606082015260800190565b6000825161423581846020870161386e565b9190910192915050565b634e487b7160e01b600052601160045260246000fd5b61ffff8181168382160190808211156142705761427061423f565b5092915050565b6020808252602c908201527f46756e6374696f6e206d7573742062652063616c6c6564207468726f7567682060408201526b19195b1959d85d1958d85b1b60a21b606082015260800190565b6020808252602c908201527f46756e6374696f6e206d7573742062652063616c6c6564207468726f7567682060408201526b6163746976652070726f787960a01b606082015260800190565b60008261432c57634e487b7160e01b600052601260045260246000fd5b500490565b808202811582820484141761085b5761085b61423f565b8181038181111561085b5761085b61423f565b601f821115610a2f57600081815260208120601f850160051c810160208610156143825750805b601f850160051c820191505b818110156143a15782815560010161438e565b505050505050565b81516001600160401b038111156143c2576143c2613984565b6143d6816143d084546140da565b8461435b565b602080601f83116001811461440b57600084156143f35750858301515b600019600386901b1c1916600185901b1785556143a1565b600085815260208120601f198616915b8281101561443a5788860151825594840194600190910190840161441b565b50858210156144585787850151600019600388901b60f8161c191681555b5050505050600190811b01905550565b634e487b7160e01b600052603260045260246000fd5b6000600182016144905761449061423f565b5060010190565b600083516144a981846020880161386e565b8351908301906144bd81836020880161386e565b01949350505050565b8082018082111561085b5761085b61423f565b6000602082840312156144eb57600080fd5b5051919050565b6020808252602b908201527f496e697469616c697a61626c653a20636f6e7472616374206973206e6f74206960408201526a6e697469616c697a696e6760a81b606082015260800190565b60208082526032908201527f4552433732313a207472616e7366657220746f206e6f6e20455243373231526560408201527131b2b4bb32b91034b6b83632b6b2b73a32b960711b606082015260800190565b60208082526025908201527f4552433732313a207472616e736665722066726f6d20696e636f72726563742060408201526437bbb732b960d91b606082015260800190565b6001600160a01b038581168252841660208201526040810183905260806060820181905260009061379390830184613892565b60006020828403121561461957600080fd5b8151611e188161383b565b634e487b7160e01b600052602160045260246000fdfe360894a13ba1a3210667c828492db98dca3e2076cc3735a920a3ca505d382bbc416464726573733a206c6f772d6c6576656c2064656c65676174652063616c6c206661696c6564a2646970667358221220120df6e575650b161bf07f4b72b367850d7e077219a8d67d7ddfef44a706df2564736f6c63430008150033",
  "bytecodeSha1": "60a1660c2d8a79e07d6927f05bd95578845ba650",
  "compiler": {
    "evm_version": "istanbul",
    "optimizer": {
      "enabled": true,
      "runs": 200
    },
    "version": "0.8.21+commit.d9974bed"
  },
  "contractName": "DualSpaceNFTCore",
  "language": "Solidity",
  "natspec": {
    "kind": "dev",
    "methods": {
      "approve(address,uint256)": {
        "details": "See {IERC721-approve}."
      },
      "balanceOf(address)": {
        "details": "See {IERC721-balanceOf}."
      },
      "eip712Domain()": {
        "details": "See {EIP-5267}. _Available since v4.9._"
      },
      "getApproved(uint256)": {
        "details": "See {IERC721-getApproved}."
      },
      "isApprovedForAll(address,address)": {
        "details": "See {IERC721-isApprovedForAll}."
      },
      "name()": {
        "details": "See {IERC721Metadata-name}."
      },
      "owner()": {
        "details": "Returns the address of the current owner."
      },
      "ownerOf(uint256)": {
        "details": "See {IERC721-ownerOf}."
      },
      "proxiableUUID()": {
        "details": "Implementation of the ERC1822 {proxiableUUID} function. This returns the storage slot used by the implementation. It is used to validate the implementation's compatibility when performing an upgrade. IMPORTANT: A proxy pointing at a proxiable contract should not be considered proxiable itself, because this risks bricking a proxy that upgrades to it, by delegating to itself until out of gas. Thus it is critical that this function revert if invoked through a proxy. This is guaranteed by the `notDelegated` modifier."
      },
      "renounceOwnership()": {
        "details": "Leaves the contract without owner. It will not be possible to call `onlyOwner` functions. Can only be called by the current owner. NOTE: Renouncing ownership will leave the contract without an owner, thereby disabling any functionality that is only available to the owner."
      },
      "safeTransferFrom(address,address,uint256)": {
        "details": "See {IERC721-safeTransferFrom}."
      },
      "safeTransferFrom(address,address,uint256,bytes)": {
        "details": "See {IERC721-safeTransferFrom}."
      },
      "setApprovalForAll(address,bool)": {
        "details": "See {IERC721-setApprovalForAll}."
      },
      "supportsInterface(bytes4)": {
        "details": "See {IERC165-supportsInterface}."
      },
      "symbol()": {
        "details": "See {IERC721Metadata-symbol}."
      },
      "tokenURI(uint256)": {
        "details": "See {IERC721Metadata-tokenURI}."
      },
      "transferFrom(address,address,uint256)": {
        "details": "See {IERC721-transferFrom}."
      },
      "transferOwnership(address)": {
        "details": "Transfers ownership of the contract to a new account (`newOwner`). Can only be called by the current owner."
      },
      "upgradeTo(address)": {
        "custom:oz-upgrades-unsafe-allow-reachable": "delegatecall",
        "details": "Upgrade the implementation of the proxy to `newImplementation`. Calls {_authorizeUpgrade}. Emits an {Upgraded} event."
      },
      "upgradeToAndCall(address,bytes)": {
        "custom:oz-upgrades-unsafe-allow-reachable": "delegatecall",
        "details": "Upgrade the implementation of the proxy to `newImplementation`, and subsequently execute the function call encoded in `data`. Calls {_authorizeUpgrade}. Emits an {Upgraded} event."
      }
    },
    "version": 1
  },
  "opcodes": "PUSH1 0x80 PUSH1 0x40 MSTORE PUSH1 0x4 CALLDATASIZE LT PUSH2 0x246 JUMPI PUSH1 0x0 CALLDATALOAD PUSH1 0xE0 SHR DUP1 PUSH4 0x70A08231 GT PUSH2 0x139 JUMPI DUP1 PUSH4 0xB88D4FDE GT PUSH2 0xB6 JUMPI DUP1 PUSH4 0xE985E9C5 GT PUSH2 0x7A JUMPI DUP1 PUSH4 0xE985E9C5 EQ PUSH2 0x70E JUMPI DUP1 PUSH4 0xEB2758D9 EQ PUSH2 0x757 JUMPI DUP1 PUSH4 0xF2FDE38B EQ PUSH2 0x777 JUMPI DUP1 PUSH4 0xF5CD0839 EQ PUSH2 0x797 JUMPI DUP1 PUSH4 0xF72AF25B EQ PUSH2 0x7B7 JUMPI DUP1 PUSH4 0xF8E6D10F EQ PUSH2 0x7D7 JUMPI PUSH1 0x0 DUP1 REVERT JUMPDEST DUP1 PUSH4 0xB88D4FDE EQ PUSH2 0x65C JUMPI DUP1 PUSH4 0xC87B56DD EQ PUSH2 0x67C JUMPI DUP1 PUSH4 0xD2D51215 EQ PUSH2 0x69C JUMPI DUP1 PUSH4 0xE851E7EC EQ PUSH2 0x6BC JUMPI DUP1 PUSH4 0xE8A6EF3B EQ PUSH2 0x6EE JUMPI PUSH1 0x0 DUP1 REVERT JUMPDEST DUP1 PUSH4 0x8DA5CB5B GT PUSH2 0xFD JUMPI DUP1 PUSH4 0x8DA5CB5B EQ PUSH2 0x5AF JUMPI DUP1 PUSH4 0x911A7F80 EQ PUSH2 0x5CD JUMPI DUP1 PUSH4 0x95D89B41 EQ PUSH2 0x607 JUMPI DUP1 PUSH4 0xA22CB465 EQ PUSH2 0x61C JUMPI DUP1 PUSH4 0xA636DB7B EQ PUSH2 0x63C JUMPI PUSH1 0x0 DUP1 REVERT JUMPDEST DUP1 PUSH4 0x70A08231 EQ PUSH2 0x4F9 JUMPI DUP1 PUSH4 0x715018A6 EQ PUSH2 0x519 JUMPI DUP1 PUSH4 0x8110988A EQ PUSH2 0x52E JUMPI DUP1 PUSH4 0x84B0196E EQ PUSH2 0x567 JUMPI DUP1 PUSH4 0x87DEF33C EQ PUSH2 0x58F JUMPI PUSH1 0x0 DUP1 REVERT JUMPDEST DUP1 PUSH4 0x3A0C1748 GT PUSH2 0x1C7 JUMPI DUP1 PUSH4 0x52D1902D GT PUSH2 0x18B JUMPI DUP1 PUSH4 0x52D1902D EQ PUSH2 0x46F JUMPI DUP1 PUSH4 0x555EC78B EQ PUSH2 0x484 JUMPI DUP1 PUSH4 0x55F804B3 EQ PUSH2 0x4A4 JUMPI DUP1 PUSH4 0x6352211E EQ PUSH2 0x4C4 JUMPI DUP1 PUSH4 0x6C0360EB EQ PUSH2 0x4E4 JUMPI PUSH1 0x0 DUP1 REVERT JUMPDEST DUP1 PUSH4 0x3A0C1748 EQ PUSH2 0x3DC JUMPI DUP1 PUSH4 0x3D490DB0 EQ PUSH2 0x3FC JUMPI DUP1 PUSH4 0x42842E0E EQ PUSH2 0x41C JUMPI DUP1 PUSH4 0x4DD72F05 EQ PUSH2 0x43C JUMPI DUP1 PUSH4 0x4F1EF286 EQ PUSH2 0x45C JUMPI PUSH1 0x0 DUP1 REVERT JUMPDEST DUP1 PUSH4 0x21B5E52F GT PUSH2 0x20E JUMPI DUP1 PUSH4 0x21B5E52F EQ PUSH2 0x32E JUMPI DUP1 PUSH4 0x23B872DD EQ PUSH2 0x34E JUMPI DUP1 PUSH4 0x27F3194E EQ PUSH2 0x36E JUMPI DUP1 PUSH4 0x294D584C EQ PUSH2 0x38E JUMPI DUP1 PUSH4 0x3659CFE6 EQ PUSH2 0x3BC JUMPI PUSH1 0x0 DUP1 REVERT JUMPDEST DUP1 PUSH4 0x1FFC9A7 EQ PUSH2 0x24B JUMPI DUP1 PUSH4 0x6FDDE03 EQ PUSH2 0x280 JUMPI DUP1 PUSH4 0x81812FC EQ PUSH2 0x2A2 JUMPI DUP1 PUSH4 0x95EA7B3 EQ PUSH2 0x2DA JUMPI DUP1 PUSH4 0x129D355B EQ PUSH2 0x2FC JUMPI JUMPDEST PUSH1 0x0 DUP1 REVERT JUMPDEST CALLVALUE DUP1 ISZERO PUSH2 0x257 JUMPI PUSH1 0x0 DUP1 REVERT JUMPDEST POP PUSH2 0x26B PUSH2 0x266 CALLDATASIZE PUSH1 0x4 PUSH2 0x3851 JUMP JUMPDEST PUSH2 0x80F JUMP JUMPDEST PUSH1 0x40 MLOAD SWAP1 ISZERO ISZERO DUP2 MSTORE PUSH1 0x20 ADD JUMPDEST PUSH1 0x40 MLOAD DUP1 SWAP2 SUB SWAP1 RETURN JUMPDEST CALLVALUE DUP1 ISZERO PUSH2 0x28C JUMPI PUSH1 0x0 DUP1 REVERT JUMPDEST POP PUSH2 0x295 PUSH2 0x861 JUMP JUMPDEST PUSH1 0x40 MLOAD PUSH2 0x277 SWAP2 SWAP1 PUSH2 0x38BE JUMP JUMPDEST CALLVALUE DUP1 ISZERO PUSH2 0x2AE JUMPI PUSH1 0x0 DUP1 REVERT JUMPDEST POP PUSH2 0x2C2 PUSH2 0x2BD CALLDATASIZE PUSH1 0x4 PUSH2 0x38D1 JUMP JUMPDEST PUSH2 0x8F3 JUMP JUMPDEST PUSH1 0x40 MLOAD PUSH1 0x1 PUSH1 0x1 PUSH1 0xA0 SHL SUB SWAP1 SWAP2 AND DUP2 MSTORE PUSH1 0x20 ADD PUSH2 0x277 JUMP JUMPDEST CALLVALUE DUP1 ISZERO PUSH2 0x2E6 JUMPI PUSH1 0x0 DUP1 REVERT JUMPDEST POP PUSH2 0x2FA PUSH2 0x2F5 CALLDATASIZE PUSH1 0x4 PUSH2 0x3906 JUMP JUMPDEST PUSH2 0x91A JUMP JUMPDEST STOP JUMPDEST CALLVALUE DUP1 ISZERO PUSH2 0x308 JUMPI PUSH1 0x0 DUP1 REVERT JUMPDEST POP PUSH2 0x31C PUSH2 0x317 CALLDATASIZE PUSH1 0x4 PUSH2 0x38D1 JUMP JUMPDEST PUSH2 0xA34 JUMP JUMPDEST PUSH1 0x40 MLOAD PUSH1 0xFF SWAP1 SWAP2 AND DUP2 MSTORE PUSH1 0x20 ADD PUSH2 0x277 JUMP JUMPDEST CALLVALUE DUP1 ISZERO PUSH2 0x33A JUMPI PUSH1 0x0 DUP1 REVERT JUMPDEST POP PUSH2 0x26B PUSH2 0x349 CALLDATASIZE PUSH1 0x4 PUSH2 0x38D1 JUMP JUMPDEST PUSH2 0xAF3 JUMP JUMPDEST CALLVALUE DUP1 ISZERO PUSH2 0x35A JUMPI PUSH1 0x0 DUP1 REVERT JUMPDEST POP PUSH2 0x2FA PUSH2 0x369 CALLDATASIZE PUSH1 0x4 PUSH2 0x3930 JUMP JUMPDEST PUSH2 0xB06 JUMP JUMPDEST CALLVALUE DUP1 ISZERO PUSH2 0x37A JUMPI PUSH1 0x0 DUP1 REVERT JUMPDEST POP PUSH2 0x2FA PUSH2 0x389 CALLDATASIZE PUSH1 0x4 PUSH2 0x3A47 JUMP JUMPDEST PUSH2 0xB37 JUMP JUMPDEST CALLVALUE DUP1 ISZERO PUSH2 0x39A JUMPI PUSH1 0x0 DUP1 REVERT JUMPDEST POP PUSH2 0x3AE PUSH2 0x3A9 CALLDATASIZE PUSH1 0x4 PUSH2 0x3AD6 JUMP JUMPDEST PUSH2 0xBD2 JUMP JUMPDEST PUSH1 0x40 MLOAD SWAP1 DUP2 MSTORE PUSH1 0x20 ADD PUSH2 0x277 JUMP JUMPDEST CALLVALUE DUP1 ISZERO PUSH2 0x3C8 JUMPI PUSH1 0x0 DUP1 REVERT JUMPDEST POP PUSH2 0x2FA PUSH2 0x3D7 CALLDATASIZE PUSH1 0x4 PUSH2 0x3BA0 JUMP JUMPDEST PUSH2 0x112C JUMP JUMPDEST CALLVALUE DUP1 ISZERO PUSH2 0x3E8 JUMPI PUSH1 0x0 DUP1 REVERT JUMPDEST POP PUSH2 0x2FA PUSH2 0x3F7 CALLDATASIZE PUSH1 0x4 PUSH2 0x3BBB JUMP JUMPDEST PUSH2 0x120B JUMP JUMPDEST CALLVALUE DUP1 ISZERO PUSH2 0x408 JUMPI PUSH1 0x0 DUP1 REVERT JUMPDEST POP PUSH2 0x31C PUSH2 0x417 CALLDATASIZE PUSH1 0x4 PUSH2 0x3C51 JUMP JUMPDEST PUSH2 0x1386 JUMP JUMPDEST CALLVALUE DUP1 ISZERO PUSH2 0x428 JUMPI PUSH1 0x0 DUP1 REVERT JUMPDEST POP PUSH2 0x2FA PUSH2 0x437 CALLDATASIZE PUSH1 0x4 PUSH2 0x3930 JUMP JUMPDEST PUSH2 0x13DD JUMP JUMPDEST CALLVALUE DUP1 ISZERO PUSH2 0x448 JUMPI PUSH1 0x0 DUP1 REVERT JUMPDEST POP PUSH2 0x3AE PUSH2 0x457 CALLDATASIZE PUSH1 0x4 PUSH2 0x38D1 JUMP JUMPDEST PUSH2 0x14A8 JUMP JUMPDEST PUSH2 0x2FA PUSH2 0x46A CALLDATASIZE PUSH1 0x4 PUSH2 0x3C9E JUMP JUMPDEST PUSH2 0x1519 JUMP JUMPDEST CALLVALUE DUP1 ISZERO PUSH2 0x47B JUMPI PUSH1 0x0 DUP1 REVERT JUMPDEST POP PUSH2 0x3AE PUSH2 0x15E9 JUMP JUMPDEST CALLVALUE DUP1 ISZERO PUSH2 0x490 JUMPI PUSH1 0x0 DUP1 REVERT JUMPDEST POP PUSH2 0x31C PUSH2 0x49F CALLDATASIZE PUSH1 0x4 PUSH2 0x38D1 JUMP JUMPDEST PUSH2 0x169C JUMP JUMPDEST CALLVALUE DUP1 ISZERO PUSH2 0x4B0 JUMPI PUSH1 0x0 DUP1 REVERT JUMPDEST POP PUSH2 0x2FA PUSH2 0x4BF CALLDATASIZE PUSH1 0x4 PUSH2 0x3CBA JUMP JUMPDEST PUSH2 0x16DC JUMP JUMPDEST CALLVALUE DUP1 ISZERO PUSH2 0x4D0 JUMPI PUSH1 0x0 DUP1 REVERT JUMPDEST POP PUSH2 0x2C2 PUSH2 0x4DF CALLDATASIZE PUSH1 0x4 PUSH2 0x38D1 JUMP JUMPDEST PUSH2 0x17B2 JUMP JUMPDEST CALLVALUE DUP1 ISZERO PUSH2 0x4F0 JUMPI PUSH1 0x0 DUP1 REVERT JUMPDEST POP PUSH2 0x295 PUSH2 0x1812 JUMP JUMPDEST CALLVALUE DUP1 ISZERO PUSH2 0x505 JUMPI PUSH1 0x0 DUP1 REVERT JUMPDEST POP PUSH2 0x3AE PUSH2 0x514 CALLDATASIZE PUSH1 0x4 PUSH2 0x3BA0 JUMP JUMPDEST PUSH2 0x18A1 JUMP JUMPDEST CALLVALUE DUP1 ISZERO PUSH2 0x525 JUMPI PUSH1 0x0 DUP1 REVERT JUMPDEST POP PUSH2 0x2FA PUSH2 0x1927 JUMP JUMPDEST CALLVALUE DUP1 ISZERO PUSH2 0x53A JUMPI PUSH1 0x0 DUP1 REVERT JUMPDEST POP PUSH2 0x54E PUSH2 0x549 CALLDATASIZE PUSH1 0x4 PUSH2 0x38D1 JUMP JUMPDEST PUSH2 0x193B JUMP JUMPDEST PUSH1 0x40 MLOAD PUSH1 0x1 PUSH1 0x1 PUSH1 0x60 SHL SUB NOT SWAP1 SWAP2 AND DUP2 MSTORE PUSH1 0x20 ADD PUSH2 0x277 JUMP JUMPDEST CALLVALUE DUP1 ISZERO PUSH2 0x573 JUMPI PUSH1 0x0 DUP1 REVERT JUMPDEST POP PUSH2 0x57C PUSH2 0x1A0D JUMP JUMPDEST PUSH1 0x40 MLOAD PUSH2 0x277 SWAP8 SWAP7 SWAP6 SWAP5 SWAP4 SWAP3 SWAP2 SWAP1 PUSH2 0x3CEE JUMP JUMPDEST CALLVALUE DUP1 ISZERO PUSH2 0x59B JUMPI PUSH1 0x0 DUP1 REVERT JUMPDEST POP PUSH2 0x2FA PUSH2 0x5AA CALLDATASIZE PUSH1 0x4 PUSH2 0x3E14 JUMP JUMPDEST PUSH2 0x1BA5 JUMP JUMPDEST CALLVALUE DUP1 ISZERO PUSH2 0x5BB JUMPI PUSH1 0x0 DUP1 REVERT JUMPDEST POP PUSH1 0xFB SLOAD PUSH1 0x1 PUSH1 0x1 PUSH1 0xA0 SHL SUB AND PUSH2 0x2C2 JUMP JUMPDEST CALLVALUE DUP1 ISZERO PUSH2 0x5D9 JUMPI PUSH1 0x0 DUP1 REVERT JUMPDEST POP PUSH2 0x3AE PUSH2 0x5E8 CALLDATASIZE PUSH1 0x4 PUSH2 0x3EF9 JUMP JUMPDEST PUSH1 0x1 PUSH1 0x1 PUSH1 0x80 SHL SUB AND PUSH1 0x0 SWAP1 DUP2 MSTORE PUSH2 0x138 PUSH1 0x20 MSTORE PUSH1 0x40 SWAP1 KECCAK256 PUSH1 0x2 ADD SLOAD SWAP1 JUMP JUMPDEST CALLVALUE DUP1 ISZERO PUSH2 0x613 JUMPI PUSH1 0x0 DUP1 REVERT JUMPDEST POP PUSH2 0x295 PUSH2 0x1CED JUMP JUMPDEST CALLVALUE DUP1 ISZERO PUSH2 0x628 JUMPI PUSH1 0x0 DUP1 REVERT JUMPDEST POP PUSH2 0x2FA PUSH2 0x637 CALLDATASIZE PUSH1 0x4 PUSH2 0x3F14 JUMP JUMPDEST PUSH2 0x1CFC JUMP JUMPDEST CALLVALUE DUP1 ISZERO PUSH2 0x648 JUMPI PUSH1 0x0 DUP1 REVERT JUMPDEST POP PUSH2 0x2FA PUSH2 0x657 CALLDATASIZE PUSH1 0x4 PUSH2 0x3F50 JUMP JUMPDEST PUSH2 0x1D07 JUMP JUMPDEST CALLVALUE DUP1 ISZERO PUSH2 0x668 JUMPI PUSH1 0x0 DUP1 REVERT JUMPDEST POP PUSH2 0x2FA PUSH2 0x677 CALLDATASIZE PUSH1 0x4 PUSH2 0x3F7C JUMP JUMPDEST PUSH2 0x1D7B JUMP JUMPDEST CALLVALUE DUP1 ISZERO PUSH2 0x688 JUMPI PUSH1 0x0 DUP1 REVERT JUMPDEST POP PUSH2 0x295 PUSH2 0x697 CALLDATASIZE PUSH1 0x4 PUSH2 0x38D1 JUMP JUMPDEST PUSH2 0x1DAD JUMP JUMPDEST CALLVALUE DUP1 ISZERO PUSH2 0x6A8 JUMPI PUSH1 0x0 DUP1 REVERT JUMPDEST POP PUSH2 0x2FA PUSH2 0x6B7 CALLDATASIZE PUSH1 0x4 PUSH2 0x38D1 JUMP JUMPDEST PUSH2 0x1E1F JUMP JUMPDEST CALLVALUE DUP1 ISZERO PUSH2 0x6C8 JUMPI PUSH1 0x0 DUP1 REVERT JUMPDEST POP PUSH2 0x26B PUSH2 0x6D7 CALLDATASIZE PUSH1 0x4 PUSH2 0x3FCB JUMP JUMPDEST PUSH1 0x60 DUP2 SWAP1 SHR DUP3 XOR PUSH1 0x1 PUSH1 0x1 PUSH1 0x9C SHL SUB AND ISZERO SWAP3 SWAP2 POP POP JUMP JUMPDEST CALLVALUE DUP1 ISZERO PUSH2 0x6FA JUMPI PUSH1 0x0 DUP1 REVERT JUMPDEST POP PUSH2 0x2FA PUSH2 0x709 CALLDATASIZE PUSH1 0x4 PUSH2 0x3EF9 JUMP JUMPDEST PUSH2 0x1E9B JUMP JUMPDEST CALLVALUE DUP1 ISZERO PUSH2 0x71A JUMPI PUSH1 0x0 DUP1 REVERT JUMPDEST POP PUSH2 0x26B PUSH2 0x729 CALLDATASIZE PUSH1 0x4 PUSH2 0x3FF5 JUMP JUMPDEST PUSH1 0x1 PUSH1 0x1 PUSH1 0xA0 SHL SUB SWAP2 DUP3 AND PUSH1 0x0 SWAP1 DUP2 MSTORE PUSH1 0x6A PUSH1 0x20 SWAP1 DUP2 MSTORE PUSH1 0x40 DUP1 DUP4 KECCAK256 SWAP4 SWAP1 SWAP5 AND DUP3 MSTORE SWAP2 SWAP1 SWAP2 MSTORE KECCAK256 SLOAD PUSH1 0xFF AND SWAP1 JUMP JUMPDEST CALLVALUE DUP1 ISZERO PUSH2 0x763 JUMPI PUSH1 0x0 DUP1 REVERT JUMPDEST POP PUSH2 0x2FA PUSH2 0x772 CALLDATASIZE PUSH1 0x4 PUSH2 0x401F JUMP JUMPDEST PUSH2 0x1F5E JUMP JUMPDEST CALLVALUE DUP1 ISZERO PUSH2 0x783 JUMPI PUSH1 0x0 DUP1 REVERT JUMPDEST POP PUSH2 0x2FA PUSH2 0x792 CALLDATASIZE PUSH1 0x4 PUSH2 0x3BA0 JUMP JUMPDEST PUSH2 0x1F6A JUMP JUMPDEST CALLVALUE DUP1 ISZERO PUSH2 0x7A3 JUMPI PUSH1 0x0 DUP1 REVERT JUMPDEST POP PUSH2 0x2FA PUSH2 0x7B2 CALLDATASIZE PUSH1 0x4 PUSH2 0x406B JUMP JUMPDEST PUSH2 0x1FE0 JUMP JUMPDEST CALLVALUE DUP1 ISZERO PUSH2 0x7C3 JUMPI PUSH1 0x0 DUP1 REVERT JUMPDEST POP PUSH2 0x2FA PUSH2 0x7D2 CALLDATASIZE PUSH1 0x4 PUSH2 0x40BF JUMP JUMPDEST PUSH2 0x21C8 JUMP JUMPDEST CALLVALUE DUP1 ISZERO PUSH2 0x7E3 JUMPI PUSH1 0x0 DUP1 REVERT JUMPDEST POP PUSH2 0x3AE PUSH2 0x7F2 CALLDATASIZE PUSH1 0x4 PUSH2 0x40BF JUMP JUMPDEST PUSH1 0x1 PUSH1 0x1 PUSH1 0x60 SHL SUB NOT AND PUSH1 0x0 SWAP1 DUP2 MSTORE PUSH2 0x134 PUSH1 0x20 MSTORE PUSH1 0x40 SWAP1 KECCAK256 SLOAD SWAP1 JUMP JUMPDEST PUSH1 0x0 PUSH1 0x1 PUSH1 0x1 PUSH1 0xE0 SHL SUB NOT DUP3 AND PUSH4 0x80AC58CD PUSH1 0xE0 SHL EQ DUP1 PUSH2 0x840 JUMPI POP PUSH1 0x1 PUSH1 0x1 PUSH1 0xE0 SHL SUB NOT DUP3 AND PUSH4 0x5B5E139F PUSH1 0xE0 SHL EQ JUMPDEST DUP1 PUSH2 0x85B JUMPI POP PUSH4 0x1FFC9A7 PUSH1 0xE0 SHL PUSH1 0x1 PUSH1 0x1 PUSH1 0xE0 SHL SUB NOT DUP4 AND EQ JUMPDEST SWAP3 SWAP2 POP POP JUMP JUMPDEST PUSH1 0x60 PUSH1 0x65 DUP1 SLOAD PUSH2 0x870 SWAP1 PUSH2 0x40DA JUMP JUMPDEST DUP1 PUSH1 0x1F ADD PUSH1 0x20 DUP1 SWAP2 DIV MUL PUSH1 0x20 ADD PUSH1 0x40 MLOAD SWAP1 DUP2 ADD PUSH1 0x40 MSTORE DUP1 SWAP3 SWAP2 SWAP1 DUP2 DUP2 MSTORE PUSH1 0x20 ADD DUP3 DUP1 SLOAD PUSH2 0x89C SWAP1 PUSH2 0x40DA JUMP JUMPDEST DUP1 ISZERO PUSH2 0x8E9 JUMPI DUP1 PUSH1 0x1F LT PUSH2 0x8BE JUMPI PUSH2 0x100 DUP1 DUP4 SLOAD DIV MUL DUP4 MSTORE SWAP2 PUSH1 0x20 ADD SWAP2 PUSH2 0x8E9 JUMP JUMPDEST DUP3 ADD SWAP2 SWAP1 PUSH1 0x0 MSTORE PUSH1 0x20 PUSH1 0x0 KECCAK256 SWAP1 JUMPDEST DUP2 SLOAD DUP2 MSTORE SWAP1 PUSH1 0x1 ADD SWAP1 PUSH1 0x20 ADD DUP1 DUP4 GT PUSH2 0x8CC JUMPI DUP3 SWAP1 SUB PUSH1 0x1F AND DUP3 ADD SWAP2 JUMPDEST POP POP POP POP POP SWAP1 POP SWAP1 JUMP JUMPDEST PUSH1 0x0 PUSH2 0x8FE DUP3 PUSH2 0x2247 JUMP JUMPDEST POP PUSH1 0x0 SWAP1 DUP2 MSTORE PUSH1 0x69 PUSH1 0x20 MSTORE PUSH1 0x40 SWAP1 KECCAK256 SLOAD PUSH1 0x1 PUSH1 0x1 PUSH1 0xA0 SHL SUB AND SWAP1 JUMP JUMPDEST PUSH1 0x0 PUSH2 0x925 DUP3 PUSH2 0x17B2 JUMP JUMPDEST SWAP1 POP DUP1 PUSH1 0x1 PUSH1 0x1 PUSH1 0xA0 SHL SUB AND DUP4 PUSH1 0x1 PUSH1 0x1 PUSH1 0xA0 SHL SUB AND SUB PUSH2 0x997 JUMPI PUSH1 0x40 MLOAD PUSH3 0x461BCD PUSH1 0xE5 SHL DUP2 MSTORE PUSH1 0x20 PUSH1 0x4 DUP3 ADD MSTORE PUSH1 0x21 PUSH1 0x24 DUP3 ADD MSTORE PUSH32 0x4552433732313A20617070726F76616C20746F2063757272656E74206F776E65 PUSH1 0x44 DUP3 ADD MSTORE PUSH1 0x39 PUSH1 0xF9 SHL PUSH1 0x64 DUP3 ADD MSTORE PUSH1 0x84 ADD JUMPDEST PUSH1 0x40 MLOAD DUP1 SWAP2 SUB SWAP1 REVERT JUMPDEST CALLER PUSH1 0x1 PUSH1 0x1 PUSH1 0xA0 SHL SUB DUP3 AND EQ DUP1 PUSH2 0x9B3 JUMPI POP PUSH2 0x9B3 DUP2 CALLER PUSH2 0x729 JUMP JUMPDEST PUSH2 0xA25 JUMPI PUSH1 0x40 MLOAD PUSH3 0x461BCD PUSH1 0xE5 SHL DUP2 MSTORE PUSH1 0x20 PUSH1 0x4 DUP3 ADD MSTORE PUSH1 0x3D PUSH1 0x24 DUP3 ADD MSTORE PUSH32 0x4552433732313A20617070726F76652063616C6C6572206973206E6F7420746F PUSH1 0x44 DUP3 ADD MSTORE PUSH32 0x6B656E206F776E6572206F7220617070726F76656420666F7220616C6C000000 PUSH1 0x64 DUP3 ADD MSTORE PUSH1 0x84 ADD PUSH2 0x98E JUMP JUMPDEST PUSH2 0xA2F DUP4 DUP4 PUSH2 0x22A6 JUMP JUMPDEST POP POP POP JUMP JUMPDEST PUSH2 0x136 SLOAD PUSH2 0x135 SLOAD PUSH1 0x40 DUP1 MLOAD PUSH1 0x24 DUP1 DUP3 ADD DUP7 SWAP1 MSTORE DUP3 MLOAD DUP1 DUP4 SUB SWAP1 SWAP2 ADD DUP2 MSTORE PUSH1 0x44 SWAP1 SWAP2 ADD DUP3 MSTORE PUSH1 0x20 DUP2 ADD DUP1 MLOAD PUSH1 0x1 PUSH1 0x1 PUSH1 0xE0 SHL SUB AND PUSH4 0x129D355B PUSH1 0xE0 SHL OR SWAP1 MSTORE SWAP1 MLOAD PUSH4 0x30B4EF7D PUSH1 0xE0 SHL DUP2 MSTORE PUSH1 0x0 SWAP4 PUSH1 0x1 PUSH1 0x1 PUSH1 0xA0 SHL SUB AND SWAP3 PUSH4 0x30B4EF7D SWAP3 PUSH2 0xAA5 SWAP3 PUSH1 0x60 SWAP3 SWAP1 SWAP3 SHL SWAP2 PUSH1 0x4 ADD PUSH2 0x4114 JUMP JUMPDEST PUSH1 0x0 PUSH1 0x40 MLOAD DUP1 DUP4 SUB DUP2 DUP7 GAS STATICCALL ISZERO DUP1 ISZERO PUSH2 0xAC2 JUMPI RETURNDATASIZE PUSH1 0x0 DUP1 RETURNDATACOPY RETURNDATASIZE PUSH1 0x0 REVERT JUMPDEST POP POP POP POP PUSH1 0x40 MLOAD RETURNDATASIZE PUSH1 0x0 DUP3 RETURNDATACOPY PUSH1 0x1F RETURNDATASIZE SWAP1 DUP2 ADD PUSH1 0x1F NOT AND DUP3 ADD PUSH1 0x40 MSTORE PUSH2 0xAEA SWAP2 SWAP1 DUP2 ADD SWAP1 PUSH2 0x413C JUMP JUMPDEST PUSH2 0x85B SWAP1 PUSH2 0x41B2 JUMP JUMPDEST PUSH1 0x0 PUSH2 0xAFE DUP3 PUSH2 0x14A8 JUMP JUMPDEST NUMBER GT SWAP3 SWAP2 POP POP JUMP JUMPDEST PUSH2 0xB10 CALLER DUP3 PUSH2 0x2314 JUMP JUMPDEST PUSH2 0xB2C JUMPI PUSH1 0x40 MLOAD PUSH3 0x461BCD PUSH1 0xE5 SHL DUP2 MSTORE PUSH1 0x4 ADD PUSH2 0x98E SWAP1 PUSH2 0x41D6 JUMP JUMPDEST PUSH2 0xA2F DUP4 DUP4 DUP4 PUSH2 0x2392 JUMP JUMPDEST PUSH2 0xB43 DUP2 DUP6 DUP6 DUP6 PUSH2 0x2566 JUMP JUMPDEST POP PUSH2 0xB4D DUP4 PUSH2 0x193B JUMP JUMPDEST PUSH1 0x1 PUSH1 0x1 PUSH1 0x60 SHL SUB NOT DUP6 DUP2 AND SWAP2 AND EQ PUSH2 0xBB9 JUMPI PUSH1 0x40 MLOAD PUSH3 0x461BCD PUSH1 0xE5 SHL DUP2 MSTORE PUSH1 0x20 PUSH1 0x4 DUP3 ADD MSTORE PUSH1 0x28 PUSH1 0x24 DUP3 ADD MSTORE PUSH32 0x646F206E6F742068617665207065726D697373696F6E20746F2073657420636F PUSH1 0x44 DUP3 ADD MSTORE PUSH8 0x39329037BBB732B9 PUSH1 0xC1 SHL PUSH1 0x64 DUP3 ADD MSTORE PUSH1 0x84 ADD PUSH2 0x98E JUMP JUMPDEST PUSH2 0xBCC PUSH2 0xBC5 DUP5 PUSH2 0x17B2 JUMP JUMPDEST DUP4 DUP6 PUSH2 0x2392 JUMP JUMPDEST POP POP POP POP JUMP JUMPDEST PUSH1 0x1 PUSH1 0x1 PUSH1 0x80 SHL SUB DUP6 AND PUSH1 0x0 SWAP1 DUP2 MSTORE PUSH2 0x138 PUSH1 0x20 MSTORE PUSH1 0x40 DUP2 KECCAK256 PUSH1 0x2 ADD SLOAD NUMBER LT PUSH2 0xC49 JUMPI PUSH1 0x40 MLOAD PUSH3 0x461BCD PUSH1 0xE5 SHL DUP2 MSTORE PUSH1 0x20 PUSH1 0x4 DUP3 ADD MSTORE PUSH1 0x23 PUSH1 0x24 DUP3 ADD MSTORE PUSH32 0x6E6F20617661696C61626C65206D696E74206F7261636C652061742070726573 PUSH1 0x44 DUP3 ADD MSTORE PUSH3 0x195B9D PUSH1 0xEA SHL PUSH1 0x64 DUP3 ADD MSTORE PUSH1 0x84 ADD PUSH2 0x98E JUMP JUMPDEST PUSH1 0x0 DUP6 PUSH1 0x40 MLOAD PUSH1 0x20 ADD PUSH2 0xC5C SWAP2 SWAP1 PUSH2 0x4223 JUMP JUMPDEST PUSH1 0x40 DUP1 MLOAD PUSH1 0x1F NOT DUP2 DUP5 SUB ADD DUP2 MSTORE SWAP2 DUP2 MSTORE DUP2 MLOAD PUSH1 0x20 SWAP3 DUP4 ADD KECCAK256 PUSH1 0x1 PUSH1 0x1 PUSH1 0x80 SHL SUB DUP11 AND PUSH1 0x0 SWAP1 DUP2 MSTORE PUSH2 0x139 DUP5 MSTORE DUP3 DUP2 KECCAK256 DUP3 DUP3 MSTORE SWAP1 SWAP4 MSTORE SWAP1 DUP3 KECCAK256 SLOAD SWAP1 SWAP3 POP PUSH1 0xFF AND SWAP1 DUP2 SWAP1 SUB PUSH2 0xCE3 JUMPI PUSH1 0x40 MLOAD PUSH3 0x461BCD PUSH1 0xE5 SHL DUP2 MSTORE PUSH1 0x20 PUSH1 0x4 DUP3 ADD MSTORE PUSH1 0x15 PUSH1 0x24 DUP3 ADD MSTORE PUSH21 0x1B9BC81C195C9B5A5CDCDA5BDB881D1BC81B5A5B9D PUSH1 0x5A SHL PUSH1 0x44 DUP3 ADD MSTORE PUSH1 0x64 ADD PUSH2 0x98E JUMP JUMPDEST PUSH1 0x1 PUSH1 0x1 PUSH1 0x80 SHL SUB DUP9 AND PUSH1 0x0 DUP2 DUP2 MSTORE PUSH2 0x139 PUSH1 0x20 SWAP1 DUP2 MSTORE PUSH1 0x40 DUP1 DUP4 KECCAK256 DUP7 DUP5 MSTORE DUP3 MSTORE DUP1 DUP4 KECCAK256 DUP1 SLOAD PUSH1 0xFF NOT AND SWAP1 SSTORE SWAP3 DUP3 MSTORE PUSH2 0x138 DUP2 MSTORE SWAP1 DUP3 SWAP1 KECCAK256 SLOAD SWAP2 MLOAD PUSH16 0xFFFFFFFFFFFFFFFFFFFFFFFFFFFFFFFF NOT PUSH1 0x80 DUP13 SWAP1 SHL AND SWAP2 DUP2 ADD SWAP2 SWAP1 SWAP2 MSTORE PUSH1 0x30 DUP2 ADD DUP5 SWAP1 MSTORE PUSH1 0x1 PUSH1 0x1 PUSH1 0x60 SHL SUB NOT PUSH1 0x60 DUP10 SWAP1 SHL DUP2 AND PUSH1 0x50 DUP4 ADD MSTORE DUP8 AND PUSH1 0x64 DUP3 ADD MSTORE PUSH1 0x1 PUSH1 0x1 PUSH1 0xA0 SHL SUB SWAP1 SWAP2 AND SWAP1 PUSH1 0x1 SWAP1 PUSH1 0x78 ADD PUSH1 0x40 DUP1 MLOAD PUSH1 0x1F NOT DUP2 DUP5 SUB ADD DUP2 MSTORE DUP3 DUP3 MSTORE DUP1 MLOAD PUSH1 0x20 SWAP2 DUP3 ADD KECCAK256 DUP10 MLOAD DUP11 DUP4 ADD MLOAD DUP12 DUP6 ADD MLOAD PUSH1 0x0 DUP8 MSTORE SWAP4 DUP7 ADD DUP1 DUP7 MSTORE SWAP3 SWAP1 SWAP3 MSTORE PUSH1 0xFF AND SWAP3 DUP5 ADD SWAP3 SWAP1 SWAP3 MSTORE PUSH1 0x60 DUP4 ADD SWAP2 SWAP1 SWAP2 MSTORE PUSH1 0x80 DUP3 ADD MSTORE PUSH1 0xA0 ADD PUSH1 0x20 PUSH1 0x40 MLOAD PUSH1 0x20 DUP2 SUB SWAP1 DUP1 DUP5 SUB SWAP1 DUP6 GAS STATICCALL ISZERO DUP1 ISZERO PUSH2 0xDDE JUMPI RETURNDATASIZE PUSH1 0x0 DUP1 RETURNDATACOPY RETURNDATASIZE PUSH1 0x0 REVERT JUMPDEST POP POP POP PUSH1 0x20 PUSH1 0x40 MLOAD SUB MLOAD PUSH1 0x1 PUSH1 0x1 PUSH1 0xA0 SHL SUB AND EQ PUSH2 0xE48 JUMPI PUSH1 0x40 MLOAD PUSH3 0x461BCD PUSH1 0xE5 SHL DUP2 MSTORE PUSH1 0x20 PUSH1 0x4 DUP3 ADD MSTORE PUSH1 0x21 PUSH1 0x24 DUP3 ADD MSTORE PUSH32 0x73686F756C64206265207369676E6564206279206F7261636C65207369676E65 PUSH1 0x44 DUP3 ADD MSTORE PUSH1 0x39 PUSH1 0xF9 SHL PUSH1 0x64 DUP3 ADD MSTORE PUSH1 0x84 ADD PUSH2 0x98E JUMP JUMPDEST PUSH1 0x1 PUSH1 0x1 PUSH1 0x80 SHL SUB DUP9 AND PUSH1 0x0 SWAP1 DUP2 MSTORE PUSH2 0x13A PUSH1 0x20 MSTORE PUSH1 0x40 DUP2 KECCAK256 DUP1 SLOAD PUSH1 0x1 SWAP3 SWAP1 PUSH2 0xE76 SWAP1 DUP5 SWAP1 PUSH2 0xFFFF AND PUSH2 0x4255 JUMP JUMPDEST DUP3 SLOAD PUSH2 0x100 SWAP3 SWAP1 SWAP3 EXP PUSH2 0xFFFF DUP2 DUP2 MUL NOT SWAP1 SWAP4 AND SWAP2 DUP4 AND MUL OR SWAP1 SWAP2 SSTORE PUSH1 0x1 PUSH1 0x1 PUSH1 0x80 SHL SUB DUP11 AND PUSH1 0x0 SWAP1 DUP2 MSTORE PUSH2 0x13A PUSH1 0x20 MSTORE PUSH1 0x40 DUP2 KECCAK256 SLOAD SWAP1 SWAP3 POP PUSH2 0xEBC SWAP2 DUP12 SWAP2 DUP6 SWAP2 AND PUSH2 0x26A6 JUMP JUMPDEST SWAP1 POP PUSH1 0x1 PUSH1 0x1 PUSH1 0xA0 SHL SUB DUP8 AND PUSH2 0xED0 JUMPI ADDRESS SWAP7 POP JUMPDEST PUSH1 0x1 PUSH1 0x1 PUSH1 0x60 SHL SUB NOT DUP7 AND PUSH2 0xEE9 JUMPI PUSH2 0x135 SLOAD PUSH1 0x60 SHL SWAP6 POP JUMPDEST PUSH1 0x1 PUSH1 0x1 PUSH1 0xA0 SHL SUB DUP8 AND ADDRESS EQ DUP1 ISZERO PUSH2 0xF14 JUMPI POP PUSH2 0x135 SLOAD PUSH1 0x60 SHL PUSH1 0x1 PUSH1 0x1 PUSH1 0x60 SHL SUB NOT SWAP1 DUP2 AND SWAP1 DUP8 AND EQ JUMPDEST ISZERO PUSH2 0xF74 JUMPI PUSH1 0x40 MLOAD PUSH3 0x461BCD PUSH1 0xE5 SHL DUP2 MSTORE PUSH1 0x20 PUSH1 0x4 DUP3 ADD MSTORE PUSH1 0x2A PUSH1 0x24 DUP3 ADD MSTORE PUSH32 0x63616E6E6F7420636C65617220626F7468207370616365206F776E6572207768 PUSH1 0x44 DUP3 ADD MSTORE PUSH10 0x656E206D696E74696E67 PUSH1 0xB0 SHL PUSH1 0x64 DUP3 ADD MSTORE PUSH1 0x84 ADD PUSH2 0x98E JUMP JUMPDEST ADDRESS PUSH1 0x1 PUSH1 0x1 PUSH1 0xA0 SHL SUB DUP9 AND SUB PUSH2 0x1049 JUMPI PUSH2 0x136 SLOAD PUSH2 0x135 SLOAD PUSH1 0x40 MLOAD PUSH1 0x24 DUP2 ADD DUP5 SWAP1 MSTORE PUSH1 0x1 PUSH1 0x44 DUP3 ADD MSTORE PUSH1 0x1 PUSH1 0x1 PUSH1 0xA0 SHL SUB SWAP1 SWAP3 AND SWAP2 PUSH4 0xBEA05EE3 SWAP2 PUSH1 0x60 SHL SWAP1 PUSH1 0x64 ADD PUSH1 0x40 DUP1 MLOAD PUSH1 0x1F NOT DUP2 DUP5 SUB ADD DUP2 MSTORE SWAP2 DUP2 MSTORE PUSH1 0x20 DUP3 ADD DUP1 MLOAD PUSH1 0x1 PUSH1 0x1 PUSH1 0xE0 SHL SUB AND PUSH4 0x6DA6579 PUSH1 0xE2 SHL OR SWAP1 MSTORE MLOAD PUSH1 0xE0 DUP5 SWAP1 SHL PUSH1 0x1 PUSH1 0x1 PUSH1 0xE0 SHL SUB NOT AND DUP2 MSTORE PUSH2 0x1000 SWAP3 SWAP2 SWAP1 PUSH1 0x4 ADD PUSH2 0x4114 JUMP JUMPDEST PUSH1 0x0 PUSH1 0x40 MLOAD DUP1 DUP4 SUB DUP2 PUSH1 0x0 DUP8 GAS CALL ISZERO DUP1 ISZERO PUSH2 0x101F JUMPI RETURNDATASIZE PUSH1 0x0 DUP1 RETURNDATACOPY RETURNDATASIZE PUSH1 0x0 REVERT JUMPDEST POP POP POP POP PUSH1 0x40 MLOAD RETURNDATASIZE PUSH1 0x0 DUP3 RETURNDATACOPY PUSH1 0x1F RETURNDATASIZE SWAP1 DUP2 ADD PUSH1 0x1F NOT AND DUP3 ADD PUSH1 0x40 MSTORE PUSH2 0x1047 SWAP2 SWAP1 DUP2 ADD SWAP1 PUSH2 0x413C JUMP JUMPDEST POP JUMPDEST PUSH2 0x136 SLOAD PUSH2 0x135 SLOAD PUSH1 0x40 MLOAD PUSH1 0x1 PUSH1 0x1 PUSH1 0x60 SHL SUB NOT DUP10 AND PUSH1 0x24 DUP3 ADD MSTORE PUSH1 0x44 DUP2 ADD DUP5 SWAP1 MSTORE PUSH1 0x1 PUSH1 0x1 PUSH1 0xA0 SHL SUB SWAP1 SWAP3 AND SWAP2 PUSH4 0xBEA05EE3 SWAP2 PUSH1 0x60 SHL SWAP1 PUSH1 0x64 ADD PUSH1 0x40 DUP1 MLOAD PUSH1 0x1F NOT DUP2 DUP5 SUB ADD DUP2 MSTORE SWAP2 DUP2 MSTORE PUSH1 0x20 DUP3 ADD DUP1 MLOAD PUSH1 0x1 PUSH1 0x1 PUSH1 0xE0 SHL SUB AND PUSH4 0xE7E75AA9 PUSH1 0xE0 SHL OR SWAP1 MSTORE MLOAD PUSH1 0xE0 DUP5 SWAP1 SHL PUSH1 0x1 PUSH1 0x1 PUSH1 0xE0 SHL SUB NOT AND DUP2 MSTORE PUSH2 0x10CE SWAP3 SWAP2 SWAP1 PUSH1 0x4 ADD PUSH2 0x4114 JUMP JUMPDEST PUSH1 0x0 PUSH1 0x40 MLOAD DUP1 DUP4 SUB DUP2 PUSH1 0x0 DUP8 GAS CALL ISZERO DUP1 ISZERO PUSH2 0x10ED JUMPI RETURNDATASIZE PUSH1 0x0 DUP1 RETURNDATACOPY RETURNDATASIZE PUSH1 0x0 REVERT JUMPDEST POP POP POP POP PUSH1 0x40 MLOAD RETURNDATASIZE PUSH1 0x0 DUP3 RETURNDATACOPY PUSH1 0x1F RETURNDATASIZE SWAP1 DUP2 ADD PUSH1 0x1F NOT AND DUP3 ADD PUSH1 0x40 MSTORE PUSH2 0x1115 SWAP2 SWAP1 DUP2 ADD SWAP1 PUSH2 0x413C JUMP JUMPDEST POP PUSH2 0x1120 DUP8 DUP3 PUSH2 0x26E6 JUMP JUMPDEST SWAP9 SWAP8 POP POP POP POP POP POP POP POP JUMP JUMPDEST PUSH1 0x1 PUSH1 0x1 PUSH1 0xA0 SHL SUB PUSH32 0x0 AND ADDRESS SUB PUSH2 0x1174 JUMPI PUSH1 0x40 MLOAD PUSH3 0x461BCD PUSH1 0xE5 SHL DUP2 MSTORE PUSH1 0x4 ADD PUSH2 0x98E SWAP1 PUSH2 0x4277 JUMP JUMPDEST PUSH32 0x0 PUSH1 0x1 PUSH1 0x1 PUSH1 0xA0 SHL SUB AND PUSH2 0x11BD PUSH1 0x0 DUP1 MLOAD PUSH1 0x20 PUSH2 0x463B DUP4 CODECOPY DUP2 MLOAD SWAP2 MSTORE SLOAD PUSH1 0x1 PUSH1 0x1 PUSH1 0xA0 SHL SUB AND SWAP1 JUMP JUMPDEST PUSH1 0x1 PUSH1 0x1 PUSH1 0xA0 SHL SUB AND EQ PUSH2 0x11E3 JUMPI PUSH1 0x40 MLOAD PUSH3 0x461BCD PUSH1 0xE5 SHL DUP2 MSTORE PUSH1 0x4 ADD PUSH2 0x98E SWAP1 PUSH2 0x42C3 JUMP JUMPDEST PUSH2 0x11EC DUP2 PUSH2 0x2871 JUMP JUMPDEST PUSH1 0x40 DUP1 MLOAD PUSH1 0x0 DUP1 DUP3 MSTORE PUSH1 0x20 DUP3 ADD SWAP1 SWAP3 MSTORE PUSH2 0x1208 SWAP2 DUP4 SWAP2 SWAP1 PUSH2 0x2879 JUMP JUMPDEST POP JUMP JUMPDEST PUSH1 0x0 SLOAD PUSH2 0x100 SWAP1 DIV PUSH1 0xFF AND ISZERO DUP1 DUP1 ISZERO PUSH2 0x122B JUMPI POP PUSH1 0x0 SLOAD PUSH1 0x1 PUSH1 0xFF SWAP1 SWAP2 AND LT JUMPDEST DUP1 PUSH2 0x1245 JUMPI POP ADDRESS EXTCODESIZE ISZERO DUP1 ISZERO PUSH2 0x1245 JUMPI POP PUSH1 0x0 SLOAD PUSH1 0xFF AND PUSH1 0x1 EQ JUMPDEST PUSH2 0x12A8 JUMPI PUSH1 0x40 MLOAD PUSH3 0x461BCD PUSH1 0xE5 SHL DUP2 MSTORE PUSH1 0x20 PUSH1 0x4 DUP3 ADD MSTORE PUSH1 0x2E PUSH1 0x24 DUP3 ADD MSTORE PUSH32 0x496E697469616C697A61626C653A20636F6E747261637420697320616C726561 PUSH1 0x44 DUP3 ADD MSTORE PUSH14 0x191E481A5B9A5D1A585B1A5E9959 PUSH1 0x92 SHL PUSH1 0x64 DUP3 ADD MSTORE PUSH1 0x84 ADD PUSH2 0x98E JUMP JUMPDEST PUSH1 0x0 DUP1 SLOAD PUSH1 0xFF NOT AND PUSH1 0x1 OR SWAP1 SSTORE DUP1 ISZERO PUSH2 0x12CB JUMPI PUSH1 0x0 DUP1 SLOAD PUSH2 0xFF00 NOT AND PUSH2 0x100 OR SWAP1 SSTORE JUMPDEST PUSH2 0x12D5 DUP8 DUP8 PUSH2 0x29E4 JUMP JUMPDEST PUSH2 0x12FA DUP8 PUSH1 0x40 MLOAD DUP1 PUSH1 0x40 ADD PUSH1 0x40 MSTORE DUP1 PUSH1 0x2 DUP2 MSTORE PUSH1 0x20 ADD PUSH2 0x7631 PUSH1 0xF0 SHL DUP2 MSTORE POP DUP6 PUSH2 0x2A15 JUMP JUMPDEST PUSH2 0x1302 PUSH2 0x2A47 JUMP JUMPDEST PUSH2 0x135 DUP1 SLOAD PUSH1 0x1 PUSH1 0x1 PUSH1 0xA0 SHL SUB NOT SWAP1 DUP2 AND PUSH1 0x60 DUP9 SWAP1 SHR OR SWAP1 SWAP2 SSTORE PUSH2 0x136 DUP1 SLOAD SWAP1 SWAP2 AND PUSH1 0x1 PUSH1 0x1 PUSH1 0xA0 SHL SUB DUP7 AND OR SWAP1 SSTORE PUSH2 0x137 DUP3 SWAP1 SSTORE DUP1 ISZERO PUSH2 0x137D JUMPI PUSH1 0x0 DUP1 SLOAD PUSH2 0xFF00 NOT AND SWAP1 SSTORE PUSH1 0x40 MLOAD PUSH1 0x1 DUP2 MSTORE PUSH32 0x7F26B83FF96E1F2B6A682F133852F6798A09C465DA95921460CEFB3847402498 SWAP1 PUSH1 0x20 ADD PUSH1 0x40 MLOAD DUP1 SWAP2 SUB SWAP1 LOG1 JUMPDEST POP POP POP POP POP POP POP JUMP JUMPDEST PUSH1 0x0 DUP1 DUP3 PUSH1 0x40 MLOAD PUSH1 0x20 ADD PUSH2 0x139A SWAP2 SWAP1 PUSH2 0x4223 JUMP JUMPDEST PUSH1 0x40 DUP1 MLOAD PUSH1 0x1F NOT DUP2 DUP5 SUB ADD DUP2 MSTORE SWAP2 DUP2 MSTORE DUP2 MLOAD PUSH1 0x20 SWAP3 DUP4 ADD KECCAK256 PUSH1 0x1 PUSH1 0x1 PUSH1 0x80 SHL SUB DUP8 AND PUSH1 0x0 SWAP1 DUP2 MSTORE PUSH2 0x139 DUP5 MSTORE DUP3 DUP2 KECCAK256 SWAP2 DUP2 MSTORE SWAP3 MSTORE SWAP1 KECCAK256 SLOAD PUSH1 0xFF AND SWAP2 POP POP SWAP3 SWAP2 POP POP JUMP JUMPDEST PUSH1 0x1 PUSH1 0x1 PUSH1 0xA0 SHL SUB DUP3 AND ADDRESS EQ PUSH2 0x149D JUMPI PUSH2 0x13F6 DUP2 PUSH2 0x2A76 JUMP JUMPDEST PUSH2 0x149D JUMPI PUSH1 0x40 MLOAD PUSH3 0x461BCD PUSH1 0xE5 SHL DUP2 MSTORE PUSH1 0x20 PUSH1 0x4 DUP3 ADD MSTORE PUSH1 0x66 PUSH1 0x24 DUP3 ADD MSTORE PUSH32 0x5468697320746F6B656E206973206E6F74207472616E7366657261626C652062 PUSH1 0x44 DUP3 ADD MSTORE PUSH32 0x656361757365206974732065766D207370616365206F776E6572206973207365 PUSH1 0x64 DUP3 ADD MSTORE PUSH32 0x742E20436C6561722065766D207370616365206F776E657220616E6420747279 PUSH1 0x84 DUP3 ADD MSTORE PUSH6 0x1030B3B0B4B7 PUSH1 0xD1 SHL PUSH1 0xA4 DUP3 ADD MSTORE PUSH1 0xC4 ADD PUSH2 0x98E JUMP JUMPDEST PUSH2 0xA2F DUP4 DUP4 DUP4 PUSH2 0x2A9F JUMP JUMPDEST PUSH2 0x136 SLOAD PUSH2 0x135 SLOAD PUSH1 0x40 DUP1 MLOAD PUSH1 0x24 DUP1 DUP3 ADD DUP7 SWAP1 MSTORE DUP3 MLOAD DUP1 DUP4 SUB SWAP1 SWAP2 ADD DUP2 MSTORE PUSH1 0x44 SWAP1 SWAP2 ADD DUP3 MSTORE PUSH1 0x20 DUP2 ADD DUP1 MLOAD PUSH1 0x1 PUSH1 0x1 PUSH1 0xE0 SHL SUB AND PUSH4 0x4DD72F05 PUSH1 0xE0 SHL OR SWAP1 MSTORE SWAP1 MLOAD PUSH4 0x30B4EF7D PUSH1 0xE0 SHL DUP2 MSTORE PUSH1 0x0 SWAP4 PUSH1 0x1 PUSH1 0x1 PUSH1 0xA0 SHL SUB AND SWAP3 PUSH4 0x30B4EF7D SWAP3 PUSH2 0xAA5 SWAP3 PUSH1 0x60 SWAP3 SWAP1 SWAP3 SHL SWAP2 PUSH1 0x4 ADD PUSH2 0x4114 JUMP JUMPDEST PUSH1 0x1 PUSH1 0x1 PUSH1 0xA0 SHL SUB PUSH32 0x0 AND ADDRESS SUB PUSH2 0x1561 JUMPI PUSH1 0x40 MLOAD PUSH3 0x461BCD PUSH1 0xE5 SHL DUP2 MSTORE PUSH1 0x4 ADD PUSH2 0x98E SWAP1 PUSH2 0x4277 JUMP JUMPDEST PUSH32 0x0 PUSH1 0x1 PUSH1 0x1 PUSH1 0xA0 SHL SUB AND PUSH2 0x15AA PUSH1 0x0 DUP1 MLOAD PUSH1 0x20 PUSH2 0x463B DUP4 CODECOPY DUP2 MLOAD SWAP2 MSTORE SLOAD PUSH1 0x1 PUSH1 0x1 PUSH1 0xA0 SHL SUB AND SWAP1 JUMP JUMPDEST PUSH1 0x1 PUSH1 0x1 PUSH1 0xA0 SHL SUB AND EQ PUSH2 0x15D0 JUMPI PUSH1 0x40 MLOAD PUSH3 0x461BCD PUSH1 0xE5 SHL DUP2 MSTORE PUSH1 0x4 ADD PUSH2 0x98E SWAP1 PUSH2 0x42C3 JUMP JUMPDEST PUSH2 0x15D9 DUP3 PUSH2 0x2871 JUMP JUMPDEST PUSH2 0x15E5 DUP3 DUP3 PUSH1 0x1 PUSH2 0x2879 JUMP JUMPDEST POP POP JUMP JUMPDEST PUSH1 0x0 ADDRESS PUSH1 0x1 PUSH1 0x1 PUSH1 0xA0 SHL SUB PUSH32 0x0 AND EQ PUSH2 0x1689 JUMPI PUSH1 0x40 MLOAD PUSH3 0x461BCD PUSH1 0xE5 SHL DUP2 MSTORE PUSH1 0x20 PUSH1 0x4 DUP3 ADD MSTORE PUSH1 0x38 PUSH1 0x24 DUP3 ADD MSTORE PUSH32 0x555550535570677261646561626C653A206D757374206E6F742062652063616C PUSH1 0x44 DUP3 ADD MSTORE PUSH32 0x6C6564207468726F7567682064656C656761746563616C6C0000000000000000 PUSH1 0x64 DUP3 ADD MSTORE PUSH1 0x84 ADD PUSH2 0x98E JUMP JUMPDEST POP PUSH1 0x0 DUP1 MLOAD PUSH1 0x20 PUSH2 0x463B DUP4 CODECOPY DUP2 MLOAD SWAP2 MSTORE SWAP1 JUMP JUMPDEST PUSH1 0x0 DUP1 PUSH2 0x16AC PUSH3 0xF4240 DUP5 PUSH2 0x430F JUMP JUMPDEST SWAP1 POP PUSH1 0x0 PUSH2 0x2710 PUSH2 0x16C0 DUP4 PUSH3 0xF4240 PUSH2 0x4331 JUMP JUMPDEST PUSH2 0x16CA SWAP1 DUP7 PUSH2 0x4348 JUMP JUMPDEST PUSH2 0x16D4 SWAP2 SWAP1 PUSH2 0x430F JUMP JUMPDEST SWAP5 SWAP4 POP POP POP POP JUMP JUMPDEST PUSH2 0x16E4 PUSH2 0x2ABA JUMP JUMPDEST PUSH2 0x13B PUSH2 0x16F1 DUP3 DUP3 PUSH2 0x43A9 JUMP JUMPDEST POP PUSH2 0x136 SLOAD PUSH2 0x135 SLOAD PUSH1 0x40 MLOAD PUSH1 0x1 PUSH1 0x1 PUSH1 0xA0 SHL SUB SWAP1 SWAP3 AND SWAP2 PUSH4 0xBEA05EE3 SWAP2 PUSH1 0x60 SHL SWAP1 PUSH2 0x1721 SWAP1 DUP6 SWAP1 PUSH1 0x24 ADD PUSH2 0x38BE JUMP JUMPDEST PUSH1 0x40 DUP1 MLOAD PUSH1 0x1F NOT DUP2 DUP5 SUB ADD DUP2 MSTORE SWAP2 DUP2 MSTORE PUSH1 0x20 DUP3 ADD DUP1 MLOAD PUSH1 0x1 PUSH1 0x1 PUSH1 0xE0 SHL SUB AND PUSH4 0x55F804B3 PUSH1 0xE0 SHL OR SWAP1 MSTORE MLOAD PUSH1 0xE0 DUP5 SWAP1 SHL PUSH1 0x1 PUSH1 0x1 PUSH1 0xE0 SHL SUB NOT AND DUP2 MSTORE PUSH2 0x176B SWAP3 SWAP2 SWAP1 PUSH1 0x4 ADD PUSH2 0x4114 JUMP JUMPDEST PUSH1 0x0 PUSH1 0x40 MLOAD DUP1 DUP4 SUB DUP2 PUSH1 0x0 DUP8 GAS CALL ISZERO DUP1 ISZERO PUSH2 0x178A JUMPI RETURNDATASIZE PUSH1 0x0 DUP1 RETURNDATACOPY RETURNDATASIZE PUSH1 0x0 REVERT JUMPDEST POP POP POP POP PUSH1 0x40 MLOAD RETURNDATASIZE PUSH1 0x0 DUP3 RETURNDATACOPY PUSH1 0x1F RETURNDATASIZE SWAP1 DUP2 ADD PUSH1 0x1F NOT AND DUP3 ADD PUSH1 0x40 MSTORE PUSH2 0x15E5 SWAP2 SWAP1 DUP2 ADD SWAP1 PUSH2 0x413C JUMP JUMPDEST PUSH1 0x0 DUP2 DUP2 MSTORE PUSH1 0x67 PUSH1 0x20 MSTORE PUSH1 0x40 DUP2 KECCAK256 SLOAD PUSH1 0x1 PUSH1 0x1 PUSH1 0xA0 SHL SUB AND DUP1 PUSH2 0x85B JUMPI PUSH1 0x40 MLOAD PUSH3 0x461BCD PUSH1 0xE5 SHL DUP2 MSTORE PUSH1 0x20 PUSH1 0x4 DUP3 ADD MSTORE PUSH1 0x18 PUSH1 0x24 DUP3 ADD MSTORE PUSH24 0x115490CDCC8C4E881A5B9D985B1A59081D1BDAD95B881251 PUSH1 0x42 SHL PUSH1 0x44 DUP3 ADD MSTORE PUSH1 0x64 ADD PUSH2 0x98E JUMP JUMPDEST PUSH2 0x13B DUP1 SLOAD PUSH2 0x1820 SWAP1 PUSH2 0x40DA JUMP JUMPDEST DUP1 PUSH1 0x1F ADD PUSH1 0x20 DUP1 SWAP2 DIV MUL PUSH1 0x20 ADD PUSH1 0x40 MLOAD SWAP1 DUP2 ADD PUSH1 0x40 MSTORE DUP1 SWAP3 SWAP2 SWAP1 DUP2 DUP2 MSTORE PUSH1 0x20 ADD DUP3 DUP1 SLOAD PUSH2 0x184C SWAP1 PUSH2 0x40DA JUMP JUMPDEST DUP1 ISZERO PUSH2 0x1899 JUMPI DUP1 PUSH1 0x1F LT PUSH2 0x186E JUMPI PUSH2 0x100 DUP1 DUP4 SLOAD DIV MUL DUP4 MSTORE SWAP2 PUSH1 0x20 ADD SWAP2 PUSH2 0x1899 JUMP JUMPDEST DUP3 ADD SWAP2 SWAP1 PUSH1 0x0 MSTORE PUSH1 0x20 PUSH1 0x0 KECCAK256 SWAP1 JUMPDEST DUP2 SLOAD DUP2 MSTORE SWAP1 PUSH1 0x1 ADD SWAP1 PUSH1 0x20 ADD DUP1 DUP4 GT PUSH2 0x187C JUMPI DUP3 SWAP1 SUB PUSH1 0x1F AND DUP3 ADD SWAP2 JUMPDEST POP POP POP POP POP DUP2 JUMP JUMPDEST PUSH1 0x0 PUSH1 0x1 PUSH1 0x1 PUSH1 0xA0 SHL SUB DUP3 AND PUSH2 0x190B JUMPI PUSH1 0x40 MLOAD PUSH3 0x461BCD PUSH1 0xE5 SHL DUP2 MSTORE PUSH1 0x20 PUSH1 0x4 DUP3 ADD MSTORE PUSH1 0x29 PUSH1 0x24 DUP3 ADD MSTORE PUSH32 0x4552433732313A2061646472657373207A65726F206973206E6F742061207661 PUSH1 0x44 DUP3 ADD MSTORE PUSH9 0x3634B21037BBB732B9 PUSH1 0xB9 SHL PUSH1 0x64 DUP3 ADD MSTORE PUSH1 0x84 ADD PUSH2 0x98E JUMP JUMPDEST POP PUSH1 0x1 PUSH1 0x1 PUSH1 0xA0 SHL SUB AND PUSH1 0x0 SWAP1 DUP2 MSTORE PUSH1 0x68 PUSH1 0x20 MSTORE PUSH1 0x40 SWAP1 KECCAK256 SLOAD SWAP1 JUMP JUMPDEST PUSH2 0x192F PUSH2 0x2ABA JUMP JUMPDEST PUSH2 0x1939 PUSH1 0x0 PUSH2 0x2B14 JUMP JUMPDEST JUMP JUMPDEST PUSH2 0x136 SLOAD PUSH2 0x135 SLOAD PUSH1 0x40 MLOAD PUSH1 0x24 DUP2 ADD DUP5 SWAP1 MSTORE PUSH1 0x0 SWAP3 DUP4 SWAP3 PUSH1 0x1 PUSH1 0x1 PUSH1 0xA0 SHL SUB SWAP1 SWAP2 AND SWAP2 PUSH4 0x30B4EF7D SWAP2 PUSH1 0x60 SHL SWAP1 PUSH1 0x44 ADD PUSH1 0x40 DUP1 MLOAD PUSH1 0x1F NOT DUP2 DUP5 SUB ADD DUP2 MSTORE SWAP2 DUP2 MSTORE PUSH1 0x20 DUP3 ADD DUP1 MLOAD PUSH1 0x1 PUSH1 0x1 PUSH1 0xE0 SHL SUB AND PUSH4 0x31A9108F PUSH1 0xE1 SHL OR SWAP1 MSTORE MLOAD PUSH1 0xE0 DUP5 SWAP1 SHL PUSH1 0x1 PUSH1 0x1 PUSH1 0xE0 SHL SUB NOT AND DUP2 MSTORE PUSH2 0x19B5 SWAP3 SWAP2 SWAP1 PUSH1 0x4 ADD PUSH2 0x4114 JUMP JUMPDEST PUSH1 0x0 PUSH1 0x40 MLOAD DUP1 DUP4 SUB DUP2 DUP7 GAS STATICCALL ISZERO DUP1 ISZERO PUSH2 0x19D2 JUMPI RETURNDATASIZE PUSH1 0x0 DUP1 RETURNDATACOPY RETURNDATASIZE PUSH1 0x0 REVERT JUMPDEST POP POP POP POP PUSH1 0x40 MLOAD RETURNDATASIZE PUSH1 0x0 DUP3 RETURNDATACOPY PUSH1 0x1F RETURNDATASIZE SWAP1 DUP2 ADD PUSH1 0x1F NOT AND DUP3 ADD PUSH1 0x40 MSTORE PUSH2 0x19FA SWAP2 SWAP1 DUP2 ADD SWAP1 PUSH2 0x413C JUMP JUMPDEST PUSH2 0x1A03 SWAP1 PUSH2 0x41B2 JUMP JUMPDEST PUSH1 0x60 SHL SWAP4 SWAP3 POP POP POP JUMP JUMPDEST PUSH1 0x0 PUSH1 0x60 DUP1 PUSH1 0x0 DUP1 PUSH1 0x0 PUSH1 0x60 PUSH2 0x132 PUSH2 0x133 PUSH2 0x12E SLOAD ADDRESS PUSH1 0x0 DUP1 SHL PUSH1 0x0 PUSH1 0x1 PUSH1 0x1 PUSH1 0x40 SHL SUB DUP2 GT ISZERO PUSH2 0x1A41 JUMPI PUSH2 0x1A41 PUSH2 0x3984 JUMP JUMPDEST PUSH1 0x40 MLOAD SWAP1 DUP1 DUP3 MSTORE DUP1 PUSH1 0x20 MUL PUSH1 0x20 ADD DUP3 ADD PUSH1 0x40 MSTORE DUP1 ISZERO PUSH2 0x1A6A JUMPI DUP2 PUSH1 0x20 ADD PUSH1 0x20 DUP3 MUL DUP1 CALLDATASIZE DUP4 CALLDATACOPY ADD SWAP1 POP JUMPDEST POP PUSH1 0xF PUSH1 0xF8 SHL SWAP6 SWAP5 SWAP4 SWAP3 SWAP2 SWAP1 DUP6 DUP1 SLOAD PUSH2 0x1A82 SWAP1 PUSH2 0x40DA JUMP JUMPDEST DUP1 PUSH1 0x1F ADD PUSH1 0x20 DUP1 SWAP2 DIV MUL PUSH1 0x20 ADD PUSH1 0x40 MLOAD SWAP1 DUP2 ADD PUSH1 0x40 MSTORE DUP1 SWAP3 SWAP2 SWAP1 DUP2 DUP2 MSTORE PUSH1 0x20 ADD DUP3 DUP1 SLOAD PUSH2 0x1AAE SWAP1 PUSH2 0x40DA JUMP JUMPDEST DUP1 ISZERO PUSH2 0x1AFB JUMPI DUP1 PUSH1 0x1F LT PUSH2 0x1AD0 JUMPI PUSH2 0x100 DUP1 DUP4 SLOAD DIV MUL DUP4 MSTORE SWAP2 PUSH1 0x20 ADD SWAP2 PUSH2 0x1AFB JUMP JUMPDEST DUP3 ADD SWAP2 SWAP1 PUSH1 0x0 MSTORE PUSH1 0x20 PUSH1 0x0 KECCAK256 SWAP1 JUMPDEST DUP2 SLOAD DUP2 MSTORE SWAP1 PUSH1 0x1 ADD SWAP1 PUSH1 0x20 ADD DUP1 DUP4 GT PUSH2 0x1ADE JUMPI DUP3 SWAP1 SUB PUSH1 0x1F AND DUP3 ADD SWAP2 JUMPDEST POP POP POP POP POP SWAP6 POP DUP5 DUP1 SLOAD PUSH2 0x1B0E SWAP1 PUSH2 0x40DA JUMP JUMPDEST DUP1 PUSH1 0x1F ADD PUSH1 0x20 DUP1 SWAP2 DIV MUL PUSH1 0x20 ADD PUSH1 0x40 MLOAD SWAP1 DUP2 ADD PUSH1 0x40 MSTORE DUP1 SWAP3 SWAP2 SWAP1 DUP2 DUP2 MSTORE PUSH1 0x20 ADD DUP3 DUP1 SLOAD PUSH2 0x1B3A SWAP1 PUSH2 0x40DA JUMP JUMPDEST DUP1 ISZERO PUSH2 0x1B87 JUMPI DUP1 PUSH1 0x1F LT PUSH2 0x1B5C JUMPI PUSH2 0x100 DUP1 DUP4 SLOAD DIV MUL DUP4 MSTORE SWAP2 PUSH1 0x20 ADD SWAP2 PUSH2 0x1B87 JUMP JUMPDEST DUP3 ADD SWAP2 SWAP1 PUSH1 0x0 MSTORE PUSH1 0x20 PUSH1 0x0 KECCAK256 SWAP1 JUMPDEST DUP2 SLOAD DUP2 MSTORE SWAP1 PUSH1 0x1 ADD SWAP1 PUSH1 0x20 ADD DUP1 DUP4 GT PUSH2 0x1B6A JUMPI DUP3 SWAP1 SUB PUSH1 0x1F AND DUP3 ADD SWAP2 JUMPDEST POP POP POP POP POP SWAP5 POP SWAP7 POP SWAP7 POP SWAP7 POP SWAP7 POP SWAP7 POP SWAP7 POP SWAP7 POP SWAP1 SWAP2 SWAP3 SWAP4 SWAP5 SWAP6 SWAP7 JUMP JUMPDEST DUP1 MLOAD DUP3 MLOAD EQ PUSH2 0x1C0E JUMPI PUSH1 0x40 MLOAD PUSH3 0x461BCD PUSH1 0xE5 SHL DUP2 MSTORE PUSH1 0x20 PUSH1 0x4 DUP3 ADD MSTORE PUSH1 0x2F PUSH1 0x24 DUP3 ADD MSTORE PUSH32 0x757365726E616D6520616E6420726172697279206172726179206D7573742068 PUSH1 0x44 DUP3 ADD MSTORE PUSH15 0xC2ECCA40E6C2DACA40D8CADCCEE8D PUSH1 0x8B SHL PUSH1 0x64 DUP3 ADD MSTORE PUSH1 0x84 ADD PUSH2 0x98E JUMP JUMPDEST PUSH1 0xFB SLOAD PUSH1 0x1 PUSH1 0x1 PUSH1 0xA0 SHL SUB AND CALLER EQ PUSH2 0x1C92 JUMPI PUSH2 0x1C2A CALLER DUP5 PUSH2 0x2B66 JUMP JUMPDEST PUSH2 0x1C92 JUMPI PUSH1 0x40 MLOAD PUSH3 0x461BCD PUSH1 0xE5 SHL DUP2 MSTORE PUSH1 0x20 PUSH1 0x4 DUP3 ADD MSTORE PUSH1 0x33 PUSH1 0x24 DUP3 ADD MSTORE PUSH32 0x6D73672073656E646572206973206E6F7420617574686F72697A656420746F20 PUSH1 0x44 DUP3 ADD MSTORE PUSH19 0x39B2BA1036B4B73A103832B936B4B9B9B4B7B7 PUSH1 0x69 SHL PUSH1 0x64 DUP3 ADD MSTORE PUSH1 0x84 ADD PUSH2 0x98E JUMP JUMPDEST PUSH1 0x0 JUMPDEST DUP3 MLOAD DUP2 LT ISZERO PUSH2 0xBCC JUMPI PUSH2 0x1CDB DUP5 DUP5 DUP4 DUP2 MLOAD DUP2 LT PUSH2 0x1CB4 JUMPI PUSH2 0x1CB4 PUSH2 0x4468 JUMP JUMPDEST PUSH1 0x20 MUL PUSH1 0x20 ADD ADD MLOAD DUP5 DUP5 DUP2 MLOAD DUP2 LT PUSH2 0x1CCE JUMPI PUSH2 0x1CCE PUSH2 0x4468 JUMP JUMPDEST PUSH1 0x20 MUL PUSH1 0x20 ADD ADD MLOAD PUSH2 0x2BBC JUMP JUMPDEST DUP1 PUSH2 0x1CE5 DUP2 PUSH2 0x447E JUMP JUMPDEST SWAP2 POP POP PUSH2 0x1C95 JUMP JUMPDEST PUSH1 0x60 PUSH1 0x66 DUP1 SLOAD PUSH2 0x870 SWAP1 PUSH2 0x40DA JUMP JUMPDEST PUSH2 0x15E5 CALLER DUP4 DUP4 PUSH2 0x2C20 JUMP JUMPDEST DUP2 PUSH2 0x1D11 DUP2 PUSH2 0x17B2 JUMP JUMPDEST PUSH1 0x1 PUSH1 0x1 PUSH1 0xA0 SHL SUB AND CALLER PUSH1 0x1 PUSH1 0x1 PUSH1 0xA0 SHL SUB AND EQ PUSH2 0x1D71 JUMPI PUSH1 0x40 MLOAD PUSH3 0x461BCD PUSH1 0xE5 SHL DUP2 MSTORE PUSH1 0x20 PUSH1 0x4 DUP3 ADD MSTORE PUSH1 0x1E PUSH1 0x24 DUP3 ADD MSTORE PUSH32 0x63616C6C6572206973206E6F7420636F726520746F6B656E206F776E65720000 PUSH1 0x44 DUP3 ADD MSTORE PUSH1 0x64 ADD PUSH2 0x98E JUMP JUMPDEST PUSH2 0xA2F DUP4 DUP4 PUSH2 0x2CEE JUMP JUMPDEST PUSH2 0x1D85 CALLER DUP4 PUSH2 0x2314 JUMP JUMPDEST PUSH2 0x1DA1 JUMPI PUSH1 0x40 MLOAD PUSH3 0x461BCD PUSH1 0xE5 SHL DUP2 MSTORE PUSH1 0x4 ADD PUSH2 0x98E SWAP1 PUSH2 0x41D6 JUMP JUMPDEST PUSH2 0xBCC DUP5 DUP5 DUP5 DUP5 PUSH2 0x2DBA JUMP JUMPDEST PUSH1 0x60 PUSH2 0x1DB8 DUP3 PUSH2 0x2247 JUMP JUMPDEST PUSH1 0x0 PUSH2 0x1DC2 PUSH2 0x2DED JUMP JUMPDEST SWAP1 POP PUSH1 0x0 DUP2 MLOAD GT PUSH2 0x1DE2 JUMPI PUSH1 0x40 MLOAD DUP1 PUSH1 0x20 ADD PUSH1 0x40 MSTORE DUP1 PUSH1 0x0 DUP2 MSTORE POP PUSH2 0x1E18 JUMP JUMPDEST DUP1 PUSH2 0x1DF7 PUSH2 0x1DF2 PUSH2 0x2710 DUP7 PUSH2 0x430F JUMP JUMPDEST PUSH2 0x2DFD JUMP JUMPDEST PUSH1 0x40 MLOAD PUSH1 0x20 ADD PUSH2 0x1E08 SWAP3 SWAP2 SWAP1 PUSH2 0x4497 JUMP JUMPDEST PUSH1 0x40 MLOAD PUSH1 0x20 DUP2 DUP4 SUB SUB DUP2 MSTORE SWAP1 PUSH1 0x40 MSTORE JUMPDEST SWAP4 SWAP3 POP POP POP JUMP JUMPDEST DUP1 PUSH2 0x1E29 DUP2 PUSH2 0x17B2 JUMP JUMPDEST PUSH1 0x1 PUSH1 0x1 PUSH1 0xA0 SHL SUB AND CALLER PUSH1 0x1 PUSH1 0x1 PUSH1 0xA0 SHL SUB AND EQ PUSH2 0x1E89 JUMPI PUSH1 0x40 MLOAD PUSH3 0x461BCD PUSH1 0xE5 SHL DUP2 MSTORE PUSH1 0x20 PUSH1 0x4 DUP3 ADD MSTORE PUSH1 0x1E PUSH1 0x24 DUP3 ADD MSTORE PUSH32 0x63616C6C6572206973206E6F7420636F726520746F6B656E206F776E65720000 PUSH1 0x44 DUP3 ADD MSTORE PUSH1 0x64 ADD PUSH2 0x98E JUMP JUMPDEST PUSH2 0x135 SLOAD PUSH2 0x15E5 SWAP1 DUP4 SWAP1 PUSH1 0x60 SHL PUSH2 0x2CEE JUMP JUMPDEST PUSH2 0x137 SLOAD PUSH1 0x1 PUSH1 0x1 PUSH1 0x80 SHL SUB DUP3 AND PUSH1 0x0 SWAP1 DUP2 MSTORE PUSH2 0x138 PUSH1 0x20 MSTORE PUSH1 0x40 SWAP1 KECCAK256 PUSH1 0x2 ADD SLOAD NUMBER SWAP2 PUSH2 0x1EC7 SWAP2 PUSH2 0x44C6 JUMP JUMPDEST LT PUSH2 0x1F25 JUMPI PUSH1 0x40 MLOAD PUSH3 0x461BCD PUSH1 0xE5 SHL DUP2 MSTORE PUSH1 0x20 PUSH1 0x4 DUP3 ADD MSTORE PUSH1 0x28 PUSH1 0x24 DUP3 ADD MSTORE PUSH32 0x6D696E742073657474696E67206E6F74206578706972656420666F7220656E6F PUSH1 0x44 DUP3 ADD MSTORE PUSH8 0x7567682074696D65 PUSH1 0xC0 SHL PUSH1 0x64 DUP3 ADD MSTORE PUSH1 0x84 ADD PUSH2 0x98E JUMP JUMPDEST PUSH1 0x1 PUSH1 0x1 PUSH1 0x80 SHL SUB AND PUSH1 0x0 SWAP1 DUP2 MSTORE PUSH2 0x138 PUSH1 0x20 MSTORE PUSH1 0x40 DUP2 KECCAK256 DUP1 SLOAD PUSH1 0x1 PUSH1 0x1 PUSH1 0xA0 SHL SUB NOT SWAP1 DUP2 AND DUP3 SSTORE PUSH1 0x1 DUP3 ADD DUP1 SLOAD SWAP1 SWAP2 AND SWAP1 SSTORE PUSH1 0x2 ADD SSTORE JUMP JUMPDEST PUSH2 0xA2F DUP4 DUP4 ADDRESS DUP5 PUSH2 0xB37 JUMP JUMPDEST PUSH2 0x1F72 PUSH2 0x2ABA JUMP JUMPDEST PUSH1 0x1 PUSH1 0x1 PUSH1 0xA0 SHL SUB DUP2 AND PUSH2 0x1FD7 JUMPI PUSH1 0x40 MLOAD PUSH3 0x461BCD PUSH1 0xE5 SHL DUP2 MSTORE PUSH1 0x20 PUSH1 0x4 DUP3 ADD MSTORE PUSH1 0x26 PUSH1 0x24 DUP3 ADD MSTORE PUSH32 0x4F776E61626C653A206E6577206F776E657220697320746865207A65726F2061 PUSH1 0x44 DUP3 ADD MSTORE PUSH6 0x646472657373 PUSH1 0xD0 SHL PUSH1 0x64 DUP3 ADD MSTORE PUSH1 0x84 ADD PUSH2 0x98E JUMP JUMPDEST PUSH2 0x1208 DUP2 PUSH2 0x2B14 JUMP JUMPDEST PUSH2 0x1FE8 PUSH2 0x2ABA JUMP JUMPDEST PUSH4 0x5F5E0FF DUP5 PUSH1 0x1 PUSH1 0x1 PUSH1 0x80 SHL SUB AND LT PUSH2 0x2038 JUMPI PUSH1 0x40 MLOAD PUSH3 0x461BCD PUSH1 0xE5 SHL DUP2 MSTORE PUSH1 0x20 PUSH1 0x4 DUP3 ADD MSTORE PUSH1 0x11 PUSH1 0x24 DUP3 ADD MSTORE PUSH17 0x34B73B30B634B2103130BA31B410373139 PUSH1 0x79 SHL PUSH1 0x44 DUP3 ADD MSTORE PUSH1 0x64 ADD PUSH2 0x98E JUMP JUMPDEST PUSH1 0x1 PUSH1 0x1 PUSH1 0x80 SHL SUB DUP5 AND PUSH1 0x0 SWAP1 DUP2 MSTORE PUSH2 0x138 PUSH1 0x20 MSTORE PUSH1 0x40 SWAP1 KECCAK256 DUP1 SLOAD PUSH1 0x1 PUSH1 0x1 PUSH1 0xA0 SHL SUB DUP1 DUP7 AND PUSH1 0x1 PUSH1 0x1 PUSH1 0xA0 SHL SUB NOT SWAP3 DUP4 AND OR DUP4 SSTORE PUSH1 0x1 SWAP1 SWAP3 ADD DUP1 SLOAD SWAP3 DUP6 AND SWAP3 SWAP1 SWAP2 AND SWAP2 SWAP1 SWAP2 OR SWAP1 SSTORE PUSH2 0x137 SLOAD PUSH2 0x208F SWAP1 NUMBER PUSH2 0x44C6 JUMP JUMPDEST PUSH1 0x1 PUSH1 0x1 PUSH1 0x80 SHL SUB DUP6 AND PUSH1 0x0 DUP2 DUP2 MSTORE PUSH2 0x138 PUSH1 0x20 MSTORE PUSH1 0x40 SWAP1 DUP2 SWAP1 KECCAK256 PUSH1 0x2 ADD SWAP3 SWAP1 SWAP3 SSTORE PUSH2 0x136 SLOAD PUSH2 0x135 SLOAD SWAP3 MLOAD PUSH1 0x24 DUP2 ADD SWAP3 SWAP1 SWAP3 MSTORE PUSH1 0xFF DUP5 AND PUSH1 0x44 DUP4 ADD MSTORE PUSH1 0x1 PUSH1 0x1 PUSH1 0xA0 SHL SUB AND SWAP2 PUSH4 0xBEA05EE3 SWAP2 PUSH1 0x60 SWAP2 SWAP1 SWAP2 SHL SWAP1 PUSH1 0x64 ADD PUSH1 0x40 DUP1 MLOAD PUSH1 0x1F NOT DUP2 DUP5 SUB ADD DUP2 MSTORE SWAP2 DUP2 MSTORE PUSH1 0x20 DUP3 ADD DUP1 MLOAD PUSH1 0x1 PUSH1 0x1 PUSH1 0xE0 SHL SUB AND PUSH4 0x34959A25 PUSH1 0xE1 SHL OR SWAP1 MSTORE MLOAD PUSH1 0xE0 DUP5 SWAP1 SHL PUSH1 0x1 PUSH1 0x1 PUSH1 0xE0 SHL SUB NOT AND DUP2 MSTORE PUSH2 0x2130 SWAP3 SWAP2 SWAP1 PUSH1 0x4 ADD PUSH2 0x4114 JUMP JUMPDEST PUSH1 0x0 PUSH1 0x40 MLOAD DUP1 DUP4 SUB DUP2 PUSH1 0x0 DUP8 GAS CALL ISZERO DUP1 ISZERO PUSH2 0x214F JUMPI RETURNDATASIZE PUSH1 0x0 DUP1 RETURNDATACOPY RETURNDATASIZE PUSH1 0x0 REVERT JUMPDEST POP POP POP POP PUSH1 0x40 MLOAD RETURNDATASIZE PUSH1 0x0 DUP3 RETURNDATACOPY PUSH1 0x1F RETURNDATASIZE SWAP1 DUP2 ADD PUSH1 0x1F NOT AND DUP3 ADD PUSH1 0x40 MSTORE PUSH2 0x2177 SWAP2 SWAP1 DUP2 ADD SWAP1 PUSH2 0x413C JUMP JUMPDEST POP PUSH1 0x40 DUP1 MLOAD NUMBER DUP2 MSTORE PUSH1 0x1 PUSH1 0x1 PUSH1 0x80 SHL SUB DUP7 AND PUSH1 0x20 DUP3 ADD MSTORE PUSH1 0xFF DUP4 AND DUP2 DUP4 ADD MSTORE SWAP1 MLOAD PUSH32 0xE1A8324D5D6991EAC78EC12A728B17F656563DE76AE56C7B54488A29D2DE672D SWAP2 DUP2 SWAP1 SUB PUSH1 0x60 ADD SWAP1 LOG1 POP POP POP POP JUMP JUMPDEST PUSH2 0x21D0 PUSH2 0x2ABA JUMP JUMPDEST PUSH2 0x136 SLOAD PUSH2 0x135 SLOAD PUSH1 0x40 MLOAD PUSH1 0x60 DUP5 DUP2 SHR PUSH1 0x24 DUP4 ADD MSTORE PUSH1 0x1 PUSH1 0x1 PUSH1 0xA0 SHL SUB SWAP1 SWAP4 AND SWAP3 PUSH4 0xBEA05EE3 SWAP3 SWAP1 SHL SWAP1 PUSH1 0x44 ADD PUSH1 0x40 DUP1 MLOAD PUSH1 0x1F NOT DUP2 DUP5 SUB ADD DUP2 MSTORE SWAP2 DUP2 MSTORE PUSH1 0x20 DUP3 ADD DUP1 MLOAD PUSH1 0x1 PUSH1 0x1 PUSH1 0xE0 SHL SUB AND PUSH4 0x1B2CE7F3 PUSH1 0xE1 SHL OR SWAP1 MSTORE MLOAD PUSH1 0xE0 DUP5 SWAP1 SHL PUSH1 0x1 PUSH1 0x1 PUSH1 0xE0 SHL SUB NOT AND DUP2 MSTORE PUSH2 0x176B SWAP3 SWAP2 SWAP1 PUSH1 0x4 ADD PUSH2 0x4114 JUMP JUMPDEST PUSH1 0x0 DUP2 DUP2 MSTORE PUSH1 0x67 PUSH1 0x20 MSTORE PUSH1 0x40 SWAP1 KECCAK256 SLOAD PUSH1 0x1 PUSH1 0x1 PUSH1 0xA0 SHL SUB AND PUSH2 0x1208 JUMPI PUSH1 0x40 MLOAD PUSH3 0x461BCD PUSH1 0xE5 SHL DUP2 MSTORE PUSH1 0x20 PUSH1 0x4 DUP3 ADD MSTORE PUSH1 0x18 PUSH1 0x24 DUP3 ADD MSTORE PUSH24 0x115490CDCC8C4E881A5B9D985B1A59081D1BDAD95B881251 PUSH1 0x42 SHL PUSH1 0x44 DUP3 ADD MSTORE PUSH1 0x64 ADD PUSH2 0x98E JUMP JUMPDEST PUSH1 0x0 DUP2 DUP2 MSTORE PUSH1 0x69 PUSH1 0x20 MSTORE PUSH1 0x40 SWAP1 KECCAK256 DUP1 SLOAD PUSH1 0x1 PUSH1 0x1 PUSH1 0xA0 SHL SUB NOT AND PUSH1 0x1 PUSH1 0x1 PUSH1 0xA0 SHL SUB DUP5 AND SWAP1 DUP2 OR SWAP1 SWAP2 SSTORE DUP2 SWAP1 PUSH2 0x22DB DUP3 PUSH2 0x17B2 JUMP JUMPDEST PUSH1 0x1 PUSH1 0x1 PUSH1 0xA0 SHL SUB AND PUSH32 0x8C5BE1E5EBEC7D5BD14F71427D1E84F3DD0314C0F7B2291E5B200AC8C7C3B925 PUSH1 0x40 MLOAD PUSH1 0x40 MLOAD DUP1 SWAP2 SUB SWAP1 LOG4 POP POP JUMP JUMPDEST PUSH1 0x0 DUP1 PUSH2 0x2320 DUP4 PUSH2 0x17B2 JUMP JUMPDEST SWAP1 POP DUP1 PUSH1 0x1 PUSH1 0x1 PUSH1 0xA0 SHL SUB AND DUP5 PUSH1 0x1 PUSH1 0x1 PUSH1 0xA0 SHL SUB AND EQ DUP1 PUSH2 0x2367 JUMPI POP PUSH1 0x1 PUSH1 0x1 PUSH1 0xA0 SHL SUB DUP1 DUP3 AND PUSH1 0x0 SWAP1 DUP2 MSTORE PUSH1 0x6A PUSH1 0x20 SWAP1 DUP2 MSTORE PUSH1 0x40 DUP1 DUP4 KECCAK256 SWAP4 DUP9 AND DUP4 MSTORE SWAP3 SWAP1 MSTORE KECCAK256 SLOAD PUSH1 0xFF AND JUMPDEST DUP1 PUSH2 0x16D4 JUMPI POP DUP4 PUSH1 0x1 PUSH1 0x1 PUSH1 0xA0 SHL SUB AND PUSH2 0x2380 DUP5 PUSH2 0x8F3 JUMP JUMPDEST PUSH1 0x1 PUSH1 0x1 PUSH1 0xA0 SHL SUB AND EQ SWAP5 SWAP4 POP POP POP POP JUMP JUMPDEST PUSH1 0x1 PUSH1 0x1 PUSH1 0xA0 SHL SUB DUP4 AND ADDRESS EQ DUP1 ISZERO PUSH2 0x23BC JUMPI POP DUP2 PUSH1 0x1 PUSH1 0x1 PUSH1 0xA0 SHL SUB AND DUP4 PUSH1 0x1 PUSH1 0x1 PUSH1 0xA0 SHL SUB AND EQ ISZERO JUMPDEST ISZERO PUSH2 0x2486 JUMPI PUSH2 0x136 SLOAD PUSH2 0x135 SLOAD PUSH1 0x40 MLOAD PUSH1 0x24 DUP2 ADD DUP5 SWAP1 MSTORE PUSH1 0x0 PUSH1 0x44 DUP3 ADD MSTORE PUSH1 0x1 PUSH1 0x1 PUSH1 0xA0 SHL SUB SWAP1 SWAP3 AND SWAP2 PUSH4 0xBEA05EE3 SWAP2 PUSH1 0x60 SHL SWAP1 PUSH1 0x64 ADD PUSH1 0x40 DUP1 MLOAD PUSH1 0x1F NOT DUP2 DUP5 SUB ADD DUP2 MSTORE SWAP2 DUP2 MSTORE PUSH1 0x20 DUP3 ADD DUP1 MLOAD PUSH1 0x1 PUSH1 0x1 PUSH1 0xE0 SHL SUB AND PUSH4 0x6DA6579 PUSH1 0xE2 SHL OR SWAP1 MSTORE MLOAD PUSH1 0xE0 DUP5 SWAP1 SHL PUSH1 0x1 PUSH1 0x1 PUSH1 0xE0 SHL SUB NOT AND DUP2 MSTORE PUSH2 0x243D SWAP3 SWAP2 SWAP1 PUSH1 0x4 ADD PUSH2 0x4114 JUMP JUMPDEST PUSH1 0x0 PUSH1 0x40 MLOAD DUP1 DUP4 SUB DUP2 PUSH1 0x0 DUP8 GAS CALL ISZERO DUP1 ISZERO PUSH2 0x245C JUMPI RETURNDATASIZE PUSH1 0x0 DUP1 RETURNDATACOPY RETURNDATASIZE PUSH1 0x0 REVERT JUMPDEST POP POP POP POP PUSH1 0x40 MLOAD RETURNDATASIZE PUSH1 0x0 DUP3 RETURNDATACOPY PUSH1 0x1F RETURNDATASIZE SWAP1 DUP2 ADD PUSH1 0x1F NOT AND DUP3 ADD PUSH1 0x40 MSTORE PUSH2 0x2484 SWAP2 SWAP1 DUP2 ADD SWAP1 PUSH2 0x413C JUMP JUMPDEST POP JUMPDEST ADDRESS PUSH1 0x1 PUSH1 0x1 PUSH1 0xA0 SHL SUB DUP4 AND SUB PUSH2 0x255B JUMPI PUSH2 0x136 SLOAD PUSH2 0x135 SLOAD PUSH1 0x40 MLOAD PUSH1 0x24 DUP2 ADD DUP5 SWAP1 MSTORE PUSH1 0x1 PUSH1 0x44 DUP3 ADD MSTORE PUSH1 0x1 PUSH1 0x1 PUSH1 0xA0 SHL SUB SWAP1 SWAP3 AND SWAP2 PUSH4 0xBEA05EE3 SWAP2 PUSH1 0x60 SHL SWAP1 PUSH1 0x64 ADD PUSH1 0x40 DUP1 MLOAD PUSH1 0x1F NOT DUP2 DUP5 SUB ADD DUP2 MSTORE SWAP2 DUP2 MSTORE PUSH1 0x20 DUP3 ADD DUP1 MLOAD PUSH1 0x1 PUSH1 0x1 PUSH1 0xE0 SHL SUB AND PUSH4 0x6DA6579 PUSH1 0xE2 SHL OR SWAP1 MSTORE MLOAD PUSH1 0xE0 DUP5 SWAP1 SHL PUSH1 0x1 PUSH1 0x1 PUSH1 0xE0 SHL SUB NOT AND DUP2 MSTORE PUSH2 0x2512 SWAP3 SWAP2 SWAP1 PUSH1 0x4 ADD PUSH2 0x4114 JUMP JUMPDEST PUSH1 0x0 PUSH1 0x40 MLOAD DUP1 DUP4 SUB DUP2 PUSH1 0x0 DUP8 GAS CALL ISZERO DUP1 ISZERO PUSH2 0x2531 JUMPI RETURNDATASIZE PUSH1 0x0 DUP1 RETURNDATACOPY RETURNDATASIZE PUSH1 0x0 REVERT JUMPDEST POP POP POP POP PUSH1 0x40 MLOAD RETURNDATASIZE PUSH1 0x0 DUP3 RETURNDATACOPY PUSH1 0x1F RETURNDATASIZE SWAP1 DUP2 ADD PUSH1 0x1F NOT AND DUP3 ADD PUSH1 0x40 MSTORE PUSH2 0x2559 SWAP2 SWAP1 DUP2 ADD SWAP1 PUSH2 0x413C JUMP JUMPDEST POP JUMPDEST PUSH2 0xA2F DUP4 DUP4 DUP4 PUSH2 0x2E8F JUMP JUMPDEST PUSH1 0x0 DUP1 PUSH2 0x25F1 PUSH32 0xA69D05E2E56FA789517DA84E6C668025F30CB4E7ABC1973420E2B8B0B33440D6 PUSH2 0x25AE DUP8 PUSH1 0x1 PUSH1 0x1 PUSH1 0x60 SHL SUB NOT AND PUSH1 0x0 SWAP1 DUP2 MSTORE PUSH2 0x134 PUSH1 0x20 MSTORE PUSH1 0x40 SWAP1 KECCAK256 SLOAD SWAP1 JUMP JUMPDEST PUSH1 0x40 DUP1 MLOAD PUSH1 0x20 DUP2 ADD SWAP4 SWAP1 SWAP4 MSTORE DUP3 ADD MSTORE PUSH1 0x60 DUP2 ADD DUP7 SWAP1 MSTORE PUSH1 0x1 PUSH1 0x1 PUSH1 0xA0 SHL SUB DUP6 AND PUSH1 0x80 DUP3 ADD MSTORE PUSH1 0xA0 ADD PUSH1 0x40 MLOAD PUSH1 0x20 DUP2 DUP4 SUB SUB DUP2 MSTORE SWAP1 PUSH1 0x40 MSTORE DUP1 MLOAD SWAP1 PUSH1 0x20 ADD KECCAK256 PUSH2 0x2FF3 JUMP JUMPDEST SWAP1 POP PUSH1 0x0 PUSH2 0x25FF DUP3 DUP9 PUSH2 0x3020 JUMP JUMPDEST SWAP1 POP PUSH1 0x1 PUSH1 0x1 PUSH1 0x9C SHL SUB PUSH1 0x60 DUP8 SWAP1 SHR DUP3 XOR AND ISZERO PUSH2 0x2669 JUMPI PUSH1 0x40 MLOAD PUSH3 0x461BCD PUSH1 0xE5 SHL DUP2 MSTORE PUSH1 0x20 PUSH1 0x4 DUP3 ADD MSTORE PUSH1 0x22 PUSH1 0x24 DUP3 ADD MSTORE PUSH32 0x7369676E617475726520646F6573206E6F74206D617463682065766D5369676E PUSH1 0x44 DUP3 ADD MSTORE PUSH2 0x32B9 PUSH1 0xF1 SHL PUSH1 0x64 DUP3 ADD MSTORE PUSH1 0x84 ADD PUSH2 0x98E JUMP JUMPDEST PUSH1 0x1 PUSH1 0x1 PUSH1 0x60 SHL SUB NOT DUP7 AND PUSH1 0x0 SWAP1 DUP2 MSTORE PUSH2 0x134 PUSH1 0x20 MSTORE PUSH1 0x40 DUP2 KECCAK256 DUP1 SLOAD PUSH1 0x1 SWAP3 SWAP1 PUSH2 0x2694 SWAP1 DUP5 SWAP1 PUSH2 0x44C6 JUMP JUMPDEST SWAP1 SWAP2 SSTORE POP PUSH1 0x1 SWAP9 SWAP8 POP POP POP POP POP POP POP POP JUMP JUMPDEST PUSH1 0x0 PUSH2 0xFFFF DUP3 AND PUSH2 0x26BC PUSH1 0xFF DUP6 AND PUSH2 0x2710 PUSH2 0x4331 JUMP JUMPDEST PUSH2 0x26D2 PUSH1 0x1 PUSH1 0x1 PUSH1 0x80 SHL SUB DUP8 AND PUSH3 0xF4240 PUSH2 0x4331 JUMP JUMPDEST PUSH2 0x26DC SWAP2 SWAP1 PUSH2 0x44C6 JUMP JUMPDEST PUSH2 0x16D4 SWAP2 SWAP1 PUSH2 0x44C6 JUMP JUMPDEST PUSH1 0x1 PUSH1 0x1 PUSH1 0xA0 SHL SUB DUP3 AND PUSH2 0x273C JUMPI PUSH1 0x40 MLOAD PUSH3 0x461BCD PUSH1 0xE5 SHL DUP2 MSTORE PUSH1 0x20 PUSH1 0x4 DUP3 ADD DUP2 SWAP1 MSTORE PUSH1 0x24 DUP3 ADD MSTORE PUSH32 0x4552433732313A206D696E7420746F20746865207A65726F2061646472657373 PUSH1 0x44 DUP3 ADD MSTORE PUSH1 0x64 ADD PUSH2 0x98E JUMP JUMPDEST PUSH1 0x0 DUP2 DUP2 MSTORE PUSH1 0x67 PUSH1 0x20 MSTORE PUSH1 0x40 SWAP1 KECCAK256 SLOAD PUSH1 0x1 PUSH1 0x1 PUSH1 0xA0 SHL SUB AND ISZERO PUSH2 0x27A1 JUMPI PUSH1 0x40 MLOAD PUSH3 0x461BCD PUSH1 0xE5 SHL DUP2 MSTORE PUSH1 0x20 PUSH1 0x4 DUP3 ADD MSTORE PUSH1 0x1C PUSH1 0x24 DUP3 ADD MSTORE PUSH32 0x4552433732313A20746F6B656E20616C7265616479206D696E74656400000000 PUSH1 0x44 DUP3 ADD MSTORE PUSH1 0x64 ADD PUSH2 0x98E JUMP JUMPDEST PUSH1 0x0 DUP2 DUP2 MSTORE PUSH1 0x67 PUSH1 0x20 MSTORE PUSH1 0x40 SWAP1 KECCAK256 SLOAD PUSH1 0x1 PUSH1 0x1 PUSH1 0xA0 SHL SUB AND ISZERO PUSH2 0x2806 JUMPI PUSH1 0x40 MLOAD PUSH3 0x461BCD PUSH1 0xE5 SHL DUP2 MSTORE PUSH1 0x20 PUSH1 0x4 DUP3 ADD MSTORE PUSH1 0x1C PUSH1 0x24 DUP3 ADD MSTORE PUSH32 0x4552433732313A20746F6B656E20616C7265616479206D696E74656400000000 PUSH1 0x44 DUP3 ADD MSTORE PUSH1 0x64 ADD PUSH2 0x98E JUMP JUMPDEST PUSH1 0x1 PUSH1 0x1 PUSH1 0xA0 SHL SUB DUP3 AND PUSH1 0x0 DUP2 DUP2 MSTORE PUSH1 0x68 PUSH1 0x20 SWAP1 DUP2 MSTORE PUSH1 0x40 DUP1 DUP4 KECCAK256 DUP1 SLOAD PUSH1 0x1 ADD SWAP1 SSTORE DUP5 DUP4 MSTORE PUSH1 0x67 SWAP1 SWAP2 MSTORE DUP1 DUP3 KECCAK256 DUP1 SLOAD PUSH1 0x1 PUSH1 0x1 PUSH1 0xA0 SHL SUB NOT AND DUP5 OR SWAP1 SSTORE MLOAD DUP4 SWAP3 SWAP2 SWAP1 PUSH32 0xDDF252AD1BE2C89B69C2B068FC378DAA952BA7F163C4A11628F55A4DF523B3EF SWAP1 DUP3 SWAP1 LOG4 POP POP JUMP JUMPDEST PUSH2 0x1208 PUSH2 0x2ABA JUMP JUMPDEST PUSH32 0x4910FDFA16FED3260ED0E7147F7CC6DA11A60208B5B9406D12A635614FFD9143 SLOAD PUSH1 0xFF AND ISZERO PUSH2 0x28AC JUMPI PUSH2 0xA2F DUP4 PUSH2 0x3044 JUMP JUMPDEST DUP3 PUSH1 0x1 PUSH1 0x1 PUSH1 0xA0 SHL SUB AND PUSH4 0x52D1902D PUSH1 0x40 MLOAD DUP2 PUSH4 0xFFFFFFFF AND PUSH1 0xE0 SHL DUP2 MSTORE PUSH1 0x4 ADD PUSH1 0x20 PUSH1 0x40 MLOAD DUP1 DUP4 SUB DUP2 DUP7 GAS STATICCALL SWAP3 POP POP POP DUP1 ISZERO PUSH2 0x2906 JUMPI POP PUSH1 0x40 DUP1 MLOAD PUSH1 0x1F RETURNDATASIZE SWAP1 DUP2 ADD PUSH1 0x1F NOT AND DUP3 ADD SWAP1 SWAP3 MSTORE PUSH2 0x2903 SWAP2 DUP2 ADD SWAP1 PUSH2 0x44D9 JUMP JUMPDEST PUSH1 0x1 JUMPDEST PUSH2 0x2969 JUMPI PUSH1 0x40 MLOAD PUSH3 0x461BCD PUSH1 0xE5 SHL DUP2 MSTORE PUSH1 0x20 PUSH1 0x4 DUP3 ADD MSTORE PUSH1 0x2E PUSH1 0x24 DUP3 ADD MSTORE PUSH32 0x45524331393637557067726164653A206E657720696D706C656D656E74617469 PUSH1 0x44 DUP3 ADD MSTORE PUSH14 0x6F6E206973206E6F742055555053 PUSH1 0x90 SHL PUSH1 0x64 DUP3 ADD MSTORE PUSH1 0x84 ADD PUSH2 0x98E JUMP JUMPDEST PUSH1 0x0 DUP1 MLOAD PUSH1 0x20 PUSH2 0x463B DUP4 CODECOPY DUP2 MLOAD SWAP2 MSTORE DUP2 EQ PUSH2 0x29D8 JUMPI PUSH1 0x40 MLOAD PUSH3 0x461BCD PUSH1 0xE5 SHL DUP2 MSTORE PUSH1 0x20 PUSH1 0x4 DUP3 ADD MSTORE PUSH1 0x29 PUSH1 0x24 DUP3 ADD MSTORE PUSH32 0x45524331393637557067726164653A20756E737570706F727465642070726F78 PUSH1 0x44 DUP3 ADD MSTORE PUSH9 0x1A58589B1955555251 PUSH1 0xBA SHL PUSH1 0x64 DUP3 ADD MSTORE PUSH1 0x84 ADD PUSH2 0x98E JUMP JUMPDEST POP PUSH2 0xA2F DUP4 DUP4 DUP4 PUSH2 0x30E0 JUMP JUMPDEST PUSH1 0x0 SLOAD PUSH2 0x100 SWAP1 DIV PUSH1 0xFF AND PUSH2 0x2A0B JUMPI PUSH1 0x40 MLOAD PUSH3 0x461BCD PUSH1 0xE5 SHL DUP2 MSTORE PUSH1 0x4 ADD PUSH2 0x98E SWAP1 PUSH2 0x44F2 JUMP JUMPDEST PUSH2 0x15E5 DUP3 DUP3 PUSH2 0x3105 JUMP JUMPDEST PUSH1 0x0 SLOAD PUSH2 0x100 SWAP1 DIV PUSH1 0xFF AND PUSH2 0x2A3C JUMPI PUSH1 0x40 MLOAD PUSH3 0x461BCD PUSH1 0xE5 SHL DUP2 MSTORE PUSH1 0x4 ADD PUSH2 0x98E SWAP1 PUSH2 0x44F2 JUMP JUMPDEST PUSH2 0xA2F DUP4 DUP4 DUP4 PUSH2 0x3145 JUMP JUMPDEST PUSH1 0x0 SLOAD PUSH2 0x100 SWAP1 DIV PUSH1 0xFF AND PUSH2 0x2A6E JUMPI PUSH1 0x40 MLOAD PUSH3 0x461BCD PUSH1 0xE5 SHL DUP2 MSTORE PUSH1 0x4 ADD PUSH2 0x98E SWAP1 PUSH2 0x44F2 JUMP JUMPDEST PUSH2 0x1939 PUSH2 0x31CB JUMP JUMPDEST PUSH1 0x0 DUP1 PUSH2 0x2A82 DUP4 PUSH2 0x193B JUMP JUMPDEST PUSH2 0x135 SLOAD PUSH1 0x60 SHL PUSH1 0x1 PUSH1 0x1 PUSH1 0x60 SHL SUB NOT SWAP1 DUP2 AND SWAP2 AND EQ SWAP4 SWAP3 POP POP POP JUMP JUMPDEST PUSH2 0xA2F DUP4 DUP4 DUP4 PUSH1 0x40 MLOAD DUP1 PUSH1 0x20 ADD PUSH1 0x40 MSTORE DUP1 PUSH1 0x0 DUP2 MSTORE POP PUSH2 0x1D7B JUMP JUMPDEST PUSH1 0xFB SLOAD PUSH1 0x1 PUSH1 0x1 PUSH1 0xA0 SHL SUB AND CALLER EQ PUSH2 0x1939 JUMPI PUSH1 0x40 MLOAD PUSH3 0x461BCD PUSH1 0xE5 SHL DUP2 MSTORE PUSH1 0x20 PUSH1 0x4 DUP3 ADD DUP2 SWAP1 MSTORE PUSH1 0x24 DUP3 ADD MSTORE PUSH32 0x4F776E61626C653A2063616C6C6572206973206E6F7420746865206F776E6572 PUSH1 0x44 DUP3 ADD MSTORE PUSH1 0x64 ADD PUSH2 0x98E JUMP JUMPDEST PUSH1 0xFB DUP1 SLOAD PUSH1 0x1 PUSH1 0x1 PUSH1 0xA0 SHL SUB DUP4 DUP2 AND PUSH1 0x1 PUSH1 0x1 PUSH1 0xA0 SHL SUB NOT DUP4 AND DUP2 OR SWAP1 SWAP4 SSTORE PUSH1 0x40 MLOAD SWAP2 AND SWAP2 SWAP1 DUP3 SWAP1 PUSH32 0x8BE0079C531659141344CD1FD0A4F28419497F9722A3DAAFE3B4186F6B6457E0 SWAP1 PUSH1 0x0 SWAP1 LOG3 POP POP JUMP JUMPDEST PUSH1 0x1 PUSH1 0x1 PUSH1 0x80 SHL SUB DUP2 AND PUSH1 0x0 SWAP1 DUP2 MSTORE PUSH2 0x138 PUSH1 0x20 MSTORE PUSH1 0x40 DUP2 KECCAK256 PUSH1 0x1 ADD SLOAD PUSH1 0x1 PUSH1 0x1 PUSH1 0xA0 SHL SUB DUP5 DUP2 AND SWAP2 AND EQ DUP1 ISZERO PUSH2 0x1E18 JUMPI POP POP PUSH1 0x1 PUSH1 0x1 PUSH1 0x80 SHL SUB AND PUSH1 0x0 SWAP1 DUP2 MSTORE PUSH2 0x138 PUSH1 0x20 MSTORE PUSH1 0x40 SWAP1 KECCAK256 PUSH1 0x2 ADD SLOAD NUMBER LT SWAP2 SWAP1 POP JUMP JUMPDEST PUSH1 0x0 DUP3 PUSH1 0x40 MLOAD PUSH1 0x20 ADD PUSH2 0x2BCF SWAP2 SWAP1 PUSH2 0x4223 JUMP JUMPDEST PUSH1 0x40 DUP1 MLOAD PUSH1 0x1F NOT DUP2 DUP5 SUB ADD DUP2 MSTORE SWAP2 DUP2 MSTORE DUP2 MLOAD PUSH1 0x20 SWAP3 DUP4 ADD KECCAK256 PUSH1 0x1 PUSH1 0x1 PUSH1 0x80 SHL SUB SWAP1 SWAP7 AND PUSH1 0x0 SWAP1 DUP2 MSTORE PUSH2 0x139 DUP4 MSTORE DUP2 DUP2 KECCAK256 SWAP7 DUP2 MSTORE SWAP6 SWAP1 SWAP2 MSTORE SWAP1 SWAP4 KECCAK256 DUP1 SLOAD PUSH1 0xFF SWAP1 SWAP3 AND PUSH1 0xFF NOT SWAP1 SWAP3 AND SWAP2 SWAP1 SWAP2 OR SWAP1 SSTORE POP POP JUMP JUMPDEST DUP2 PUSH1 0x1 PUSH1 0x1 PUSH1 0xA0 SHL SUB AND DUP4 PUSH1 0x1 PUSH1 0x1 PUSH1 0xA0 SHL SUB AND SUB PUSH2 0x2C81 JUMPI PUSH1 0x40 MLOAD PUSH3 0x461BCD PUSH1 0xE5 SHL DUP2 MSTORE PUSH1 0x20 PUSH1 0x4 DUP3 ADD MSTORE PUSH1 0x19 PUSH1 0x24 DUP3 ADD MSTORE PUSH32 0x4552433732313A20617070726F766520746F2063616C6C657200000000000000 PUSH1 0x44 DUP3 ADD MSTORE PUSH1 0x64 ADD PUSH2 0x98E JUMP JUMPDEST PUSH1 0x1 PUSH1 0x1 PUSH1 0xA0 SHL SUB DUP4 DUP2 AND PUSH1 0x0 DUP2 DUP2 MSTORE PUSH1 0x6A PUSH1 0x20 SWAP1 DUP2 MSTORE PUSH1 0x40 DUP1 DUP4 KECCAK256 SWAP5 DUP8 AND DUP1 DUP5 MSTORE SWAP5 DUP3 MSTORE SWAP2 DUP3 SWAP1 KECCAK256 DUP1 SLOAD PUSH1 0xFF NOT AND DUP7 ISZERO ISZERO SWAP1 DUP2 OR SWAP1 SWAP2 SSTORE SWAP2 MLOAD SWAP2 DUP3 MSTORE PUSH32 0x17307EAB39AB6107E8899845AD3D59BD9653F200F220920489CA2B5937696C31 SWAP2 ADD PUSH1 0x40 MLOAD DUP1 SWAP2 SUB SWAP1 LOG3 POP POP POP JUMP JUMPDEST PUSH2 0x136 SLOAD PUSH2 0x135 SLOAD PUSH1 0x40 MLOAD PUSH1 0x24 DUP2 ADD DUP6 SWAP1 MSTORE PUSH1 0x1 PUSH1 0x1 PUSH1 0x60 SHL SUB NOT DUP5 AND PUSH1 0x44 DUP3 ADD MSTORE PUSH1 0x1 PUSH1 0x1 PUSH1 0xA0 SHL SUB SWAP1 SWAP3 AND SWAP2 PUSH4 0xBEA05EE3 SWAP2 PUSH1 0x60 SHL SWAP1 PUSH1 0x64 ADD PUSH1 0x40 DUP1 MLOAD PUSH1 0x1F NOT DUP2 DUP5 SUB ADD DUP2 MSTORE SWAP2 DUP2 MSTORE PUSH1 0x20 DUP3 ADD DUP1 MLOAD PUSH1 0x1 PUSH1 0x1 PUSH1 0xE0 SHL SUB AND PUSH4 0xA636DB7B PUSH1 0xE0 SHL OR SWAP1 MSTORE MLOAD PUSH1 0xE0 DUP5 SWAP1 SHL PUSH1 0x1 PUSH1 0x1 PUSH1 0xE0 SHL SUB NOT AND DUP2 MSTORE PUSH2 0x2D73 SWAP3 SWAP2 SWAP1 PUSH1 0x4 ADD PUSH2 0x4114 JUMP JUMPDEST PUSH1 0x0 PUSH1 0x40 MLOAD DUP1 DUP4 SUB DUP2 PUSH1 0x0 DUP8 GAS CALL ISZERO DUP1 ISZERO PUSH2 0x2D92 JUMPI RETURNDATASIZE PUSH1 0x0 DUP1 RETURNDATACOPY RETURNDATASIZE PUSH1 0x0 REVERT JUMPDEST POP POP POP POP PUSH1 0x40 MLOAD RETURNDATASIZE PUSH1 0x0 DUP3 RETURNDATACOPY PUSH1 0x1F RETURNDATASIZE SWAP1 DUP2 ADD PUSH1 0x1F NOT AND DUP3 ADD PUSH1 0x40 MSTORE PUSH2 0xA2F SWAP2 SWAP1 DUP2 ADD SWAP1 PUSH2 0x413C JUMP JUMPDEST PUSH2 0x2DC5 DUP5 DUP5 DUP5 PUSH2 0x2392 JUMP JUMPDEST PUSH2 0x2DD1 DUP5 DUP5 DUP5 DUP5 PUSH2 0x31FB JUMP JUMPDEST PUSH2 0xBCC JUMPI PUSH1 0x40 MLOAD PUSH3 0x461BCD PUSH1 0xE5 SHL DUP2 MSTORE PUSH1 0x4 ADD PUSH2 0x98E SWAP1 PUSH2 0x453D JUMP JUMPDEST PUSH1 0x60 PUSH2 0x13B DUP1 SLOAD PUSH2 0x870 SWAP1 PUSH2 0x40DA JUMP JUMPDEST PUSH1 0x60 PUSH1 0x0 PUSH2 0x2E0A DUP4 PUSH2 0x32F9 JUMP JUMPDEST PUSH1 0x1 ADD SWAP1 POP PUSH1 0x0 DUP2 PUSH1 0x1 PUSH1 0x1 PUSH1 0x40 SHL SUB DUP2 GT ISZERO PUSH2 0x2E29 JUMPI PUSH2 0x2E29 PUSH2 0x3984 JUMP JUMPDEST PUSH1 0x40 MLOAD SWAP1 DUP1 DUP3 MSTORE DUP1 PUSH1 0x1F ADD PUSH1 0x1F NOT AND PUSH1 0x20 ADD DUP3 ADD PUSH1 0x40 MSTORE DUP1 ISZERO PUSH2 0x2E53 JUMPI PUSH1 0x20 DUP3 ADD DUP2 DUP1 CALLDATASIZE DUP4 CALLDATACOPY ADD SWAP1 POP JUMPDEST POP SWAP1 POP DUP2 DUP2 ADD PUSH1 0x20 ADD JUMPDEST PUSH1 0x0 NOT ADD PUSH16 0x181899199A1A9B1B9C1CB0B131B232B3 PUSH1 0x81 SHL PUSH1 0xA DUP7 MOD BYTE DUP2 MSTORE8 PUSH1 0xA DUP6 DIV SWAP5 POP DUP5 PUSH2 0x2E5D JUMPI POP SWAP4 SWAP3 POP POP POP JUMP JUMPDEST DUP3 PUSH1 0x1 PUSH1 0x1 PUSH1 0xA0 SHL SUB AND PUSH2 0x2EA2 DUP3 PUSH2 0x17B2 JUMP JUMPDEST PUSH1 0x1 PUSH1 0x1 PUSH1 0xA0 SHL SUB AND EQ PUSH2 0x2EC8 JUMPI PUSH1 0x40 MLOAD PUSH3 0x461BCD PUSH1 0xE5 SHL DUP2 MSTORE PUSH1 0x4 ADD PUSH2 0x98E SWAP1 PUSH2 0x458F JUMP JUMPDEST PUSH1 0x1 PUSH1 0x1 PUSH1 0xA0 SHL SUB DUP3 AND PUSH2 0x2F2A JUMPI PUSH1 0x40 MLOAD PUSH3 0x461BCD PUSH1 0xE5 SHL DUP2 MSTORE PUSH1 0x20 PUSH1 0x4 DUP3 ADD MSTORE PUSH1 0x24 DUP1 DUP3 ADD MSTORE PUSH32 0x4552433732313A207472616E7366657220746F20746865207A65726F20616464 PUSH1 0x44 DUP3 ADD MSTORE PUSH4 0x72657373 PUSH1 0xE0 SHL PUSH1 0x64 DUP3 ADD MSTORE PUSH1 0x84 ADD PUSH2 0x98E JUMP JUMPDEST DUP3 PUSH1 0x1 PUSH1 0x1 PUSH1 0xA0 SHL SUB AND PUSH2 0x2F3D DUP3 PUSH2 0x17B2 JUMP JUMPDEST PUSH1 0x1 PUSH1 0x1 PUSH1 0xA0 SHL SUB AND EQ PUSH2 0x2F63 JUMPI PUSH1 0x40 MLOAD PUSH3 0x461BCD PUSH1 0xE5 SHL DUP2 MSTORE PUSH1 0x4 ADD PUSH2 0x98E SWAP1 PUSH2 0x458F JUMP JUMPDEST PUSH1 0x0 DUP2 DUP2 MSTORE PUSH1 0x69 PUSH1 0x20 SWAP1 DUP2 MSTORE PUSH1 0x40 DUP1 DUP4 KECCAK256 DUP1 SLOAD PUSH1 0x1 PUSH1 0x1 PUSH1 0xA0 SHL SUB NOT SWAP1 DUP2 AND SWAP1 SWAP2 SSTORE PUSH1 0x1 PUSH1 0x1 PUSH1 0xA0 SHL SUB DUP8 DUP2 AND DUP1 DUP7 MSTORE PUSH1 0x68 DUP6 MSTORE DUP4 DUP7 KECCAK256 DUP1 SLOAD PUSH1 0x0 NOT ADD SWAP1 SSTORE SWAP1 DUP8 AND DUP1 DUP7 MSTORE DUP4 DUP7 KECCAK256 DUP1 SLOAD PUSH1 0x1 ADD SWAP1 SSTORE DUP7 DUP7 MSTORE PUSH1 0x67 SWAP1 SWAP5 MSTORE DUP3 DUP6 KECCAK256 DUP1 SLOAD SWAP1 SWAP3 AND DUP5 OR SWAP1 SWAP2 SSTORE SWAP1 MLOAD DUP5 SWAP4 PUSH32 0xDDF252AD1BE2C89B69C2B068FC378DAA952BA7F163C4A11628F55A4DF523B3EF SWAP2 LOG4 POP POP POP JUMP JUMPDEST PUSH1 0x0 PUSH2 0x85B PUSH2 0x3000 PUSH2 0x33D1 JUMP JUMPDEST DUP4 PUSH1 0x40 MLOAD PUSH2 0x1901 PUSH1 0xF0 SHL DUP2 MSTORE PUSH1 0x2 DUP2 ADD SWAP3 SWAP1 SWAP3 MSTORE PUSH1 0x22 DUP3 ADD MSTORE PUSH1 0x42 SWAP1 KECCAK256 SWAP1 JUMP JUMPDEST PUSH1 0x0 DUP1 PUSH1 0x0 PUSH2 0x302F DUP6 DUP6 PUSH2 0x33FC JUMP JUMPDEST SWAP2 POP SWAP2 POP PUSH2 0x303C DUP2 PUSH2 0x3441 JUMP JUMPDEST POP SWAP4 SWAP3 POP POP POP JUMP JUMPDEST PUSH1 0x1 PUSH1 0x1 PUSH1 0xA0 SHL SUB DUP2 AND EXTCODESIZE PUSH2 0x30B1 JUMPI PUSH1 0x40 MLOAD PUSH3 0x461BCD PUSH1 0xE5 SHL DUP2 MSTORE PUSH1 0x20 PUSH1 0x4 DUP3 ADD MSTORE PUSH1 0x2D PUSH1 0x24 DUP3 ADD MSTORE PUSH32 0x455243313936373A206E657720696D706C656D656E746174696F6E206973206E PUSH1 0x44 DUP3 ADD MSTORE PUSH13 0x1BDD08184818DBDB9D1C9858DD PUSH1 0x9A SHL PUSH1 0x64 DUP3 ADD MSTORE PUSH1 0x84 ADD PUSH2 0x98E JUMP JUMPDEST PUSH1 0x0 DUP1 MLOAD PUSH1 0x20 PUSH2 0x463B DUP4 CODECOPY DUP2 MLOAD SWAP2 MSTORE DUP1 SLOAD PUSH1 0x1 PUSH1 0x1 PUSH1 0xA0 SHL SUB NOT AND PUSH1 0x1 PUSH1 0x1 PUSH1 0xA0 SHL SUB SWAP3 SWAP1 SWAP3 AND SWAP2 SWAP1 SWAP2 OR SWAP1 SSTORE JUMP JUMPDEST PUSH2 0x30E9 DUP4 PUSH2 0x358B JUMP JUMPDEST PUSH1 0x0 DUP3 MLOAD GT DUP1 PUSH2 0x30F6 JUMPI POP DUP1 JUMPDEST ISZERO PUSH2 0xA2F JUMPI PUSH2 0xBCC DUP4 DUP4 PUSH2 0x35CB JUMP JUMPDEST PUSH1 0x0 SLOAD PUSH2 0x100 SWAP1 DIV PUSH1 0xFF AND PUSH2 0x312C JUMPI PUSH1 0x40 MLOAD PUSH3 0x461BCD PUSH1 0xE5 SHL DUP2 MSTORE PUSH1 0x4 ADD PUSH2 0x98E SWAP1 PUSH2 0x44F2 JUMP JUMPDEST PUSH1 0x65 PUSH2 0x3138 DUP4 DUP3 PUSH2 0x43A9 JUMP JUMPDEST POP PUSH1 0x66 PUSH2 0xA2F DUP3 DUP3 PUSH2 0x43A9 JUMP JUMPDEST PUSH1 0x0 SLOAD PUSH2 0x100 SWAP1 DIV PUSH1 0xFF AND PUSH2 0x316C JUMPI PUSH1 0x40 MLOAD PUSH3 0x461BCD PUSH1 0xE5 SHL DUP2 MSTORE PUSH1 0x4 ADD PUSH2 0x98E SWAP1 PUSH2 0x44F2 JUMP JUMPDEST PUSH2 0x132 PUSH2 0x3179 DUP5 DUP3 PUSH2 0x43A9 JUMP JUMPDEST POP PUSH2 0x133 PUSH2 0x3187 DUP4 DUP3 PUSH2 0x43A9 JUMP JUMPDEST POP DUP3 MLOAD PUSH1 0x20 DUP1 DUP6 ADD SWAP2 SWAP1 SWAP2 KECCAK256 PUSH2 0x130 SSTORE DUP3 MLOAD SWAP1 DUP4 ADD KECCAK256 PUSH2 0x131 SSTORE PUSH2 0x12E DUP2 SWAP1 SSTORE PUSH2 0x31AF PUSH2 0x35F0 JUMP JUMPDEST PUSH2 0x12D SSTORE POP POP PUSH2 0x12F DUP1 SLOAD PUSH1 0x1 PUSH1 0x1 PUSH1 0xA0 SHL SUB NOT AND ADDRESS OR SWAP1 SSTORE POP JUMP JUMPDEST PUSH1 0x0 SLOAD PUSH2 0x100 SWAP1 DIV PUSH1 0xFF AND PUSH2 0x31F2 JUMPI PUSH1 0x40 MLOAD PUSH3 0x461BCD PUSH1 0xE5 SHL DUP2 MSTORE PUSH1 0x4 ADD PUSH2 0x98E SWAP1 PUSH2 0x44F2 JUMP JUMPDEST PUSH2 0x1939 CALLER PUSH2 0x2B14 JUMP JUMPDEST PUSH1 0x0 PUSH1 0x1 PUSH1 0x1 PUSH1 0xA0 SHL SUB DUP5 AND EXTCODESIZE ISZERO PUSH2 0x32F1 JUMPI PUSH1 0x40 MLOAD PUSH4 0xA85BD01 PUSH1 0xE1 SHL DUP2 MSTORE PUSH1 0x1 PUSH1 0x1 PUSH1 0xA0 SHL SUB DUP6 AND SWAP1 PUSH4 0x150B7A02 SWAP1 PUSH2 0x323F SWAP1 CALLER SWAP1 DUP10 SWAP1 DUP9 SWAP1 DUP9 SWAP1 PUSH1 0x4 ADD PUSH2 0x45D4 JUMP JUMPDEST PUSH1 0x20 PUSH1 0x40 MLOAD DUP1 DUP4 SUB DUP2 PUSH1 0x0 DUP8 GAS CALL SWAP3 POP POP POP DUP1 ISZERO PUSH2 0x327A JUMPI POP PUSH1 0x40 DUP1 MLOAD PUSH1 0x1F RETURNDATASIZE SWAP1 DUP2 ADD PUSH1 0x1F NOT AND DUP3 ADD SWAP1 SWAP3 MSTORE PUSH2 0x3277 SWAP2 DUP2 ADD SWAP1 PUSH2 0x4607 JUMP JUMPDEST PUSH1 0x1 JUMPDEST PUSH2 0x32D7 JUMPI RETURNDATASIZE DUP1 DUP1 ISZERO PUSH2 0x32A8 JUMPI PUSH1 0x40 MLOAD SWAP2 POP PUSH1 0x1F NOT PUSH1 0x3F RETURNDATASIZE ADD AND DUP3 ADD PUSH1 0x40 MSTORE RETURNDATASIZE DUP3 MSTORE RETURNDATASIZE PUSH1 0x0 PUSH1 0x20 DUP5 ADD RETURNDATACOPY PUSH2 0x32AD JUMP JUMPDEST PUSH1 0x60 SWAP2 POP JUMPDEST POP DUP1 MLOAD PUSH1 0x0 SUB PUSH2 0x32CF JUMPI PUSH1 0x40 MLOAD PUSH3 0x461BCD PUSH1 0xE5 SHL DUP2 MSTORE PUSH1 0x4 ADD PUSH2 0x98E SWAP1 PUSH2 0x453D JUMP JUMPDEST DUP1 MLOAD DUP2 PUSH1 0x20 ADD REVERT JUMPDEST PUSH1 0x1 PUSH1 0x1 PUSH1 0xE0 SHL SUB NOT AND PUSH4 0xA85BD01 PUSH1 0xE1 SHL EQ SWAP1 POP PUSH2 0x16D4 JUMP JUMPDEST POP PUSH1 0x1 PUSH2 0x16D4 JUMP JUMPDEST PUSH1 0x0 DUP1 PUSH19 0x184F03E93FF9F4DAA797ED6E38ED64BF6A1F01 PUSH1 0x40 SHL DUP4 LT PUSH2 0x3338 JUMPI PUSH19 0x184F03E93FF9F4DAA797ED6E38ED64BF6A1F01 PUSH1 0x40 SHL DUP4 DIV SWAP3 POP PUSH1 0x40 ADD JUMPDEST PUSH14 0x4EE2D6D415B85ACEF8100000000 DUP4 LT PUSH2 0x3364 JUMPI PUSH14 0x4EE2D6D415B85ACEF8100000000 DUP4 DIV SWAP3 POP PUSH1 0x20 ADD JUMPDEST PUSH7 0x2386F26FC10000 DUP4 LT PUSH2 0x3382 JUMPI PUSH7 0x2386F26FC10000 DUP4 DIV SWAP3 POP PUSH1 0x10 ADD JUMPDEST PUSH4 0x5F5E100 DUP4 LT PUSH2 0x339A JUMPI PUSH4 0x5F5E100 DUP4 DIV SWAP3 POP PUSH1 0x8 ADD JUMPDEST PUSH2 0x2710 DUP4 LT PUSH2 0x33AE JUMPI PUSH2 0x2710 DUP4 DIV SWAP3 POP PUSH1 0x4 ADD JUMPDEST PUSH1 0x64 DUP4 LT PUSH2 0x33C0 JUMPI PUSH1 0x64 DUP4 DIV SWAP3 POP PUSH1 0x2 ADD JUMPDEST PUSH1 0xA DUP4 LT PUSH2 0x85B JUMPI PUSH1 0x1 ADD SWAP3 SWAP2 POP POP JUMP JUMPDEST PUSH2 0x12F SLOAD PUSH1 0x0 SWAP1 PUSH1 0x1 PUSH1 0x1 PUSH1 0xA0 SHL SUB AND ADDRESS SUB PUSH2 0x33EF JUMPI POP PUSH2 0x12D SLOAD SWAP1 JUMP JUMPDEST PUSH2 0x33F7 PUSH2 0x35F0 JUMP JUMPDEST SWAP1 POP SWAP1 JUMP JUMPDEST PUSH1 0x0 DUP1 DUP3 MLOAD PUSH1 0x41 SUB PUSH2 0x3432 JUMPI PUSH1 0x20 DUP4 ADD MLOAD PUSH1 0x40 DUP5 ADD MLOAD PUSH1 0x60 DUP6 ADD MLOAD PUSH1 0x0 BYTE PUSH2 0x3426 DUP8 DUP3 DUP6 DUP6 PUSH2 0x3661 JUMP JUMPDEST SWAP5 POP SWAP5 POP POP POP POP PUSH2 0x343A JUMP JUMPDEST POP PUSH1 0x0 SWAP1 POP PUSH1 0x2 JUMPDEST SWAP3 POP SWAP3 SWAP1 POP JUMP JUMPDEST PUSH1 0x0 DUP2 PUSH1 0x4 DUP2 GT ISZERO PUSH2 0x3455 JUMPI PUSH2 0x3455 PUSH2 0x4624 JUMP JUMPDEST SUB PUSH2 0x345D JUMPI POP JUMP JUMPDEST PUSH1 0x1 DUP2 PUSH1 0x4 DUP2 GT ISZERO PUSH2 0x3471 JUMPI PUSH2 0x3471 PUSH2 0x4624 JUMP JUMPDEST SUB PUSH2 0x34BE JUMPI PUSH1 0x40 MLOAD PUSH3 0x461BCD PUSH1 0xE5 SHL DUP2 MSTORE PUSH1 0x20 PUSH1 0x4 DUP3 ADD MSTORE PUSH1 0x18 PUSH1 0x24 DUP3 ADD MSTORE PUSH32 0x45434453413A20696E76616C6964207369676E61747572650000000000000000 PUSH1 0x44 DUP3 ADD MSTORE PUSH1 0x64 ADD PUSH2 0x98E JUMP JUMPDEST PUSH1 0x2 DUP2 PUSH1 0x4 DUP2 GT ISZERO PUSH2 0x34D2 JUMPI PUSH2 0x34D2 PUSH2 0x4624 JUMP JUMPDEST SUB PUSH2 0x351F JUMPI PUSH1 0x40 MLOAD PUSH3 0x461BCD PUSH1 0xE5 SHL DUP2 MSTORE PUSH1 0x20 PUSH1 0x4 DUP3 ADD MSTORE PUSH1 0x1F PUSH1 0x24 DUP3 ADD MSTORE PUSH32 0x45434453413A20696E76616C6964207369676E6174757265206C656E67746800 PUSH1 0x44 DUP3 ADD MSTORE PUSH1 0x64 ADD PUSH2 0x98E JUMP JUMPDEST PUSH1 0x3 DUP2 PUSH1 0x4 DUP2 GT ISZERO PUSH2 0x3533 JUMPI PUSH2 0x3533 PUSH2 0x4624 JUMP JUMPDEST SUB PUSH2 0x1208 JUMPI PUSH1 0x40 MLOAD PUSH3 0x461BCD PUSH1 0xE5 SHL DUP2 MSTORE PUSH1 0x20 PUSH1 0x4 DUP3 ADD MSTORE PUSH1 0x22 PUSH1 0x24 DUP3 ADD MSTORE PUSH32 0x45434453413A20696E76616C6964207369676E6174757265202773272076616C PUSH1 0x44 DUP3 ADD MSTORE PUSH2 0x7565 PUSH1 0xF0 SHL PUSH1 0x64 DUP3 ADD MSTORE PUSH1 0x84 ADD PUSH2 0x98E JUMP JUMPDEST PUSH2 0x3594 DUP2 PUSH2 0x3044 JUMP JUMPDEST PUSH1 0x40 MLOAD PUSH1 0x1 PUSH1 0x1 PUSH1 0xA0 SHL SUB DUP3 AND SWAP1 PUSH32 0xBC7CD75A20EE27FD9ADEBAB32041F755214DBC6BFFA90CC0225B39DA2E5C2D3B SWAP1 PUSH1 0x0 SWAP1 LOG2 POP JUMP JUMPDEST PUSH1 0x60 PUSH2 0x1E18 DUP4 DUP4 PUSH1 0x40 MLOAD DUP1 PUSH1 0x60 ADD PUSH1 0x40 MSTORE DUP1 PUSH1 0x27 DUP2 MSTORE PUSH1 0x20 ADD PUSH2 0x465B PUSH1 0x27 SWAP2 CODECOPY PUSH2 0x3725 JUMP JUMPDEST PUSH2 0x130 SLOAD PUSH2 0x131 SLOAD PUSH2 0x12E SLOAD PUSH1 0x40 DUP1 MLOAD PUSH32 0x8B73C3C69BB8FE3D512ECC4CF759CC79239F7B179B0FFACAA9A75D522B39400F PUSH1 0x20 DUP3 ADD MSTORE SWAP1 DUP2 ADD SWAP4 SWAP1 SWAP4 MSTORE PUSH1 0x60 DUP4 ADD SWAP2 SWAP1 SWAP2 MSTORE PUSH1 0x80 DUP3 ADD MSTORE ADDRESS PUSH1 0xA0 DUP3 ADD MSTORE PUSH1 0x0 SWAP1 PUSH1 0xC0 ADD PUSH1 0x40 MLOAD PUSH1 0x20 DUP2 DUP4 SUB SUB DUP2 MSTORE SWAP1 PUSH1 0x40 MSTORE DUP1 MLOAD SWAP1 PUSH1 0x20 ADD KECCAK256 SWAP1 POP SWAP1 JUMP JUMPDEST PUSH1 0x0 DUP1 PUSH32 0x7FFFFFFFFFFFFFFFFFFFFFFFFFFFFFFF5D576E7357A4501DDFE92F46681B20A0 DUP4 GT ISZERO PUSH2 0x3698 JUMPI POP PUSH1 0x0 SWAP1 POP PUSH1 0x3 PUSH2 0x371C JUMP JUMPDEST PUSH1 0x40 DUP1 MLOAD PUSH1 0x0 DUP1 DUP3 MSTORE PUSH1 0x20 DUP3 ADD DUP1 DUP5 MSTORE DUP10 SWAP1 MSTORE PUSH1 0xFF DUP9 AND SWAP3 DUP3 ADD SWAP3 SWAP1 SWAP3 MSTORE PUSH1 0x60 DUP2 ADD DUP7 SWAP1 MSTORE PUSH1 0x80 DUP2 ADD DUP6 SWAP1 MSTORE PUSH1 0x1 SWAP1 PUSH1 0xA0 ADD PUSH1 0x20 PUSH1 0x40 MLOAD PUSH1 0x20 DUP2 SUB SWAP1 DUP1 DUP5 SUB SWAP1 DUP6 GAS STATICCALL ISZERO DUP1 ISZERO PUSH2 0x36EC JUMPI RETURNDATASIZE PUSH1 0x0 DUP1 RETURNDATACOPY RETURNDATASIZE PUSH1 0x0 REVERT JUMPDEST POP POP PUSH1 0x40 MLOAD PUSH1 0x1F NOT ADD MLOAD SWAP2 POP POP PUSH1 0x1 PUSH1 0x1 PUSH1 0xA0 SHL SUB DUP2 AND PUSH2 0x3715 JUMPI PUSH1 0x0 PUSH1 0x1 SWAP3 POP SWAP3 POP POP PUSH2 0x371C JUMP JUMPDEST SWAP2 POP PUSH1 0x0 SWAP1 POP JUMPDEST SWAP5 POP SWAP5 SWAP3 POP POP POP JUMP JUMPDEST PUSH1 0x60 PUSH1 0x0 DUP1 DUP6 PUSH1 0x1 PUSH1 0x1 PUSH1 0xA0 SHL SUB AND DUP6 PUSH1 0x40 MLOAD PUSH2 0x3742 SWAP2 SWAP1 PUSH2 0x4223 JUMP JUMPDEST PUSH1 0x0 PUSH1 0x40 MLOAD DUP1 DUP4 SUB DUP2 DUP6 GAS DELEGATECALL SWAP2 POP POP RETURNDATASIZE DUP1 PUSH1 0x0 DUP2 EQ PUSH2 0x377D JUMPI PUSH1 0x40 MLOAD SWAP2 POP PUSH1 0x1F NOT PUSH1 0x3F RETURNDATASIZE ADD AND DUP3 ADD PUSH1 0x40 MSTORE RETURNDATASIZE DUP3 MSTORE RETURNDATASIZE PUSH1 0x0 PUSH1 0x20 DUP5 ADD RETURNDATACOPY PUSH2 0x3782 JUMP JUMPDEST PUSH1 0x60 SWAP2 POP JUMPDEST POP SWAP2 POP SWAP2 POP PUSH2 0x3793 DUP7 DUP4 DUP4 DUP8 PUSH2 0x379D JUMP JUMPDEST SWAP7 SWAP6 POP POP POP POP POP POP JUMP JUMPDEST PUSH1 0x60 DUP4 ISZERO PUSH2 0x380C JUMPI DUP3 MLOAD PUSH1 0x0 SUB PUSH2 0x3805 JUMPI PUSH1 0x1 PUSH1 0x1 PUSH1 0xA0 SHL SUB DUP6 AND EXTCODESIZE PUSH2 0x3805 JUMPI PUSH1 0x40 MLOAD PUSH3 0x461BCD PUSH1 0xE5 SHL DUP2 MSTORE PUSH1 0x20 PUSH1 0x4 DUP3 ADD MSTORE PUSH1 0x1D PUSH1 0x24 DUP3 ADD MSTORE PUSH32 0x416464726573733A2063616C6C20746F206E6F6E2D636F6E7472616374000000 PUSH1 0x44 DUP3 ADD MSTORE PUSH1 0x64 ADD PUSH2 0x98E JUMP JUMPDEST POP DUP2 PUSH2 0x16D4 JUMP JUMPDEST PUSH2 0x16D4 DUP4 DUP4 DUP2 MLOAD ISZERO PUSH2 0x3821 JUMPI DUP2 MLOAD DUP1 DUP4 PUSH1 0x20 ADD REVERT JUMPDEST DUP1 PUSH1 0x40 MLOAD PUSH3 0x461BCD PUSH1 0xE5 SHL DUP2 MSTORE PUSH1 0x4 ADD PUSH2 0x98E SWAP2 SWAP1 PUSH2 0x38BE JUMP JUMPDEST PUSH1 0x1 PUSH1 0x1 PUSH1 0xE0 SHL SUB NOT DUP2 AND DUP2 EQ PUSH2 0x1208 JUMPI PUSH1 0x0 DUP1 REVERT JUMPDEST PUSH1 0x0 PUSH1 0x20 DUP3 DUP5 SUB SLT ISZERO PUSH2 0x3863 JUMPI PUSH1 0x0 DUP1 REVERT JUMPDEST DUP2 CALLDATALOAD PUSH2 0x1E18 DUP2 PUSH2 0x383B JUMP JUMPDEST PUSH1 0x0 JUMPDEST DUP4 DUP2 LT ISZERO PUSH2 0x3889 JUMPI DUP2 DUP2 ADD MLOAD DUP4 DUP3 ADD MSTORE PUSH1 0x20 ADD PUSH2 0x3871 JUMP JUMPDEST POP POP PUSH1 0x0 SWAP2 ADD MSTORE JUMP JUMPDEST PUSH1 0x0 DUP2 MLOAD DUP1 DUP5 MSTORE PUSH2 0x38AA DUP2 PUSH1 0x20 DUP7 ADD PUSH1 0x20 DUP7 ADD PUSH2 0x386E JUMP JUMPDEST PUSH1 0x1F ADD PUSH1 0x1F NOT AND SWAP3 SWAP1 SWAP3 ADD PUSH1 0x20 ADD SWAP3 SWAP2 POP POP JUMP JUMPDEST PUSH1 0x20 DUP2 MSTORE PUSH1 0x0 PUSH2 0x1E18 PUSH1 0x20 DUP4 ADD DUP5 PUSH2 0x3892 JUMP JUMPDEST PUSH1 0x0 PUSH1 0x20 DUP3 DUP5 SUB SLT ISZERO PUSH2 0x38E3 JUMPI PUSH1 0x0 DUP1 REVERT JUMPDEST POP CALLDATALOAD SWAP2 SWAP1 POP JUMP JUMPDEST DUP1 CALLDATALOAD PUSH1 0x1 PUSH1 0x1 PUSH1 0xA0 SHL SUB DUP2 AND DUP2 EQ PUSH2 0x3901 JUMPI PUSH1 0x0 DUP1 REVERT JUMPDEST SWAP2 SWAP1 POP JUMP JUMPDEST PUSH1 0x0 DUP1 PUSH1 0x40 DUP4 DUP6 SUB SLT ISZERO PUSH2 0x3919 JUMPI PUSH1 0x0 DUP1 REVERT JUMPDEST PUSH2 0x3922 DUP4 PUSH2 0x38EA JUMP JUMPDEST SWAP5 PUSH1 0x20 SWAP4 SWAP1 SWAP4 ADD CALLDATALOAD SWAP4 POP POP POP JUMP JUMPDEST PUSH1 0x0 DUP1 PUSH1 0x0 PUSH1 0x60 DUP5 DUP7 SUB SLT ISZERO PUSH2 0x3945 JUMPI PUSH1 0x0 DUP1 REVERT JUMPDEST PUSH2 0x394E DUP5 PUSH2 0x38EA JUMP JUMPDEST SWAP3 POP PUSH2 0x395C PUSH1 0x20 DUP6 ADD PUSH2 0x38EA JUMP JUMPDEST SWAP2 POP PUSH1 0x40 DUP5 ADD CALLDATALOAD SWAP1 POP SWAP3 POP SWAP3 POP SWAP3 JUMP JUMPDEST DUP1 CALLDATALOAD PUSH1 0x1 PUSH1 0x1 PUSH1 0x60 SHL SUB NOT DUP2 AND DUP2 EQ PUSH2 0x3901 JUMPI PUSH1 0x0 DUP1 REVERT JUMPDEST PUSH4 0x4E487B71 PUSH1 0xE0 SHL PUSH1 0x0 MSTORE PUSH1 0x41 PUSH1 0x4 MSTORE PUSH1 0x24 PUSH1 0x0 REVERT JUMPDEST PUSH1 0x40 MLOAD PUSH1 0x1F DUP3 ADD PUSH1 0x1F NOT AND DUP2 ADD PUSH1 0x1 PUSH1 0x1 PUSH1 0x40 SHL SUB DUP2 GT DUP3 DUP3 LT OR ISZERO PUSH2 0x39C2 JUMPI PUSH2 0x39C2 PUSH2 0x3984 JUMP JUMPDEST PUSH1 0x40 MSTORE SWAP2 SWAP1 POP JUMP JUMPDEST PUSH1 0x0 PUSH1 0x1 PUSH1 0x1 PUSH1 0x40 SHL SUB DUP3 GT ISZERO PUSH2 0x39E3 JUMPI PUSH2 0x39E3 PUSH2 0x3984 JUMP JUMPDEST POP PUSH1 0x1F ADD PUSH1 0x1F NOT AND PUSH1 0x20 ADD SWAP1 JUMP JUMPDEST PUSH1 0x0 DUP3 PUSH1 0x1F DUP4 ADD SLT PUSH2 0x3A02 JUMPI PUSH1 0x0 DUP1 REVERT JUMPDEST DUP2 CALLDATALOAD PUSH2 0x3A15 PUSH2 0x3A10 DUP3 PUSH2 0x39CA JUMP JUMPDEST PUSH2 0x399A JUMP JUMPDEST DUP2 DUP2 MSTORE DUP5 PUSH1 0x20 DUP4 DUP7 ADD ADD GT ISZERO PUSH2 0x3A2A JUMPI PUSH1 0x0 DUP1 REVERT JUMPDEST DUP2 PUSH1 0x20 DUP6 ADD PUSH1 0x20 DUP4 ADD CALLDATACOPY PUSH1 0x0 SWAP2 DUP2 ADD PUSH1 0x20 ADD SWAP2 SWAP1 SWAP2 MSTORE SWAP4 SWAP3 POP POP POP JUMP JUMPDEST PUSH1 0x0 DUP1 PUSH1 0x0 DUP1 PUSH1 0x80 DUP6 DUP8 SUB SLT ISZERO PUSH2 0x3A5D JUMPI PUSH1 0x0 DUP1 REVERT JUMPDEST PUSH2 0x3A66 DUP6 PUSH2 0x396C JUMP JUMPDEST SWAP4 POP PUSH1 0x20 DUP6 ADD CALLDATALOAD SWAP3 POP PUSH2 0x3A7B PUSH1 0x40 DUP7 ADD PUSH2 0x38EA JUMP JUMPDEST SWAP2 POP PUSH1 0x60 DUP6 ADD CALLDATALOAD PUSH1 0x1 PUSH1 0x1 PUSH1 0x40 SHL SUB DUP2 GT ISZERO PUSH2 0x3A96 JUMPI PUSH1 0x0 DUP1 REVERT JUMPDEST PUSH2 0x3AA2 DUP8 DUP3 DUP9 ADD PUSH2 0x39F1 JUMP JUMPDEST SWAP2 POP POP SWAP3 SWAP6 SWAP2 SWAP5 POP SWAP3 POP JUMP JUMPDEST DUP1 CALLDATALOAD PUSH1 0x1 PUSH1 0x1 PUSH1 0x80 SHL SUB DUP2 AND DUP2 EQ PUSH2 0x3901 JUMPI PUSH1 0x0 DUP1 REVERT JUMPDEST DUP1 CALLDATALOAD PUSH1 0xFF DUP2 AND DUP2 EQ PUSH2 0x3901 JUMPI PUSH1 0x0 DUP1 REVERT JUMPDEST PUSH1 0x0 DUP1 PUSH1 0x0 DUP1 PUSH1 0x0 DUP6 DUP8 SUB PUSH1 0xE0 DUP2 SLT ISZERO PUSH2 0x3AEF JUMPI PUSH1 0x0 DUP1 REVERT JUMPDEST PUSH2 0x3AF8 DUP8 PUSH2 0x3AAE JUMP JUMPDEST SWAP6 POP PUSH1 0x20 DUP8 ADD CALLDATALOAD PUSH1 0x1 PUSH1 0x1 PUSH1 0x40 SHL SUB DUP1 DUP3 GT ISZERO PUSH2 0x3B14 JUMPI PUSH1 0x0 DUP1 REVERT JUMPDEST PUSH2 0x3B20 DUP11 DUP4 DUP12 ADD PUSH2 0x39F1 JUMP JUMPDEST SWAP7 POP PUSH2 0x3B2E PUSH1 0x40 DUP11 ADD PUSH2 0x38EA JUMP JUMPDEST SWAP6 POP PUSH2 0x3B3C PUSH1 0x60 DUP11 ADD PUSH2 0x396C JUMP JUMPDEST SWAP5 POP PUSH1 0x60 PUSH1 0x7F NOT DUP5 ADD SLT ISZERO PUSH2 0x3B50 JUMPI PUSH1 0x0 DUP1 REVERT JUMPDEST PUSH1 0x40 MLOAD SWAP3 POP PUSH1 0x60 DUP4 ADD SWAP2 POP DUP3 DUP3 LT DUP2 DUP4 GT OR ISZERO PUSH2 0x3B6F JUMPI PUSH2 0x3B6F PUSH2 0x3984 JUMP JUMPDEST POP PUSH1 0x40 MSTORE PUSH2 0x3B7F PUSH1 0x80 DUP9 ADD PUSH2 0x3AC5 JUMP JUMPDEST DUP2 MSTORE PUSH1 0xA0 DUP8 ADD CALLDATALOAD PUSH1 0x20 DUP3 ADD MSTORE PUSH1 0xC0 SWAP1 SWAP7 ADD CALLDATALOAD PUSH1 0x40 DUP8 ADD MSTORE POP SWAP3 SWAP6 SWAP2 SWAP5 POP SWAP3 SWAP1 JUMP JUMPDEST PUSH1 0x0 PUSH1 0x20 DUP3 DUP5 SUB SLT ISZERO PUSH2 0x3BB2 JUMPI PUSH1 0x0 DUP1 REVERT JUMPDEST PUSH2 0x1E18 DUP3 PUSH2 0x38EA JUMP JUMPDEST PUSH1 0x0 DUP1 PUSH1 0x0 DUP1 PUSH1 0x0 DUP1 PUSH1 0xC0 DUP8 DUP10 SUB SLT ISZERO PUSH2 0x3BD4 JUMPI PUSH1 0x0 DUP1 REVERT JUMPDEST DUP7 CALLDATALOAD PUSH1 0x1 PUSH1 0x1 PUSH1 0x40 SHL SUB DUP1 DUP3 GT ISZERO PUSH2 0x3BEB JUMPI PUSH1 0x0 DUP1 REVERT JUMPDEST PUSH2 0x3BF7 DUP11 DUP4 DUP12 ADD PUSH2 0x39F1 JUMP JUMPDEST SWAP8 POP PUSH1 0x20 DUP10 ADD CALLDATALOAD SWAP2 POP DUP1 DUP3 GT ISZERO PUSH2 0x3C0D JUMPI PUSH1 0x0 DUP1 REVERT JUMPDEST POP PUSH2 0x3C1A DUP10 DUP3 DUP11 ADD PUSH2 0x39F1 JUMP JUMPDEST SWAP6 POP POP PUSH2 0x3C29 PUSH1 0x40 DUP9 ADD PUSH2 0x396C JUMP JUMPDEST SWAP4 POP PUSH2 0x3C37 PUSH1 0x60 DUP9 ADD PUSH2 0x38EA JUMP JUMPDEST SWAP3 POP PUSH1 0x80 DUP8 ADD CALLDATALOAD SWAP2 POP PUSH1 0xA0 DUP8 ADD CALLDATALOAD SWAP1 POP SWAP3 SWAP6 POP SWAP3 SWAP6 POP SWAP3 SWAP6 JUMP JUMPDEST PUSH1 0x0 DUP1 PUSH1 0x40 DUP4 DUP6 SUB SLT ISZERO PUSH2 0x3C64 JUMPI PUSH1 0x0 DUP1 REVERT JUMPDEST PUSH2 0x3C6D DUP4 PUSH2 0x3AAE JUMP JUMPDEST SWAP2 POP PUSH1 0x20 DUP4 ADD CALLDATALOAD PUSH1 0x1 PUSH1 0x1 PUSH1 0x40 SHL SUB DUP2 GT ISZERO PUSH2 0x3C88 JUMPI PUSH1 0x0 DUP1 REVERT JUMPDEST PUSH2 0x3C94 DUP6 DUP3 DUP7 ADD PUSH2 0x39F1 JUMP JUMPDEST SWAP2 POP POP SWAP3 POP SWAP3 SWAP1 POP JUMP JUMPDEST PUSH1 0x0 DUP1 PUSH1 0x40 DUP4 DUP6 SUB SLT ISZERO PUSH2 0x3CB1 JUMPI PUSH1 0x0 DUP1 REVERT JUMPDEST PUSH2 0x3C6D DUP4 PUSH2 0x38EA JUMP JUMPDEST PUSH1 0x0 PUSH1 0x20 DUP3 DUP5 SUB SLT ISZERO PUSH2 0x3CCC JUMPI PUSH1 0x0 DUP1 REVERT JUMPDEST DUP2 CALLDATALOAD PUSH1 0x1 PUSH1 0x1 PUSH1 0x40 SHL SUB DUP2 GT ISZERO PUSH2 0x3CE2 JUMPI PUSH1 0x0 DUP1 REVERT JUMPDEST PUSH2 0x16D4 DUP5 DUP3 DUP6 ADD PUSH2 0x39F1 JUMP JUMPDEST PUSH1 0xFF PUSH1 0xF8 SHL DUP9 AND DUP2 MSTORE PUSH1 0x0 PUSH1 0x20 PUSH1 0xE0 DUP2 DUP5 ADD MSTORE PUSH2 0x3D0E PUSH1 0xE0 DUP5 ADD DUP11 PUSH2 0x3892 JUMP JUMPDEST DUP4 DUP2 SUB PUSH1 0x40 DUP6 ADD MSTORE PUSH2 0x3D20 DUP2 DUP11 PUSH2 0x3892 JUMP JUMPDEST PUSH1 0x60 DUP6 ADD DUP10 SWAP1 MSTORE PUSH1 0x1 PUSH1 0x1 PUSH1 0xA0 SHL SUB DUP9 AND PUSH1 0x80 DUP7 ADD MSTORE PUSH1 0xA0 DUP6 ADD DUP8 SWAP1 MSTORE DUP5 DUP2 SUB PUSH1 0xC0 DUP7 ADD MSTORE DUP6 MLOAD DUP1 DUP3 MSTORE DUP4 DUP8 ADD SWAP3 POP SWAP1 DUP4 ADD SWAP1 PUSH1 0x0 JUMPDEST DUP2 DUP2 LT ISZERO PUSH2 0x3D72 JUMPI DUP4 MLOAD DUP4 MSTORE SWAP3 DUP5 ADD SWAP3 SWAP2 DUP5 ADD SWAP2 PUSH1 0x1 ADD PUSH2 0x3D56 JUMP JUMPDEST POP SWAP1 SWAP13 SWAP12 POP POP POP POP POP POP POP POP POP POP POP POP JUMP JUMPDEST PUSH1 0x0 PUSH1 0x1 PUSH1 0x1 PUSH1 0x40 SHL SUB DUP3 GT ISZERO PUSH2 0x3D9D JUMPI PUSH2 0x3D9D PUSH2 0x3984 JUMP JUMPDEST POP PUSH1 0x5 SHL PUSH1 0x20 ADD SWAP1 JUMP JUMPDEST PUSH1 0x0 DUP3 PUSH1 0x1F DUP4 ADD SLT PUSH2 0x3DB8 JUMPI PUSH1 0x0 DUP1 REVERT JUMPDEST DUP2 CALLDATALOAD PUSH1 0x20 PUSH2 0x3DC8 PUSH2 0x3A10 DUP4 PUSH2 0x3D84 JUMP JUMPDEST DUP3 DUP2 MSTORE PUSH1 0x5 SWAP3 SWAP1 SWAP3 SHL DUP5 ADD DUP2 ADD SWAP2 DUP2 DUP2 ADD SWAP1 DUP7 DUP5 GT ISZERO PUSH2 0x3DE7 JUMPI PUSH1 0x0 DUP1 REVERT JUMPDEST DUP3 DUP7 ADD JUMPDEST DUP5 DUP2 LT ISZERO PUSH2 0x3E09 JUMPI PUSH2 0x3DFC DUP2 PUSH2 0x3AC5 JUMP JUMPDEST DUP4 MSTORE SWAP2 DUP4 ADD SWAP2 DUP4 ADD PUSH2 0x3DEB JUMP JUMPDEST POP SWAP7 SWAP6 POP POP POP POP POP POP JUMP JUMPDEST PUSH1 0x0 DUP1 PUSH1 0x0 PUSH1 0x60 DUP5 DUP7 SUB SLT ISZERO PUSH2 0x3E29 JUMPI PUSH1 0x0 DUP1 REVERT JUMPDEST PUSH2 0x3E32 DUP5 PUSH2 0x3AAE JUMP JUMPDEST SWAP3 POP PUSH1 0x20 DUP1 DUP6 ADD CALLDATALOAD PUSH1 0x1 PUSH1 0x1 PUSH1 0x40 SHL SUB DUP1 DUP3 GT ISZERO PUSH2 0x3E4F JUMPI PUSH1 0x0 DUP1 REVERT JUMPDEST DUP2 DUP8 ADD SWAP2 POP DUP8 PUSH1 0x1F DUP4 ADD SLT PUSH2 0x3E63 JUMPI PUSH1 0x0 DUP1 REVERT JUMPDEST DUP2 CALLDATALOAD PUSH2 0x3E71 PUSH2 0x3A10 DUP3 PUSH2 0x3D84 JUMP JUMPDEST DUP2 DUP2 MSTORE PUSH1 0x5 SWAP2 SWAP1 SWAP2 SHL DUP4 ADD DUP5 ADD SWAP1 DUP5 DUP2 ADD SWAP1 DUP11 DUP4 GT ISZERO PUSH2 0x3E90 JUMPI PUSH1 0x0 DUP1 REVERT JUMPDEST DUP6 DUP6 ADD JUMPDEST DUP4 DUP2 LT ISZERO PUSH2 0x3EC8 JUMPI DUP1 CALLDATALOAD DUP6 DUP2 GT ISZERO PUSH2 0x3EAC JUMPI PUSH1 0x0 DUP1 DUP2 REVERT JUMPDEST PUSH2 0x3EBA DUP14 DUP10 DUP4 DUP11 ADD ADD PUSH2 0x39F1 JUMP JUMPDEST DUP5 MSTORE POP SWAP2 DUP7 ADD SWAP2 DUP7 ADD PUSH2 0x3E94 JUMP JUMPDEST POP SWAP7 POP POP POP PUSH1 0x40 DUP8 ADD CALLDATALOAD SWAP3 POP DUP1 DUP4 GT ISZERO PUSH2 0x3EE1 JUMPI PUSH1 0x0 DUP1 REVERT JUMPDEST POP POP PUSH2 0x3EEF DUP7 DUP3 DUP8 ADD PUSH2 0x3DA7 JUMP JUMPDEST SWAP2 POP POP SWAP3 POP SWAP3 POP SWAP3 JUMP JUMPDEST PUSH1 0x0 PUSH1 0x20 DUP3 DUP5 SUB SLT ISZERO PUSH2 0x3F0B JUMPI PUSH1 0x0 DUP1 REVERT JUMPDEST PUSH2 0x1E18 DUP3 PUSH2 0x3AAE JUMP JUMPDEST PUSH1 0x0 DUP1 PUSH1 0x40 DUP4 DUP6 SUB SLT ISZERO PUSH2 0x3F27 JUMPI PUSH1 0x0 DUP1 REVERT JUMPDEST PUSH2 0x3F30 DUP4 PUSH2 0x38EA JUMP JUMPDEST SWAP2 POP PUSH1 0x20 DUP4 ADD CALLDATALOAD DUP1 ISZERO ISZERO DUP2 EQ PUSH2 0x3F45 JUMPI PUSH1 0x0 DUP1 REVERT JUMPDEST DUP1 SWAP2 POP POP SWAP3 POP SWAP3 SWAP1 POP JUMP JUMPDEST PUSH1 0x0 DUP1 PUSH1 0x40 DUP4 DUP6 SUB SLT ISZERO PUSH2 0x3F63 JUMPI PUSH1 0x0 DUP1 REVERT JUMPDEST DUP3 CALLDATALOAD SWAP2 POP PUSH2 0x3F73 PUSH1 0x20 DUP5 ADD PUSH2 0x396C JUMP JUMPDEST SWAP1 POP SWAP3 POP SWAP3 SWAP1 POP JUMP JUMPDEST PUSH1 0x0 DUP1 PUSH1 0x0 DUP1 PUSH1 0x80 DUP6 DUP8 SUB SLT ISZERO PUSH2 0x3F92 JUMPI PUSH1 0x0 DUP1 REVERT JUMPDEST PUSH2 0x3F9B DUP6 PUSH2 0x38EA JUMP JUMPDEST SWAP4 POP PUSH2 0x3FA9 PUSH1 0x20 DUP7 ADD PUSH2 0x38EA JUMP JUMPDEST SWAP3 POP PUSH1 0x40 DUP6 ADD CALLDATALOAD SWAP2 POP PUSH1 0x60 DUP6 ADD CALLDATALOAD PUSH1 0x1 PUSH1 0x1 PUSH1 0x40 SHL SUB DUP2 GT ISZERO PUSH2 0x3A96 JUMPI PUSH1 0x0 DUP1 REVERT JUMPDEST PUSH1 0x0 DUP1 PUSH1 0x40 DUP4 DUP6 SUB SLT ISZERO PUSH2 0x3FDE JUMPI PUSH1 0x0 DUP1 REVERT JUMPDEST PUSH2 0x3FE7 DUP4 PUSH2 0x38EA JUMP JUMPDEST SWAP2 POP PUSH2 0x3F73 PUSH1 0x20 DUP5 ADD PUSH2 0x396C JUMP JUMPDEST PUSH1 0x0 DUP1 PUSH1 0x40 DUP4 DUP6 SUB SLT ISZERO PUSH2 0x4008 JUMPI PUSH1 0x0 DUP1 REVERT JUMPDEST PUSH2 0x4011 DUP4 PUSH2 0x38EA JUMP JUMPDEST SWAP2 POP PUSH2 0x3F73 PUSH1 0x20 DUP5 ADD PUSH2 0x38EA JUMP JUMPDEST PUSH1 0x0 DUP1 PUSH1 0x0 PUSH1 0x60 DUP5 DUP7 SUB SLT ISZERO PUSH2 0x4034 JUMPI PUSH1 0x0 DUP1 REVERT JUMPDEST PUSH2 0x403D DUP5 PUSH2 0x396C JUMP JUMPDEST SWAP3 POP PUSH1 0x20 DUP5 ADD CALLDATALOAD SWAP2 POP PUSH1 0x40 DUP5 ADD CALLDATALOAD PUSH1 0x1 PUSH1 0x1 PUSH1 0x40 SHL SUB DUP2 GT ISZERO PUSH2 0x405F JUMPI PUSH1 0x0 DUP1 REVERT JUMPDEST PUSH2 0x3EEF DUP7 DUP3 DUP8 ADD PUSH2 0x39F1 JUMP JUMPDEST PUSH1 0x0 DUP1 PUSH1 0x0 DUP1 PUSH1 0x80 DUP6 DUP8 SUB SLT ISZERO PUSH2 0x4081 JUMPI PUSH1 0x0 DUP1 REVERT JUMPDEST PUSH2 0x408A DUP6 PUSH2 0x3AAE JUMP JUMPDEST SWAP4 POP PUSH2 0x4098 PUSH1 0x20 DUP7 ADD PUSH2 0x38EA JUMP JUMPDEST SWAP3 POP PUSH2 0x40A6 PUSH1 0x40 DUP7 ADD PUSH2 0x38EA JUMP JUMPDEST SWAP2 POP PUSH2 0x40B4 PUSH1 0x60 DUP7 ADD PUSH2 0x3AC5 JUMP JUMPDEST SWAP1 POP SWAP3 SWAP6 SWAP2 SWAP5 POP SWAP3 POP JUMP JUMPDEST PUSH1 0x0 PUSH1 0x20 DUP3 DUP5 SUB SLT ISZERO PUSH2 0x40D1 JUMPI PUSH1 0x0 DUP1 REVERT JUMPDEST PUSH2 0x1E18 DUP3 PUSH2 0x396C JUMP JUMPDEST PUSH1 0x1 DUP2 DUP2 SHR SWAP1 DUP3 AND DUP1 PUSH2 0x40EE JUMPI PUSH1 0x7F DUP3 AND SWAP2 POP JUMPDEST PUSH1 0x20 DUP3 LT DUP2 SUB PUSH2 0x410E JUMPI PUSH4 0x4E487B71 PUSH1 0xE0 SHL PUSH1 0x0 MSTORE PUSH1 0x22 PUSH1 0x4 MSTORE PUSH1 0x24 PUSH1 0x0 REVERT JUMPDEST POP SWAP2 SWAP1 POP JUMP JUMPDEST PUSH12 0xFFFFFFFFFFFFFFFFFFFFFFFF NOT DUP4 AND DUP2 MSTORE PUSH1 0x40 PUSH1 0x20 DUP3 ADD MSTORE PUSH1 0x0 PUSH2 0x16D4 PUSH1 0x40 DUP4 ADD DUP5 PUSH2 0x3892 JUMP JUMPDEST PUSH1 0x0 PUSH1 0x20 DUP3 DUP5 SUB SLT ISZERO PUSH2 0x414E JUMPI PUSH1 0x0 DUP1 REVERT JUMPDEST DUP2 MLOAD PUSH1 0x1 PUSH1 0x1 PUSH1 0x40 SHL SUB DUP2 GT ISZERO PUSH2 0x4164 JUMPI PUSH1 0x0 DUP1 REVERT JUMPDEST DUP3 ADD PUSH1 0x1F DUP2 ADD DUP5 SGT PUSH2 0x4175 JUMPI PUSH1 0x0 DUP1 REVERT JUMPDEST DUP1 MLOAD PUSH2 0x4183 PUSH2 0x3A10 DUP3 PUSH2 0x39CA JUMP JUMPDEST DUP2 DUP2 MSTORE DUP6 PUSH1 0x20 DUP4 DUP6 ADD ADD GT ISZERO PUSH2 0x4198 JUMPI PUSH1 0x0 DUP1 REVERT JUMPDEST PUSH2 0x41A9 DUP3 PUSH1 0x20 DUP4 ADD PUSH1 0x20 DUP7 ADD PUSH2 0x386E JUMP JUMPDEST SWAP6 SWAP5 POP POP POP POP POP JUMP JUMPDEST DUP1 MLOAD PUSH1 0x20 DUP1 DUP4 ADD MLOAD SWAP2 SWAP1 DUP2 LT ISZERO PUSH2 0x410E JUMPI PUSH1 0x0 NOT PUSH1 0x20 SWAP2 SWAP1 SWAP2 SUB PUSH1 0x3 SHL SHL AND SWAP2 SWAP1 POP JUMP JUMPDEST PUSH1 0x20 DUP1 DUP3 MSTORE PUSH1 0x2D SWAP1 DUP3 ADD MSTORE PUSH32 0x4552433732313A2063616C6C6572206973206E6F7420746F6B656E206F776E65 PUSH1 0x40 DUP3 ADD MSTORE PUSH13 0x1C881BDC88185C1C1C9BDD9959 PUSH1 0x9A SHL PUSH1 0x60 DUP3 ADD MSTORE PUSH1 0x80 ADD SWAP1 JUMP JUMPDEST PUSH1 0x0 DUP3 MLOAD PUSH2 0x4235 DUP2 DUP5 PUSH1 0x20 DUP8 ADD PUSH2 0x386E JUMP JUMPDEST SWAP2 SWAP1 SWAP2 ADD SWAP3 SWAP2 POP POP JUMP JUMPDEST PUSH4 0x4E487B71 PUSH1 0xE0 SHL PUSH1 0x0 MSTORE PUSH1 0x11 PUSH1 0x4 MSTORE PUSH1 0x24 PUSH1 0x0 REVERT JUMPDEST PUSH2 0xFFFF DUP2 DUP2 AND DUP4 DUP3 AND ADD SWAP1 DUP1 DUP3 GT ISZERO PUSH2 0x4270 JUMPI PUSH2 0x4270 PUSH2 0x423F JUMP JUMPDEST POP SWAP3 SWAP2 POP POP JUMP JUMPDEST PUSH1 0x20 DUP1 DUP3 MSTORE PUSH1 0x2C SWAP1 DUP3 ADD MSTORE PUSH32 0x46756E6374696F6E206D7573742062652063616C6C6564207468726F75676820 PUSH1 0x40 DUP3 ADD MSTORE PUSH12 0x19195B1959D85D1958D85B1B PUSH1 0xA2 SHL PUSH1 0x60 DUP3 ADD MSTORE PUSH1 0x80 ADD SWAP1 JUMP JUMPDEST PUSH1 0x20 DUP1 DUP3 MSTORE PUSH1 0x2C SWAP1 DUP3 ADD MSTORE PUSH32 0x46756E6374696F6E206D7573742062652063616C6C6564207468726F75676820 PUSH1 0x40 DUP3 ADD MSTORE PUSH12 0x6163746976652070726F7879 PUSH1 0xA0 SHL PUSH1 0x60 DUP3 ADD MSTORE PUSH1 0x80 ADD SWAP1 JUMP JUMPDEST PUSH1 0x0 DUP3 PUSH2 0x432C JUMPI PUSH4 0x4E487B71 PUSH1 0xE0 SHL PUSH1 0x0 MSTORE PUSH1 0x12 PUSH1 0x4 MSTORE PUSH1 0x24 PUSH1 0x0 REVERT JUMPDEST POP DIV SWAP1 JUMP JUMPDEST DUP1 DUP3 MUL DUP2 ISZERO DUP3 DUP3 DIV DUP5 EQ OR PUSH2 0x85B JUMPI PUSH2 0x85B PUSH2 0x423F JUMP JUMPDEST DUP2 DUP2 SUB DUP2 DUP2 GT ISZERO PUSH2 0x85B JUMPI PUSH2 0x85B PUSH2 0x423F JUMP JUMPDEST PUSH1 0x1F DUP3 GT ISZERO PUSH2 0xA2F JUMPI PUSH1 0x0 DUP2 DUP2 MSTORE PUSH1 0x20 DUP2 KECCAK256 PUSH1 0x1F DUP6 ADD PUSH1 0x5 SHR DUP2 ADD PUSH1 0x20 DUP7 LT ISZERO PUSH2 0x4382 JUMPI POP DUP1 JUMPDEST PUSH1 0x1F DUP6 ADD PUSH1 0x5 SHR DUP3 ADD SWAP2 POP JUMPDEST DUP2 DUP2 LT ISZERO PUSH2 0x43A1 JUMPI DUP3 DUP2 SSTORE PUSH1 0x1 ADD PUSH2 0x438E JUMP JUMPDEST POP POP POP POP POP POP JUMP JUMPDEST DUP2 MLOAD PUSH1 0x1 PUSH1 0x1 PUSH1 0x40 SHL SUB DUP2 GT ISZERO PUSH2 0x43C2 JUMPI PUSH2 0x43C2 PUSH2 0x3984 JUMP JUMPDEST PUSH2 0x43D6 DUP2 PUSH2 0x43D0 DUP5 SLOAD PUSH2 0x40DA JUMP JUMPDEST DUP5 PUSH2 0x435B JUMP JUMPDEST PUSH1 0x20 DUP1 PUSH1 0x1F DUP4 GT PUSH1 0x1 DUP2 EQ PUSH2 0x440B JUMPI PUSH1 0x0 DUP5 ISZERO PUSH2 0x43F3 JUMPI POP DUP6 DUP4 ADD MLOAD JUMPDEST PUSH1 0x0 NOT PUSH1 0x3 DUP7 SWAP1 SHL SHR NOT AND PUSH1 0x1 DUP6 SWAP1 SHL OR DUP6 SSTORE PUSH2 0x43A1 JUMP JUMPDEST PUSH1 0x0 DUP6 DUP2 MSTORE PUSH1 0x20 DUP2 KECCAK256 PUSH1 0x1F NOT DUP7 AND SWAP2 JUMPDEST DUP3 DUP2 LT ISZERO PUSH2 0x443A JUMPI DUP9 DUP7 ADD MLOAD DUP3 SSTORE SWAP5 DUP5 ADD SWAP5 PUSH1 0x1 SWAP1 SWAP2 ADD SWAP1 DUP5 ADD PUSH2 0x441B JUMP JUMPDEST POP DUP6 DUP3 LT ISZERO PUSH2 0x4458 JUMPI DUP8 DUP6 ADD MLOAD PUSH1 0x0 NOT PUSH1 0x3 DUP9 SWAP1 SHL PUSH1 0xF8 AND SHR NOT AND DUP2 SSTORE JUMPDEST POP POP POP POP POP PUSH1 0x1 SWAP1 DUP2 SHL ADD SWAP1 SSTORE POP JUMP JUMPDEST PUSH4 0x4E487B71 PUSH1 0xE0 SHL PUSH1 0x0 MSTORE PUSH1 0x32 PUSH1 0x4 MSTORE PUSH1 0x24 PUSH1 0x0 REVERT JUMPDEST PUSH1 0x0 PUSH1 0x1 DUP3 ADD PUSH2 0x4490 JUMPI PUSH2 0x4490 PUSH2 0x423F JUMP JUMPDEST POP PUSH1 0x1 ADD SWAP1 JUMP JUMPDEST PUSH1 0x0 DUP4 MLOAD PUSH2 0x44A9 DUP2 DUP5 PUSH1 0x20 DUP9 ADD PUSH2 0x386E JUMP JUMPDEST DUP4 MLOAD SWAP1 DUP4 ADD SWAP1 PUSH2 0x44BD DUP2 DUP4 PUSH1 0x20 DUP9 ADD PUSH2 0x386E JUMP JUMPDEST ADD SWAP5 SWAP4 POP POP POP POP JUMP JUMPDEST DUP1 DUP3 ADD DUP1 DUP3 GT ISZERO PUSH2 0x85B JUMPI PUSH2 0x85B PUSH2 0x423F JUMP JUMPDEST PUSH1 0x0 PUSH1 0x20 DUP3 DUP5 SUB SLT ISZERO PUSH2 0x44EB JUMPI PUSH1 0x0 DUP1 REVERT JUMPDEST POP MLOAD SWAP2 SWAP1 POP JUMP JUMPDEST PUSH1 0x20 DUP1 DUP3 MSTORE PUSH1 0x2B SWAP1 DUP3 ADD MSTORE PUSH32 0x496E697469616C697A61626C653A20636F6E7472616374206973206E6F742069 PUSH1 0x40 DUP3 ADD MSTORE PUSH11 0x6E697469616C697A696E67 PUSH1 0xA8 SHL PUSH1 0x60 DUP3 ADD MSTORE PUSH1 0x80 ADD SWAP1 JUMP JUMPDEST PUSH1 0x20 DUP1 DUP3 MSTORE PUSH1 0x32 SWAP1 DUP3 ADD MSTORE PUSH32 0x4552433732313A207472616E7366657220746F206E6F6E204552433732315265 PUSH1 0x40 DUP3 ADD MSTORE PUSH18 0x31B2B4BB32B91034B6B83632B6B2B73A32B9 PUSH1 0x71 SHL PUSH1 0x60 DUP3 ADD MSTORE PUSH1 0x80 ADD SWAP1 JUMP JUMPDEST PUSH1 0x20 DUP1 DUP3 MSTORE PUSH1 0x25 SWAP1 DUP3 ADD MSTORE PUSH32 0x4552433732313A207472616E736665722066726F6D20696E636F727265637420 PUSH1 0x40 DUP3 ADD MSTORE PUSH5 0x37BBB732B9 PUSH1 0xD9 SHL PUSH1 0x60 DUP3 ADD MSTORE PUSH1 0x80 ADD SWAP1 JUMP JUMPDEST PUSH1 0x1 PUSH1 0x1 PUSH1 0xA0 SHL SUB DUP6 DUP2 AND DUP3 MSTORE DUP5 AND PUSH1 0x20 DUP3 ADD MSTORE PUSH1 0x40 DUP2 ADD DUP4 SWAP1 MSTORE PUSH1 0x80 PUSH1 0x60 DUP3 ADD DUP2 SWAP1 MSTORE PUSH1 0x0 SWAP1 PUSH2 0x3793 SWAP1 DUP4 ADD DUP5 PUSH2 0x3892 JUMP JUMPDEST PUSH1 0x0 PUSH1 0x20 DUP3 DUP5 SUB SLT ISZERO PUSH2 0x4619 JUMPI PUSH1 0x0 DUP1 REVERT JUMPDEST DUP2 MLOAD PUSH2 0x1E18 DUP2 PUSH2 0x383B JUMP JUMPDEST PUSH4 0x4E487B71 PUSH1 0xE0 SHL PUSH1 0x0 MSTORE PUSH1 0x21 PUSH1 0x4 MSTORE PUSH1 0x24 PUSH1 0x0 REVERT INVALID CALLDATASIZE ADDMOD SWAP5 LOG1 EXTCODESIZE LOG1 LOG3 0x21 MOD PUSH8 0xC828492DB98DCA3E KECCAK256 PUSH23 0xCC3735A920A3CA505D382BBC416464726573733A206C6F PUSH24 0x2D6C6576656C2064656C65676174652063616C6C20666169 PUSH13 0x6564A264697066735822122012 0xD 0xF6 0xE5 PUSH22 0x650B161BF07F4B72B367850D7E077219A8D67D7DDFEF DIFFICULTY 0xA7 MOD 0xDF 0x25 PUSH5 0x736F6C6343 STOP ADDMOD ISZERO STOP CALLER ",
  "sha1": "08f0281873c94428b1cec26df4d564af9ed1365e",
  "source": "// SPDX-License-Identifier: MIT\n\npragma solidity ^0.8.0;\n\n// import \"@openzepplin/contracts/token/ERC721/IERC721.sol\";\n// import \"@openzeppelin/contracts/token/ERC721/ERC721Upgradeable.sol\";\n// import \"OpenZeppelin/openzeppelin-contracts@4.9.0/contracts/access/Ownable.sol\";\nimport \"@openzeppelin/contracts/access/OwnableUpgradeable.sol\";\nimport \"./EvmMetatransactionVerifier.sol\";\nimport \"./DualSpaceGeneral.sol\";\nimport \"./DualSpaceNFTEvm.sol\";\nimport \"../interfaces/ICrossSpaceCall.sol\";\n\n// deployment\n// firstly core side contract\n// then deploy espace contract with core side contract mapping address (bind from espace->core)\n// finally bind from core (bind from core->espace)\ncontract DualSpaceNFTCore is\n    DualSpaceGeneral,\n    OwnableUpgradeable,\n    EvmMetatransactionVerifier\n{\n    bytes20 _evmContractAddress;\n    // only for debug\n    // DualSpaceNFTEvm evmContractForDebug;\n    CrossSpaceCall _crossSpaceCall;\n    uint _defaultOracleBlockLife;\n\n    struct MintSetting {\n        address oracleSigner;\n        address authorizer;\n        uint expiration;\n    }\n\n    struct Signature {\n        uint8 v;\n        bytes32 r;\n        bytes32 s;\n    }\n\n    // 20230523 => address\n    // mint oracle is a centralized server to prove the user owns the Github token\n    mapping(uint128 => MintSetting) _mintSetting;\n    // batchNbr => usernameHash => rarityCouldMint\n    mapping(uint128 => mapping(bytes32 => uint8)) _authorizedRarityMintPermission;\n\n    mapping(uint128 => uint16) _batchInternalIdCounter;\n\n    function initialize(\n        string memory name_,\n        string memory symbol_,\n        bytes20 evmContractAddress_,\n        address crossSpaceCallAddress,\n        uint256 eSpaceChainId,\n        uint256 defaultOracleLife\n    ) public initializer {\n        __ERC721_init(name_, symbol_);\n        __EvmMetatransactionVerifier_init(name_, \"v1\", eSpaceChainId);\n        __Ownable_init();\n        _evmContractAddress = evmContractAddress_;\n        // _crossSpaceCall = CrossSpaceCall(0x0888000000000000000000000000000000000006);\n        _crossSpaceCall = CrossSpaceCall(crossSpaceCallAddress);\n        _defaultOracleBlockLife = defaultOracleLife; // expected to defaults to 30 days, 2 block per second (30 * 24 * 60 * 60 * 2)\n    }\n\n    string public baseURI;\n\n    function _baseURI() internal view override returns (string memory) {\n        return baseURI;\n    }\n\n    function setBaseURI(string memory baseURI_) external onlyOwner {\n        baseURI = baseURI_;\n        _crossSpaceCall.callEVM(\n            _evmContractAddress,\n            abi.encodeWithSignature(\n                \"setBaseURI(string)\",\n                baseURI_\n            )\n        );\n    }\n\n    function _authorizeUpgrade(address newImplementation) internal override onlyOwner() {\n    }\n\n    function upgradeEvmContractTo(bytes20 newImplementation) onlyOwner public {\n        _crossSpaceCall.callEVM(\n            _evmContractAddress,\n            abi.encodeWithSignature(\n                \"upgradeTo(address)\",\n                address(newImplementation)\n            )\n        );\n    }\n\n    function checkMintPermission(\n        uint128 batchNbr,\n        string memory username\n    ) external view returns (uint8) {\n        bytes32 usernameHash = keccak256(abi.encodePacked(username));\n        return _authorizedRarityMintPermission[batchNbr][usernameHash];\n    }\n\n    function startBatch(\n        uint128 batchNbr,\n        address oracleSigner,\n        address authorizer,\n        uint8 ratio\n    ) public onlyOwner {\n        require(batchNbr < 99999999, \"invalid batch nbr\");\n        _mintSetting[batchNbr].oracleSigner = oracleSigner;\n        _mintSetting[batchNbr].authorizer = authorizer;\n        _mintSetting[batchNbr].expiration =\n            block.number +\n            _defaultOracleBlockLife;\n        _crossSpaceCall.callEVM(\n            _evmContractAddress,\n            abi.encodeWithSignature(\n                \"startBatch(uint128,uint8)\",\n                batchNbr,\n                ratio\n            )\n        );\n        emit BatchStart(block.number, batchNbr, ratio);\n    }\n\n    function _isValidMintOracleSigner(\n        address oracleSigner,\n        uint128 batchNbr\n    ) internal view returns (bool) {\n        return\n            oracleSigner == _mintSetting[batchNbr].oracleSigner &&\n            _mintSetting[batchNbr].expiration > block.number;\n    }\n\n    function _isValidMintOracleAuthorizer(\n        address authorizer,\n        uint128 batchNbr\n    ) internal view returns (bool) {\n        return\n            authorizer == _mintSetting[batchNbr].authorizer &&\n            _mintSetting[batchNbr].expiration > block.number;\n    }\n\n    function clearMintSetting(uint128 batchNbr) public {\n        require((_mintSetting[batchNbr].expiration + _defaultOracleBlockLife) < block.number, \"mint setting not expired for enough time\");\n        delete _mintSetting[batchNbr];\n    }\n\n    function getMintSettingExpiration(uint128 batchNbr) public view returns (uint256) {\n        return _mintSetting[batchNbr].expiration;\n    }\n\n    function batchAuthorizeMintPermission(\n        uint128 batchNbr,\n        string[] memory usernames,\n        uint8[] memory rarities\n    ) public {\n        require(usernames.length == rarities.length, \"username and rariry array must have same length\");\n        // owner or mint oracle\n        if (msg.sender == owner()) {\n            // do nothing\n        } else if (_isValidMintOracleAuthorizer(msg.sender, batchNbr)) {\n            // do nothing\n        } else {\n            revert(\"msg sender is not authorized to set mint permission\");\n        }\n        for (uint256 i = 0; i < usernames.length; i++) {\n            _authorizeMintPermission(batchNbr, usernames[i], rarities[i]);\n        }\n    }\n\n    function _authorizeMintPermission(\n        uint128 batchNbr,\n        string memory username,\n        uint8 rarity\n    ) internal {\n        bytes32 usernameHash = keccak256(abi.encodePacked(username));\n        _authorizedRarityMintPermission[batchNbr][usernameHash] = rarity;\n    }\n\n    // TODO: prevent minting if dual space owner are all set to contract\n    // hashToSign = keccak(batchNbr, usernameHash, ownerCoreAddress, ownerEvmAddress)\n    function mint(\n        uint128 batchNbr,\n        string memory username,\n        address ownerCoreAddress,\n        bytes20 ownerEvmAddress,\n        Signature memory oracleSignature\n    ) public returns (uint256) {\n        require(\n            _mintSetting[batchNbr].expiration > block.number,\n            \"no available mint oracle at present\"\n        );\n        bytes32 usernameHash = keccak256(abi.encodePacked(username));\n\n        // check mint permission\n        uint8 rarity = _authorizedRarityMintPermission[batchNbr][usernameHash];\n        require(rarity != 0, \"no permission to mint\");\n        delete _authorizedRarityMintPermission[batchNbr][usernameHash];\n\n        require(\n            ecrecover(\n                // hash to sign. cannot be replayed, or replay will not bring benefit\n                keccak256(\n                    abi.encodePacked(\n                        batchNbr,\n                        usernameHash,\n                        ownerCoreAddress,\n                        ownerEvmAddress\n                    )\n                ),\n                oracleSignature.v,\n                oracleSignature.r,\n                oracleSignature.s\n            ) == _mintSetting[batchNbr].oracleSigner,\n            \"should be signed by oracle signer\"\n        );\n\n        _batchInternalIdCounter[batchNbr] += 1;\n        uint256 tokenId = _nextTokenId(\n            batchNbr,\n            rarity,\n            _batchInternalIdCounter[batchNbr]\n        );\n        // if mint to zero, mint to self\n        if (ownerCoreAddress == address(0)) {\n            ownerCoreAddress = address(this);\n        }\n        if (ownerEvmAddress == bytes20(0)) {\n            ownerEvmAddress = _evmContractAddress;\n        }\n        if (ownerCoreAddress == address(this) && ownerEvmAddress == _evmContractAddress) {\n            revert(\"cannot clear both space owner when minting\");\n        }\n        // update transferable state\n        if (ownerCoreAddress == address(this)) {\n            _crossSpaceCall.callEVM(\n                _evmContractAddress,\n                abi.encodeWithSignature(\n                    \"setTransferableTable(uint256,bool)\",\n                    tokenId,\n                    true\n                )\n            );\n        }\n        _crossSpaceCall.callEVM(\n            _evmContractAddress,\n            abi.encodeWithSignature(\n                \"mint(bytes20,uint256)\",\n                ownerEvmAddress,\n                tokenId\n            )\n        );\n        _mint(ownerCoreAddress, tokenId);\n        return tokenId;\n    }\n\n    function getPrivilegeExpiration(\n        uint256 tokenId\n    ) public view override returns (uint256 exp) {\n        return\n            uint256(\n                bytes32(\n                    _crossSpaceCall.staticCallEVM(\n                        _evmContractAddress,\n                        abi.encodeWithSignature(\n                            \"getPrivilegeExpiration(uint256)\",\n                            tokenId\n                        )\n                    )\n                )\n            );\n    }\n\n    function getTokenBatchRatio(uint256 tokenId) public view override returns (uint8) {\n        return\n            uint8(\n                uint256(\n                    bytes32(\n                        _crossSpaceCall.staticCallEVM(\n                            _evmContractAddress,\n                            abi.encodeWithSignature(\n                                \"getTokenBatchRatio(uint256)\",\n                                tokenId\n                            )\n                        )\n                    )\n                )\n            );\n    }\n\n    function _isCoreTransferable(uint256 tokenId) internal view returns (bool) {\n        bytes20 currentEvmOwner = evmOwnerOf(tokenId);\n        return currentEvmOwner == _evmContractAddress;\n    }\n\n    function evmOwnerOf(uint256 tokenId) public view returns (bytes20) {\n        bytes20 currentEvmOwner = bytes20(\n            uint160(\n                uint256(\n                    bytes32(\n                        _crossSpaceCall.staticCallEVM(\n                            _evmContractAddress,\n                            abi.encodeWithSignature(\"ownerOf(uint256)\", tokenId)\n                        )\n                    )\n                )\n            )\n        );\n        return currentEvmOwner;\n    }\n\n    modifier onlyTokenOwner(uint256 tokenId) {\n        require(\n            msg.sender == ownerOf(tokenId),\n            \"caller is not core token owner\"\n        );\n        _;\n    }\n\n    function clearEvmOwner(uint256 tokenId) public onlyTokenOwner(tokenId) {\n        _setEvmOwner(tokenId, _evmContractAddress);\n    }\n\n    // only core owner can set evm owner\n    function setEvmOwner(\n        uint256 tokenId,\n        bytes20 ownerEvmAddress\n    ) public onlyTokenOwner(tokenId) {\n        _setEvmOwner(tokenId, ownerEvmAddress);\n    }\n\n    function _setEvmOwner(uint256 tokenId, bytes20 ownerEvmAddress) internal {\n        _crossSpaceCall.callEVM(\n            _evmContractAddress,\n            abi.encodeWithSignature(\n                \"setEvmOwner(uint256,bytes20)\",\n                tokenId,\n                ownerEvmAddress\n            )\n        );\n        // evmContractForDebug.setEvmOwner(ownerEvmAddress, tokenId);\n    }\n\n    function clearCoreOwner(\n        bytes20 evmSigner,\n        uint256 tokenId,\n        bytes memory signatureFromEvmSigner\n    ) public {\n        setCoreOwner(evmSigner, tokenId, address(this), signatureFromEvmSigner);\n    }\n\n    function setCoreOwner(\n        bytes20 evmSigner,\n        uint256 tokenId,\n        address newCoreOwner,\n        bytes memory signatureFromEvmSigner\n    ) public {\n        _recoverWithNonceChange(\n            signatureFromEvmSigner,\n            evmSigner,\n            tokenId,\n            newCoreOwner\n        );\n        require(\n            evmSigner == evmOwnerOf(tokenId),\n            \"do not have permission to set core owner\"\n        );\n        _transfer(ownerOf(tokenId), newCoreOwner, tokenId);\n    }\n\n    function safeTransferFrom(\n        address from,\n        address to,\n        uint256 tokenId\n    ) public override {\n        if (to != address(this)) {\n            require(\n                _isCoreTransferable(tokenId),\n                \"This token is not transferable because its evm space owner is set. Clear evm space owner and try again\"\n            );\n        }\n        super.safeTransferFrom(from, to, tokenId);\n    }\n\n    function _transfer(\n        address from,\n        address to,\n        uint256 tokenId\n    ) internal override {\n        if (from == address(this) && from != to) {\n            _crossSpaceCall.callEVM(\n                _evmContractAddress,\n                abi.encodeWithSignature(\n                    \"setTransferableTable(uint256,bool)\",\n                    tokenId,\n                    false\n                )\n            );\n        }\n        if (to == address(this)) {\n            _crossSpaceCall.callEVM(\n                _evmContractAddress,\n                abi.encodeWithSignature(\n                    \"setTransferableTable(uint256,bool)\",\n                    tokenId,\n                    true\n                )\n            );\n        }\n        super._transfer(from, to, tokenId);\n    }\n}\n",
  "sourcePath": "contracts/DualSpaceNFTCore.sol",
  "type": "contract"
}