{
  "abi": [
    {
      "inputs": [
        {
          "internalType": "string",
          "name": "name_",
          "type": "string"
        },
        {
          "internalType": "string",
          "name": "symbol_",
          "type": "string"
        },
        {
          "internalType": "address",
          "name": "crossSpaceCallAddress",
          "type": "address"
        },
        {
          "internalType": "uint256",
          "name": "eSpaceChainId",
          "type": "uint256"
        }
      ],
      "stateMutability": "nonpayable",
      "type": "constructor"
    },
    {
      "anonymous": false,
      "inputs": [
        {
          "indexed": true,
          "internalType": "address",
          "name": "owner",
          "type": "address"
        },
        {
          "indexed": true,
          "internalType": "address",
          "name": "approved",
          "type": "address"
        },
        {
          "indexed": true,
          "internalType": "uint256",
          "name": "tokenId",
          "type": "uint256"
        }
      ],
      "name": "Approval",
      "type": "event"
    },
    {
      "anonymous": false,
      "inputs": [
        {
          "indexed": true,
          "internalType": "address",
          "name": "owner",
          "type": "address"
        },
        {
          "indexed": true,
          "internalType": "address",
          "name": "operator",
          "type": "address"
        },
        {
          "indexed": false,
          "internalType": "bool",
          "name": "approved",
          "type": "bool"
        }
      ],
      "name": "ApprovalForAll",
      "type": "event"
    },
    {
      "anonymous": false,
      "inputs": [
        {
          "indexed": false,
          "internalType": "uint256",
          "name": "startBlock",
          "type": "uint256"
        },
        {
          "indexed": false,
          "internalType": "uint128",
          "name": "batchNbr",
          "type": "uint128"
        },
        {
          "indexed": false,
          "internalType": "uint8",
          "name": "ratio",
          "type": "uint8"
        }
      ],
      "name": "BatchStart",
      "type": "event"
    },
    {
      "anonymous": false,
      "inputs": [],
      "name": "EIP712DomainChanged",
      "type": "event"
    },
    {
      "anonymous": false,
      "inputs": [
        {
          "indexed": true,
          "internalType": "address",
          "name": "previousOwner",
          "type": "address"
        },
        {
          "indexed": true,
          "internalType": "address",
          "name": "newOwner",
          "type": "address"
        }
      ],
      "name": "OwnershipTransferred",
      "type": "event"
    },
    {
      "anonymous": false,
      "inputs": [
        {
          "indexed": true,
          "internalType": "address",
          "name": "from",
          "type": "address"
        },
        {
          "indexed": true,
          "internalType": "address",
          "name": "to",
          "type": "address"
        },
        {
          "indexed": true,
          "internalType": "uint256",
          "name": "tokenId",
          "type": "uint256"
        }
      ],
      "name": "Transfer",
      "type": "event"
    },
    {
      "inputs": [
        {
          "internalType": "address",
          "name": "to",
          "type": "address"
        },
        {
          "internalType": "uint256",
          "name": "tokenId",
          "type": "uint256"
        }
      ],
      "name": "approve",
      "outputs": [],
      "stateMutability": "nonpayable",
      "type": "function"
    },
    {
      "inputs": [
        {
          "internalType": "address",
          "name": "owner",
          "type": "address"
        }
      ],
      "name": "balanceOf",
      "outputs": [
        {
          "internalType": "uint256",
          "name": "",
          "type": "uint256"
        }
      ],
      "stateMutability": "view",
      "type": "function"
    },
    {
      "inputs": [
        {
          "internalType": "uint128",
          "name": "batchNbr",
          "type": "uint128"
        },
        {
          "internalType": "string[]",
          "name": "usernames",
          "type": "string[]"
        },
        {
          "internalType": "uint8[]",
          "name": "rarities",
          "type": "uint8[]"
        }
      ],
      "name": "batchAuthorizeMintPermission",
      "outputs": [],
      "stateMutability": "nonpayable",
      "type": "function"
    },
    {
      "inputs": [
        {
          "internalType": "bytes20",
          "name": "evmSigner",
          "type": "bytes20"
        },
        {
          "internalType": "uint256",
          "name": "tokenId",
          "type": "uint256"
        },
        {
          "internalType": "bytes",
          "name": "signatureFromEvmSigner",
          "type": "bytes"
        }
      ],
      "name": "clearCoreOwner",
      "outputs": [],
      "stateMutability": "nonpayable",
      "type": "function"
    },
    {
      "inputs": [
        {
          "internalType": "uint256",
          "name": "tokenId",
          "type": "uint256"
        }
      ],
      "name": "clearEvmOwner",
      "outputs": [],
      "stateMutability": "nonpayable",
      "type": "function"
    },
    {
      "inputs": [],
      "name": "eip712Domain",
      "outputs": [
        {
          "internalType": "bytes1",
          "name": "fields",
          "type": "bytes1"
        },
        {
          "internalType": "string",
          "name": "name",
          "type": "string"
        },
        {
          "internalType": "string",
          "name": "version",
          "type": "string"
        },
        {
          "internalType": "uint256",
          "name": "chainId",
          "type": "uint256"
        },
        {
          "internalType": "address",
          "name": "verifyingContract",
          "type": "address"
        },
        {
          "internalType": "bytes32",
          "name": "salt",
          "type": "bytes32"
        },
        {
          "internalType": "uint256[]",
          "name": "extensions",
          "type": "uint256[]"
        }
      ],
      "stateMutability": "view",
      "type": "function"
    },
    {
      "inputs": [
        {
          "internalType": "uint256",
          "name": "tokenId",
          "type": "uint256"
        }
      ],
      "name": "evmOwnerOf",
      "outputs": [
        {
          "internalType": "bytes20",
          "name": "",
          "type": "bytes20"
        }
      ],
      "stateMutability": "view",
      "type": "function"
    },
    {
      "inputs": [
        {
          "internalType": "uint256",
          "name": "tokenId",
          "type": "uint256"
        }
      ],
      "name": "getApproved",
      "outputs": [
        {
          "internalType": "address",
          "name": "",
          "type": "address"
        }
      ],
      "stateMutability": "view",
      "type": "function"
    },
    {
      "inputs": [
        {
          "internalType": "bytes20",
          "name": "evmAddress",
          "type": "bytes20"
        }
      ],
      "name": "getMetatransactionNonce",
      "outputs": [
        {
          "internalType": "uint256",
          "name": "",
          "type": "uint256"
        }
      ],
      "stateMutability": "view",
      "type": "function"
    },
    {
      "inputs": [
        {
          "internalType": "uint256",
          "name": "tokenId",
          "type": "uint256"
        }
      ],
      "name": "getPrivilegeExpiration",
      "outputs": [
        {
          "internalType": "uint256",
          "name": "exp",
          "type": "uint256"
        }
      ],
      "stateMutability": "view",
      "type": "function"
    },
    {
      "inputs": [
        {
          "internalType": "address",
          "name": "owner",
          "type": "address"
        },
        {
          "internalType": "address",
          "name": "operator",
          "type": "address"
        }
      ],
      "name": "isApprovedForAll",
      "outputs": [
        {
          "internalType": "bool",
          "name": "",
          "type": "bool"
        }
      ],
      "stateMutability": "view",
      "type": "function"
    },
    {
      "inputs": [
        {
          "internalType": "address",
          "name": "coreAddress",
          "type": "address"
        },
        {
          "internalType": "bytes20",
          "name": "rawEvmAddress",
          "type": "bytes20"
        }
      ],
      "name": "isOverwhelminglySameAddress",
      "outputs": [
        {
          "internalType": "bool",
          "name": "",
          "type": "bool"
        }
      ],
      "stateMutability": "pure",
      "type": "function"
    },
    {
      "inputs": [
        {
          "internalType": "uint256",
          "name": "tokenId",
          "type": "uint256"
        }
      ],
      "name": "isPrivilegeExpired",
      "outputs": [
        {
          "internalType": "bool",
          "name": "",
          "type": "bool"
        }
      ],
      "stateMutability": "view",
      "type": "function"
    },
    {
      "inputs": [
        {
          "internalType": "uint128",
          "name": "batchNbr",
          "type": "uint128"
        },
        {
          "internalType": "string",
          "name": "username",
          "type": "string"
        },
        {
          "internalType": "address",
          "name": "ownerCoreAddress",
          "type": "address"
        },
        {
          "internalType": "bytes20",
          "name": "ownerEvmAddress",
          "type": "bytes20"
        },
        {
          "components": [
            {
              "internalType": "uint8",
              "name": "v",
              "type": "uint8"
            },
            {
              "internalType": "bytes32",
              "name": "r",
              "type": "bytes32"
            },
            {
              "internalType": "bytes32",
              "name": "s",
              "type": "bytes32"
            }
          ],
          "internalType": "struct DualSpaceNFTCore.Signature",
          "name": "oracleSignature",
          "type": "tuple"
        }
      ],
      "name": "mint",
      "outputs": [
        {
          "internalType": "uint256",
          "name": "",
          "type": "uint256"
        }
      ],
      "stateMutability": "nonpayable",
      "type": "function"
    },
    {
      "inputs": [],
      "name": "name",
      "outputs": [
        {
          "internalType": "string",
          "name": "",
          "type": "string"
        }
      ],
      "stateMutability": "view",
      "type": "function"
    },
    {
      "inputs": [],
      "name": "owner",
      "outputs": [
        {
          "internalType": "address",
          "name": "",
          "type": "address"
        }
      ],
      "stateMutability": "view",
      "type": "function"
    },
    {
      "inputs": [
        {
          "internalType": "uint256",
          "name": "tokenId",
          "type": "uint256"
        }
      ],
      "name": "ownerOf",
      "outputs": [
        {
          "internalType": "address",
          "name": "",
          "type": "address"
        }
      ],
      "stateMutability": "view",
      "type": "function"
    },
    {
      "inputs": [],
      "name": "renounceOwnership",
      "outputs": [],
      "stateMutability": "nonpayable",
      "type": "function"
    },
    {
      "inputs": [
        {
          "internalType": "address",
          "name": "from",
          "type": "address"
        },
        {
          "internalType": "address",
          "name": "to",
          "type": "address"
        },
        {
          "internalType": "uint256",
          "name": "tokenId",
          "type": "uint256"
        }
      ],
      "name": "safeTransferFrom",
      "outputs": [],
      "stateMutability": "nonpayable",
      "type": "function"
    },
    {
      "inputs": [
        {
          "internalType": "address",
          "name": "from",
          "type": "address"
        },
        {
          "internalType": "address",
          "name": "to",
          "type": "address"
        },
        {
          "internalType": "uint256",
          "name": "tokenId",
          "type": "uint256"
        },
        {
          "internalType": "bytes",
          "name": "data",
          "type": "bytes"
        }
      ],
      "name": "safeTransferFrom",
      "outputs": [],
      "stateMutability": "nonpayable",
      "type": "function"
    },
    {
      "inputs": [
        {
          "internalType": "address",
          "name": "operator",
          "type": "address"
        },
        {
          "internalType": "bool",
          "name": "approved",
          "type": "bool"
        }
      ],
      "name": "setApprovalForAll",
      "outputs": [],
      "stateMutability": "nonpayable",
      "type": "function"
    },
    {
      "inputs": [
        {
          "internalType": "bytes20",
          "name": "evmSigner",
          "type": "bytes20"
        },
        {
          "internalType": "uint256",
          "name": "tokenId",
          "type": "uint256"
        },
        {
          "internalType": "address",
          "name": "newCoreOwner",
          "type": "address"
        },
        {
          "internalType": "bytes",
          "name": "signatureFromEvmSigner",
          "type": "bytes"
        }
      ],
      "name": "setCoreOwner",
      "outputs": [],
      "stateMutability": "nonpayable",
      "type": "function"
    },
    {
      "inputs": [
        {
          "internalType": "bytes20",
          "name": "evmContractAddress_",
          "type": "bytes20"
        }
      ],
      "name": "setEvmContractAddress",
      "outputs": [],
      "stateMutability": "nonpayable",
      "type": "function"
    },
    {
      "inputs": [
        {
          "internalType": "uint256",
          "name": "tokenId",
          "type": "uint256"
        },
        {
          "internalType": "bytes20",
          "name": "ownerEvmAddress",
          "type": "bytes20"
        }
      ],
      "name": "setEvmOwner",
      "outputs": [],
      "stateMutability": "nonpayable",
      "type": "function"
    },
    {
      "inputs": [
        {
          "internalType": "uint128",
          "name": "batchNbr",
          "type": "uint128"
        },
        {
          "internalType": "address",
          "name": "signer",
          "type": "address"
        },
        {
          "internalType": "uint8",
          "name": "ratio",
          "type": "uint8"
        }
      ],
      "name": "startBatch",
      "outputs": [],
      "stateMutability": "nonpayable",
      "type": "function"
    },
    {
      "inputs": [
        {
          "internalType": "bytes4",
          "name": "interfaceId",
          "type": "bytes4"
        }
      ],
      "name": "supportsInterface",
      "outputs": [
        {
          "internalType": "bool",
          "name": "",
          "type": "bool"
        }
      ],
      "stateMutability": "view",
      "type": "function"
    },
    {
      "inputs": [],
      "name": "symbol",
      "outputs": [
        {
          "internalType": "string",
          "name": "",
          "type": "string"
        }
      ],
      "stateMutability": "view",
      "type": "function"
    },
    {
      "inputs": [
        {
          "internalType": "uint256",
          "name": "tokenId",
          "type": "uint256"
        }
      ],
      "name": "tokenURI",
      "outputs": [
        {
          "internalType": "string",
          "name": "",
          "type": "string"
        }
      ],
      "stateMutability": "view",
      "type": "function"
    },
    {
      "inputs": [
        {
          "internalType": "address",
          "name": "from",
          "type": "address"
        },
        {
          "internalType": "address",
          "name": "to",
          "type": "address"
        },
        {
          "internalType": "uint256",
          "name": "tokenId",
          "type": "uint256"
        }
      ],
      "name": "transferFrom",
      "outputs": [],
      "stateMutability": "nonpayable",
      "type": "function"
    },
    {
      "inputs": [
        {
          "internalType": "address",
          "name": "newOwner",
          "type": "address"
        }
      ],
      "name": "transferOwnership",
      "outputs": [],
      "stateMutability": "nonpayable",
      "type": "function"
    }
  ],
  "bytecode": "6101206040523480156200001257600080fd5b506040516200381738038062003817833981016040819052620000359162000351565b8360405180604001604052806002815260200161763160f01b81525082828282898981600090805190602001906200006f929190620001de565b50805162000085906001906020840190620001de565b505050620000a26200009c6200018860201b60201c565b6200018c565b8251620000b7906007906020860190620001de565b508151620000cd906008906020850190620001de565b50825160208085019190912060e081905283518483012061010081905260a0848152604080517f8b73c3c69bb8fe3d512ecc4cf759cc79239f7b179b0ffacaa9a75d522b39400f818701528082019490945260608401929092526080830185905230838201528151808403909101815260c09092019052805191012060805250503060c0525050600b80546001600160a01b0319166001600160a01b0395909516949094179093555050624f1a00600c555062000420915050565b3390565b600680546001600160a01b038381166001600160a01b0319831681179093556040519116919082907f8be0079c531659141344cd1fd0a4f28419497f9722a3daafe3b4186f6b6457e090600090a35050565b828054620001ec90620003e4565b90600052602060002090601f0160209004810192826200021057600085556200025b565b82601f106200022b57805160ff19168380011785556200025b565b828001600101855582156200025b579182015b828111156200025b5782518255916020019190600101906200023e565b50620002699291506200026d565b5090565b5b808211156200026957600081556001016200026e565b634e487b7160e01b600052604160045260246000fd5b600082601f830112620002ac57600080fd5b81516001600160401b0380821115620002c957620002c962000284565b604051601f8301601f19908116603f01168101908282118183101715620002f457620002f462000284565b816040528381526020925086838588010111156200031157600080fd5b600091505b8382101562000335578582018301518183018401529082019062000316565b83821115620003475760008385830101525b9695505050505050565b600080600080608085870312156200036857600080fd5b84516001600160401b03808211156200038057600080fd5b6200038e888389016200029a565b95506020870151915080821115620003a557600080fd5b50620003b4878288016200029a565b604087015190945090506001600160a01b0381168114620003d457600080fd5b6060959095015193969295505050565b600181811c90821680620003f957607f821691505b6020821081036200041a57634e487b7160e01b600052602260045260246000fd5b50919050565b60805160a05160c05160e051610100516133ab6200046c6000396000612627015260006125ff015260006125850152600081816112c2015261264d015260006125ae01526133ab6000f3fe608060405234801561001057600080fd5b50600436106101da5760003560e01c80638110988a11610104578063b88d4fde116100a2578063e985e9c511610071578063e985e9c514610427578063eb2758d914610463578063f2fde38b14610476578063f8e6d10f1461048957600080fd5b8063b88d4fde146103c9578063c87b56dd146103dc578063d2d51215146103ef578063e851e7ec1461040257600080fd5b80638da5cb5b116100de5780638da5cb5b1461038a57806395d89b411461039b578063a22cb465146103a3578063a636db7b146103b657600080fd5b80638110988a1461033057806384b0196e1461035c57806387def33c1461037757600080fd5b806327f3194e1161017c5780635b3fc1d31161014b5780635b3fc1d3146102ef5780636352211e1461030257806370a0823114610315578063715018a61461032857600080fd5b806327f3194e14610295578063294d584c146102a857806342842e0e146102c95780634dd72f05146102dc57600080fd5b8063095ea7b3116101b8578063095ea7b31461024757806321b5e52f1461025c57806323b872dd1461026f57806326d90e751461028257600080fd5b806301ffc9a7146101df57806306fdde0314610207578063081812fc1461021c575b600080fd5b6101f26101ed366004612906565b6104b3565b60405190151581526020015b60405180910390f35b61020f610505565b6040516101fe919061297b565b61022f61022a36600461298e565b610597565b6040516001600160a01b0390911681526020016101fe565b61025a6102553660046129c3565b6105be565b005b6101f261026a36600461298e565b6106d8565b61025a61027d3660046129ed565b6106eb565b61025a610290366004612a41565b61071c565b61025a6102a3366004612b21565b6107b7565b6102bb6102b6366004612bb1565b610852565b6040519081526020016101fe565b61025a6102d73660046129ed565b610d96565b6102bb6102ea36600461298e565b610e61565b61025a6102fd366004612c7c565b610f1e565b61022f61031036600461298e565b6110e9565b6102bb610323366004612cbf565b611149565b61025a6111cf565b61034361033e36600461298e565b6111e3565b6040516001600160601b031990911681526020016101fe565b6103646112b3565b6040516101fe9796959493929190612cda565b61025a610385366004612e01565b611448565b6006546001600160a01b031661022f565b61020f611590565b61025a6103b1366004612ee7565b61159f565b61025a6103c4366004612f23565b6115ae565b61025a6103d7366004612f4f565b611622565b61020f6103ea36600461298e565b611654565b61025a6103fd36600461298e565b6116c8565b6101f2610410366004612f9f565b606081901c821860016001609c1b03161592915050565b6101f2610435366004612fc9565b6001600160a01b03918216600090815260056020908152604080832093909416825291909152205460ff1690565b61025a610471366004612ff3565b611743565b61025a610484366004612cbf565b61174f565b6102bb610497366004612a41565b6001600160601b03191660009081526009602052604090205490565b60006001600160e01b031982166380ac58cd60e01b14806104e457506001600160e01b03198216635b5e139f60e01b145b806104ff57506301ffc9a760e01b6001600160e01b03198316145b92915050565b60606000805461051490613040565b80601f016020809104026020016040519081016040528092919081815260200182805461054090613040565b801561058d5780601f106105625761010080835404028352916020019161058d565b820191906000526020600020905b81548152906001019060200180831161057057829003601f168201915b5050505050905090565b60006105a2826117c8565b506000908152600460205260409020546001600160a01b031690565b60006105c9826110e9565b9050806001600160a01b0316836001600160a01b03160361063b5760405162461bcd60e51b815260206004820152602160248201527f4552433732313a20617070726f76616c20746f2063757272656e74206f776e656044820152603960f91b60648201526084015b60405180910390fd5b336001600160a01b038216148061065757506106578133610435565b6106c95760405162461bcd60e51b815260206004820152603d60248201527f4552433732313a20617070726f76652063616c6c6572206973206e6f7420746f60448201527f6b656e206f776e6572206f7220617070726f76656420666f7220616c6c0000006064820152608401610632565b6106d38383611827565b505050565b60006106e382610e61565b431192915050565b6106f53382611895565b6107115760405162461bcd60e51b81526004016106329061307a565b6106d3838383611914565b610724611ae4565b600a5460601b6001600160601b0319161561079b5760405162461bcd60e51b815260206004820152603160248201527f73657445766d436f6e7472616374416464726573732073686f756c64206f6e6c6044820152707920626520696e766f6b6564206f6e636560781b6064820152608401610632565b600a80546001600160a01b03191660609290921c919091179055565b6107c381858585611b3e565b506107cd836111e3565b6001600160601b03198581169116146108395760405162461bcd60e51b815260206004820152602860248201527f646f206e6f742068617665207065726d697373696f6e20746f2073657420636f60448201526739329037bbb732b960c11b6064820152608401610632565b61084c610845846110e9565b8385611914565b50505050565b6001600160801b0385166000908152600d602052604081206001015443106108c85760405162461bcd60e51b815260206004820152602360248201527f6e6f20617661696c61626c65206d696e74206f7261636c652061742070726573604482015262195b9d60ea1b6064820152608401610632565b6000856040516020016108db91906130c7565b60408051601f1981840301815291815281516020928301206001600160801b038a166000908152600e84528281208282529093529082205490925060ff16908190036109615760405162461bcd60e51b81526020600482015260156024820152741b9bc81c195c9b5a5cdcda5bdb881d1bc81b5a5b9d605a1b6044820152606401610632565b6001600160801b0388166000818152600e602090815260408083208684528252808320805460ff19169055928252600d8152908290205491516fffffffffffffffffffffffffffffffff1960808c901b1691810191909152603081018490526001600160601b0319606089901b81166050830152871660648201526001600160a01b039091169060019060780160408051601f19818403018152828252805160209182012089518a8301518b850151600087529386018086529290925260ff16928401929092526060830191909152608082015260a0016020604051602081039080840390855afa158015610a5a573d6000803e3d6000fd5b505050602060405103516001600160a01b031614610aba5760405162461bcd60e51b815260206004820152601a60248201527f73686f756c64206265207369676e6564206279207369676e65720000000000006044820152606401610632565b6001600160801b0388166000908152600f60205260408120805460019290610ae790849061ffff166130f9565b82546101009290920a61ffff8181021990931691831602179091556001600160801b038a166000908152600f6020526040812054909250610b2c918b91859116611c7c565b90506001600160a01b038716610b40573096505b6001600160601b03198616610b5857600a5460601b95505b6001600160a01b03871630148015610b825750600a5460601b6001600160601b0319908116908716145b15610be25760405162461bcd60e51b815260206004820152602a60248201527f63616e6e6f7420636c65617220626f7468207370616365206f776e6572207768604482015269656e206d696e74696e6760b01b6064820152608401610632565b306001600160a01b03881603610cb557600b54600a5460405160248101849052600160448201526001600160a01b039092169163bea05ee39160601b9060640160408051601f198184030181529181526020820180516001600160e01b03166306da657960e21b1790525160e084901b6001600160e01b0319168152610c6c92919060040161311f565b6000604051808303816000875af1158015610c8b573d6000803e3d6000fd5b505050506040513d6000823e601f3d908101601f19168201604052610cb39190810190613147565b505b600b54600a546040516001600160601b031989166024820152604481018490526001600160a01b039092169163bea05ee39160601b9060640160408051601f198184030181529181526020820180516001600160e01b031663e7e75aa960e01b1790525160e084901b6001600160e01b0319168152610d3892919060040161311f565b6000604051808303816000875af1158015610d57573d6000803e3d6000fd5b505050506040513d6000823e601f3d908101601f19168201604052610d7f9190810190613147565b50610d8a8782611cbc565b98975050505050505050565b6001600160a01b0382163014610e5657610daf81611e47565b610e565760405162461bcd60e51b815260206004820152606660248201527f5468697320746f6b656e206973206e6f74207472616e7366657261626c65206260448201527f656361757365206974732065766d207370616365206f776e657220697320736560648201527f742e20436c6561722065766d207370616365206f776e657220616e64207472796084820152651030b3b0b4b760d11b60a482015260c401610632565b6106d3838383611e6f565b600b54600a5460408051602480820186905282518083039091018152604490910182526020810180516001600160e01b0316634dd72f0560e01b17905290516330b4ef7d60e01b81526000936001600160a01b0316926330b4ef7d92610ed09260609290921b9160040161311f565b600060405180830381865afa158015610eed573d6000803e3d6000fd5b505050506040513d6000823e601f3d908101601f19168201604052610f159190810190613147565b6104ff906131be565b610f26611ae4565b6305f5e0ff836001600160801b031610610f765760405162461bcd60e51b815260206004820152601160248201527034b73b30b634b2103130ba31b41037313960791b6044820152606401610632565b6001600160801b0383166000908152600d6020526040902080546001600160a01b0319166001600160a01b038416179055600c54610fb490436131e2565b6001600160801b0384166000818152600d60205260409081902060010192909255600b54600a549251602481019290925260ff841660448301526001600160a01b03169163bea05ee39160609190911b9060640160408051601f198184030181529181526020820180516001600160e01b03166334959a2560e11b1790525160e084901b6001600160e01b031916815261105292919060040161311f565b6000604051808303816000875af1158015611071573d6000803e3d6000fd5b505050506040513d6000823e601f3d908101601f191682016040526110999190810190613147565b50604080514381526001600160801b038516602082015260ff83168183015290517fe1a8324d5d6991eac78ec12a728b17f656563de76ae56c7b54488a29d2de672d9181900360600190a1505050565b6000818152600260205260408120546001600160a01b0316806104ff5760405162461bcd60e51b8152602060048201526018602482015277115490cdcc8c4e881a5b9d985b1a59081d1bdad95b88125160421b6044820152606401610632565b60006001600160a01b0382166111b35760405162461bcd60e51b815260206004820152602960248201527f4552433732313a2061646472657373207a65726f206973206e6f7420612076616044820152683634b21037bbb732b960b91b6064820152608401610632565b506001600160a01b031660009081526003602052604090205490565b6111d7611ae4565b6111e16000611e8a565b565b600b54600a546040516024810184905260009283926001600160a01b03909116916330b4ef7d9160601b9060440160408051601f198184030181529181526020820180516001600160e01b03166331a9108f60e11b1790525160e084901b6001600160e01b031916815261125b92919060040161311f565b600060405180830381865afa158015611278573d6000803e3d6000fd5b505050506040513d6000823e601f3d908101601f191682016040526112a09190810190613147565b6112a9906131be565b60601b9392505050565b600060608082808083600760087f000000000000000000000000000000000000000000000000000000000000000030858060405190808252806020026020018201604052801561130d578160200160208202803683370190505b50600f60f81b95949392919085805461132590613040565b80601f016020809104026020016040519081016040528092919081815260200182805461135190613040565b801561139e5780601f106113735761010080835404028352916020019161139e565b820191906000526020600020905b81548152906001019060200180831161138157829003601f168201915b505050505095508480546113b190613040565b80601f01602080910402602001604051908101604052809291908181526020018280546113dd90613040565b801561142a5780601f106113ff5761010080835404028352916020019161142a565b820191906000526020600020905b81548152906001019060200180831161140d57829003601f168201915b50505050509450965096509650965096509650965090919293949596565b80518251146114b15760405162461bcd60e51b815260206004820152602f60248201527f757365726e616d6520616e6420726172697279206172726179206d757374206860448201526e0c2ecca40e6c2daca40d8cadccee8d608b1b6064820152608401610632565b6006546001600160a01b03163314611535576114cd3384611edc565b6115355760405162461bcd60e51b815260206004820152603360248201527f6d73672073656e646572206973206e6f7420617574686f72697a656420746f2060448201527239b2ba1036b4b73a103832b936b4b9b9b4b7b760691b6064820152608401610632565b60005b825181101561084c5761157e84848381518110611557576115576131fa565b6020026020010151848481518110611571576115716131fa565b6020026020010151611f2d565b8061158881613210565b915050611538565b60606001805461051490613040565b6115aa338383611f90565b5050565b816115b8816110e9565b6001600160a01b0316336001600160a01b0316146116185760405162461bcd60e51b815260206004820152601e60248201527f63616c6c6572206973206e6f7420636f726520746f6b656e206f776e657200006044820152606401610632565b6106d3838361205e565b61162c3383611895565b6116485760405162461bcd60e51b81526004016106329061307a565b61084c84848484612128565b606061165f826117c8565b600061167660408051602081019091526000815290565b9050600081511161169657604051806020016040528060008152506116c1565b806116a08461215b565b6040516020016116b1929190613229565b6040516020818303038152906040525b9392505050565b806116d2816110e9565b6001600160a01b0316336001600160a01b0316146117325760405162461bcd60e51b815260206004820152601e60248201527f63616c6c6572206973206e6f7420636f726520746f6b656e206f776e657200006044820152606401610632565b600a546115aa90839060601b61205e565b6106d3838330846107b7565b611757611ae4565b6001600160a01b0381166117bc5760405162461bcd60e51b815260206004820152602660248201527f4f776e61626c653a206e6577206f776e657220697320746865207a65726f206160448201526564647265737360d01b6064820152608401610632565b6117c581611e8a565b50565b6000818152600260205260409020546001600160a01b03166117c55760405162461bcd60e51b8152602060048201526018602482015277115490cdcc8c4e881a5b9d985b1a59081d1bdad95b88125160421b6044820152606401610632565b600081815260046020526040902080546001600160a01b0319166001600160a01b038416908117909155819061185c826110e9565b6001600160a01b03167f8c5be1e5ebec7d5bd14f71427d1e84f3dd0314c0f7b2291e5b200ac8c7c3b92560405160405180910390a45050565b6000806118a1836110e9565b9050806001600160a01b0316846001600160a01b031614806118e857506001600160a01b0380821660009081526005602090815260408083209388168352929052205460ff165b8061190c5750836001600160a01b031661190184610597565b6001600160a01b0316145b949350505050565b6001600160a01b0383163014801561193e5750816001600160a01b0316836001600160a01b031614155b15611a0657600b54600a5460405160248101849052600060448201526001600160a01b039092169163bea05ee39160601b9060640160408051601f198184030181529181526020820180516001600160e01b03166306da657960e21b1790525160e084901b6001600160e01b03191681526119bd92919060040161311f565b6000604051808303816000875af11580156119dc573d6000803e3d6000fd5b505050506040513d6000823e601f3d908101601f19168201604052611a049190810190613147565b505b306001600160a01b03831603611ad957600b54600a5460405160248101849052600160448201526001600160a01b039092169163bea05ee39160601b9060640160408051601f198184030181529181526020820180516001600160e01b03166306da657960e21b1790525160e084901b6001600160e01b0319168152611a9092919060040161311f565b6000604051808303816000875af1158015611aaf573d6000803e3d6000fd5b505050506040513d6000823e601f3d908101601f19168201604052611ad79190810190613147565b505b6106d38383836121ee565b6006546001600160a01b031633146111e15760405162461bcd60e51b815260206004820181905260248201527f4f776e61626c653a2063616c6c6572206973206e6f7420746865206f776e65726044820152606401610632565b600080611bc87fa69d05e2e56fa789517da84e6c668025f30cb4e7abc1973420e2b8b0b33440d6611b85876001600160601b03191660009081526009602052604090205490565b604080516020810193909352820152606081018690526001600160a01b038516608082015260a00160405160208183030381529060405280519060200120612352565b90506000611bd6828861237f565b905060016001609c1b03606087901c82181615611c405760405162461bcd60e51b815260206004820152602260248201527f7369676e617475726520646f6573206e6f74206d617463682065766d5369676e60448201526132b960f11b6064820152608401610632565b6001600160601b031986166000908152600960205260408120805460019290611c6a9084906131e2565b90915550600198975050505050505050565b600061ffff8216611c9260ff851661271061324f565b611ca86001600160801b038716620f424061324f565b611cb291906131e2565b61190c91906131e2565b6001600160a01b038216611d125760405162461bcd60e51b815260206004820181905260248201527f4552433732313a206d696e7420746f20746865207a65726f20616464726573736044820152606401610632565b6000818152600260205260409020546001600160a01b031615611d775760405162461bcd60e51b815260206004820152601c60248201527f4552433732313a20746f6b656e20616c7265616479206d696e746564000000006044820152606401610632565b6000818152600260205260409020546001600160a01b031615611ddc5760405162461bcd60e51b815260206004820152601c60248201527f4552433732313a20746f6b656e20616c7265616479206d696e746564000000006044820152606401610632565b6001600160a01b038216600081815260036020908152604080832080546001019055848352600290915280822080546001600160a01b0319168417905551839291907fddf252ad1be2c89b69c2b068fc378daa952ba7f163c4a11628f55a4df523b3ef908290a45050565b600080611e53836111e3565b600a5460601b6001600160601b03199081169116149392505050565b6106d383838360405180602001604052806000815250611622565b600680546001600160a01b038381166001600160a01b0319831681179093556040519116919082907f8be0079c531659141344cd1fd0a4f28419497f9722a3daafe3b4186f6b6457e090600090a35050565b6001600160801b0381166000908152600d60205260408120546001600160a01b0384811691161480156116c15750506001600160801b03166000908152600d60205260409020600101544310919050565b600082604051602001611f4091906130c7565b60408051601f1981840301815291815281516020928301206001600160801b039096166000908152600e835281812096815295909152909320805460ff90921660ff199092169190911790555050565b816001600160a01b0316836001600160a01b031603611ff15760405162461bcd60e51b815260206004820152601960248201527f4552433732313a20617070726f766520746f2063616c6c6572000000000000006044820152606401610632565b6001600160a01b03838116600081815260056020908152604080832094871680845294825291829020805460ff191686151590811790915591519182527f17307eab39ab6107e8899845ad3d59bd9653f200f220920489ca2b5937696c31910160405180910390a3505050565b600b54600a54604051602481018590526001600160601b0319841660448201526001600160a01b039092169163bea05ee39160601b9060640160408051601f198184030181529181526020820180516001600160e01b031663a636db7b60e01b1790525160e084901b6001600160e01b03191681526120e192919060040161311f565b6000604051808303816000875af1158015612100573d6000803e3d6000fd5b505050506040513d6000823e601f3d908101601f191682016040526106d39190810190613147565b612133848484611914565b61213f848484846123a3565b61084c5760405162461bcd60e51b81526004016106329061326e565b60606000612168836124a1565b600101905060008167ffffffffffffffff81111561218857612188612a5c565b6040519080825280601f01601f1916602001820160405280156121b2576020820181803683370190505b5090508181016020015b600019016f181899199a1a9b1b9c1cb0b131b232b360811b600a86061a8153600a85049450846121bc57509392505050565b826001600160a01b0316612201826110e9565b6001600160a01b0316146122275760405162461bcd60e51b8152600401610632906132c0565b6001600160a01b0382166122895760405162461bcd60e51b8152602060048201526024808201527f4552433732313a207472616e7366657220746f20746865207a65726f206164646044820152637265737360e01b6064820152608401610632565b826001600160a01b031661229c826110e9565b6001600160a01b0316146122c25760405162461bcd60e51b8152600401610632906132c0565b600081815260046020908152604080832080546001600160a01b03199081169091556001600160a01b0387811680865260038552838620805460001901905590871680865283862080546001019055868652600290945282852080549092168417909155905184937fddf252ad1be2c89b69c2b068fc378daa952ba7f163c4a11628f55a4df523b3ef91a4505050565b60006104ff61235f612579565b8360405161190160f01b8152600281019290925260228201526042902090565b600080600061238e858561269d565b9150915061239b816126e2565b509392505050565b60006001600160a01b0384163b1561249957604051630a85bd0160e11b81526001600160a01b0385169063150b7a02906123e7903390899088908890600401613305565b6020604051808303816000875af1925050508015612422575060408051601f3d908101601f1916820190925261241f91810190613342565b60015b61247f573d808015612450576040519150601f19603f3d011682016040523d82523d6000602084013e612455565b606091505b5080516000036124775760405162461bcd60e51b81526004016106329061326e565b805181602001fd5b6001600160e01b031916630a85bd0160e11b14905061190c565b50600161190c565b60008072184f03e93ff9f4daa797ed6e38ed64bf6a1f0160401b83106124e05772184f03e93ff9f4daa797ed6e38ed64bf6a1f0160401b830492506040015b6d04ee2d6d415b85acef8100000000831061250c576d04ee2d6d415b85acef8100000000830492506020015b662386f26fc10000831061252a57662386f26fc10000830492506010015b6305f5e1008310612542576305f5e100830492506008015b612710831061255657612710830492506004015b60648310612568576064830492506002015b600a83106104ff5760010192915050565b60006001600160a01b037f00000000000000000000000000000000000000000000000000000000000000001630036125d057507f000000000000000000000000000000000000000000000000000000000000000090565b612698604080517f8b73c3c69bb8fe3d512ecc4cf759cc79239f7b179b0ffacaa9a75d522b39400f60208201527f0000000000000000000000000000000000000000000000000000000000000000918101919091527f000000000000000000000000000000000000000000000000000000000000000060608201527f000000000000000000000000000000000000000000000000000000000000000060808201523060a082015260009060c00160405160208183030381529060405280519060200120905090565b905090565b60008082516041036126d35760208301516040840151606085015160001a6126c78782858561282c565b945094505050506126db565b506000905060025b9250929050565b60008160048111156126f6576126f661335f565b036126fe5750565b60018160048111156127125761271261335f565b0361275f5760405162461bcd60e51b815260206004820152601860248201527f45434453413a20696e76616c6964207369676e617475726500000000000000006044820152606401610632565b60028160048111156127735761277361335f565b036127c05760405162461bcd60e51b815260206004820152601f60248201527f45434453413a20696e76616c6964207369676e6174757265206c656e677468006044820152606401610632565b60038160048111156127d4576127d461335f565b036117c55760405162461bcd60e51b815260206004820152602260248201527f45434453413a20696e76616c6964207369676e6174757265202773272076616c604482015261756560f01b6064820152608401610632565b6000807f7fffffffffffffffffffffffffffffff5d576e7357a4501ddfe92f46681b20a083111561286357506000905060036128e7565b6040805160008082526020820180845289905260ff881692820192909252606081018690526080810185905260019060a0016020604051602081039080840390855afa1580156128b7573d6000803e3d6000fd5b5050604051601f1901519150506001600160a01b0381166128e0576000600192509250506128e7565b9150600090505b94509492505050565b6001600160e01b0319811681146117c557600080fd5b60006020828403121561291857600080fd5b81356116c1816128f0565b60005b8381101561293e578181015183820152602001612926565b8381111561084c5750506000910152565b60008151808452612967816020860160208601612923565b601f01601f19169290920160200192915050565b6020815260006116c1602083018461294f565b6000602082840312156129a057600080fd5b5035919050565b80356001600160a01b03811681146129be57600080fd5b919050565b600080604083850312156129d657600080fd5b6129df836129a7565b946020939093013593505050565b600080600060608486031215612a0257600080fd5b612a0b846129a7565b9250612a19602085016129a7565b9150604084013590509250925092565b80356001600160601b0319811681146129be57600080fd5b600060208284031215612a5357600080fd5b6116c182612a29565b634e487b7160e01b600052604160045260246000fd5b604051601f8201601f1916810167ffffffffffffffff81118282101715612a9b57612a9b612a5c565b604052919050565b600067ffffffffffffffff821115612abd57612abd612a5c565b50601f01601f191660200190565b600082601f830112612adc57600080fd5b8135612aef612aea82612aa3565b612a72565b818152846020838601011115612b0457600080fd5b816020850160208301376000918101602001919091529392505050565b60008060008060808587031215612b3757600080fd5b612b4085612a29565b935060208501359250612b55604086016129a7565b9150606085013567ffffffffffffffff811115612b7157600080fd5b612b7d87828801612acb565b91505092959194509250565b80356001600160801b03811681146129be57600080fd5b803560ff811681146129be57600080fd5b600080600080600085870360e0811215612bca57600080fd5b612bd387612b89565b9550602087013567ffffffffffffffff80821115612bf057600080fd5b612bfc8a838b01612acb565b9650612c0a60408a016129a7565b9550612c1860608a01612a29565b94506060607f1984011215612c2c57600080fd5b60405192506060830191508282108183111715612c4b57612c4b612a5c565b50604052612c5b60808801612ba0565b815260a0870135602082015260c09096013560408701525092959194509290565b600080600060608486031215612c9157600080fd5b612c9a84612b89565b9250612ca8602085016129a7565b9150612cb660408501612ba0565b90509250925092565b600060208284031215612cd157600080fd5b6116c1826129a7565b60ff60f81b881681526000602060e081840152612cfa60e084018a61294f565b8381036040850152612d0c818a61294f565b606085018990526001600160a01b038816608086015260a0850187905284810360c0860152855180825283870192509083019060005b81811015612d5e57835183529284019291840191600101612d42565b50909c9b505050505050505050505050565b600067ffffffffffffffff821115612d8a57612d8a612a5c565b5060051b60200190565b600082601f830112612da557600080fd5b81356020612db5612aea83612d70565b82815260059290921b84018101918181019086841115612dd457600080fd5b8286015b84811015612df657612de981612ba0565b8352918301918301612dd8565b509695505050505050565b600080600060608486031215612e1657600080fd5b612e1f84612b89565b925060208085013567ffffffffffffffff80821115612e3d57600080fd5b818701915087601f830112612e5157600080fd5b8135612e5f612aea82612d70565b81815260059190911b8301840190848101908a831115612e7e57600080fd5b8585015b83811015612eb657803585811115612e9a5760008081fd5b612ea88d89838a0101612acb565b845250918601918601612e82565b50965050506040870135925080831115612ecf57600080fd5b5050612edd86828701612d94565b9150509250925092565b60008060408385031215612efa57600080fd5b612f03836129a7565b915060208301358015158114612f1857600080fd5b809150509250929050565b60008060408385031215612f3657600080fd5b82359150612f4660208401612a29565b90509250929050565b60008060008060808587031215612f6557600080fd5b612f6e856129a7565b9350612f7c602086016129a7565b925060408501359150606085013567ffffffffffffffff811115612b7157600080fd5b60008060408385031215612fb257600080fd5b612fbb836129a7565b9150612f4660208401612a29565b60008060408385031215612fdc57600080fd5b612fe5836129a7565b9150612f46602084016129a7565b60008060006060848603121561300857600080fd5b61301184612a29565b925060208401359150604084013567ffffffffffffffff81111561303457600080fd5b612edd86828701612acb565b600181811c9082168061305457607f821691505b60208210810361307457634e487b7160e01b600052602260045260246000fd5b50919050565b6020808252602d908201527f4552433732313a2063616c6c6572206973206e6f7420746f6b656e206f776e6560408201526c1c881bdc88185c1c1c9bdd9959609a1b606082015260800190565b600082516130d9818460208701612923565b9190910192915050565b634e487b7160e01b600052601160045260246000fd5b600061ffff808316818516808303821115613116576131166130e3565b01949350505050565b6bffffffffffffffffffffffff198316815260406020820152600061190c604083018461294f565b60006020828403121561315957600080fd5b815167ffffffffffffffff81111561317057600080fd5b8201601f8101841361318157600080fd5b805161318f612aea82612aa3565b8181528560208385010111156131a457600080fd5b6131b5826020830160208601612923565b95945050505050565b805160208083015191908110156130745760001960209190910360031b1b16919050565b600082198211156131f5576131f56130e3565b500190565b634e487b7160e01b600052603260045260246000fd5b600060018201613222576132226130e3565b5060010190565b6000835161323b818460208801612923565b835190830190613116818360208801612923565b6000816000190483118215151615613269576132696130e3565b500290565b60208082526032908201527f4552433732313a207472616e7366657220746f206e6f6e20455243373231526560408201527131b2b4bb32b91034b6b83632b6b2b73a32b960711b606082015260800190565b60208082526025908201527f4552433732313a207472616e736665722066726f6d20696e636f72726563742060408201526437bbb732b960d91b606082015260800190565b6001600160a01b03858116825284166020820152604081018390526080606082018190526000906133389083018461294f565b9695505050505050565b60006020828403121561335457600080fd5b81516116c1816128f0565b634e487b7160e01b600052602160045260246000fdfea264697066735822122062b1a5ed354fd84d24ed2720aa7c6fea39cfafdc72d2265d1353a0534ddab41764736f6c634300080d0033",
  "bytecodeSha1": "8f43c4a78cdab1adfeadd3918c2ee181ab6a3952",
  "compiler": {
    "evm_version": "istanbul",
    "optimizer": {
      "enabled": true,
      "runs": 200
    },
    "version": "0.8.13+commit.abaa5c0e"
  },
  "contractName": "DualSpaceNFTCore",
  "language": "Solidity",
  "natspec": {
    "kind": "dev",
    "methods": {
      "approve(address,uint256)": {
        "details": "See {IERC721-approve}."
      },
      "balanceOf(address)": {
        "details": "See {IERC721-balanceOf}."
      },
      "eip712Domain()": {
        "details": "See {EIP-5267}. _Available since v4.9._"
      },
      "getApproved(uint256)": {
        "details": "See {IERC721-getApproved}."
      },
      "isApprovedForAll(address,address)": {
        "details": "See {IERC721-isApprovedForAll}."
      },
      "name()": {
        "details": "See {IERC721Metadata-name}."
      },
      "owner()": {
        "details": "Returns the address of the current owner."
      },
      "ownerOf(uint256)": {
        "details": "See {IERC721-ownerOf}."
      },
      "renounceOwnership()": {
        "details": "Leaves the contract without owner. It will not be possible to call `onlyOwner` functions. Can only be called by the current owner. NOTE: Renouncing ownership will leave the contract without an owner, thereby disabling any functionality that is only available to the owner."
      },
      "safeTransferFrom(address,address,uint256)": {
        "details": "See {IERC721-safeTransferFrom}."
      },
      "safeTransferFrom(address,address,uint256,bytes)": {
        "details": "See {IERC721-safeTransferFrom}."
      },
      "setApprovalForAll(address,bool)": {
        "details": "See {IERC721-setApprovalForAll}."
      },
      "supportsInterface(bytes4)": {
        "details": "See {IERC165-supportsInterface}."
      },
      "symbol()": {
        "details": "See {IERC721Metadata-symbol}."
      },
      "tokenURI(uint256)": {
        "details": "See {IERC721Metadata-tokenURI}."
      },
      "transferFrom(address,address,uint256)": {
        "details": "See {IERC721-transferFrom}."
      },
      "transferOwnership(address)": {
        "details": "Transfers ownership of the contract to a new account (`newOwner`). Can only be called by the current owner."
      }
    },
    "version": 1
  },
  "opcodes": "PUSH1 0x80 PUSH1 0x40 MSTORE CALLVALUE DUP1 ISZERO PUSH2 0x10 JUMPI PUSH1 0x0 DUP1 REVERT JUMPDEST POP PUSH1 0x4 CALLDATASIZE LT PUSH2 0x1DA JUMPI PUSH1 0x0 CALLDATALOAD PUSH1 0xE0 SHR DUP1 PUSH4 0x8110988A GT PUSH2 0x104 JUMPI DUP1 PUSH4 0xB88D4FDE GT PUSH2 0xA2 JUMPI DUP1 PUSH4 0xE985E9C5 GT PUSH2 0x71 JUMPI DUP1 PUSH4 0xE985E9C5 EQ PUSH2 0x427 JUMPI DUP1 PUSH4 0xEB2758D9 EQ PUSH2 0x463 JUMPI DUP1 PUSH4 0xF2FDE38B EQ PUSH2 0x476 JUMPI DUP1 PUSH4 0xF8E6D10F EQ PUSH2 0x489 JUMPI PUSH1 0x0 DUP1 REVERT JUMPDEST DUP1 PUSH4 0xB88D4FDE EQ PUSH2 0x3C9 JUMPI DUP1 PUSH4 0xC87B56DD EQ PUSH2 0x3DC JUMPI DUP1 PUSH4 0xD2D51215 EQ PUSH2 0x3EF JUMPI DUP1 PUSH4 0xE851E7EC EQ PUSH2 0x402 JUMPI PUSH1 0x0 DUP1 REVERT JUMPDEST DUP1 PUSH4 0x8DA5CB5B GT PUSH2 0xDE JUMPI DUP1 PUSH4 0x8DA5CB5B EQ PUSH2 0x38A JUMPI DUP1 PUSH4 0x95D89B41 EQ PUSH2 0x39B JUMPI DUP1 PUSH4 0xA22CB465 EQ PUSH2 0x3A3 JUMPI DUP1 PUSH4 0xA636DB7B EQ PUSH2 0x3B6 JUMPI PUSH1 0x0 DUP1 REVERT JUMPDEST DUP1 PUSH4 0x8110988A EQ PUSH2 0x330 JUMPI DUP1 PUSH4 0x84B0196E EQ PUSH2 0x35C JUMPI DUP1 PUSH4 0x87DEF33C EQ PUSH2 0x377 JUMPI PUSH1 0x0 DUP1 REVERT JUMPDEST DUP1 PUSH4 0x27F3194E GT PUSH2 0x17C JUMPI DUP1 PUSH4 0x5B3FC1D3 GT PUSH2 0x14B JUMPI DUP1 PUSH4 0x5B3FC1D3 EQ PUSH2 0x2EF JUMPI DUP1 PUSH4 0x6352211E EQ PUSH2 0x302 JUMPI DUP1 PUSH4 0x70A08231 EQ PUSH2 0x315 JUMPI DUP1 PUSH4 0x715018A6 EQ PUSH2 0x328 JUMPI PUSH1 0x0 DUP1 REVERT JUMPDEST DUP1 PUSH4 0x27F3194E EQ PUSH2 0x295 JUMPI DUP1 PUSH4 0x294D584C EQ PUSH2 0x2A8 JUMPI DUP1 PUSH4 0x42842E0E EQ PUSH2 0x2C9 JUMPI DUP1 PUSH4 0x4DD72F05 EQ PUSH2 0x2DC JUMPI PUSH1 0x0 DUP1 REVERT JUMPDEST DUP1 PUSH4 0x95EA7B3 GT PUSH2 0x1B8 JUMPI DUP1 PUSH4 0x95EA7B3 EQ PUSH2 0x247 JUMPI DUP1 PUSH4 0x21B5E52F EQ PUSH2 0x25C JUMPI DUP1 PUSH4 0x23B872DD EQ PUSH2 0x26F JUMPI DUP1 PUSH4 0x26D90E75 EQ PUSH2 0x282 JUMPI PUSH1 0x0 DUP1 REVERT JUMPDEST DUP1 PUSH4 0x1FFC9A7 EQ PUSH2 0x1DF JUMPI DUP1 PUSH4 0x6FDDE03 EQ PUSH2 0x207 JUMPI DUP1 PUSH4 0x81812FC EQ PUSH2 0x21C JUMPI JUMPDEST PUSH1 0x0 DUP1 REVERT JUMPDEST PUSH2 0x1F2 PUSH2 0x1ED CALLDATASIZE PUSH1 0x4 PUSH2 0x2906 JUMP JUMPDEST PUSH2 0x4B3 JUMP JUMPDEST PUSH1 0x40 MLOAD SWAP1 ISZERO ISZERO DUP2 MSTORE PUSH1 0x20 ADD JUMPDEST PUSH1 0x40 MLOAD DUP1 SWAP2 SUB SWAP1 RETURN JUMPDEST PUSH2 0x20F PUSH2 0x505 JUMP JUMPDEST PUSH1 0x40 MLOAD PUSH2 0x1FE SWAP2 SWAP1 PUSH2 0x297B JUMP JUMPDEST PUSH2 0x22F PUSH2 0x22A CALLDATASIZE PUSH1 0x4 PUSH2 0x298E JUMP JUMPDEST PUSH2 0x597 JUMP JUMPDEST PUSH1 0x40 MLOAD PUSH1 0x1 PUSH1 0x1 PUSH1 0xA0 SHL SUB SWAP1 SWAP2 AND DUP2 MSTORE PUSH1 0x20 ADD PUSH2 0x1FE JUMP JUMPDEST PUSH2 0x25A PUSH2 0x255 CALLDATASIZE PUSH1 0x4 PUSH2 0x29C3 JUMP JUMPDEST PUSH2 0x5BE JUMP JUMPDEST STOP JUMPDEST PUSH2 0x1F2 PUSH2 0x26A CALLDATASIZE PUSH1 0x4 PUSH2 0x298E JUMP JUMPDEST PUSH2 0x6D8 JUMP JUMPDEST PUSH2 0x25A PUSH2 0x27D CALLDATASIZE PUSH1 0x4 PUSH2 0x29ED JUMP JUMPDEST PUSH2 0x6EB JUMP JUMPDEST PUSH2 0x25A PUSH2 0x290 CALLDATASIZE PUSH1 0x4 PUSH2 0x2A41 JUMP JUMPDEST PUSH2 0x71C JUMP JUMPDEST PUSH2 0x25A PUSH2 0x2A3 CALLDATASIZE PUSH1 0x4 PUSH2 0x2B21 JUMP JUMPDEST PUSH2 0x7B7 JUMP JUMPDEST PUSH2 0x2BB PUSH2 0x2B6 CALLDATASIZE PUSH1 0x4 PUSH2 0x2BB1 JUMP JUMPDEST PUSH2 0x852 JUMP JUMPDEST PUSH1 0x40 MLOAD SWAP1 DUP2 MSTORE PUSH1 0x20 ADD PUSH2 0x1FE JUMP JUMPDEST PUSH2 0x25A PUSH2 0x2D7 CALLDATASIZE PUSH1 0x4 PUSH2 0x29ED JUMP JUMPDEST PUSH2 0xD96 JUMP JUMPDEST PUSH2 0x2BB PUSH2 0x2EA CALLDATASIZE PUSH1 0x4 PUSH2 0x298E JUMP JUMPDEST PUSH2 0xE61 JUMP JUMPDEST PUSH2 0x25A PUSH2 0x2FD CALLDATASIZE PUSH1 0x4 PUSH2 0x2C7C JUMP JUMPDEST PUSH2 0xF1E JUMP JUMPDEST PUSH2 0x22F PUSH2 0x310 CALLDATASIZE PUSH1 0x4 PUSH2 0x298E JUMP JUMPDEST PUSH2 0x10E9 JUMP JUMPDEST PUSH2 0x2BB PUSH2 0x323 CALLDATASIZE PUSH1 0x4 PUSH2 0x2CBF JUMP JUMPDEST PUSH2 0x1149 JUMP JUMPDEST PUSH2 0x25A PUSH2 0x11CF JUMP JUMPDEST PUSH2 0x343 PUSH2 0x33E CALLDATASIZE PUSH1 0x4 PUSH2 0x298E JUMP JUMPDEST PUSH2 0x11E3 JUMP JUMPDEST PUSH1 0x40 MLOAD PUSH1 0x1 PUSH1 0x1 PUSH1 0x60 SHL SUB NOT SWAP1 SWAP2 AND DUP2 MSTORE PUSH1 0x20 ADD PUSH2 0x1FE JUMP JUMPDEST PUSH2 0x364 PUSH2 0x12B3 JUMP JUMPDEST PUSH1 0x40 MLOAD PUSH2 0x1FE SWAP8 SWAP7 SWAP6 SWAP5 SWAP4 SWAP3 SWAP2 SWAP1 PUSH2 0x2CDA JUMP JUMPDEST PUSH2 0x25A PUSH2 0x385 CALLDATASIZE PUSH1 0x4 PUSH2 0x2E01 JUMP JUMPDEST PUSH2 0x1448 JUMP JUMPDEST PUSH1 0x6 SLOAD PUSH1 0x1 PUSH1 0x1 PUSH1 0xA0 SHL SUB AND PUSH2 0x22F JUMP JUMPDEST PUSH2 0x20F PUSH2 0x1590 JUMP JUMPDEST PUSH2 0x25A PUSH2 0x3B1 CALLDATASIZE PUSH1 0x4 PUSH2 0x2EE7 JUMP JUMPDEST PUSH2 0x159F JUMP JUMPDEST PUSH2 0x25A PUSH2 0x3C4 CALLDATASIZE PUSH1 0x4 PUSH2 0x2F23 JUMP JUMPDEST PUSH2 0x15AE JUMP JUMPDEST PUSH2 0x25A PUSH2 0x3D7 CALLDATASIZE PUSH1 0x4 PUSH2 0x2F4F JUMP JUMPDEST PUSH2 0x1622 JUMP JUMPDEST PUSH2 0x20F PUSH2 0x3EA CALLDATASIZE PUSH1 0x4 PUSH2 0x298E JUMP JUMPDEST PUSH2 0x1654 JUMP JUMPDEST PUSH2 0x25A PUSH2 0x3FD CALLDATASIZE PUSH1 0x4 PUSH2 0x298E JUMP JUMPDEST PUSH2 0x16C8 JUMP JUMPDEST PUSH2 0x1F2 PUSH2 0x410 CALLDATASIZE PUSH1 0x4 PUSH2 0x2F9F JUMP JUMPDEST PUSH1 0x60 DUP2 SWAP1 SHR DUP3 XOR PUSH1 0x1 PUSH1 0x1 PUSH1 0x9C SHL SUB AND ISZERO SWAP3 SWAP2 POP POP JUMP JUMPDEST PUSH2 0x1F2 PUSH2 0x435 CALLDATASIZE PUSH1 0x4 PUSH2 0x2FC9 JUMP JUMPDEST PUSH1 0x1 PUSH1 0x1 PUSH1 0xA0 SHL SUB SWAP2 DUP3 AND PUSH1 0x0 SWAP1 DUP2 MSTORE PUSH1 0x5 PUSH1 0x20 SWAP1 DUP2 MSTORE PUSH1 0x40 DUP1 DUP4 KECCAK256 SWAP4 SWAP1 SWAP5 AND DUP3 MSTORE SWAP2 SWAP1 SWAP2 MSTORE KECCAK256 SLOAD PUSH1 0xFF AND SWAP1 JUMP JUMPDEST PUSH2 0x25A PUSH2 0x471 CALLDATASIZE PUSH1 0x4 PUSH2 0x2FF3 JUMP JUMPDEST PUSH2 0x1743 JUMP JUMPDEST PUSH2 0x25A PUSH2 0x484 CALLDATASIZE PUSH1 0x4 PUSH2 0x2CBF JUMP JUMPDEST PUSH2 0x174F JUMP JUMPDEST PUSH2 0x2BB PUSH2 0x497 CALLDATASIZE PUSH1 0x4 PUSH2 0x2A41 JUMP JUMPDEST PUSH1 0x1 PUSH1 0x1 PUSH1 0x60 SHL SUB NOT AND PUSH1 0x0 SWAP1 DUP2 MSTORE PUSH1 0x9 PUSH1 0x20 MSTORE PUSH1 0x40 SWAP1 KECCAK256 SLOAD SWAP1 JUMP JUMPDEST PUSH1 0x0 PUSH1 0x1 PUSH1 0x1 PUSH1 0xE0 SHL SUB NOT DUP3 AND PUSH4 0x80AC58CD PUSH1 0xE0 SHL EQ DUP1 PUSH2 0x4E4 JUMPI POP PUSH1 0x1 PUSH1 0x1 PUSH1 0xE0 SHL SUB NOT DUP3 AND PUSH4 0x5B5E139F PUSH1 0xE0 SHL EQ JUMPDEST DUP1 PUSH2 0x4FF JUMPI POP PUSH4 0x1FFC9A7 PUSH1 0xE0 SHL PUSH1 0x1 PUSH1 0x1 PUSH1 0xE0 SHL SUB NOT DUP4 AND EQ JUMPDEST SWAP3 SWAP2 POP POP JUMP JUMPDEST PUSH1 0x60 PUSH1 0x0 DUP1 SLOAD PUSH2 0x514 SWAP1 PUSH2 0x3040 JUMP JUMPDEST DUP1 PUSH1 0x1F ADD PUSH1 0x20 DUP1 SWAP2 DIV MUL PUSH1 0x20 ADD PUSH1 0x40 MLOAD SWAP1 DUP2 ADD PUSH1 0x40 MSTORE DUP1 SWAP3 SWAP2 SWAP1 DUP2 DUP2 MSTORE PUSH1 0x20 ADD DUP3 DUP1 SLOAD PUSH2 0x540 SWAP1 PUSH2 0x3040 JUMP JUMPDEST DUP1 ISZERO PUSH2 0x58D JUMPI DUP1 PUSH1 0x1F LT PUSH2 0x562 JUMPI PUSH2 0x100 DUP1 DUP4 SLOAD DIV MUL DUP4 MSTORE SWAP2 PUSH1 0x20 ADD SWAP2 PUSH2 0x58D JUMP JUMPDEST DUP3 ADD SWAP2 SWAP1 PUSH1 0x0 MSTORE PUSH1 0x20 PUSH1 0x0 KECCAK256 SWAP1 JUMPDEST DUP2 SLOAD DUP2 MSTORE SWAP1 PUSH1 0x1 ADD SWAP1 PUSH1 0x20 ADD DUP1 DUP4 GT PUSH2 0x570 JUMPI DUP3 SWAP1 SUB PUSH1 0x1F AND DUP3 ADD SWAP2 JUMPDEST POP POP POP POP POP SWAP1 POP SWAP1 JUMP JUMPDEST PUSH1 0x0 PUSH2 0x5A2 DUP3 PUSH2 0x17C8 JUMP JUMPDEST POP PUSH1 0x0 SWAP1 DUP2 MSTORE PUSH1 0x4 PUSH1 0x20 MSTORE PUSH1 0x40 SWAP1 KECCAK256 SLOAD PUSH1 0x1 PUSH1 0x1 PUSH1 0xA0 SHL SUB AND SWAP1 JUMP JUMPDEST PUSH1 0x0 PUSH2 0x5C9 DUP3 PUSH2 0x10E9 JUMP JUMPDEST SWAP1 POP DUP1 PUSH1 0x1 PUSH1 0x1 PUSH1 0xA0 SHL SUB AND DUP4 PUSH1 0x1 PUSH1 0x1 PUSH1 0xA0 SHL SUB AND SUB PUSH2 0x63B JUMPI PUSH1 0x40 MLOAD PUSH3 0x461BCD PUSH1 0xE5 SHL DUP2 MSTORE PUSH1 0x20 PUSH1 0x4 DUP3 ADD MSTORE PUSH1 0x21 PUSH1 0x24 DUP3 ADD MSTORE PUSH32 0x4552433732313A20617070726F76616C20746F2063757272656E74206F776E65 PUSH1 0x44 DUP3 ADD MSTORE PUSH1 0x39 PUSH1 0xF9 SHL PUSH1 0x64 DUP3 ADD MSTORE PUSH1 0x84 ADD JUMPDEST PUSH1 0x40 MLOAD DUP1 SWAP2 SUB SWAP1 REVERT JUMPDEST CALLER PUSH1 0x1 PUSH1 0x1 PUSH1 0xA0 SHL SUB DUP3 AND EQ DUP1 PUSH2 0x657 JUMPI POP PUSH2 0x657 DUP2 CALLER PUSH2 0x435 JUMP JUMPDEST PUSH2 0x6C9 JUMPI PUSH1 0x40 MLOAD PUSH3 0x461BCD PUSH1 0xE5 SHL DUP2 MSTORE PUSH1 0x20 PUSH1 0x4 DUP3 ADD MSTORE PUSH1 0x3D PUSH1 0x24 DUP3 ADD MSTORE PUSH32 0x4552433732313A20617070726F76652063616C6C6572206973206E6F7420746F PUSH1 0x44 DUP3 ADD MSTORE PUSH32 0x6B656E206F776E6572206F7220617070726F76656420666F7220616C6C000000 PUSH1 0x64 DUP3 ADD MSTORE PUSH1 0x84 ADD PUSH2 0x632 JUMP JUMPDEST PUSH2 0x6D3 DUP4 DUP4 PUSH2 0x1827 JUMP JUMPDEST POP POP POP JUMP JUMPDEST PUSH1 0x0 PUSH2 0x6E3 DUP3 PUSH2 0xE61 JUMP JUMPDEST NUMBER GT SWAP3 SWAP2 POP POP JUMP JUMPDEST PUSH2 0x6F5 CALLER DUP3 PUSH2 0x1895 JUMP JUMPDEST PUSH2 0x711 JUMPI PUSH1 0x40 MLOAD PUSH3 0x461BCD PUSH1 0xE5 SHL DUP2 MSTORE PUSH1 0x4 ADD PUSH2 0x632 SWAP1 PUSH2 0x307A JUMP JUMPDEST PUSH2 0x6D3 DUP4 DUP4 DUP4 PUSH2 0x1914 JUMP JUMPDEST PUSH2 0x724 PUSH2 0x1AE4 JUMP JUMPDEST PUSH1 0xA SLOAD PUSH1 0x60 SHL PUSH1 0x1 PUSH1 0x1 PUSH1 0x60 SHL SUB NOT AND ISZERO PUSH2 0x79B JUMPI PUSH1 0x40 MLOAD PUSH3 0x461BCD PUSH1 0xE5 SHL DUP2 MSTORE PUSH1 0x20 PUSH1 0x4 DUP3 ADD MSTORE PUSH1 0x31 PUSH1 0x24 DUP3 ADD MSTORE PUSH32 0x73657445766D436F6E7472616374416464726573732073686F756C64206F6E6C PUSH1 0x44 DUP3 ADD MSTORE PUSH17 0x7920626520696E766F6B6564206F6E6365 PUSH1 0x78 SHL PUSH1 0x64 DUP3 ADD MSTORE PUSH1 0x84 ADD PUSH2 0x632 JUMP JUMPDEST PUSH1 0xA DUP1 SLOAD PUSH1 0x1 PUSH1 0x1 PUSH1 0xA0 SHL SUB NOT AND PUSH1 0x60 SWAP3 SWAP1 SWAP3 SHR SWAP2 SWAP1 SWAP2 OR SWAP1 SSTORE JUMP JUMPDEST PUSH2 0x7C3 DUP2 DUP6 DUP6 DUP6 PUSH2 0x1B3E JUMP JUMPDEST POP PUSH2 0x7CD DUP4 PUSH2 0x11E3 JUMP JUMPDEST PUSH1 0x1 PUSH1 0x1 PUSH1 0x60 SHL SUB NOT DUP6 DUP2 AND SWAP2 AND EQ PUSH2 0x839 JUMPI PUSH1 0x40 MLOAD PUSH3 0x461BCD PUSH1 0xE5 SHL DUP2 MSTORE PUSH1 0x20 PUSH1 0x4 DUP3 ADD MSTORE PUSH1 0x28 PUSH1 0x24 DUP3 ADD MSTORE PUSH32 0x646F206E6F742068617665207065726D697373696F6E20746F2073657420636F PUSH1 0x44 DUP3 ADD MSTORE PUSH8 0x39329037BBB732B9 PUSH1 0xC1 SHL PUSH1 0x64 DUP3 ADD MSTORE PUSH1 0x84 ADD PUSH2 0x632 JUMP JUMPDEST PUSH2 0x84C PUSH2 0x845 DUP5 PUSH2 0x10E9 JUMP JUMPDEST DUP4 DUP6 PUSH2 0x1914 JUMP JUMPDEST POP POP POP POP JUMP JUMPDEST PUSH1 0x1 PUSH1 0x1 PUSH1 0x80 SHL SUB DUP6 AND PUSH1 0x0 SWAP1 DUP2 MSTORE PUSH1 0xD PUSH1 0x20 MSTORE PUSH1 0x40 DUP2 KECCAK256 PUSH1 0x1 ADD SLOAD NUMBER LT PUSH2 0x8C8 JUMPI PUSH1 0x40 MLOAD PUSH3 0x461BCD PUSH1 0xE5 SHL DUP2 MSTORE PUSH1 0x20 PUSH1 0x4 DUP3 ADD MSTORE PUSH1 0x23 PUSH1 0x24 DUP3 ADD MSTORE PUSH32 0x6E6F20617661696C61626C65206D696E74206F7261636C652061742070726573 PUSH1 0x44 DUP3 ADD MSTORE PUSH3 0x195B9D PUSH1 0xEA SHL PUSH1 0x64 DUP3 ADD MSTORE PUSH1 0x84 ADD PUSH2 0x632 JUMP JUMPDEST PUSH1 0x0 DUP6 PUSH1 0x40 MLOAD PUSH1 0x20 ADD PUSH2 0x8DB SWAP2 SWAP1 PUSH2 0x30C7 JUMP JUMPDEST PUSH1 0x40 DUP1 MLOAD PUSH1 0x1F NOT DUP2 DUP5 SUB ADD DUP2 MSTORE SWAP2 DUP2 MSTORE DUP2 MLOAD PUSH1 0x20 SWAP3 DUP4 ADD KECCAK256 PUSH1 0x1 PUSH1 0x1 PUSH1 0x80 SHL SUB DUP11 AND PUSH1 0x0 SWAP1 DUP2 MSTORE PUSH1 0xE DUP5 MSTORE DUP3 DUP2 KECCAK256 DUP3 DUP3 MSTORE SWAP1 SWAP4 MSTORE SWAP1 DUP3 KECCAK256 SLOAD SWAP1 SWAP3 POP PUSH1 0xFF AND SWAP1 DUP2 SWAP1 SUB PUSH2 0x961 JUMPI PUSH1 0x40 MLOAD PUSH3 0x461BCD PUSH1 0xE5 SHL DUP2 MSTORE PUSH1 0x20 PUSH1 0x4 DUP3 ADD MSTORE PUSH1 0x15 PUSH1 0x24 DUP3 ADD MSTORE PUSH21 0x1B9BC81C195C9B5A5CDCDA5BDB881D1BC81B5A5B9D PUSH1 0x5A SHL PUSH1 0x44 DUP3 ADD MSTORE PUSH1 0x64 ADD PUSH2 0x632 JUMP JUMPDEST PUSH1 0x1 PUSH1 0x1 PUSH1 0x80 SHL SUB DUP9 AND PUSH1 0x0 DUP2 DUP2 MSTORE PUSH1 0xE PUSH1 0x20 SWAP1 DUP2 MSTORE PUSH1 0x40 DUP1 DUP4 KECCAK256 DUP7 DUP5 MSTORE DUP3 MSTORE DUP1 DUP4 KECCAK256 DUP1 SLOAD PUSH1 0xFF NOT AND SWAP1 SSTORE SWAP3 DUP3 MSTORE PUSH1 0xD DUP2 MSTORE SWAP1 DUP3 SWAP1 KECCAK256 SLOAD SWAP2 MLOAD PUSH16 0xFFFFFFFFFFFFFFFFFFFFFFFFFFFFFFFF NOT PUSH1 0x80 DUP13 SWAP1 SHL AND SWAP2 DUP2 ADD SWAP2 SWAP1 SWAP2 MSTORE PUSH1 0x30 DUP2 ADD DUP5 SWAP1 MSTORE PUSH1 0x1 PUSH1 0x1 PUSH1 0x60 SHL SUB NOT PUSH1 0x60 DUP10 SWAP1 SHL DUP2 AND PUSH1 0x50 DUP4 ADD MSTORE DUP8 AND PUSH1 0x64 DUP3 ADD MSTORE PUSH1 0x1 PUSH1 0x1 PUSH1 0xA0 SHL SUB SWAP1 SWAP2 AND SWAP1 PUSH1 0x1 SWAP1 PUSH1 0x78 ADD PUSH1 0x40 DUP1 MLOAD PUSH1 0x1F NOT DUP2 DUP5 SUB ADD DUP2 MSTORE DUP3 DUP3 MSTORE DUP1 MLOAD PUSH1 0x20 SWAP2 DUP3 ADD KECCAK256 DUP10 MLOAD DUP11 DUP4 ADD MLOAD DUP12 DUP6 ADD MLOAD PUSH1 0x0 DUP8 MSTORE SWAP4 DUP7 ADD DUP1 DUP7 MSTORE SWAP3 SWAP1 SWAP3 MSTORE PUSH1 0xFF AND SWAP3 DUP5 ADD SWAP3 SWAP1 SWAP3 MSTORE PUSH1 0x60 DUP4 ADD SWAP2 SWAP1 SWAP2 MSTORE PUSH1 0x80 DUP3 ADD MSTORE PUSH1 0xA0 ADD PUSH1 0x20 PUSH1 0x40 MLOAD PUSH1 0x20 DUP2 SUB SWAP1 DUP1 DUP5 SUB SWAP1 DUP6 GAS STATICCALL ISZERO DUP1 ISZERO PUSH2 0xA5A JUMPI RETURNDATASIZE PUSH1 0x0 DUP1 RETURNDATACOPY RETURNDATASIZE PUSH1 0x0 REVERT JUMPDEST POP POP POP PUSH1 0x20 PUSH1 0x40 MLOAD SUB MLOAD PUSH1 0x1 PUSH1 0x1 PUSH1 0xA0 SHL SUB AND EQ PUSH2 0xABA JUMPI PUSH1 0x40 MLOAD PUSH3 0x461BCD PUSH1 0xE5 SHL DUP2 MSTORE PUSH1 0x20 PUSH1 0x4 DUP3 ADD MSTORE PUSH1 0x1A PUSH1 0x24 DUP3 ADD MSTORE PUSH32 0x73686F756C64206265207369676E6564206279207369676E6572000000000000 PUSH1 0x44 DUP3 ADD MSTORE PUSH1 0x64 ADD PUSH2 0x632 JUMP JUMPDEST PUSH1 0x1 PUSH1 0x1 PUSH1 0x80 SHL SUB DUP9 AND PUSH1 0x0 SWAP1 DUP2 MSTORE PUSH1 0xF PUSH1 0x20 MSTORE PUSH1 0x40 DUP2 KECCAK256 DUP1 SLOAD PUSH1 0x1 SWAP3 SWAP1 PUSH2 0xAE7 SWAP1 DUP5 SWAP1 PUSH2 0xFFFF AND PUSH2 0x30F9 JUMP JUMPDEST DUP3 SLOAD PUSH2 0x100 SWAP3 SWAP1 SWAP3 EXP PUSH2 0xFFFF DUP2 DUP2 MUL NOT SWAP1 SWAP4 AND SWAP2 DUP4 AND MUL OR SWAP1 SWAP2 SSTORE PUSH1 0x1 PUSH1 0x1 PUSH1 0x80 SHL SUB DUP11 AND PUSH1 0x0 SWAP1 DUP2 MSTORE PUSH1 0xF PUSH1 0x20 MSTORE PUSH1 0x40 DUP2 KECCAK256 SLOAD SWAP1 SWAP3 POP PUSH2 0xB2C SWAP2 DUP12 SWAP2 DUP6 SWAP2 AND PUSH2 0x1C7C JUMP JUMPDEST SWAP1 POP PUSH1 0x1 PUSH1 0x1 PUSH1 0xA0 SHL SUB DUP8 AND PUSH2 0xB40 JUMPI ADDRESS SWAP7 POP JUMPDEST PUSH1 0x1 PUSH1 0x1 PUSH1 0x60 SHL SUB NOT DUP7 AND PUSH2 0xB58 JUMPI PUSH1 0xA SLOAD PUSH1 0x60 SHL SWAP6 POP JUMPDEST PUSH1 0x1 PUSH1 0x1 PUSH1 0xA0 SHL SUB DUP8 AND ADDRESS EQ DUP1 ISZERO PUSH2 0xB82 JUMPI POP PUSH1 0xA SLOAD PUSH1 0x60 SHL PUSH1 0x1 PUSH1 0x1 PUSH1 0x60 SHL SUB NOT SWAP1 DUP2 AND SWAP1 DUP8 AND EQ JUMPDEST ISZERO PUSH2 0xBE2 JUMPI PUSH1 0x40 MLOAD PUSH3 0x461BCD PUSH1 0xE5 SHL DUP2 MSTORE PUSH1 0x20 PUSH1 0x4 DUP3 ADD MSTORE PUSH1 0x2A PUSH1 0x24 DUP3 ADD MSTORE PUSH32 0x63616E6E6F7420636C65617220626F7468207370616365206F776E6572207768 PUSH1 0x44 DUP3 ADD MSTORE PUSH10 0x656E206D696E74696E67 PUSH1 0xB0 SHL PUSH1 0x64 DUP3 ADD MSTORE PUSH1 0x84 ADD PUSH2 0x632 JUMP JUMPDEST ADDRESS PUSH1 0x1 PUSH1 0x1 PUSH1 0xA0 SHL SUB DUP9 AND SUB PUSH2 0xCB5 JUMPI PUSH1 0xB SLOAD PUSH1 0xA SLOAD PUSH1 0x40 MLOAD PUSH1 0x24 DUP2 ADD DUP5 SWAP1 MSTORE PUSH1 0x1 PUSH1 0x44 DUP3 ADD MSTORE PUSH1 0x1 PUSH1 0x1 PUSH1 0xA0 SHL SUB SWAP1 SWAP3 AND SWAP2 PUSH4 0xBEA05EE3 SWAP2 PUSH1 0x60 SHL SWAP1 PUSH1 0x64 ADD PUSH1 0x40 DUP1 MLOAD PUSH1 0x1F NOT DUP2 DUP5 SUB ADD DUP2 MSTORE SWAP2 DUP2 MSTORE PUSH1 0x20 DUP3 ADD DUP1 MLOAD PUSH1 0x1 PUSH1 0x1 PUSH1 0xE0 SHL SUB AND PUSH4 0x6DA6579 PUSH1 0xE2 SHL OR SWAP1 MSTORE MLOAD PUSH1 0xE0 DUP5 SWAP1 SHL PUSH1 0x1 PUSH1 0x1 PUSH1 0xE0 SHL SUB NOT AND DUP2 MSTORE PUSH2 0xC6C SWAP3 SWAP2 SWAP1 PUSH1 0x4 ADD PUSH2 0x311F JUMP JUMPDEST PUSH1 0x0 PUSH1 0x40 MLOAD DUP1 DUP4 SUB DUP2 PUSH1 0x0 DUP8 GAS CALL ISZERO DUP1 ISZERO PUSH2 0xC8B JUMPI RETURNDATASIZE PUSH1 0x0 DUP1 RETURNDATACOPY RETURNDATASIZE PUSH1 0x0 REVERT JUMPDEST POP POP POP POP PUSH1 0x40 MLOAD RETURNDATASIZE PUSH1 0x0 DUP3 RETURNDATACOPY PUSH1 0x1F RETURNDATASIZE SWAP1 DUP2 ADD PUSH1 0x1F NOT AND DUP3 ADD PUSH1 0x40 MSTORE PUSH2 0xCB3 SWAP2 SWAP1 DUP2 ADD SWAP1 PUSH2 0x3147 JUMP JUMPDEST POP JUMPDEST PUSH1 0xB SLOAD PUSH1 0xA SLOAD PUSH1 0x40 MLOAD PUSH1 0x1 PUSH1 0x1 PUSH1 0x60 SHL SUB NOT DUP10 AND PUSH1 0x24 DUP3 ADD MSTORE PUSH1 0x44 DUP2 ADD DUP5 SWAP1 MSTORE PUSH1 0x1 PUSH1 0x1 PUSH1 0xA0 SHL SUB SWAP1 SWAP3 AND SWAP2 PUSH4 0xBEA05EE3 SWAP2 PUSH1 0x60 SHL SWAP1 PUSH1 0x64 ADD PUSH1 0x40 DUP1 MLOAD PUSH1 0x1F NOT DUP2 DUP5 SUB ADD DUP2 MSTORE SWAP2 DUP2 MSTORE PUSH1 0x20 DUP3 ADD DUP1 MLOAD PUSH1 0x1 PUSH1 0x1 PUSH1 0xE0 SHL SUB AND PUSH4 0xE7E75AA9 PUSH1 0xE0 SHL OR SWAP1 MSTORE MLOAD PUSH1 0xE0 DUP5 SWAP1 SHL PUSH1 0x1 PUSH1 0x1 PUSH1 0xE0 SHL SUB NOT AND DUP2 MSTORE PUSH2 0xD38 SWAP3 SWAP2 SWAP1 PUSH1 0x4 ADD PUSH2 0x311F JUMP JUMPDEST PUSH1 0x0 PUSH1 0x40 MLOAD DUP1 DUP4 SUB DUP2 PUSH1 0x0 DUP8 GAS CALL ISZERO DUP1 ISZERO PUSH2 0xD57 JUMPI RETURNDATASIZE PUSH1 0x0 DUP1 RETURNDATACOPY RETURNDATASIZE PUSH1 0x0 REVERT JUMPDEST POP POP POP POP PUSH1 0x40 MLOAD RETURNDATASIZE PUSH1 0x0 DUP3 RETURNDATACOPY PUSH1 0x1F RETURNDATASIZE SWAP1 DUP2 ADD PUSH1 0x1F NOT AND DUP3 ADD PUSH1 0x40 MSTORE PUSH2 0xD7F SWAP2 SWAP1 DUP2 ADD SWAP1 PUSH2 0x3147 JUMP JUMPDEST POP PUSH2 0xD8A DUP8 DUP3 PUSH2 0x1CBC JUMP JUMPDEST SWAP9 SWAP8 POP POP POP POP POP POP POP POP JUMP JUMPDEST PUSH1 0x1 PUSH1 0x1 PUSH1 0xA0 SHL SUB DUP3 AND ADDRESS EQ PUSH2 0xE56 JUMPI PUSH2 0xDAF DUP2 PUSH2 0x1E47 JUMP JUMPDEST PUSH2 0xE56 JUMPI PUSH1 0x40 MLOAD PUSH3 0x461BCD PUSH1 0xE5 SHL DUP2 MSTORE PUSH1 0x20 PUSH1 0x4 DUP3 ADD MSTORE PUSH1 0x66 PUSH1 0x24 DUP3 ADD MSTORE PUSH32 0x5468697320746F6B656E206973206E6F74207472616E7366657261626C652062 PUSH1 0x44 DUP3 ADD MSTORE PUSH32 0x656361757365206974732065766D207370616365206F776E6572206973207365 PUSH1 0x64 DUP3 ADD MSTORE PUSH32 0x742E20436C6561722065766D207370616365206F776E657220616E6420747279 PUSH1 0x84 DUP3 ADD MSTORE PUSH6 0x1030B3B0B4B7 PUSH1 0xD1 SHL PUSH1 0xA4 DUP3 ADD MSTORE PUSH1 0xC4 ADD PUSH2 0x632 JUMP JUMPDEST PUSH2 0x6D3 DUP4 DUP4 DUP4 PUSH2 0x1E6F JUMP JUMPDEST PUSH1 0xB SLOAD PUSH1 0xA SLOAD PUSH1 0x40 DUP1 MLOAD PUSH1 0x24 DUP1 DUP3 ADD DUP7 SWAP1 MSTORE DUP3 MLOAD DUP1 DUP4 SUB SWAP1 SWAP2 ADD DUP2 MSTORE PUSH1 0x44 SWAP1 SWAP2 ADD DUP3 MSTORE PUSH1 0x20 DUP2 ADD DUP1 MLOAD PUSH1 0x1 PUSH1 0x1 PUSH1 0xE0 SHL SUB AND PUSH4 0x4DD72F05 PUSH1 0xE0 SHL OR SWAP1 MSTORE SWAP1 MLOAD PUSH4 0x30B4EF7D PUSH1 0xE0 SHL DUP2 MSTORE PUSH1 0x0 SWAP4 PUSH1 0x1 PUSH1 0x1 PUSH1 0xA0 SHL SUB AND SWAP3 PUSH4 0x30B4EF7D SWAP3 PUSH2 0xED0 SWAP3 PUSH1 0x60 SWAP3 SWAP1 SWAP3 SHL SWAP2 PUSH1 0x4 ADD PUSH2 0x311F JUMP JUMPDEST PUSH1 0x0 PUSH1 0x40 MLOAD DUP1 DUP4 SUB DUP2 DUP7 GAS STATICCALL ISZERO DUP1 ISZERO PUSH2 0xEED JUMPI RETURNDATASIZE PUSH1 0x0 DUP1 RETURNDATACOPY RETURNDATASIZE PUSH1 0x0 REVERT JUMPDEST POP POP POP POP PUSH1 0x40 MLOAD RETURNDATASIZE PUSH1 0x0 DUP3 RETURNDATACOPY PUSH1 0x1F RETURNDATASIZE SWAP1 DUP2 ADD PUSH1 0x1F NOT AND DUP3 ADD PUSH1 0x40 MSTORE PUSH2 0xF15 SWAP2 SWAP1 DUP2 ADD SWAP1 PUSH2 0x3147 JUMP JUMPDEST PUSH2 0x4FF SWAP1 PUSH2 0x31BE JUMP JUMPDEST PUSH2 0xF26 PUSH2 0x1AE4 JUMP JUMPDEST PUSH4 0x5F5E0FF DUP4 PUSH1 0x1 PUSH1 0x1 PUSH1 0x80 SHL SUB AND LT PUSH2 0xF76 JUMPI PUSH1 0x40 MLOAD PUSH3 0x461BCD PUSH1 0xE5 SHL DUP2 MSTORE PUSH1 0x20 PUSH1 0x4 DUP3 ADD MSTORE PUSH1 0x11 PUSH1 0x24 DUP3 ADD MSTORE PUSH17 0x34B73B30B634B2103130BA31B410373139 PUSH1 0x79 SHL PUSH1 0x44 DUP3 ADD MSTORE PUSH1 0x64 ADD PUSH2 0x632 JUMP JUMPDEST PUSH1 0x1 PUSH1 0x1 PUSH1 0x80 SHL SUB DUP4 AND PUSH1 0x0 SWAP1 DUP2 MSTORE PUSH1 0xD PUSH1 0x20 MSTORE PUSH1 0x40 SWAP1 KECCAK256 DUP1 SLOAD PUSH1 0x1 PUSH1 0x1 PUSH1 0xA0 SHL SUB NOT AND PUSH1 0x1 PUSH1 0x1 PUSH1 0xA0 SHL SUB DUP5 AND OR SWAP1 SSTORE PUSH1 0xC SLOAD PUSH2 0xFB4 SWAP1 NUMBER PUSH2 0x31E2 JUMP JUMPDEST PUSH1 0x1 PUSH1 0x1 PUSH1 0x80 SHL SUB DUP5 AND PUSH1 0x0 DUP2 DUP2 MSTORE PUSH1 0xD PUSH1 0x20 MSTORE PUSH1 0x40 SWAP1 DUP2 SWAP1 KECCAK256 PUSH1 0x1 ADD SWAP3 SWAP1 SWAP3 SSTORE PUSH1 0xB SLOAD PUSH1 0xA SLOAD SWAP3 MLOAD PUSH1 0x24 DUP2 ADD SWAP3 SWAP1 SWAP3 MSTORE PUSH1 0xFF DUP5 AND PUSH1 0x44 DUP4 ADD MSTORE PUSH1 0x1 PUSH1 0x1 PUSH1 0xA0 SHL SUB AND SWAP2 PUSH4 0xBEA05EE3 SWAP2 PUSH1 0x60 SWAP2 SWAP1 SWAP2 SHL SWAP1 PUSH1 0x64 ADD PUSH1 0x40 DUP1 MLOAD PUSH1 0x1F NOT DUP2 DUP5 SUB ADD DUP2 MSTORE SWAP2 DUP2 MSTORE PUSH1 0x20 DUP3 ADD DUP1 MLOAD PUSH1 0x1 PUSH1 0x1 PUSH1 0xE0 SHL SUB AND PUSH4 0x34959A25 PUSH1 0xE1 SHL OR SWAP1 MSTORE MLOAD PUSH1 0xE0 DUP5 SWAP1 SHL PUSH1 0x1 PUSH1 0x1 PUSH1 0xE0 SHL SUB NOT AND DUP2 MSTORE PUSH2 0x1052 SWAP3 SWAP2 SWAP1 PUSH1 0x4 ADD PUSH2 0x311F JUMP JUMPDEST PUSH1 0x0 PUSH1 0x40 MLOAD DUP1 DUP4 SUB DUP2 PUSH1 0x0 DUP8 GAS CALL ISZERO DUP1 ISZERO PUSH2 0x1071 JUMPI RETURNDATASIZE PUSH1 0x0 DUP1 RETURNDATACOPY RETURNDATASIZE PUSH1 0x0 REVERT JUMPDEST POP POP POP POP PUSH1 0x40 MLOAD RETURNDATASIZE PUSH1 0x0 DUP3 RETURNDATACOPY PUSH1 0x1F RETURNDATASIZE SWAP1 DUP2 ADD PUSH1 0x1F NOT AND DUP3 ADD PUSH1 0x40 MSTORE PUSH2 0x1099 SWAP2 SWAP1 DUP2 ADD SWAP1 PUSH2 0x3147 JUMP JUMPDEST POP PUSH1 0x40 DUP1 MLOAD NUMBER DUP2 MSTORE PUSH1 0x1 PUSH1 0x1 PUSH1 0x80 SHL SUB DUP6 AND PUSH1 0x20 DUP3 ADD MSTORE PUSH1 0xFF DUP4 AND DUP2 DUP4 ADD MSTORE SWAP1 MLOAD PUSH32 0xE1A8324D5D6991EAC78EC12A728B17F656563DE76AE56C7B54488A29D2DE672D SWAP2 DUP2 SWAP1 SUB PUSH1 0x60 ADD SWAP1 LOG1 POP POP POP JUMP JUMPDEST PUSH1 0x0 DUP2 DUP2 MSTORE PUSH1 0x2 PUSH1 0x20 MSTORE PUSH1 0x40 DUP2 KECCAK256 SLOAD PUSH1 0x1 PUSH1 0x1 PUSH1 0xA0 SHL SUB AND DUP1 PUSH2 0x4FF JUMPI PUSH1 0x40 MLOAD PUSH3 0x461BCD PUSH1 0xE5 SHL DUP2 MSTORE PUSH1 0x20 PUSH1 0x4 DUP3 ADD MSTORE PUSH1 0x18 PUSH1 0x24 DUP3 ADD MSTORE PUSH24 0x115490CDCC8C4E881A5B9D985B1A59081D1BDAD95B881251 PUSH1 0x42 SHL PUSH1 0x44 DUP3 ADD MSTORE PUSH1 0x64 ADD PUSH2 0x632 JUMP JUMPDEST PUSH1 0x0 PUSH1 0x1 PUSH1 0x1 PUSH1 0xA0 SHL SUB DUP3 AND PUSH2 0x11B3 JUMPI PUSH1 0x40 MLOAD PUSH3 0x461BCD PUSH1 0xE5 SHL DUP2 MSTORE PUSH1 0x20 PUSH1 0x4 DUP3 ADD MSTORE PUSH1 0x29 PUSH1 0x24 DUP3 ADD MSTORE PUSH32 0x4552433732313A2061646472657373207A65726F206973206E6F742061207661 PUSH1 0x44 DUP3 ADD MSTORE PUSH9 0x3634B21037BBB732B9 PUSH1 0xB9 SHL PUSH1 0x64 DUP3 ADD MSTORE PUSH1 0x84 ADD PUSH2 0x632 JUMP JUMPDEST POP PUSH1 0x1 PUSH1 0x1 PUSH1 0xA0 SHL SUB AND PUSH1 0x0 SWAP1 DUP2 MSTORE PUSH1 0x3 PUSH1 0x20 MSTORE PUSH1 0x40 SWAP1 KECCAK256 SLOAD SWAP1 JUMP JUMPDEST PUSH2 0x11D7 PUSH2 0x1AE4 JUMP JUMPDEST PUSH2 0x11E1 PUSH1 0x0 PUSH2 0x1E8A JUMP JUMPDEST JUMP JUMPDEST PUSH1 0xB SLOAD PUSH1 0xA SLOAD PUSH1 0x40 MLOAD PUSH1 0x24 DUP2 ADD DUP5 SWAP1 MSTORE PUSH1 0x0 SWAP3 DUP4 SWAP3 PUSH1 0x1 PUSH1 0x1 PUSH1 0xA0 SHL SUB SWAP1 SWAP2 AND SWAP2 PUSH4 0x30B4EF7D SWAP2 PUSH1 0x60 SHL SWAP1 PUSH1 0x44 ADD PUSH1 0x40 DUP1 MLOAD PUSH1 0x1F NOT DUP2 DUP5 SUB ADD DUP2 MSTORE SWAP2 DUP2 MSTORE PUSH1 0x20 DUP3 ADD DUP1 MLOAD PUSH1 0x1 PUSH1 0x1 PUSH1 0xE0 SHL SUB AND PUSH4 0x31A9108F PUSH1 0xE1 SHL OR SWAP1 MSTORE MLOAD PUSH1 0xE0 DUP5 SWAP1 SHL PUSH1 0x1 PUSH1 0x1 PUSH1 0xE0 SHL SUB NOT AND DUP2 MSTORE PUSH2 0x125B SWAP3 SWAP2 SWAP1 PUSH1 0x4 ADD PUSH2 0x311F JUMP JUMPDEST PUSH1 0x0 PUSH1 0x40 MLOAD DUP1 DUP4 SUB DUP2 DUP7 GAS STATICCALL ISZERO DUP1 ISZERO PUSH2 0x1278 JUMPI RETURNDATASIZE PUSH1 0x0 DUP1 RETURNDATACOPY RETURNDATASIZE PUSH1 0x0 REVERT JUMPDEST POP POP POP POP PUSH1 0x40 MLOAD RETURNDATASIZE PUSH1 0x0 DUP3 RETURNDATACOPY PUSH1 0x1F RETURNDATASIZE SWAP1 DUP2 ADD PUSH1 0x1F NOT AND DUP3 ADD PUSH1 0x40 MSTORE PUSH2 0x12A0 SWAP2 SWAP1 DUP2 ADD SWAP1 PUSH2 0x3147 JUMP JUMPDEST PUSH2 0x12A9 SWAP1 PUSH2 0x31BE JUMP JUMPDEST PUSH1 0x60 SHL SWAP4 SWAP3 POP POP POP JUMP JUMPDEST PUSH1 0x0 PUSH1 0x60 DUP1 DUP3 DUP1 DUP1 DUP4 PUSH1 0x7 PUSH1 0x8 PUSH32 0x0 ADDRESS DUP6 DUP1 PUSH1 0x40 MLOAD SWAP1 DUP1 DUP3 MSTORE DUP1 PUSH1 0x20 MUL PUSH1 0x20 ADD DUP3 ADD PUSH1 0x40 MSTORE DUP1 ISZERO PUSH2 0x130D JUMPI DUP2 PUSH1 0x20 ADD PUSH1 0x20 DUP3 MUL DUP1 CALLDATASIZE DUP4 CALLDATACOPY ADD SWAP1 POP JUMPDEST POP PUSH1 0xF PUSH1 0xF8 SHL SWAP6 SWAP5 SWAP4 SWAP3 SWAP2 SWAP1 DUP6 DUP1 SLOAD PUSH2 0x1325 SWAP1 PUSH2 0x3040 JUMP JUMPDEST DUP1 PUSH1 0x1F ADD PUSH1 0x20 DUP1 SWAP2 DIV MUL PUSH1 0x20 ADD PUSH1 0x40 MLOAD SWAP1 DUP2 ADD PUSH1 0x40 MSTORE DUP1 SWAP3 SWAP2 SWAP1 DUP2 DUP2 MSTORE PUSH1 0x20 ADD DUP3 DUP1 SLOAD PUSH2 0x1351 SWAP1 PUSH2 0x3040 JUMP JUMPDEST DUP1 ISZERO PUSH2 0x139E JUMPI DUP1 PUSH1 0x1F LT PUSH2 0x1373 JUMPI PUSH2 0x100 DUP1 DUP4 SLOAD DIV MUL DUP4 MSTORE SWAP2 PUSH1 0x20 ADD SWAP2 PUSH2 0x139E JUMP JUMPDEST DUP3 ADD SWAP2 SWAP1 PUSH1 0x0 MSTORE PUSH1 0x20 PUSH1 0x0 KECCAK256 SWAP1 JUMPDEST DUP2 SLOAD DUP2 MSTORE SWAP1 PUSH1 0x1 ADD SWAP1 PUSH1 0x20 ADD DUP1 DUP4 GT PUSH2 0x1381 JUMPI DUP3 SWAP1 SUB PUSH1 0x1F AND DUP3 ADD SWAP2 JUMPDEST POP POP POP POP POP SWAP6 POP DUP5 DUP1 SLOAD PUSH2 0x13B1 SWAP1 PUSH2 0x3040 JUMP JUMPDEST DUP1 PUSH1 0x1F ADD PUSH1 0x20 DUP1 SWAP2 DIV MUL PUSH1 0x20 ADD PUSH1 0x40 MLOAD SWAP1 DUP2 ADD PUSH1 0x40 MSTORE DUP1 SWAP3 SWAP2 SWAP1 DUP2 DUP2 MSTORE PUSH1 0x20 ADD DUP3 DUP1 SLOAD PUSH2 0x13DD SWAP1 PUSH2 0x3040 JUMP JUMPDEST DUP1 ISZERO PUSH2 0x142A JUMPI DUP1 PUSH1 0x1F LT PUSH2 0x13FF JUMPI PUSH2 0x100 DUP1 DUP4 SLOAD DIV MUL DUP4 MSTORE SWAP2 PUSH1 0x20 ADD SWAP2 PUSH2 0x142A JUMP JUMPDEST DUP3 ADD SWAP2 SWAP1 PUSH1 0x0 MSTORE PUSH1 0x20 PUSH1 0x0 KECCAK256 SWAP1 JUMPDEST DUP2 SLOAD DUP2 MSTORE SWAP1 PUSH1 0x1 ADD SWAP1 PUSH1 0x20 ADD DUP1 DUP4 GT PUSH2 0x140D JUMPI DUP3 SWAP1 SUB PUSH1 0x1F AND DUP3 ADD SWAP2 JUMPDEST POP POP POP POP POP SWAP5 POP SWAP7 POP SWAP7 POP SWAP7 POP SWAP7 POP SWAP7 POP SWAP7 POP SWAP7 POP SWAP1 SWAP2 SWAP3 SWAP4 SWAP5 SWAP6 SWAP7 JUMP JUMPDEST DUP1 MLOAD DUP3 MLOAD EQ PUSH2 0x14B1 JUMPI PUSH1 0x40 MLOAD PUSH3 0x461BCD PUSH1 0xE5 SHL DUP2 MSTORE PUSH1 0x20 PUSH1 0x4 DUP3 ADD MSTORE PUSH1 0x2F PUSH1 0x24 DUP3 ADD MSTORE PUSH32 0x757365726E616D6520616E6420726172697279206172726179206D7573742068 PUSH1 0x44 DUP3 ADD MSTORE PUSH15 0xC2ECCA40E6C2DACA40D8CADCCEE8D PUSH1 0x8B SHL PUSH1 0x64 DUP3 ADD MSTORE PUSH1 0x84 ADD PUSH2 0x632 JUMP JUMPDEST PUSH1 0x6 SLOAD PUSH1 0x1 PUSH1 0x1 PUSH1 0xA0 SHL SUB AND CALLER EQ PUSH2 0x1535 JUMPI PUSH2 0x14CD CALLER DUP5 PUSH2 0x1EDC JUMP JUMPDEST PUSH2 0x1535 JUMPI PUSH1 0x40 MLOAD PUSH3 0x461BCD PUSH1 0xE5 SHL DUP2 MSTORE PUSH1 0x20 PUSH1 0x4 DUP3 ADD MSTORE PUSH1 0x33 PUSH1 0x24 DUP3 ADD MSTORE PUSH32 0x6D73672073656E646572206973206E6F7420617574686F72697A656420746F20 PUSH1 0x44 DUP3 ADD MSTORE PUSH19 0x39B2BA1036B4B73A103832B936B4B9B9B4B7B7 PUSH1 0x69 SHL PUSH1 0x64 DUP3 ADD MSTORE PUSH1 0x84 ADD PUSH2 0x632 JUMP JUMPDEST PUSH1 0x0 JUMPDEST DUP3 MLOAD DUP2 LT ISZERO PUSH2 0x84C JUMPI PUSH2 0x157E DUP5 DUP5 DUP4 DUP2 MLOAD DUP2 LT PUSH2 0x1557 JUMPI PUSH2 0x1557 PUSH2 0x31FA JUMP JUMPDEST PUSH1 0x20 MUL PUSH1 0x20 ADD ADD MLOAD DUP5 DUP5 DUP2 MLOAD DUP2 LT PUSH2 0x1571 JUMPI PUSH2 0x1571 PUSH2 0x31FA JUMP JUMPDEST PUSH1 0x20 MUL PUSH1 0x20 ADD ADD MLOAD PUSH2 0x1F2D JUMP JUMPDEST DUP1 PUSH2 0x1588 DUP2 PUSH2 0x3210 JUMP JUMPDEST SWAP2 POP POP PUSH2 0x1538 JUMP JUMPDEST PUSH1 0x60 PUSH1 0x1 DUP1 SLOAD PUSH2 0x514 SWAP1 PUSH2 0x3040 JUMP JUMPDEST PUSH2 0x15AA CALLER DUP4 DUP4 PUSH2 0x1F90 JUMP JUMPDEST POP POP JUMP JUMPDEST DUP2 PUSH2 0x15B8 DUP2 PUSH2 0x10E9 JUMP JUMPDEST PUSH1 0x1 PUSH1 0x1 PUSH1 0xA0 SHL SUB AND CALLER PUSH1 0x1 PUSH1 0x1 PUSH1 0xA0 SHL SUB AND EQ PUSH2 0x1618 JUMPI PUSH1 0x40 MLOAD PUSH3 0x461BCD PUSH1 0xE5 SHL DUP2 MSTORE PUSH1 0x20 PUSH1 0x4 DUP3 ADD MSTORE PUSH1 0x1E PUSH1 0x24 DUP3 ADD MSTORE PUSH32 0x63616C6C6572206973206E6F7420636F726520746F6B656E206F776E65720000 PUSH1 0x44 DUP3 ADD MSTORE PUSH1 0x64 ADD PUSH2 0x632 JUMP JUMPDEST PUSH2 0x6D3 DUP4 DUP4 PUSH2 0x205E JUMP JUMPDEST PUSH2 0x162C CALLER DUP4 PUSH2 0x1895 JUMP JUMPDEST PUSH2 0x1648 JUMPI PUSH1 0x40 MLOAD PUSH3 0x461BCD PUSH1 0xE5 SHL DUP2 MSTORE PUSH1 0x4 ADD PUSH2 0x632 SWAP1 PUSH2 0x307A JUMP JUMPDEST PUSH2 0x84C DUP5 DUP5 DUP5 DUP5 PUSH2 0x2128 JUMP JUMPDEST PUSH1 0x60 PUSH2 0x165F DUP3 PUSH2 0x17C8 JUMP JUMPDEST PUSH1 0x0 PUSH2 0x1676 PUSH1 0x40 DUP1 MLOAD PUSH1 0x20 DUP2 ADD SWAP1 SWAP2 MSTORE PUSH1 0x0 DUP2 MSTORE SWAP1 JUMP JUMPDEST SWAP1 POP PUSH1 0x0 DUP2 MLOAD GT PUSH2 0x1696 JUMPI PUSH1 0x40 MLOAD DUP1 PUSH1 0x20 ADD PUSH1 0x40 MSTORE DUP1 PUSH1 0x0 DUP2 MSTORE POP PUSH2 0x16C1 JUMP JUMPDEST DUP1 PUSH2 0x16A0 DUP5 PUSH2 0x215B JUMP JUMPDEST PUSH1 0x40 MLOAD PUSH1 0x20 ADD PUSH2 0x16B1 SWAP3 SWAP2 SWAP1 PUSH2 0x3229 JUMP JUMPDEST PUSH1 0x40 MLOAD PUSH1 0x20 DUP2 DUP4 SUB SUB DUP2 MSTORE SWAP1 PUSH1 0x40 MSTORE JUMPDEST SWAP4 SWAP3 POP POP POP JUMP JUMPDEST DUP1 PUSH2 0x16D2 DUP2 PUSH2 0x10E9 JUMP JUMPDEST PUSH1 0x1 PUSH1 0x1 PUSH1 0xA0 SHL SUB AND CALLER PUSH1 0x1 PUSH1 0x1 PUSH1 0xA0 SHL SUB AND EQ PUSH2 0x1732 JUMPI PUSH1 0x40 MLOAD PUSH3 0x461BCD PUSH1 0xE5 SHL DUP2 MSTORE PUSH1 0x20 PUSH1 0x4 DUP3 ADD MSTORE PUSH1 0x1E PUSH1 0x24 DUP3 ADD MSTORE PUSH32 0x63616C6C6572206973206E6F7420636F726520746F6B656E206F776E65720000 PUSH1 0x44 DUP3 ADD MSTORE PUSH1 0x64 ADD PUSH2 0x632 JUMP JUMPDEST PUSH1 0xA SLOAD PUSH2 0x15AA SWAP1 DUP4 SWAP1 PUSH1 0x60 SHL PUSH2 0x205E JUMP JUMPDEST PUSH2 0x6D3 DUP4 DUP4 ADDRESS DUP5 PUSH2 0x7B7 JUMP JUMPDEST PUSH2 0x1757 PUSH2 0x1AE4 JUMP JUMPDEST PUSH1 0x1 PUSH1 0x1 PUSH1 0xA0 SHL SUB DUP2 AND PUSH2 0x17BC JUMPI PUSH1 0x40 MLOAD PUSH3 0x461BCD PUSH1 0xE5 SHL DUP2 MSTORE PUSH1 0x20 PUSH1 0x4 DUP3 ADD MSTORE PUSH1 0x26 PUSH1 0x24 DUP3 ADD MSTORE PUSH32 0x4F776E61626C653A206E6577206F776E657220697320746865207A65726F2061 PUSH1 0x44 DUP3 ADD MSTORE PUSH6 0x646472657373 PUSH1 0xD0 SHL PUSH1 0x64 DUP3 ADD MSTORE PUSH1 0x84 ADD PUSH2 0x632 JUMP JUMPDEST PUSH2 0x17C5 DUP2 PUSH2 0x1E8A JUMP JUMPDEST POP JUMP JUMPDEST PUSH1 0x0 DUP2 DUP2 MSTORE PUSH1 0x2 PUSH1 0x20 MSTORE PUSH1 0x40 SWAP1 KECCAK256 SLOAD PUSH1 0x1 PUSH1 0x1 PUSH1 0xA0 SHL SUB AND PUSH2 0x17C5 JUMPI PUSH1 0x40 MLOAD PUSH3 0x461BCD PUSH1 0xE5 SHL DUP2 MSTORE PUSH1 0x20 PUSH1 0x4 DUP3 ADD MSTORE PUSH1 0x18 PUSH1 0x24 DUP3 ADD MSTORE PUSH24 0x115490CDCC8C4E881A5B9D985B1A59081D1BDAD95B881251 PUSH1 0x42 SHL PUSH1 0x44 DUP3 ADD MSTORE PUSH1 0x64 ADD PUSH2 0x632 JUMP JUMPDEST PUSH1 0x0 DUP2 DUP2 MSTORE PUSH1 0x4 PUSH1 0x20 MSTORE PUSH1 0x40 SWAP1 KECCAK256 DUP1 SLOAD PUSH1 0x1 PUSH1 0x1 PUSH1 0xA0 SHL SUB NOT AND PUSH1 0x1 PUSH1 0x1 PUSH1 0xA0 SHL SUB DUP5 AND SWAP1 DUP2 OR SWAP1 SWAP2 SSTORE DUP2 SWAP1 PUSH2 0x185C DUP3 PUSH2 0x10E9 JUMP JUMPDEST PUSH1 0x1 PUSH1 0x1 PUSH1 0xA0 SHL SUB AND PUSH32 0x8C5BE1E5EBEC7D5BD14F71427D1E84F3DD0314C0F7B2291E5B200AC8C7C3B925 PUSH1 0x40 MLOAD PUSH1 0x40 MLOAD DUP1 SWAP2 SUB SWAP1 LOG4 POP POP JUMP JUMPDEST PUSH1 0x0 DUP1 PUSH2 0x18A1 DUP4 PUSH2 0x10E9 JUMP JUMPDEST SWAP1 POP DUP1 PUSH1 0x1 PUSH1 0x1 PUSH1 0xA0 SHL SUB AND DUP5 PUSH1 0x1 PUSH1 0x1 PUSH1 0xA0 SHL SUB AND EQ DUP1 PUSH2 0x18E8 JUMPI POP PUSH1 0x1 PUSH1 0x1 PUSH1 0xA0 SHL SUB DUP1 DUP3 AND PUSH1 0x0 SWAP1 DUP2 MSTORE PUSH1 0x5 PUSH1 0x20 SWAP1 DUP2 MSTORE PUSH1 0x40 DUP1 DUP4 KECCAK256 SWAP4 DUP9 AND DUP4 MSTORE SWAP3 SWAP1 MSTORE KECCAK256 SLOAD PUSH1 0xFF AND JUMPDEST DUP1 PUSH2 0x190C JUMPI POP DUP4 PUSH1 0x1 PUSH1 0x1 PUSH1 0xA0 SHL SUB AND PUSH2 0x1901 DUP5 PUSH2 0x597 JUMP JUMPDEST PUSH1 0x1 PUSH1 0x1 PUSH1 0xA0 SHL SUB AND EQ JUMPDEST SWAP5 SWAP4 POP POP POP POP JUMP JUMPDEST PUSH1 0x1 PUSH1 0x1 PUSH1 0xA0 SHL SUB DUP4 AND ADDRESS EQ DUP1 ISZERO PUSH2 0x193E JUMPI POP DUP2 PUSH1 0x1 PUSH1 0x1 PUSH1 0xA0 SHL SUB AND DUP4 PUSH1 0x1 PUSH1 0x1 PUSH1 0xA0 SHL SUB AND EQ ISZERO JUMPDEST ISZERO PUSH2 0x1A06 JUMPI PUSH1 0xB SLOAD PUSH1 0xA SLOAD PUSH1 0x40 MLOAD PUSH1 0x24 DUP2 ADD DUP5 SWAP1 MSTORE PUSH1 0x0 PUSH1 0x44 DUP3 ADD MSTORE PUSH1 0x1 PUSH1 0x1 PUSH1 0xA0 SHL SUB SWAP1 SWAP3 AND SWAP2 PUSH4 0xBEA05EE3 SWAP2 PUSH1 0x60 SHL SWAP1 PUSH1 0x64 ADD PUSH1 0x40 DUP1 MLOAD PUSH1 0x1F NOT DUP2 DUP5 SUB ADD DUP2 MSTORE SWAP2 DUP2 MSTORE PUSH1 0x20 DUP3 ADD DUP1 MLOAD PUSH1 0x1 PUSH1 0x1 PUSH1 0xE0 SHL SUB AND PUSH4 0x6DA6579 PUSH1 0xE2 SHL OR SWAP1 MSTORE MLOAD PUSH1 0xE0 DUP5 SWAP1 SHL PUSH1 0x1 PUSH1 0x1 PUSH1 0xE0 SHL SUB NOT AND DUP2 MSTORE PUSH2 0x19BD SWAP3 SWAP2 SWAP1 PUSH1 0x4 ADD PUSH2 0x311F JUMP JUMPDEST PUSH1 0x0 PUSH1 0x40 MLOAD DUP1 DUP4 SUB DUP2 PUSH1 0x0 DUP8 GAS CALL ISZERO DUP1 ISZERO PUSH2 0x19DC JUMPI RETURNDATASIZE PUSH1 0x0 DUP1 RETURNDATACOPY RETURNDATASIZE PUSH1 0x0 REVERT JUMPDEST POP POP POP POP PUSH1 0x40 MLOAD RETURNDATASIZE PUSH1 0x0 DUP3 RETURNDATACOPY PUSH1 0x1F RETURNDATASIZE SWAP1 DUP2 ADD PUSH1 0x1F NOT AND DUP3 ADD PUSH1 0x40 MSTORE PUSH2 0x1A04 SWAP2 SWAP1 DUP2 ADD SWAP1 PUSH2 0x3147 JUMP JUMPDEST POP JUMPDEST ADDRESS PUSH1 0x1 PUSH1 0x1 PUSH1 0xA0 SHL SUB DUP4 AND SUB PUSH2 0x1AD9 JUMPI PUSH1 0xB SLOAD PUSH1 0xA SLOAD PUSH1 0x40 MLOAD PUSH1 0x24 DUP2 ADD DUP5 SWAP1 MSTORE PUSH1 0x1 PUSH1 0x44 DUP3 ADD MSTORE PUSH1 0x1 PUSH1 0x1 PUSH1 0xA0 SHL SUB SWAP1 SWAP3 AND SWAP2 PUSH4 0xBEA05EE3 SWAP2 PUSH1 0x60 SHL SWAP1 PUSH1 0x64 ADD PUSH1 0x40 DUP1 MLOAD PUSH1 0x1F NOT DUP2 DUP5 SUB ADD DUP2 MSTORE SWAP2 DUP2 MSTORE PUSH1 0x20 DUP3 ADD DUP1 MLOAD PUSH1 0x1 PUSH1 0x1 PUSH1 0xE0 SHL SUB AND PUSH4 0x6DA6579 PUSH1 0xE2 SHL OR SWAP1 MSTORE MLOAD PUSH1 0xE0 DUP5 SWAP1 SHL PUSH1 0x1 PUSH1 0x1 PUSH1 0xE0 SHL SUB NOT AND DUP2 MSTORE PUSH2 0x1A90 SWAP3 SWAP2 SWAP1 PUSH1 0x4 ADD PUSH2 0x311F JUMP JUMPDEST PUSH1 0x0 PUSH1 0x40 MLOAD DUP1 DUP4 SUB DUP2 PUSH1 0x0 DUP8 GAS CALL ISZERO DUP1 ISZERO PUSH2 0x1AAF JUMPI RETURNDATASIZE PUSH1 0x0 DUP1 RETURNDATACOPY RETURNDATASIZE PUSH1 0x0 REVERT JUMPDEST POP POP POP POP PUSH1 0x40 MLOAD RETURNDATASIZE PUSH1 0x0 DUP3 RETURNDATACOPY PUSH1 0x1F RETURNDATASIZE SWAP1 DUP2 ADD PUSH1 0x1F NOT AND DUP3 ADD PUSH1 0x40 MSTORE PUSH2 0x1AD7 SWAP2 SWAP1 DUP2 ADD SWAP1 PUSH2 0x3147 JUMP JUMPDEST POP JUMPDEST PUSH2 0x6D3 DUP4 DUP4 DUP4 PUSH2 0x21EE JUMP JUMPDEST PUSH1 0x6 SLOAD PUSH1 0x1 PUSH1 0x1 PUSH1 0xA0 SHL SUB AND CALLER EQ PUSH2 0x11E1 JUMPI PUSH1 0x40 MLOAD PUSH3 0x461BCD PUSH1 0xE5 SHL DUP2 MSTORE PUSH1 0x20 PUSH1 0x4 DUP3 ADD DUP2 SWAP1 MSTORE PUSH1 0x24 DUP3 ADD MSTORE PUSH32 0x4F776E61626C653A2063616C6C6572206973206E6F7420746865206F776E6572 PUSH1 0x44 DUP3 ADD MSTORE PUSH1 0x64 ADD PUSH2 0x632 JUMP JUMPDEST PUSH1 0x0 DUP1 PUSH2 0x1BC8 PUSH32 0xA69D05E2E56FA789517DA84E6C668025F30CB4E7ABC1973420E2B8B0B33440D6 PUSH2 0x1B85 DUP8 PUSH1 0x1 PUSH1 0x1 PUSH1 0x60 SHL SUB NOT AND PUSH1 0x0 SWAP1 DUP2 MSTORE PUSH1 0x9 PUSH1 0x20 MSTORE PUSH1 0x40 SWAP1 KECCAK256 SLOAD SWAP1 JUMP JUMPDEST PUSH1 0x40 DUP1 MLOAD PUSH1 0x20 DUP2 ADD SWAP4 SWAP1 SWAP4 MSTORE DUP3 ADD MSTORE PUSH1 0x60 DUP2 ADD DUP7 SWAP1 MSTORE PUSH1 0x1 PUSH1 0x1 PUSH1 0xA0 SHL SUB DUP6 AND PUSH1 0x80 DUP3 ADD MSTORE PUSH1 0xA0 ADD PUSH1 0x40 MLOAD PUSH1 0x20 DUP2 DUP4 SUB SUB DUP2 MSTORE SWAP1 PUSH1 0x40 MSTORE DUP1 MLOAD SWAP1 PUSH1 0x20 ADD KECCAK256 PUSH2 0x2352 JUMP JUMPDEST SWAP1 POP PUSH1 0x0 PUSH2 0x1BD6 DUP3 DUP9 PUSH2 0x237F JUMP JUMPDEST SWAP1 POP PUSH1 0x1 PUSH1 0x1 PUSH1 0x9C SHL SUB PUSH1 0x60 DUP8 SWAP1 SHR DUP3 XOR AND ISZERO PUSH2 0x1C40 JUMPI PUSH1 0x40 MLOAD PUSH3 0x461BCD PUSH1 0xE5 SHL DUP2 MSTORE PUSH1 0x20 PUSH1 0x4 DUP3 ADD MSTORE PUSH1 0x22 PUSH1 0x24 DUP3 ADD MSTORE PUSH32 0x7369676E617475726520646F6573206E6F74206D617463682065766D5369676E PUSH1 0x44 DUP3 ADD MSTORE PUSH2 0x32B9 PUSH1 0xF1 SHL PUSH1 0x64 DUP3 ADD MSTORE PUSH1 0x84 ADD PUSH2 0x632 JUMP JUMPDEST PUSH1 0x1 PUSH1 0x1 PUSH1 0x60 SHL SUB NOT DUP7 AND PUSH1 0x0 SWAP1 DUP2 MSTORE PUSH1 0x9 PUSH1 0x20 MSTORE PUSH1 0x40 DUP2 KECCAK256 DUP1 SLOAD PUSH1 0x1 SWAP3 SWAP1 PUSH2 0x1C6A SWAP1 DUP5 SWAP1 PUSH2 0x31E2 JUMP JUMPDEST SWAP1 SWAP2 SSTORE POP PUSH1 0x1 SWAP9 SWAP8 POP POP POP POP POP POP POP POP JUMP JUMPDEST PUSH1 0x0 PUSH2 0xFFFF DUP3 AND PUSH2 0x1C92 PUSH1 0xFF DUP6 AND PUSH2 0x2710 PUSH2 0x324F JUMP JUMPDEST PUSH2 0x1CA8 PUSH1 0x1 PUSH1 0x1 PUSH1 0x80 SHL SUB DUP8 AND PUSH3 0xF4240 PUSH2 0x324F JUMP JUMPDEST PUSH2 0x1CB2 SWAP2 SWAP1 PUSH2 0x31E2 JUMP JUMPDEST PUSH2 0x190C SWAP2 SWAP1 PUSH2 0x31E2 JUMP JUMPDEST PUSH1 0x1 PUSH1 0x1 PUSH1 0xA0 SHL SUB DUP3 AND PUSH2 0x1D12 JUMPI PUSH1 0x40 MLOAD PUSH3 0x461BCD PUSH1 0xE5 SHL DUP2 MSTORE PUSH1 0x20 PUSH1 0x4 DUP3 ADD DUP2 SWAP1 MSTORE PUSH1 0x24 DUP3 ADD MSTORE PUSH32 0x4552433732313A206D696E7420746F20746865207A65726F2061646472657373 PUSH1 0x44 DUP3 ADD MSTORE PUSH1 0x64 ADD PUSH2 0x632 JUMP JUMPDEST PUSH1 0x0 DUP2 DUP2 MSTORE PUSH1 0x2 PUSH1 0x20 MSTORE PUSH1 0x40 SWAP1 KECCAK256 SLOAD PUSH1 0x1 PUSH1 0x1 PUSH1 0xA0 SHL SUB AND ISZERO PUSH2 0x1D77 JUMPI PUSH1 0x40 MLOAD PUSH3 0x461BCD PUSH1 0xE5 SHL DUP2 MSTORE PUSH1 0x20 PUSH1 0x4 DUP3 ADD MSTORE PUSH1 0x1C PUSH1 0x24 DUP3 ADD MSTORE PUSH32 0x4552433732313A20746F6B656E20616C7265616479206D696E74656400000000 PUSH1 0x44 DUP3 ADD MSTORE PUSH1 0x64 ADD PUSH2 0x632 JUMP JUMPDEST PUSH1 0x0 DUP2 DUP2 MSTORE PUSH1 0x2 PUSH1 0x20 MSTORE PUSH1 0x40 SWAP1 KECCAK256 SLOAD PUSH1 0x1 PUSH1 0x1 PUSH1 0xA0 SHL SUB AND ISZERO PUSH2 0x1DDC JUMPI PUSH1 0x40 MLOAD PUSH3 0x461BCD PUSH1 0xE5 SHL DUP2 MSTORE PUSH1 0x20 PUSH1 0x4 DUP3 ADD MSTORE PUSH1 0x1C PUSH1 0x24 DUP3 ADD MSTORE PUSH32 0x4552433732313A20746F6B656E20616C7265616479206D696E74656400000000 PUSH1 0x44 DUP3 ADD MSTORE PUSH1 0x64 ADD PUSH2 0x632 JUMP JUMPDEST PUSH1 0x1 PUSH1 0x1 PUSH1 0xA0 SHL SUB DUP3 AND PUSH1 0x0 DUP2 DUP2 MSTORE PUSH1 0x3 PUSH1 0x20 SWAP1 DUP2 MSTORE PUSH1 0x40 DUP1 DUP4 KECCAK256 DUP1 SLOAD PUSH1 0x1 ADD SWAP1 SSTORE DUP5 DUP4 MSTORE PUSH1 0x2 SWAP1 SWAP2 MSTORE DUP1 DUP3 KECCAK256 DUP1 SLOAD PUSH1 0x1 PUSH1 0x1 PUSH1 0xA0 SHL SUB NOT AND DUP5 OR SWAP1 SSTORE MLOAD DUP4 SWAP3 SWAP2 SWAP1 PUSH32 0xDDF252AD1BE2C89B69C2B068FC378DAA952BA7F163C4A11628F55A4DF523B3EF SWAP1 DUP3 SWAP1 LOG4 POP POP JUMP JUMPDEST PUSH1 0x0 DUP1 PUSH2 0x1E53 DUP4 PUSH2 0x11E3 JUMP JUMPDEST PUSH1 0xA SLOAD PUSH1 0x60 SHL PUSH1 0x1 PUSH1 0x1 PUSH1 0x60 SHL SUB NOT SWAP1 DUP2 AND SWAP2 AND EQ SWAP4 SWAP3 POP POP POP JUMP JUMPDEST PUSH2 0x6D3 DUP4 DUP4 DUP4 PUSH1 0x40 MLOAD DUP1 PUSH1 0x20 ADD PUSH1 0x40 MSTORE DUP1 PUSH1 0x0 DUP2 MSTORE POP PUSH2 0x1622 JUMP JUMPDEST PUSH1 0x6 DUP1 SLOAD PUSH1 0x1 PUSH1 0x1 PUSH1 0xA0 SHL SUB DUP4 DUP2 AND PUSH1 0x1 PUSH1 0x1 PUSH1 0xA0 SHL SUB NOT DUP4 AND DUP2 OR SWAP1 SWAP4 SSTORE PUSH1 0x40 MLOAD SWAP2 AND SWAP2 SWAP1 DUP3 SWAP1 PUSH32 0x8BE0079C531659141344CD1FD0A4F28419497F9722A3DAAFE3B4186F6B6457E0 SWAP1 PUSH1 0x0 SWAP1 LOG3 POP POP JUMP JUMPDEST PUSH1 0x1 PUSH1 0x1 PUSH1 0x80 SHL SUB DUP2 AND PUSH1 0x0 SWAP1 DUP2 MSTORE PUSH1 0xD PUSH1 0x20 MSTORE PUSH1 0x40 DUP2 KECCAK256 SLOAD PUSH1 0x1 PUSH1 0x1 PUSH1 0xA0 SHL SUB DUP5 DUP2 AND SWAP2 AND EQ DUP1 ISZERO PUSH2 0x16C1 JUMPI POP POP PUSH1 0x1 PUSH1 0x1 PUSH1 0x80 SHL SUB AND PUSH1 0x0 SWAP1 DUP2 MSTORE PUSH1 0xD PUSH1 0x20 MSTORE PUSH1 0x40 SWAP1 KECCAK256 PUSH1 0x1 ADD SLOAD NUMBER LT SWAP2 SWAP1 POP JUMP JUMPDEST PUSH1 0x0 DUP3 PUSH1 0x40 MLOAD PUSH1 0x20 ADD PUSH2 0x1F40 SWAP2 SWAP1 PUSH2 0x30C7 JUMP JUMPDEST PUSH1 0x40 DUP1 MLOAD PUSH1 0x1F NOT DUP2 DUP5 SUB ADD DUP2 MSTORE SWAP2 DUP2 MSTORE DUP2 MLOAD PUSH1 0x20 SWAP3 DUP4 ADD KECCAK256 PUSH1 0x1 PUSH1 0x1 PUSH1 0x80 SHL SUB SWAP1 SWAP7 AND PUSH1 0x0 SWAP1 DUP2 MSTORE PUSH1 0xE DUP4 MSTORE DUP2 DUP2 KECCAK256 SWAP7 DUP2 MSTORE SWAP6 SWAP1 SWAP2 MSTORE SWAP1 SWAP4 KECCAK256 DUP1 SLOAD PUSH1 0xFF SWAP1 SWAP3 AND PUSH1 0xFF NOT SWAP1 SWAP3 AND SWAP2 SWAP1 SWAP2 OR SWAP1 SSTORE POP POP JUMP JUMPDEST DUP2 PUSH1 0x1 PUSH1 0x1 PUSH1 0xA0 SHL SUB AND DUP4 PUSH1 0x1 PUSH1 0x1 PUSH1 0xA0 SHL SUB AND SUB PUSH2 0x1FF1 JUMPI PUSH1 0x40 MLOAD PUSH3 0x461BCD PUSH1 0xE5 SHL DUP2 MSTORE PUSH1 0x20 PUSH1 0x4 DUP3 ADD MSTORE PUSH1 0x19 PUSH1 0x24 DUP3 ADD MSTORE PUSH32 0x4552433732313A20617070726F766520746F2063616C6C657200000000000000 PUSH1 0x44 DUP3 ADD MSTORE PUSH1 0x64 ADD PUSH2 0x632 JUMP JUMPDEST PUSH1 0x1 PUSH1 0x1 PUSH1 0xA0 SHL SUB DUP4 DUP2 AND PUSH1 0x0 DUP2 DUP2 MSTORE PUSH1 0x5 PUSH1 0x20 SWAP1 DUP2 MSTORE PUSH1 0x40 DUP1 DUP4 KECCAK256 SWAP5 DUP8 AND DUP1 DUP5 MSTORE SWAP5 DUP3 MSTORE SWAP2 DUP3 SWAP1 KECCAK256 DUP1 SLOAD PUSH1 0xFF NOT AND DUP7 ISZERO ISZERO SWAP1 DUP2 OR SWAP1 SWAP2 SSTORE SWAP2 MLOAD SWAP2 DUP3 MSTORE PUSH32 0x17307EAB39AB6107E8899845AD3D59BD9653F200F220920489CA2B5937696C31 SWAP2 ADD PUSH1 0x40 MLOAD DUP1 SWAP2 SUB SWAP1 LOG3 POP POP POP JUMP JUMPDEST PUSH1 0xB SLOAD PUSH1 0xA SLOAD PUSH1 0x40 MLOAD PUSH1 0x24 DUP2 ADD DUP6 SWAP1 MSTORE PUSH1 0x1 PUSH1 0x1 PUSH1 0x60 SHL SUB NOT DUP5 AND PUSH1 0x44 DUP3 ADD MSTORE PUSH1 0x1 PUSH1 0x1 PUSH1 0xA0 SHL SUB SWAP1 SWAP3 AND SWAP2 PUSH4 0xBEA05EE3 SWAP2 PUSH1 0x60 SHL SWAP1 PUSH1 0x64 ADD PUSH1 0x40 DUP1 MLOAD PUSH1 0x1F NOT DUP2 DUP5 SUB ADD DUP2 MSTORE SWAP2 DUP2 MSTORE PUSH1 0x20 DUP3 ADD DUP1 MLOAD PUSH1 0x1 PUSH1 0x1 PUSH1 0xE0 SHL SUB AND PUSH4 0xA636DB7B PUSH1 0xE0 SHL OR SWAP1 MSTORE MLOAD PUSH1 0xE0 DUP5 SWAP1 SHL PUSH1 0x1 PUSH1 0x1 PUSH1 0xE0 SHL SUB NOT AND DUP2 MSTORE PUSH2 0x20E1 SWAP3 SWAP2 SWAP1 PUSH1 0x4 ADD PUSH2 0x311F JUMP JUMPDEST PUSH1 0x0 PUSH1 0x40 MLOAD DUP1 DUP4 SUB DUP2 PUSH1 0x0 DUP8 GAS CALL ISZERO DUP1 ISZERO PUSH2 0x2100 JUMPI RETURNDATASIZE PUSH1 0x0 DUP1 RETURNDATACOPY RETURNDATASIZE PUSH1 0x0 REVERT JUMPDEST POP POP POP POP PUSH1 0x40 MLOAD RETURNDATASIZE PUSH1 0x0 DUP3 RETURNDATACOPY PUSH1 0x1F RETURNDATASIZE SWAP1 DUP2 ADD PUSH1 0x1F NOT AND DUP3 ADD PUSH1 0x40 MSTORE PUSH2 0x6D3 SWAP2 SWAP1 DUP2 ADD SWAP1 PUSH2 0x3147 JUMP JUMPDEST PUSH2 0x2133 DUP5 DUP5 DUP5 PUSH2 0x1914 JUMP JUMPDEST PUSH2 0x213F DUP5 DUP5 DUP5 DUP5 PUSH2 0x23A3 JUMP JUMPDEST PUSH2 0x84C JUMPI PUSH1 0x40 MLOAD PUSH3 0x461BCD PUSH1 0xE5 SHL DUP2 MSTORE PUSH1 0x4 ADD PUSH2 0x632 SWAP1 PUSH2 0x326E JUMP JUMPDEST PUSH1 0x60 PUSH1 0x0 PUSH2 0x2168 DUP4 PUSH2 0x24A1 JUMP JUMPDEST PUSH1 0x1 ADD SWAP1 POP PUSH1 0x0 DUP2 PUSH8 0xFFFFFFFFFFFFFFFF DUP2 GT ISZERO PUSH2 0x2188 JUMPI PUSH2 0x2188 PUSH2 0x2A5C JUMP JUMPDEST PUSH1 0x40 MLOAD SWAP1 DUP1 DUP3 MSTORE DUP1 PUSH1 0x1F ADD PUSH1 0x1F NOT AND PUSH1 0x20 ADD DUP3 ADD PUSH1 0x40 MSTORE DUP1 ISZERO PUSH2 0x21B2 JUMPI PUSH1 0x20 DUP3 ADD DUP2 DUP1 CALLDATASIZE DUP4 CALLDATACOPY ADD SWAP1 POP JUMPDEST POP SWAP1 POP DUP2 DUP2 ADD PUSH1 0x20 ADD JUMPDEST PUSH1 0x0 NOT ADD PUSH16 0x181899199A1A9B1B9C1CB0B131B232B3 PUSH1 0x81 SHL PUSH1 0xA DUP7 MOD BYTE DUP2 MSTORE8 PUSH1 0xA DUP6 DIV SWAP5 POP DUP5 PUSH2 0x21BC JUMPI POP SWAP4 SWAP3 POP POP POP JUMP JUMPDEST DUP3 PUSH1 0x1 PUSH1 0x1 PUSH1 0xA0 SHL SUB AND PUSH2 0x2201 DUP3 PUSH2 0x10E9 JUMP JUMPDEST PUSH1 0x1 PUSH1 0x1 PUSH1 0xA0 SHL SUB AND EQ PUSH2 0x2227 JUMPI PUSH1 0x40 MLOAD PUSH3 0x461BCD PUSH1 0xE5 SHL DUP2 MSTORE PUSH1 0x4 ADD PUSH2 0x632 SWAP1 PUSH2 0x32C0 JUMP JUMPDEST PUSH1 0x1 PUSH1 0x1 PUSH1 0xA0 SHL SUB DUP3 AND PUSH2 0x2289 JUMPI PUSH1 0x40 MLOAD PUSH3 0x461BCD PUSH1 0xE5 SHL DUP2 MSTORE PUSH1 0x20 PUSH1 0x4 DUP3 ADD MSTORE PUSH1 0x24 DUP1 DUP3 ADD MSTORE PUSH32 0x4552433732313A207472616E7366657220746F20746865207A65726F20616464 PUSH1 0x44 DUP3 ADD MSTORE PUSH4 0x72657373 PUSH1 0xE0 SHL PUSH1 0x64 DUP3 ADD MSTORE PUSH1 0x84 ADD PUSH2 0x632 JUMP JUMPDEST DUP3 PUSH1 0x1 PUSH1 0x1 PUSH1 0xA0 SHL SUB AND PUSH2 0x229C DUP3 PUSH2 0x10E9 JUMP JUMPDEST PUSH1 0x1 PUSH1 0x1 PUSH1 0xA0 SHL SUB AND EQ PUSH2 0x22C2 JUMPI PUSH1 0x40 MLOAD PUSH3 0x461BCD PUSH1 0xE5 SHL DUP2 MSTORE PUSH1 0x4 ADD PUSH2 0x632 SWAP1 PUSH2 0x32C0 JUMP JUMPDEST PUSH1 0x0 DUP2 DUP2 MSTORE PUSH1 0x4 PUSH1 0x20 SWAP1 DUP2 MSTORE PUSH1 0x40 DUP1 DUP4 KECCAK256 DUP1 SLOAD PUSH1 0x1 PUSH1 0x1 PUSH1 0xA0 SHL SUB NOT SWAP1 DUP2 AND SWAP1 SWAP2 SSTORE PUSH1 0x1 PUSH1 0x1 PUSH1 0xA0 SHL SUB DUP8 DUP2 AND DUP1 DUP7 MSTORE PUSH1 0x3 DUP6 MSTORE DUP4 DUP7 KECCAK256 DUP1 SLOAD PUSH1 0x0 NOT ADD SWAP1 SSTORE SWAP1 DUP8 AND DUP1 DUP7 MSTORE DUP4 DUP7 KECCAK256 DUP1 SLOAD PUSH1 0x1 ADD SWAP1 SSTORE DUP7 DUP7 MSTORE PUSH1 0x2 SWAP1 SWAP5 MSTORE DUP3 DUP6 KECCAK256 DUP1 SLOAD SWAP1 SWAP3 AND DUP5 OR SWAP1 SWAP2 SSTORE SWAP1 MLOAD DUP5 SWAP4 PUSH32 0xDDF252AD1BE2C89B69C2B068FC378DAA952BA7F163C4A11628F55A4DF523B3EF SWAP2 LOG4 POP POP POP JUMP JUMPDEST PUSH1 0x0 PUSH2 0x4FF PUSH2 0x235F PUSH2 0x2579 JUMP JUMPDEST DUP4 PUSH1 0x40 MLOAD PUSH2 0x1901 PUSH1 0xF0 SHL DUP2 MSTORE PUSH1 0x2 DUP2 ADD SWAP3 SWAP1 SWAP3 MSTORE PUSH1 0x22 DUP3 ADD MSTORE PUSH1 0x42 SWAP1 KECCAK256 SWAP1 JUMP JUMPDEST PUSH1 0x0 DUP1 PUSH1 0x0 PUSH2 0x238E DUP6 DUP6 PUSH2 0x269D JUMP JUMPDEST SWAP2 POP SWAP2 POP PUSH2 0x239B DUP2 PUSH2 0x26E2 JUMP JUMPDEST POP SWAP4 SWAP3 POP POP POP JUMP JUMPDEST PUSH1 0x0 PUSH1 0x1 PUSH1 0x1 PUSH1 0xA0 SHL SUB DUP5 AND EXTCODESIZE ISZERO PUSH2 0x2499 JUMPI PUSH1 0x40 MLOAD PUSH4 0xA85BD01 PUSH1 0xE1 SHL DUP2 MSTORE PUSH1 0x1 PUSH1 0x1 PUSH1 0xA0 SHL SUB DUP6 AND SWAP1 PUSH4 0x150B7A02 SWAP1 PUSH2 0x23E7 SWAP1 CALLER SWAP1 DUP10 SWAP1 DUP9 SWAP1 DUP9 SWAP1 PUSH1 0x4 ADD PUSH2 0x3305 JUMP JUMPDEST PUSH1 0x20 PUSH1 0x40 MLOAD DUP1 DUP4 SUB DUP2 PUSH1 0x0 DUP8 GAS CALL SWAP3 POP POP POP DUP1 ISZERO PUSH2 0x2422 JUMPI POP PUSH1 0x40 DUP1 MLOAD PUSH1 0x1F RETURNDATASIZE SWAP1 DUP2 ADD PUSH1 0x1F NOT AND DUP3 ADD SWAP1 SWAP3 MSTORE PUSH2 0x241F SWAP2 DUP2 ADD SWAP1 PUSH2 0x3342 JUMP JUMPDEST PUSH1 0x1 JUMPDEST PUSH2 0x247F JUMPI RETURNDATASIZE DUP1 DUP1 ISZERO PUSH2 0x2450 JUMPI PUSH1 0x40 MLOAD SWAP2 POP PUSH1 0x1F NOT PUSH1 0x3F RETURNDATASIZE ADD AND DUP3 ADD PUSH1 0x40 MSTORE RETURNDATASIZE DUP3 MSTORE RETURNDATASIZE PUSH1 0x0 PUSH1 0x20 DUP5 ADD RETURNDATACOPY PUSH2 0x2455 JUMP JUMPDEST PUSH1 0x60 SWAP2 POP JUMPDEST POP DUP1 MLOAD PUSH1 0x0 SUB PUSH2 0x2477 JUMPI PUSH1 0x40 MLOAD PUSH3 0x461BCD PUSH1 0xE5 SHL DUP2 MSTORE PUSH1 0x4 ADD PUSH2 0x632 SWAP1 PUSH2 0x326E JUMP JUMPDEST DUP1 MLOAD DUP2 PUSH1 0x20 ADD REVERT JUMPDEST PUSH1 0x1 PUSH1 0x1 PUSH1 0xE0 SHL SUB NOT AND PUSH4 0xA85BD01 PUSH1 0xE1 SHL EQ SWAP1 POP PUSH2 0x190C JUMP JUMPDEST POP PUSH1 0x1 PUSH2 0x190C JUMP JUMPDEST PUSH1 0x0 DUP1 PUSH19 0x184F03E93FF9F4DAA797ED6E38ED64BF6A1F01 PUSH1 0x40 SHL DUP4 LT PUSH2 0x24E0 JUMPI PUSH19 0x184F03E93FF9F4DAA797ED6E38ED64BF6A1F01 PUSH1 0x40 SHL DUP4 DIV SWAP3 POP PUSH1 0x40 ADD JUMPDEST PUSH14 0x4EE2D6D415B85ACEF8100000000 DUP4 LT PUSH2 0x250C JUMPI PUSH14 0x4EE2D6D415B85ACEF8100000000 DUP4 DIV SWAP3 POP PUSH1 0x20 ADD JUMPDEST PUSH7 0x2386F26FC10000 DUP4 LT PUSH2 0x252A JUMPI PUSH7 0x2386F26FC10000 DUP4 DIV SWAP3 POP PUSH1 0x10 ADD JUMPDEST PUSH4 0x5F5E100 DUP4 LT PUSH2 0x2542 JUMPI PUSH4 0x5F5E100 DUP4 DIV SWAP3 POP PUSH1 0x8 ADD JUMPDEST PUSH2 0x2710 DUP4 LT PUSH2 0x2556 JUMPI PUSH2 0x2710 DUP4 DIV SWAP3 POP PUSH1 0x4 ADD JUMPDEST PUSH1 0x64 DUP4 LT PUSH2 0x2568 JUMPI PUSH1 0x64 DUP4 DIV SWAP3 POP PUSH1 0x2 ADD JUMPDEST PUSH1 0xA DUP4 LT PUSH2 0x4FF JUMPI PUSH1 0x1 ADD SWAP3 SWAP2 POP POP JUMP JUMPDEST PUSH1 0x0 PUSH1 0x1 PUSH1 0x1 PUSH1 0xA0 SHL SUB PUSH32 0x0 AND ADDRESS SUB PUSH2 0x25D0 JUMPI POP PUSH32 0x0 SWAP1 JUMP JUMPDEST PUSH2 0x2698 PUSH1 0x40 DUP1 MLOAD PUSH32 0x8B73C3C69BB8FE3D512ECC4CF759CC79239F7B179B0FFACAA9A75D522B39400F PUSH1 0x20 DUP3 ADD MSTORE PUSH32 0x0 SWAP2 DUP2 ADD SWAP2 SWAP1 SWAP2 MSTORE PUSH32 0x0 PUSH1 0x60 DUP3 ADD MSTORE PUSH32 0x0 PUSH1 0x80 DUP3 ADD MSTORE ADDRESS PUSH1 0xA0 DUP3 ADD MSTORE PUSH1 0x0 SWAP1 PUSH1 0xC0 ADD PUSH1 0x40 MLOAD PUSH1 0x20 DUP2 DUP4 SUB SUB DUP2 MSTORE SWAP1 PUSH1 0x40 MSTORE DUP1 MLOAD SWAP1 PUSH1 0x20 ADD KECCAK256 SWAP1 POP SWAP1 JUMP JUMPDEST SWAP1 POP SWAP1 JUMP JUMPDEST PUSH1 0x0 DUP1 DUP3 MLOAD PUSH1 0x41 SUB PUSH2 0x26D3 JUMPI PUSH1 0x20 DUP4 ADD MLOAD PUSH1 0x40 DUP5 ADD MLOAD PUSH1 0x60 DUP6 ADD MLOAD PUSH1 0x0 BYTE PUSH2 0x26C7 DUP8 DUP3 DUP6 DUP6 PUSH2 0x282C JUMP JUMPDEST SWAP5 POP SWAP5 POP POP POP POP PUSH2 0x26DB JUMP JUMPDEST POP PUSH1 0x0 SWAP1 POP PUSH1 0x2 JUMPDEST SWAP3 POP SWAP3 SWAP1 POP JUMP JUMPDEST PUSH1 0x0 DUP2 PUSH1 0x4 DUP2 GT ISZERO PUSH2 0x26F6 JUMPI PUSH2 0x26F6 PUSH2 0x335F JUMP JUMPDEST SUB PUSH2 0x26FE JUMPI POP JUMP JUMPDEST PUSH1 0x1 DUP2 PUSH1 0x4 DUP2 GT ISZERO PUSH2 0x2712 JUMPI PUSH2 0x2712 PUSH2 0x335F JUMP JUMPDEST SUB PUSH2 0x275F JUMPI PUSH1 0x40 MLOAD PUSH3 0x461BCD PUSH1 0xE5 SHL DUP2 MSTORE PUSH1 0x20 PUSH1 0x4 DUP3 ADD MSTORE PUSH1 0x18 PUSH1 0x24 DUP3 ADD MSTORE PUSH32 0x45434453413A20696E76616C6964207369676E61747572650000000000000000 PUSH1 0x44 DUP3 ADD MSTORE PUSH1 0x64 ADD PUSH2 0x632 JUMP JUMPDEST PUSH1 0x2 DUP2 PUSH1 0x4 DUP2 GT ISZERO PUSH2 0x2773 JUMPI PUSH2 0x2773 PUSH2 0x335F JUMP JUMPDEST SUB PUSH2 0x27C0 JUMPI PUSH1 0x40 MLOAD PUSH3 0x461BCD PUSH1 0xE5 SHL DUP2 MSTORE PUSH1 0x20 PUSH1 0x4 DUP3 ADD MSTORE PUSH1 0x1F PUSH1 0x24 DUP3 ADD MSTORE PUSH32 0x45434453413A20696E76616C6964207369676E6174757265206C656E67746800 PUSH1 0x44 DUP3 ADD MSTORE PUSH1 0x64 ADD PUSH2 0x632 JUMP JUMPDEST PUSH1 0x3 DUP2 PUSH1 0x4 DUP2 GT ISZERO PUSH2 0x27D4 JUMPI PUSH2 0x27D4 PUSH2 0x335F JUMP JUMPDEST SUB PUSH2 0x17C5 JUMPI PUSH1 0x40 MLOAD PUSH3 0x461BCD PUSH1 0xE5 SHL DUP2 MSTORE PUSH1 0x20 PUSH1 0x4 DUP3 ADD MSTORE PUSH1 0x22 PUSH1 0x24 DUP3 ADD MSTORE PUSH32 0x45434453413A20696E76616C6964207369676E6174757265202773272076616C PUSH1 0x44 DUP3 ADD MSTORE PUSH2 0x7565 PUSH1 0xF0 SHL PUSH1 0x64 DUP3 ADD MSTORE PUSH1 0x84 ADD PUSH2 0x632 JUMP JUMPDEST PUSH1 0x0 DUP1 PUSH32 0x7FFFFFFFFFFFFFFFFFFFFFFFFFFFFFFF5D576E7357A4501DDFE92F46681B20A0 DUP4 GT ISZERO PUSH2 0x2863 JUMPI POP PUSH1 0x0 SWAP1 POP PUSH1 0x3 PUSH2 0x28E7 JUMP JUMPDEST PUSH1 0x40 DUP1 MLOAD PUSH1 0x0 DUP1 DUP3 MSTORE PUSH1 0x20 DUP3 ADD DUP1 DUP5 MSTORE DUP10 SWAP1 MSTORE PUSH1 0xFF DUP9 AND SWAP3 DUP3 ADD SWAP3 SWAP1 SWAP3 MSTORE PUSH1 0x60 DUP2 ADD DUP7 SWAP1 MSTORE PUSH1 0x80 DUP2 ADD DUP6 SWAP1 MSTORE PUSH1 0x1 SWAP1 PUSH1 0xA0 ADD PUSH1 0x20 PUSH1 0x40 MLOAD PUSH1 0x20 DUP2 SUB SWAP1 DUP1 DUP5 SUB SWAP1 DUP6 GAS STATICCALL ISZERO DUP1 ISZERO PUSH2 0x28B7 JUMPI RETURNDATASIZE PUSH1 0x0 DUP1 RETURNDATACOPY RETURNDATASIZE PUSH1 0x0 REVERT JUMPDEST POP POP PUSH1 0x40 MLOAD PUSH1 0x1F NOT ADD MLOAD SWAP2 POP POP PUSH1 0x1 PUSH1 0x1 PUSH1 0xA0 SHL SUB DUP2 AND PUSH2 0x28E0 JUMPI PUSH1 0x0 PUSH1 0x1 SWAP3 POP SWAP3 POP POP PUSH2 0x28E7 JUMP JUMPDEST SWAP2 POP PUSH1 0x0 SWAP1 POP JUMPDEST SWAP5 POP SWAP5 SWAP3 POP POP POP JUMP JUMPDEST PUSH1 0x1 PUSH1 0x1 PUSH1 0xE0 SHL SUB NOT DUP2 AND DUP2 EQ PUSH2 0x17C5 JUMPI PUSH1 0x0 DUP1 REVERT JUMPDEST PUSH1 0x0 PUSH1 0x20 DUP3 DUP5 SUB SLT ISZERO PUSH2 0x2918 JUMPI PUSH1 0x0 DUP1 REVERT JUMPDEST DUP2 CALLDATALOAD PUSH2 0x16C1 DUP2 PUSH2 0x28F0 JUMP JUMPDEST PUSH1 0x0 JUMPDEST DUP4 DUP2 LT ISZERO PUSH2 0x293E JUMPI DUP2 DUP2 ADD MLOAD DUP4 DUP3 ADD MSTORE PUSH1 0x20 ADD PUSH2 0x2926 JUMP JUMPDEST DUP4 DUP2 GT ISZERO PUSH2 0x84C JUMPI POP POP PUSH1 0x0 SWAP2 ADD MSTORE JUMP JUMPDEST PUSH1 0x0 DUP2 MLOAD DUP1 DUP5 MSTORE PUSH2 0x2967 DUP2 PUSH1 0x20 DUP7 ADD PUSH1 0x20 DUP7 ADD PUSH2 0x2923 JUMP JUMPDEST PUSH1 0x1F ADD PUSH1 0x1F NOT AND SWAP3 SWAP1 SWAP3 ADD PUSH1 0x20 ADD SWAP3 SWAP2 POP POP JUMP JUMPDEST PUSH1 0x20 DUP2 MSTORE PUSH1 0x0 PUSH2 0x16C1 PUSH1 0x20 DUP4 ADD DUP5 PUSH2 0x294F JUMP JUMPDEST PUSH1 0x0 PUSH1 0x20 DUP3 DUP5 SUB SLT ISZERO PUSH2 0x29A0 JUMPI PUSH1 0x0 DUP1 REVERT JUMPDEST POP CALLDATALOAD SWAP2 SWAP1 POP JUMP JUMPDEST DUP1 CALLDATALOAD PUSH1 0x1 PUSH1 0x1 PUSH1 0xA0 SHL SUB DUP2 AND DUP2 EQ PUSH2 0x29BE JUMPI PUSH1 0x0 DUP1 REVERT JUMPDEST SWAP2 SWAP1 POP JUMP JUMPDEST PUSH1 0x0 DUP1 PUSH1 0x40 DUP4 DUP6 SUB SLT ISZERO PUSH2 0x29D6 JUMPI PUSH1 0x0 DUP1 REVERT JUMPDEST PUSH2 0x29DF DUP4 PUSH2 0x29A7 JUMP JUMPDEST SWAP5 PUSH1 0x20 SWAP4 SWAP1 SWAP4 ADD CALLDATALOAD SWAP4 POP POP POP JUMP JUMPDEST PUSH1 0x0 DUP1 PUSH1 0x0 PUSH1 0x60 DUP5 DUP7 SUB SLT ISZERO PUSH2 0x2A02 JUMPI PUSH1 0x0 DUP1 REVERT JUMPDEST PUSH2 0x2A0B DUP5 PUSH2 0x29A7 JUMP JUMPDEST SWAP3 POP PUSH2 0x2A19 PUSH1 0x20 DUP6 ADD PUSH2 0x29A7 JUMP JUMPDEST SWAP2 POP PUSH1 0x40 DUP5 ADD CALLDATALOAD SWAP1 POP SWAP3 POP SWAP3 POP SWAP3 JUMP JUMPDEST DUP1 CALLDATALOAD PUSH1 0x1 PUSH1 0x1 PUSH1 0x60 SHL SUB NOT DUP2 AND DUP2 EQ PUSH2 0x29BE JUMPI PUSH1 0x0 DUP1 REVERT JUMPDEST PUSH1 0x0 PUSH1 0x20 DUP3 DUP5 SUB SLT ISZERO PUSH2 0x2A53 JUMPI PUSH1 0x0 DUP1 REVERT JUMPDEST PUSH2 0x16C1 DUP3 PUSH2 0x2A29 JUMP JUMPDEST PUSH4 0x4E487B71 PUSH1 0xE0 SHL PUSH1 0x0 MSTORE PUSH1 0x41 PUSH1 0x4 MSTORE PUSH1 0x24 PUSH1 0x0 REVERT JUMPDEST PUSH1 0x40 MLOAD PUSH1 0x1F DUP3 ADD PUSH1 0x1F NOT AND DUP2 ADD PUSH8 0xFFFFFFFFFFFFFFFF DUP2 GT DUP3 DUP3 LT OR ISZERO PUSH2 0x2A9B JUMPI PUSH2 0x2A9B PUSH2 0x2A5C JUMP JUMPDEST PUSH1 0x40 MSTORE SWAP2 SWAP1 POP JUMP JUMPDEST PUSH1 0x0 PUSH8 0xFFFFFFFFFFFFFFFF DUP3 GT ISZERO PUSH2 0x2ABD JUMPI PUSH2 0x2ABD PUSH2 0x2A5C JUMP JUMPDEST POP PUSH1 0x1F ADD PUSH1 0x1F NOT AND PUSH1 0x20 ADD SWAP1 JUMP JUMPDEST PUSH1 0x0 DUP3 PUSH1 0x1F DUP4 ADD SLT PUSH2 0x2ADC JUMPI PUSH1 0x0 DUP1 REVERT JUMPDEST DUP2 CALLDATALOAD PUSH2 0x2AEF PUSH2 0x2AEA DUP3 PUSH2 0x2AA3 JUMP JUMPDEST PUSH2 0x2A72 JUMP JUMPDEST DUP2 DUP2 MSTORE DUP5 PUSH1 0x20 DUP4 DUP7 ADD ADD GT ISZERO PUSH2 0x2B04 JUMPI PUSH1 0x0 DUP1 REVERT JUMPDEST DUP2 PUSH1 0x20 DUP6 ADD PUSH1 0x20 DUP4 ADD CALLDATACOPY PUSH1 0x0 SWAP2 DUP2 ADD PUSH1 0x20 ADD SWAP2 SWAP1 SWAP2 MSTORE SWAP4 SWAP3 POP POP POP JUMP JUMPDEST PUSH1 0x0 DUP1 PUSH1 0x0 DUP1 PUSH1 0x80 DUP6 DUP8 SUB SLT ISZERO PUSH2 0x2B37 JUMPI PUSH1 0x0 DUP1 REVERT JUMPDEST PUSH2 0x2B40 DUP6 PUSH2 0x2A29 JUMP JUMPDEST SWAP4 POP PUSH1 0x20 DUP6 ADD CALLDATALOAD SWAP3 POP PUSH2 0x2B55 PUSH1 0x40 DUP7 ADD PUSH2 0x29A7 JUMP JUMPDEST SWAP2 POP PUSH1 0x60 DUP6 ADD CALLDATALOAD PUSH8 0xFFFFFFFFFFFFFFFF DUP2 GT ISZERO PUSH2 0x2B71 JUMPI PUSH1 0x0 DUP1 REVERT JUMPDEST PUSH2 0x2B7D DUP8 DUP3 DUP9 ADD PUSH2 0x2ACB JUMP JUMPDEST SWAP2 POP POP SWAP3 SWAP6 SWAP2 SWAP5 POP SWAP3 POP JUMP JUMPDEST DUP1 CALLDATALOAD PUSH1 0x1 PUSH1 0x1 PUSH1 0x80 SHL SUB DUP2 AND DUP2 EQ PUSH2 0x29BE JUMPI PUSH1 0x0 DUP1 REVERT JUMPDEST DUP1 CALLDATALOAD PUSH1 0xFF DUP2 AND DUP2 EQ PUSH2 0x29BE JUMPI PUSH1 0x0 DUP1 REVERT JUMPDEST PUSH1 0x0 DUP1 PUSH1 0x0 DUP1 PUSH1 0x0 DUP6 DUP8 SUB PUSH1 0xE0 DUP2 SLT ISZERO PUSH2 0x2BCA JUMPI PUSH1 0x0 DUP1 REVERT JUMPDEST PUSH2 0x2BD3 DUP8 PUSH2 0x2B89 JUMP JUMPDEST SWAP6 POP PUSH1 0x20 DUP8 ADD CALLDATALOAD PUSH8 0xFFFFFFFFFFFFFFFF DUP1 DUP3 GT ISZERO PUSH2 0x2BF0 JUMPI PUSH1 0x0 DUP1 REVERT JUMPDEST PUSH2 0x2BFC DUP11 DUP4 DUP12 ADD PUSH2 0x2ACB JUMP JUMPDEST SWAP7 POP PUSH2 0x2C0A PUSH1 0x40 DUP11 ADD PUSH2 0x29A7 JUMP JUMPDEST SWAP6 POP PUSH2 0x2C18 PUSH1 0x60 DUP11 ADD PUSH2 0x2A29 JUMP JUMPDEST SWAP5 POP PUSH1 0x60 PUSH1 0x7F NOT DUP5 ADD SLT ISZERO PUSH2 0x2C2C JUMPI PUSH1 0x0 DUP1 REVERT JUMPDEST PUSH1 0x40 MLOAD SWAP3 POP PUSH1 0x60 DUP4 ADD SWAP2 POP DUP3 DUP3 LT DUP2 DUP4 GT OR ISZERO PUSH2 0x2C4B JUMPI PUSH2 0x2C4B PUSH2 0x2A5C JUMP JUMPDEST POP PUSH1 0x40 MSTORE PUSH2 0x2C5B PUSH1 0x80 DUP9 ADD PUSH2 0x2BA0 JUMP JUMPDEST DUP2 MSTORE PUSH1 0xA0 DUP8 ADD CALLDATALOAD PUSH1 0x20 DUP3 ADD MSTORE PUSH1 0xC0 SWAP1 SWAP7 ADD CALLDATALOAD PUSH1 0x40 DUP8 ADD MSTORE POP SWAP3 SWAP6 SWAP2 SWAP5 POP SWAP3 SWAP1 JUMP JUMPDEST PUSH1 0x0 DUP1 PUSH1 0x0 PUSH1 0x60 DUP5 DUP7 SUB SLT ISZERO PUSH2 0x2C91 JUMPI PUSH1 0x0 DUP1 REVERT JUMPDEST PUSH2 0x2C9A DUP5 PUSH2 0x2B89 JUMP JUMPDEST SWAP3 POP PUSH2 0x2CA8 PUSH1 0x20 DUP6 ADD PUSH2 0x29A7 JUMP JUMPDEST SWAP2 POP PUSH2 0x2CB6 PUSH1 0x40 DUP6 ADD PUSH2 0x2BA0 JUMP JUMPDEST SWAP1 POP SWAP3 POP SWAP3 POP SWAP3 JUMP JUMPDEST PUSH1 0x0 PUSH1 0x20 DUP3 DUP5 SUB SLT ISZERO PUSH2 0x2CD1 JUMPI PUSH1 0x0 DUP1 REVERT JUMPDEST PUSH2 0x16C1 DUP3 PUSH2 0x29A7 JUMP JUMPDEST PUSH1 0xFF PUSH1 0xF8 SHL DUP9 AND DUP2 MSTORE PUSH1 0x0 PUSH1 0x20 PUSH1 0xE0 DUP2 DUP5 ADD MSTORE PUSH2 0x2CFA PUSH1 0xE0 DUP5 ADD DUP11 PUSH2 0x294F JUMP JUMPDEST DUP4 DUP2 SUB PUSH1 0x40 DUP6 ADD MSTORE PUSH2 0x2D0C DUP2 DUP11 PUSH2 0x294F JUMP JUMPDEST PUSH1 0x60 DUP6 ADD DUP10 SWAP1 MSTORE PUSH1 0x1 PUSH1 0x1 PUSH1 0xA0 SHL SUB DUP9 AND PUSH1 0x80 DUP7 ADD MSTORE PUSH1 0xA0 DUP6 ADD DUP8 SWAP1 MSTORE DUP5 DUP2 SUB PUSH1 0xC0 DUP7 ADD MSTORE DUP6 MLOAD DUP1 DUP3 MSTORE DUP4 DUP8 ADD SWAP3 POP SWAP1 DUP4 ADD SWAP1 PUSH1 0x0 JUMPDEST DUP2 DUP2 LT ISZERO PUSH2 0x2D5E JUMPI DUP4 MLOAD DUP4 MSTORE SWAP3 DUP5 ADD SWAP3 SWAP2 DUP5 ADD SWAP2 PUSH1 0x1 ADD PUSH2 0x2D42 JUMP JUMPDEST POP SWAP1 SWAP13 SWAP12 POP POP POP POP POP POP POP POP POP POP POP POP JUMP JUMPDEST PUSH1 0x0 PUSH8 0xFFFFFFFFFFFFFFFF DUP3 GT ISZERO PUSH2 0x2D8A JUMPI PUSH2 0x2D8A PUSH2 0x2A5C JUMP JUMPDEST POP PUSH1 0x5 SHL PUSH1 0x20 ADD SWAP1 JUMP JUMPDEST PUSH1 0x0 DUP3 PUSH1 0x1F DUP4 ADD SLT PUSH2 0x2DA5 JUMPI PUSH1 0x0 DUP1 REVERT JUMPDEST DUP2 CALLDATALOAD PUSH1 0x20 PUSH2 0x2DB5 PUSH2 0x2AEA DUP4 PUSH2 0x2D70 JUMP JUMPDEST DUP3 DUP2 MSTORE PUSH1 0x5 SWAP3 SWAP1 SWAP3 SHL DUP5 ADD DUP2 ADD SWAP2 DUP2 DUP2 ADD SWAP1 DUP7 DUP5 GT ISZERO PUSH2 0x2DD4 JUMPI PUSH1 0x0 DUP1 REVERT JUMPDEST DUP3 DUP7 ADD JUMPDEST DUP5 DUP2 LT ISZERO PUSH2 0x2DF6 JUMPI PUSH2 0x2DE9 DUP2 PUSH2 0x2BA0 JUMP JUMPDEST DUP4 MSTORE SWAP2 DUP4 ADD SWAP2 DUP4 ADD PUSH2 0x2DD8 JUMP JUMPDEST POP SWAP7 SWAP6 POP POP POP POP POP POP JUMP JUMPDEST PUSH1 0x0 DUP1 PUSH1 0x0 PUSH1 0x60 DUP5 DUP7 SUB SLT ISZERO PUSH2 0x2E16 JUMPI PUSH1 0x0 DUP1 REVERT JUMPDEST PUSH2 0x2E1F DUP5 PUSH2 0x2B89 JUMP JUMPDEST SWAP3 POP PUSH1 0x20 DUP1 DUP6 ADD CALLDATALOAD PUSH8 0xFFFFFFFFFFFFFFFF DUP1 DUP3 GT ISZERO PUSH2 0x2E3D JUMPI PUSH1 0x0 DUP1 REVERT JUMPDEST DUP2 DUP8 ADD SWAP2 POP DUP8 PUSH1 0x1F DUP4 ADD SLT PUSH2 0x2E51 JUMPI PUSH1 0x0 DUP1 REVERT JUMPDEST DUP2 CALLDATALOAD PUSH2 0x2E5F PUSH2 0x2AEA DUP3 PUSH2 0x2D70 JUMP JUMPDEST DUP2 DUP2 MSTORE PUSH1 0x5 SWAP2 SWAP1 SWAP2 SHL DUP4 ADD DUP5 ADD SWAP1 DUP5 DUP2 ADD SWAP1 DUP11 DUP4 GT ISZERO PUSH2 0x2E7E JUMPI PUSH1 0x0 DUP1 REVERT JUMPDEST DUP6 DUP6 ADD JUMPDEST DUP4 DUP2 LT ISZERO PUSH2 0x2EB6 JUMPI DUP1 CALLDATALOAD DUP6 DUP2 GT ISZERO PUSH2 0x2E9A JUMPI PUSH1 0x0 DUP1 DUP2 REVERT JUMPDEST PUSH2 0x2EA8 DUP14 DUP10 DUP4 DUP11 ADD ADD PUSH2 0x2ACB JUMP JUMPDEST DUP5 MSTORE POP SWAP2 DUP7 ADD SWAP2 DUP7 ADD PUSH2 0x2E82 JUMP JUMPDEST POP SWAP7 POP POP POP PUSH1 0x40 DUP8 ADD CALLDATALOAD SWAP3 POP DUP1 DUP4 GT ISZERO PUSH2 0x2ECF JUMPI PUSH1 0x0 DUP1 REVERT JUMPDEST POP POP PUSH2 0x2EDD DUP7 DUP3 DUP8 ADD PUSH2 0x2D94 JUMP JUMPDEST SWAP2 POP POP SWAP3 POP SWAP3 POP SWAP3 JUMP JUMPDEST PUSH1 0x0 DUP1 PUSH1 0x40 DUP4 DUP6 SUB SLT ISZERO PUSH2 0x2EFA JUMPI PUSH1 0x0 DUP1 REVERT JUMPDEST PUSH2 0x2F03 DUP4 PUSH2 0x29A7 JUMP JUMPDEST SWAP2 POP PUSH1 0x20 DUP4 ADD CALLDATALOAD DUP1 ISZERO ISZERO DUP2 EQ PUSH2 0x2F18 JUMPI PUSH1 0x0 DUP1 REVERT JUMPDEST DUP1 SWAP2 POP POP SWAP3 POP SWAP3 SWAP1 POP JUMP JUMPDEST PUSH1 0x0 DUP1 PUSH1 0x40 DUP4 DUP6 SUB SLT ISZERO PUSH2 0x2F36 JUMPI PUSH1 0x0 DUP1 REVERT JUMPDEST DUP3 CALLDATALOAD SWAP2 POP PUSH2 0x2F46 PUSH1 0x20 DUP5 ADD PUSH2 0x2A29 JUMP JUMPDEST SWAP1 POP SWAP3 POP SWAP3 SWAP1 POP JUMP JUMPDEST PUSH1 0x0 DUP1 PUSH1 0x0 DUP1 PUSH1 0x80 DUP6 DUP8 SUB SLT ISZERO PUSH2 0x2F65 JUMPI PUSH1 0x0 DUP1 REVERT JUMPDEST PUSH2 0x2F6E DUP6 PUSH2 0x29A7 JUMP JUMPDEST SWAP4 POP PUSH2 0x2F7C PUSH1 0x20 DUP7 ADD PUSH2 0x29A7 JUMP JUMPDEST SWAP3 POP PUSH1 0x40 DUP6 ADD CALLDATALOAD SWAP2 POP PUSH1 0x60 DUP6 ADD CALLDATALOAD PUSH8 0xFFFFFFFFFFFFFFFF DUP2 GT ISZERO PUSH2 0x2B71 JUMPI PUSH1 0x0 DUP1 REVERT JUMPDEST PUSH1 0x0 DUP1 PUSH1 0x40 DUP4 DUP6 SUB SLT ISZERO PUSH2 0x2FB2 JUMPI PUSH1 0x0 DUP1 REVERT JUMPDEST PUSH2 0x2FBB DUP4 PUSH2 0x29A7 JUMP JUMPDEST SWAP2 POP PUSH2 0x2F46 PUSH1 0x20 DUP5 ADD PUSH2 0x2A29 JUMP JUMPDEST PUSH1 0x0 DUP1 PUSH1 0x40 DUP4 DUP6 SUB SLT ISZERO PUSH2 0x2FDC JUMPI PUSH1 0x0 DUP1 REVERT JUMPDEST PUSH2 0x2FE5 DUP4 PUSH2 0x29A7 JUMP JUMPDEST SWAP2 POP PUSH2 0x2F46 PUSH1 0x20 DUP5 ADD PUSH2 0x29A7 JUMP JUMPDEST PUSH1 0x0 DUP1 PUSH1 0x0 PUSH1 0x60 DUP5 DUP7 SUB SLT ISZERO PUSH2 0x3008 JUMPI PUSH1 0x0 DUP1 REVERT JUMPDEST PUSH2 0x3011 DUP5 PUSH2 0x2A29 JUMP JUMPDEST SWAP3 POP PUSH1 0x20 DUP5 ADD CALLDATALOAD SWAP2 POP PUSH1 0x40 DUP5 ADD CALLDATALOAD PUSH8 0xFFFFFFFFFFFFFFFF DUP2 GT ISZERO PUSH2 0x3034 JUMPI PUSH1 0x0 DUP1 REVERT JUMPDEST PUSH2 0x2EDD DUP7 DUP3 DUP8 ADD PUSH2 0x2ACB JUMP JUMPDEST PUSH1 0x1 DUP2 DUP2 SHR SWAP1 DUP3 AND DUP1 PUSH2 0x3054 JUMPI PUSH1 0x7F DUP3 AND SWAP2 POP JUMPDEST PUSH1 0x20 DUP3 LT DUP2 SUB PUSH2 0x3074 JUMPI PUSH4 0x4E487B71 PUSH1 0xE0 SHL PUSH1 0x0 MSTORE PUSH1 0x22 PUSH1 0x4 MSTORE PUSH1 0x24 PUSH1 0x0 REVERT JUMPDEST POP SWAP2 SWAP1 POP JUMP JUMPDEST PUSH1 0x20 DUP1 DUP3 MSTORE PUSH1 0x2D SWAP1 DUP3 ADD MSTORE PUSH32 0x4552433732313A2063616C6C6572206973206E6F7420746F6B656E206F776E65 PUSH1 0x40 DUP3 ADD MSTORE PUSH13 0x1C881BDC88185C1C1C9BDD9959 PUSH1 0x9A SHL PUSH1 0x60 DUP3 ADD MSTORE PUSH1 0x80 ADD SWAP1 JUMP JUMPDEST PUSH1 0x0 DUP3 MLOAD PUSH2 0x30D9 DUP2 DUP5 PUSH1 0x20 DUP8 ADD PUSH2 0x2923 JUMP JUMPDEST SWAP2 SWAP1 SWAP2 ADD SWAP3 SWAP2 POP POP JUMP JUMPDEST PUSH4 0x4E487B71 PUSH1 0xE0 SHL PUSH1 0x0 MSTORE PUSH1 0x11 PUSH1 0x4 MSTORE PUSH1 0x24 PUSH1 0x0 REVERT JUMPDEST PUSH1 0x0 PUSH2 0xFFFF DUP1 DUP4 AND DUP2 DUP6 AND DUP1 DUP4 SUB DUP3 GT ISZERO PUSH2 0x3116 JUMPI PUSH2 0x3116 PUSH2 0x30E3 JUMP JUMPDEST ADD SWAP5 SWAP4 POP POP POP POP JUMP JUMPDEST PUSH12 0xFFFFFFFFFFFFFFFFFFFFFFFF NOT DUP4 AND DUP2 MSTORE PUSH1 0x40 PUSH1 0x20 DUP3 ADD MSTORE PUSH1 0x0 PUSH2 0x190C PUSH1 0x40 DUP4 ADD DUP5 PUSH2 0x294F JUMP JUMPDEST PUSH1 0x0 PUSH1 0x20 DUP3 DUP5 SUB SLT ISZERO PUSH2 0x3159 JUMPI PUSH1 0x0 DUP1 REVERT JUMPDEST DUP2 MLOAD PUSH8 0xFFFFFFFFFFFFFFFF DUP2 GT ISZERO PUSH2 0x3170 JUMPI PUSH1 0x0 DUP1 REVERT JUMPDEST DUP3 ADD PUSH1 0x1F DUP2 ADD DUP5 SGT PUSH2 0x3181 JUMPI PUSH1 0x0 DUP1 REVERT JUMPDEST DUP1 MLOAD PUSH2 0x318F PUSH2 0x2AEA DUP3 PUSH2 0x2AA3 JUMP JUMPDEST DUP2 DUP2 MSTORE DUP6 PUSH1 0x20 DUP4 DUP6 ADD ADD GT ISZERO PUSH2 0x31A4 JUMPI PUSH1 0x0 DUP1 REVERT JUMPDEST PUSH2 0x31B5 DUP3 PUSH1 0x20 DUP4 ADD PUSH1 0x20 DUP7 ADD PUSH2 0x2923 JUMP JUMPDEST SWAP6 SWAP5 POP POP POP POP POP JUMP JUMPDEST DUP1 MLOAD PUSH1 0x20 DUP1 DUP4 ADD MLOAD SWAP2 SWAP1 DUP2 LT ISZERO PUSH2 0x3074 JUMPI PUSH1 0x0 NOT PUSH1 0x20 SWAP2 SWAP1 SWAP2 SUB PUSH1 0x3 SHL SHL AND SWAP2 SWAP1 POP JUMP JUMPDEST PUSH1 0x0 DUP3 NOT DUP3 GT ISZERO PUSH2 0x31F5 JUMPI PUSH2 0x31F5 PUSH2 0x30E3 JUMP JUMPDEST POP ADD SWAP1 JUMP JUMPDEST PUSH4 0x4E487B71 PUSH1 0xE0 SHL PUSH1 0x0 MSTORE PUSH1 0x32 PUSH1 0x4 MSTORE PUSH1 0x24 PUSH1 0x0 REVERT JUMPDEST PUSH1 0x0 PUSH1 0x1 DUP3 ADD PUSH2 0x3222 JUMPI PUSH2 0x3222 PUSH2 0x30E3 JUMP JUMPDEST POP PUSH1 0x1 ADD SWAP1 JUMP JUMPDEST PUSH1 0x0 DUP4 MLOAD PUSH2 0x323B DUP2 DUP5 PUSH1 0x20 DUP9 ADD PUSH2 0x2923 JUMP JUMPDEST DUP4 MLOAD SWAP1 DUP4 ADD SWAP1 PUSH2 0x3116 DUP2 DUP4 PUSH1 0x20 DUP9 ADD PUSH2 0x2923 JUMP JUMPDEST PUSH1 0x0 DUP2 PUSH1 0x0 NOT DIV DUP4 GT DUP3 ISZERO ISZERO AND ISZERO PUSH2 0x3269 JUMPI PUSH2 0x3269 PUSH2 0x30E3 JUMP JUMPDEST POP MUL SWAP1 JUMP JUMPDEST PUSH1 0x20 DUP1 DUP3 MSTORE PUSH1 0x32 SWAP1 DUP3 ADD MSTORE PUSH32 0x4552433732313A207472616E7366657220746F206E6F6E204552433732315265 PUSH1 0x40 DUP3 ADD MSTORE PUSH18 0x31B2B4BB32B91034B6B83632B6B2B73A32B9 PUSH1 0x71 SHL PUSH1 0x60 DUP3 ADD MSTORE PUSH1 0x80 ADD SWAP1 JUMP JUMPDEST PUSH1 0x20 DUP1 DUP3 MSTORE PUSH1 0x25 SWAP1 DUP3 ADD MSTORE PUSH32 0x4552433732313A207472616E736665722066726F6D20696E636F727265637420 PUSH1 0x40 DUP3 ADD MSTORE PUSH5 0x37BBB732B9 PUSH1 0xD9 SHL PUSH1 0x60 DUP3 ADD MSTORE PUSH1 0x80 ADD SWAP1 JUMP JUMPDEST PUSH1 0x1 PUSH1 0x1 PUSH1 0xA0 SHL SUB DUP6 DUP2 AND DUP3 MSTORE DUP5 AND PUSH1 0x20 DUP3 ADD MSTORE PUSH1 0x40 DUP2 ADD DUP4 SWAP1 MSTORE PUSH1 0x80 PUSH1 0x60 DUP3 ADD DUP2 SWAP1 MSTORE PUSH1 0x0 SWAP1 PUSH2 0x3338 SWAP1 DUP4 ADD DUP5 PUSH2 0x294F JUMP JUMPDEST SWAP7 SWAP6 POP POP POP POP POP POP JUMP JUMPDEST PUSH1 0x0 PUSH1 0x20 DUP3 DUP5 SUB SLT ISZERO PUSH2 0x3354 JUMPI PUSH1 0x0 DUP1 REVERT JUMPDEST DUP2 MLOAD PUSH2 0x16C1 DUP2 PUSH2 0x28F0 JUMP JUMPDEST PUSH4 0x4E487B71 PUSH1 0xE0 SHL PUSH1 0x0 MSTORE PUSH1 0x21 PUSH1 0x4 MSTORE PUSH1 0x24 PUSH1 0x0 REVERT INVALID LOG2 PUSH5 0x6970667358 0x22 SLT KECCAK256 PUSH3 0xB1A5ED CALLDATALOAD 0x4F 0xD8 0x4D 0x24 0xED 0x27 KECCAK256 0xAA PUSH29 0x6FEA39CFAFDC72D2265D1353A0534DDAB41764736F6C634300080D0033 ",
  "sha1": "b37883de159f3d69f153b41726b9576bf2678b42",
  "source": "// SPDX-License-Identifier: MIT\n\npragma solidity ^0.8.0;\n\n// import \"@openzepplin/contracts/token/ERC721/IERC721.sol\";\nimport \"@openzeppelin/contracts/token/ERC721/ERC721.sol\";\n// import \"OpenZeppelin/openzeppelin-contracts@4.9.0/contracts/access/Ownable.sol\";\nimport \"@openzeppelin/contracts/access/Ownable.sol\";\nimport \"./EvmMetatransactionVerifier.sol\";\nimport \"./DualSpaceGeneral.sol\";\nimport \"./DualSpaceNFTEvm.sol\";\nimport \"../interfaces/ICrossSpaceCall.sol\";\n\n// deployment\n// firstly core side contract\n// then deploy espace contract with core side contract mapping address (bind from espace->core)\n// finally bind from core (bind from core->espace)\ncontract DualSpaceNFTCore is\n    DualSpaceGeneral,\n    Ownable,\n    EvmMetatransactionVerifier\n{\n    bytes20 _evmContractAddress;\n    // only for debug\n    // DualSpaceNFTEvm evmContractForDebug;\n    CrossSpaceCall _crossSpaceCall;\n    uint _defaultOracleBlockLife;\n\n    struct MintOracleSetting {\n        address signer;\n        uint expiration;\n    }\n\n    struct Signature {\n        uint8 v;\n        bytes32 r;\n        bytes32 s;\n    }\n\n    // 20230523 => address\n    // mint oracle is a centralized server to prove the user owns the Github token\n    mapping(uint128 => MintOracleSetting) _mintOracleSignerSetting;\n    // batchNbr => usernameHash => rarityCouldMint\n    mapping(uint128 => mapping(bytes32 => uint8)) _authorizedRarityMintPermission;\n\n    mapping(uint128 => uint16) _batchInternalIdCounter;\n\n    constructor(\n        string memory name_,\n        string memory symbol_,\n        address crossSpaceCallAddress,\n        uint256 eSpaceChainId\n    ) ERC721(name_, symbol_) EvmMetatransactionVerifier(name_, \"v1\", eSpaceChainId) Ownable() {\n        // _crossSpaceCall = CrossSpaceCall(0x0888000000000000000000000000000000000006);\n        _crossSpaceCall = CrossSpaceCall(crossSpaceCallAddress);\n        _defaultOracleBlockLife = 30 days * 2; // 30 days, 2 block per second\n    }\n\n    function setEvmContractAddress(\n        bytes20 evmContractAddress_\n    ) public onlyOwner {\n        require(\n            _evmContractAddress == bytes20(0),\n            \"setEvmContractAddress should only be invoked once\"\n        );\n        _evmContractAddress = evmContractAddress_;\n        // evmContractForDebug = DualSpaceNFTEvm(address(evmContractAddress_));\n    }\n\n    function startBatch(\n        uint128 batchNbr,\n        address signer,\n        uint8 ratio\n    ) public onlyOwner {\n        require(batchNbr < 99999999, \"invalid batch nbr\");\n        _mintOracleSignerSetting[batchNbr].signer = signer;\n        _mintOracleSignerSetting[batchNbr].expiration =\n            block.number +\n            _defaultOracleBlockLife;\n        _crossSpaceCall.callEVM(\n            _evmContractAddress,\n            abi.encodeWithSignature(\n                \"startBatch(uint128,uint8)\",\n                batchNbr,\n                ratio\n            )\n        );\n        emit BatchStart(block.number, batchNbr, ratio);\n    }\n\n    function _isValidMintOracleSigner(\n        address signer,\n        uint128 batchNbr\n    ) internal view returns (bool) {\n        return\n            signer == _mintOracleSignerSetting[batchNbr].signer &&\n            _mintOracleSignerSetting[batchNbr].expiration > block.number;\n    }\n\n    function batchAuthorizeMintPermission(\n        uint128 batchNbr,\n        string[] memory usernames,\n        uint8[] memory rarities\n    ) public {\n        require(usernames.length == rarities.length, \"username and rariry array must have same length\");\n        // owner or mint oracle\n        if (msg.sender == owner()) {\n            // do nothing\n        } else if (_isValidMintOracleSigner(msg.sender, batchNbr)) {\n            // do nothing\n        } else {\n            revert(\"msg sender is not authorized to set mint permission\");\n        }\n        for (uint256 i = 0; i < usernames.length; i++) {\n            _authorizeMintPermission(batchNbr, usernames[i], rarities[i]);\n        }\n    }\n\n    function _authorizeMintPermission(\n        uint128 batchNbr,\n        string memory username,\n        uint8 rarity\n    ) internal {\n        bytes32 usernameHash = keccak256(abi.encodePacked(username));\n        _authorizedRarityMintPermission[batchNbr][usernameHash] = rarity;\n    }\n\n    // TODO: prevent minting if dual space owner are all set to contract\n    // hashToSign = keccak(batchNbr, usernameHash, ownerCoreAddress, ownerEvmAddress)\n    function mint(\n        uint128 batchNbr,\n        string memory username,\n        address ownerCoreAddress,\n        bytes20 ownerEvmAddress,\n        Signature memory oracleSignature\n    ) public returns (uint256) {\n        require(\n            _mintOracleSignerSetting[batchNbr].expiration > block.number,\n            \"no available mint oracle at present\"\n        );\n        bytes32 usernameHash = keccak256(abi.encodePacked(username));\n\n        // check mint permission\n        uint8 rarity = _authorizedRarityMintPermission[batchNbr][usernameHash];\n        require(rarity != 0, \"no permission to mint\");\n        delete _authorizedRarityMintPermission[batchNbr][usernameHash];\n\n        require(\n            ecrecover(\n                // hash to sign. cannot be replayed, or replay will not bring benefit\n                keccak256(\n                    abi.encodePacked(\n                        batchNbr,\n                        usernameHash,\n                        ownerCoreAddress,\n                        ownerEvmAddress\n                    )\n                ),\n                oracleSignature.v,\n                oracleSignature.r,\n                oracleSignature.s\n            ) == _mintOracleSignerSetting[batchNbr].signer,\n            \"should be signed by signer\"\n        );\n\n        _batchInternalIdCounter[batchNbr] += 1;\n        uint256 tokenId = _nextTokenId(\n            batchNbr,\n            rarity,\n            _batchInternalIdCounter[batchNbr]\n        );\n        // if mint to zero, mint to self\n        if (ownerCoreAddress == address(0)) {\n            ownerCoreAddress = address(this);\n        }\n        if (ownerEvmAddress == bytes20(0)) {\n            ownerEvmAddress = _evmContractAddress;\n        }\n        if (ownerCoreAddress == address(this) && ownerEvmAddress == _evmContractAddress) {\n            revert(\"cannot clear both space owner when minting\");\n        }\n        // update transferable state\n        if (ownerCoreAddress == address(this)) {\n            _crossSpaceCall.callEVM(\n                _evmContractAddress,\n                abi.encodeWithSignature(\n                    \"setTransferableTable(uint256,bool)\",\n                    tokenId,\n                    true\n                )\n            );\n        }\n        _crossSpaceCall.callEVM(\n            _evmContractAddress,\n            abi.encodeWithSignature(\n                \"mint(bytes20,uint256)\",\n                ownerEvmAddress,\n                tokenId\n            )\n        );\n        _mint(ownerCoreAddress, tokenId);\n        return tokenId;\n    }\n\n    function getPrivilegeExpiration(\n        uint256 tokenId\n    ) public view override returns (uint256 exp) {\n        return\n            uint256(\n                bytes32(\n                    _crossSpaceCall.staticCallEVM(\n                        _evmContractAddress,\n                        abi.encodeWithSignature(\n                            \"getPrivilegeExpiration(uint256)\",\n                            tokenId\n                        )\n                    )\n                )\n            );\n    }\n\n    function _isCoreTransferable(uint256 tokenId) internal view returns (bool) {\n        bytes20 currentEvmOwner = evmOwnerOf(tokenId);\n        return currentEvmOwner == _evmContractAddress;\n    }\n\n    function evmOwnerOf(uint256 tokenId) public view returns (bytes20) {\n        bytes20 currentEvmOwner = bytes20(\n            uint160(\n                uint256(\n                    bytes32(\n                        _crossSpaceCall.staticCallEVM(\n                            _evmContractAddress,\n                            abi.encodeWithSignature(\"ownerOf(uint256)\", tokenId)\n                        )\n                    )\n                )\n            )\n        );\n        return currentEvmOwner;\n    }\n\n    modifier onlyTokenOwner(uint256 tokenId) {\n        require(\n            msg.sender == ownerOf(tokenId),\n            \"caller is not core token owner\"\n        );\n        _;\n    }\n\n    function clearEvmOwner(uint256 tokenId) public onlyTokenOwner(tokenId) {\n        _setEvmOwner(tokenId, _evmContractAddress);\n    }\n\n    // only core owner can set evm owner\n    function setEvmOwner(\n        uint256 tokenId,\n        bytes20 ownerEvmAddress\n    ) public onlyTokenOwner(tokenId) {\n        _setEvmOwner(tokenId, ownerEvmAddress);\n    }\n\n    function _setEvmOwner(uint256 tokenId, bytes20 ownerEvmAddress) internal {\n        _crossSpaceCall.callEVM(\n            _evmContractAddress,\n            abi.encodeWithSignature(\n                \"setEvmOwner(uint256,bytes20)\",\n                tokenId,\n                ownerEvmAddress\n            )\n        );\n        // evmContractForDebug.setEvmOwner(ownerEvmAddress, tokenId);\n    }\n\n    function clearCoreOwner(\n        bytes20 evmSigner,\n        uint256 tokenId,\n        bytes memory signatureFromEvmSigner\n    ) public {\n        setCoreOwner(evmSigner, tokenId, address(this), signatureFromEvmSigner);\n    }\n\n    function setCoreOwner(\n        bytes20 evmSigner,\n        uint256 tokenId,\n        address newCoreOwner,\n        bytes memory signatureFromEvmSigner\n    ) public {\n        _recoverWithNonceChange(\n            signatureFromEvmSigner,\n            evmSigner,\n            tokenId,\n            newCoreOwner\n        );\n        require(\n            evmSigner == evmOwnerOf(tokenId),\n            \"do not have permission to set core owner\"\n        );\n        _transfer(ownerOf(tokenId), newCoreOwner, tokenId);\n    }\n\n    function safeTransferFrom(\n        address from,\n        address to,\n        uint256 tokenId\n    ) public override {\n        if (to != address(this)) {\n            require(\n                _isCoreTransferable(tokenId),\n                \"This token is not transferable because its evm space owner is set. Clear evm space owner and try again\"\n            );\n        }\n        super.safeTransferFrom(from, to, tokenId);\n    }\n\n    function _transfer(\n        address from,\n        address to,\n        uint256 tokenId\n    ) internal override {\n        if (from == address(this) && from != to) {\n            _crossSpaceCall.callEVM(\n                _evmContractAddress,\n                abi.encodeWithSignature(\n                    \"setTransferableTable(uint256,bool)\",\n                    tokenId,\n                    false\n                )\n            );\n        }\n        if (to == address(this)) {\n            _crossSpaceCall.callEVM(\n                _evmContractAddress,\n                abi.encodeWithSignature(\n                    \"setTransferableTable(uint256,bool)\",\n                    tokenId,\n                    true\n                )\n            );\n        }\n        super._transfer(from, to, tokenId);\n    }\n}\n",
  "sourcePath": "contracts/DualSpaceNFTCore.sol",
  "type": "contract"
}